:100000000C9486090C94B3980C94E4980C9415996C
:100010000C9446990C9477990C94A8990C94D999BE
:100020000C940A9A0C94B7090C94B7090C94B7096C
:100030000C94B7090C94B7090C94B7090C94B70940
:100040000C94B7090C94B7090C94B7090C94B70930
:100050000C94B7090C94B7090C94B7090C943B9A0B
:100060000C94B7090C94889E0C94BE9E0C94B7090E
:100070000C94B7090C94B7090C94B7090C94B70900
:100080000C94B7090C94B7090C94B7090C94B709F0
:100090000C94B7090C94B7090C94B7090C94506EE2
:1000A0000C94B7090C94B7090C94B7090C94B709D0
:1000B0000C94B7090C94B7090C94B7090C94B709C0
:1000C0000C94B7090C94B7090C94B7090C94B709B0
:1000D0000C94B7090C94B7090C94B7090C94B709A0
:1000E0000C94B70952485248C248A449E1492A4AE7
:1000F000674A214B8D9857985F986B987898999894
:10010000A6988F9B949B999BA39BAD9B269CB79B8A
:10011000BF9BC79BD19BDB9BE59BF49BFE9B269CD7
:10012000089C129C1C9C489C4B9C3A9C3E9C449C6A
:10013000829C4F9C539C599C5D9C619C679C6B9CD2
:100140006F9C829C759C799C7D9C07634236B79B13
:10015000D8A71A39685618AEBAAB558C1D3CB7CC27
:100160005763BD6DEDFD753EF6177231BF0000009F
:10017000803F20497A6B6C6F70206B6F6D70726579
:10018000736F726A612054430020497A6B6C6F7000
:100190002076656E742E206B6F6D707265736F7252
:1001A0006A612054430020566B6C6F702076656E38
:1001B000742E206B6F6D707265736F726A6120545C
:1001C000430020566B6C6F70206B6F6D707265739F
:1001D0006F726A6120544300200020434572000082
:1001E000427574746F6E2070726573736564002D50
:1001F00020002D20002D200052656654656D704250
:100200003030202D2052656654656D7042303120AB
:100210002D2054656D70497A6B6C6F7061202D20B4
:1002200070726576437270544353746174653A20FA
:100230000027002F002700496E69742E204F4B00C5
:10024000005374696B616C613A20004672656520E9
:1002500052414D3A2000467265652052414D0020C2
:1002600020002E002E0020200020525443204F4B0F
:100270000054696D653A004453313330372072655C
:100280006164206572726F722120205072657665FC
:10029000726920706F76657A6176652E00546865A4
:1002A00020445331333037206A652075737461768A
:1002B0006C6A656E2E2050726F73696D206E61736B
:1002C00074617669206361732E00546F6B3A20006D
:1002D000004B6F6E74726F6C65722054433A20004D
:1002E00000434F2120003C003E0035563328457224
:1002F00072293A20003C3C3C2052455100504F535B
:1003000054202F75706461746520485454502F3107
:100310002E310D0A486F73743A2024460D0A436F3C
:100320006E6E656374696F6E3A20636C6F73650DF2
:100330000A582D5448494E47535045414B41504966
:100340004B45593A2024460D0A436F6E74656E740E
:100350002D547970653A206170706C6963617469BD
:100360006F6E2F782D7777772D666F726D2D757282
:100370006C656E636F6465640D0A436F6E74656EC1
:10038000742D4C656E6774683A2024440D0A0D0A7A
:1003900024480043423952493457463239414730A4
:1003A000514631002E2E2E003E3E3E002F696F2F0B
:1003B0003737352F003C3C3C2052455100660074D5
:1003C000002069734C696E6B55703A0064656C610E
:1003D00079636E743A200066616C7365007472759F
:1003E0006500706572736973745F7463705F636FC7
:1003F0006E6E656374696F6E3A200066616C73653A
:1004000000747275650055736520444843503A2066
:1004100000486973706F72743A2000485454502F2A
:10042000312E3020323030204F4B0D0A436F6E7426
:10043000656E742D547970653A20746578742F68F0
:10044000746D6C0D0A507261676D613A206E6F2D8C
:1004500063616368650D0A0D0A3C6D65746120680F
:100460007474702D65717569763D27726566726565
:1004700073682720636F6E74656E743D2735392766
:100480002F3E3C7469746C653E496E666F207365DF
:10049000727665723C2F7469746C653E3C68313EBF
:1004A0002024533C2F68313E3C68333E2054313A7F
:1004B00020245343203C62723E2054323A2024537D
:1004C00043203C62723E2054333A20245343203C64
:1004D00062723E2054343A20245343203C62723EE0
:1004E0002054353A20245343203C62723E20543637
:1004F0003A20245343203C62723E2054373A202451
:100500005343203C62723E2054383A202453432007
:100510003C62723E2054393A20245343203C62729C
:100520003E52483A20245325203C62723E48756D65
:10053000696465783A202453433C62723E434F3AE3
:100540002024443C62723E53746174653A20244412
:100550002444244424442444244424442020203C8F
:100560002F68333E203C62723E002920003B002071
:10057000457728005265537420756E7375632100AA
:1005800047617465776179204950206E6F742066E9
:100590006F756E64200064656C6179636E743A20D7
:1005A000002920003B0020457028002073756365FA
:1005B00073733A2000207375636573733A200020CB
:1005C0007375636573733A20002073756365737385
:1005D0003A2000207375636573733A2000207375A9
:1005E000636573733A200050726576657269207096
:1005F0006F76657A61766F2065746865726E657472
:10060000206D6F64756C6121004574682E206669E9
:100610007277617265207265763A2000000000658D
:1006200072726F7200002900202D20002028002007
:100630002000497A6B6C2E206B6F6D70722E5443C4
:100640003A2000497A6B6C2E2076656E742E5443E6
:100650003A2000497A6B6C2E20637270616C6B6576
:10066000207261642E3A2000497A6B6C2E6372709E
:10067000616C6B652054433A20005A61702E2076DD
:10068000656E74696C613A20002900202D200020DD
:100690002800202000566B6C2E206B6F6D70722E20
:1006A00054433A2000566B6C2E2076656E742E549F
:1006B000433A2000566B6C2E20637270616C6B6540
:1006C000207261642E3A2000566B6C2E206372708B
:1006D000616C6B652054433A20004F64702E207685
:1006E000656E74696C613A200020436F703A200097
:1006F00020446F626C6A656E6F20284D4A293A204B
:10070000002055707261626C6A656E6F20284D57CB
:1007100073293A2000205A61632E20506F72616263
:1007200061206B56413A2000206661637457656909
:1007300067687441766754656D703A20002C20001C
:100740002C2000293D20002C20002C2000204B6F65
:100750006D702E73742E74656D702E202800205AD3
:1007600061646E6A613A200020466163742E7A618A
:10077000632E74656D703A20002C20002C20002917
:100780003D20002C20002C2000204B6F6D702E6F20
:100790006B202800207A61646E6A613A200020464E
:1007A0006163742E6B6F6D702E6F6B2E3A2000207C
:1007B0005A61646E6A613A2000204E6F76613A2079
:1007C00000486974726F737420677265746A613A65
:1007D0002000496E666F202D200073742F68006D15
:1007E000696E2020486974722E673A200020204FDD
:1007F0006E3A00202000497A6B6C6F702054433AA7
:1008000020002900202800202000566B6C6F7020EB
:1008100054433A2000200000002941002F00280006
:10082000204928313256293A0029002F002028007B
:100830004120434F3A0020004F4646004547004BB9
:10084000005600200025004320200020002000202A
:10085000002000205344204F4B005344204361723A
:10086000643A004F4B00456E636F6465723A0078DE
:100870005878587858785800785878587858785870
:100880000020002E002E005A61646E6A652070728E
:100890006567726576616E6A653A2000546920006A
:1008A000547620004F4646004547004B0041005417
:1008B0006F6B3A0020434F3A004F464600454700D1
:1008C0004B0020003A2000430025200043205248DE
:1008D0003A002E002E005365207072696465003066
:1008E000003000204C4344204F4B002D003A005470
:1008F000002D002F002F00290028002F002900289C
:10090000003A0054002D0050726567726576616E82
:100910006A65204F4B00290028003A00540020004F
:1009200030002000200020440000204B2D747970FE
:10093000652073656E7A6F72003A003000542000B3
:100940002044485432322073656E7A6F72003A0048
:1009500030005420004E6170616B61204448543275
:10096000322073656E7A6F726A612121004E617068
:10097000616B612044485432322073656E7A6F7225
:100980006A6121210020003A003000542000537495
:100990006576696C6F2073656E7A6F726A65760032
:1009A00053746576696C6F2074656D702E20736565
:1009B0006E7A6F726A6576207365206E6520756A3F
:1009C000656D612121000020002064657669636502
:1009D000732E000029002F00280020426174742B20
:1009E0003A0029002F002800203356333A0029000E
:1009F0002F002800203556333A0029002F00280008
:100A0000203556323A0029002F0028002031325676
:100A10003A0029002F002035496E3A0028457272AD
:100A20002920002035496E3A0056202D003A003A20
:100A3000002D004D696E2E2D6D61783A002000204A
:100A4000003A20002020004164647265733A00205F
:100A5000003A20002020004164647265733A00006F
:100A6000202F20006661637457656967687441765A
:100A70006754656D703A200043206A6520004B6F13
:100A80006D70656E7A2E207A616365746E65207470
:100A9000656D702E207072692074656D702E200057
:100AA00000202F20004B6F6D702E73742E3A2000A3
:100AB00043206A6520004B6F6D70656E7A2E20743E
:100AC000656D702E206F6B6F6C6963652070726945
:100AD0002074656D702E200000202F20004B6F6D5C
:100AE000702E6F6B2E3A20004B2F6800202F2000B5
:100AF0004869722E20677265743A20002020002E0B
:100B0000002E00204E61736C65646E6A6520707201
:100B10006567726576616E6A653A20002020002E56
:100B2000002E005A61646E6A652070726567726596
:100B300076616E6A653A200022707265765443537E
:100B40007461746522206E61737461766C6A656E7F
:100B50006F206E6120002020002E002E004C61735B
:100B600074205443206368673A200073004F6E542A
:100B7000696D653A20002020002E002E0020204EB6
:100B800061736C65646E6A65207072656772657604
:100B9000616E6A653A20002020002E002E005A6106
:100BA000646E6A652070726567726576616E6A65EB
:100BB0003A2000004F4646004547004B00560020B3
:100BC0002D3E200066007400204C553A00206463DE
:100BD0006E743A00294120002F0028002049283156
:100BE0003276293A00200029002F002800292043CE
:100BF0004F3A002D002D3E002D0020280020546982
:100C000020002054763A004F6E2074696D653A20BA
:100C10000029200041280020546F6B3A2000006D0D
:100C2000732000293A2000204176672E70696E6794
:100C30002074696D65286E3D002D004D696E2D4D47
:100C40006178286C6173742068293A20006D7320E4
:100C500000293A2000204176672E6379636C655441
:100C6000696D65286E3D000029003E0028003A00AD
:100C700020524861000056200050200029003E000C
:100C800028003A0020546100002050200020452018
:100C90000020002000200000204E6F76613A0020E6
:100CA0004661637457656967687441766754656D1A
:100CB000703A0020436F703A200020496E666F2022
:100CC00064656C7461546853743A200020496E6600
:100CD0006F2064656C746154684F6B3A2000204942
:100CE0006E666F2064656C746154683A2000206BF6
:100CF0006F6D702E73743A2000204E6F7661206BFA
:100D00006F6D702E6F6B3A200020746B6F6D705397
:100D1000743A200020746B6F6D70303A200020729E
:100D2000756E2074696D652868293A200020746505
:100D30006D70206F6B6F6C6963652073743A20006F
:100D400020496E666F2063616C2E28737461727423
:100D500054656D70293A2000204C6173743A00206C
:100D60004B6F6D702E73743A00204C6173743A00AF
:100D7000204B6F6D702E6F6B3A00204C6173743A8C
:100D80000020482E677265743A00496E666F202D08
:100D9000200000564168006B56416800200020206A
:100DA0000000436173206A65206E61737461766C24
:100DB0006A656E003E200020002000203C445465FF
:100DC0006D703A200020497A6B6C6F7020637270EE
:100DD000616C6B652054430020566B6C6F70206310
:100DE0007270616C6B6520544300205A61706972A7
:100DF000616D2076656E74696C002000204F647010
:100E00006972616D2076656E74696C200020000047
:100E100020497A6B6F6C70206372702E207261644F
:100E20006961746F7200200020566B6C6F702063D4
:100E300072702E207261646961746F7200200045C7
:100E4000727245705265427520004572724570722B
:100E5000526542754C650045727245705265427527
:100E600020002000200045727245705772427920A0
:100E70000045727245705772506720003A206E69C3
:100E800020445331387832302066616D696C7920A6
:100E90006465766963652E003A20445331383232F6
:100EA000003A2044533138423230003A2044533122
:100EB000385332300054656D702E2073656E736F39
:100EC00072200053746576696C6F204453207365FB
:100ED0006E6F73726A657621210053746576696C52
:100EE0006F2044532073656E6F73726A657621219B
:100EF000006170692E7468696E67737065616B2E2E
:100F0000636F6D007777772E6465766963656875C2
:100F1000622E6E657400005EBCE2613FDD83C29CA0
:100F20007E20A3FD1F419DC3217FFCA2401E5F01C7
:100F3000E3BD3E6082DC237D9FC1421CFEA0E1BF79
:100F40005D0380DE3C62BEE0025CDF81633D7C22AB
:100F5000C09E1D43A1FF4618FAA427799BC584DAD9
:100F60003866E5BB5907DB856739BAE40658194787
:100F7000A5FB7826C49A653BD987045AB8E6A7F939
:100F80001B45C6987A24F8A6441A99C7257B3A646B
:100F900086D85B05E7B98CD2306EEDB3510F4E1099
:100FA000F2AC2F7193CD114FADF3702ECC92D38D47
:100FB0006F31B2EC0E50AFF1134DCE90722C6D33F9
:100FC000D18F0C52B0EE326C8ED0530DEFB1F0AE2B
:100FD0004C1291CF2D73CA947628ABF51749085659
:100FE000B4EA6937D58B5709EBB536688AD495CB07
:100FF0002977F4AA4816E9B7550B88D6346A2B75B9
:1010000097C94A14F6A8742AC896154BA9F7B6E8EA
:101010000A54D7896B357C3C3E5E2B3D3F2F5B5D90
:101020003B2C2A225C00504F535420244620485425
:1010300054502F312E300D0A486F73743A202446D5
:101040000D0A244624534163636570743A202A2FA5
:101050002A0D0A436F6E74656E742D4C656E67744D
:10106000683A2024440D0A436F6E74656E742D54E3
:101070007970653A206170706C69636174696F6E34
:101080002F782D7777772D666F726D2D75726C6561
:101090006E636F6465640D0A0D0A245300004745B2
:1010A00054202446245320485454502F312E300DC0
:1010B0000A486F73743A2024460D0A24460D0A0D1F
:1010C0000A004163636570743A20746578742F6810
:1010D000746D6C0045000082000040002000010893
:1010E000000604000100000A0B02090C0D0E08079F
:1010F00003040100000000000000000000000000E8
:1011000000000000000000000000000000000000DF
:10111000001211100000000000000000000000009C
:10112000000000000000000000000001021020206C
:10113000080810204010204080020102010804022B
:1011400001010204081020408080402010080402A1
:1011500001800402018040201008040201080402FA
:101160000101020408102040800102040810204000
:101170008005050505070508080808020202020A9D
:101180000A0808040404040101010101010101032A
:1011900003030303030303040707070C0C0C0C0CE5
:1011A0000C0C0C0202020206060606060606060BD8
:1011B0000B0B0B0B0B0B0B00002000230026002950
:1011C000002C002F0032000001000003010601097D
:1011D0000100002200250028002B002E00310034E1
:1011E0000002010000050108010B0100002100249C
:1011F0000027002A002D0030003300010100000408
:101200000107010A0100407A10F35A00A0724E183B
:10121000090010A5D4E80000E87648170000E40BA8
:1012200054020000CA9A3B000000E1F5050000806E
:10123000969800000040420F000000A086010000C8
:1012400000102700000000E8030000000064000018
:101250000000000A00000000000100000000002C57
:1012600076D888DC674F0823DFC1DFAE59E1B1B71C
:1012700096E5E3E453C63AE651997696E8E6C284E9
:1012800026EB898C9B62ED407C6FFCEFBC9C9F4001
:10129000F2BAA56FA5F490055A2AF75C936B6CF926
:1012A000676DC11BFCE0E40D47FEF520E6B500D0FC
:1012B000ED902E0300943577050080841E08000011
:1012C000204E0A000000C80C333333330F986E12DF
:1012D000831141EF8D2114893BE65516CFFEE6DBE5
:1012E00018D1844B381BF77C1D901DA4BBE424202F
:1012F0003284725E228100C9F124ECA1E53D270011
:101300001E3E6F6D906F42735476F09E11241FBE87
:10131000CFEFD1E2DEBFCDBF00E00CBF16E0A0E012
:10132000B2E0E6E0FAE501E00BBF02C007900D92E3
:10133000A63FB107D9F721E1A6EFB6E001C01D92A3
:10134000A633B207E1F713E1CCE0D3E100E006C039
:1013500022970109FE010BBF0E94DEA5C030D10714
:1013600080E00807A9F70E94349F0C9401AD0C940B
:101370000000DC011696ED91FC9117979F012F5FFD
:101380003F4F17963C932E931697608381E090E031
:1013900008950E944F8B81E090E008958091320A79
:1013A000882331F061E070E080E090E00E94B49A20
:1013B00083E00E94F19C4091330A242F30E0821791
:1013C0009307A9F081E084278093330A882369F08A
:1013D0008091340A811109C08091350A9091360AB2
:1013E00001979093360A8093350A1092320A089535
:1013F0008091320A882331F061E070E080E090E073
:101400000E94B49A82E00E94F19C4091340A242FF9
:1014100030E082179307A9F081E084278093340A93
:10142000882369F08091330A811109C08091350ABF
:101430009091360A01969093360A8093350A10925D
:10144000320A0895BC0189EF93E00C944296CF9341
:10145000DF93EB018091C4038823C9F068EA73E04D
:1014600085E990E10E947E9FBE016F59784FFB0194
:10147000E45DFE4F108285E990E10E94A39F64EA3B
:1014800073E085E990E1DF91CF910C947E9FDF912D
:10149000CF9108958F929F92AF92BF92CF92DF9299
:1014A000EF92FF920F931F93CF93DF93CDB7DEB7E9
:1014B0002C970FB6F894DEBF0FBECDBF5C018CEF4A
:1014C0009AE00E94BE67B501E3E0660F771FEA95D8
:1014D000E1F7645C754F8CEF9AE00E94B76840E0DA
:1014E0006EEB8CEF9AE00E945B684E018AE0880EFA
:1014F000911CFE0131967F0100E010E08CEF9AE034
:101500000E949C68F70181937F01811102C00F5FE7
:101510001F4FE814F90491F768E0CE0101960E948C
:10152000A4699985891711F0085F1F4F6A8170E0DF
:10153000762F66278981682BF501E552F44F80816B
:10154000882391F043E0660F771F4A95E1F788857D
:101550008031F1F4CB01807F2F816CE070E0621B61
:101560007109680F791F14C08D81807631F433E0E2
:10157000660F771F3A95E1F70BC0803229F4660FAA
:10158000771F660F771F04C0803411F4660F771F32
:1015900080E090E00E942AA320E030E040E85DE394
:1015A0000E9475A46B017C0120E030E04AE754E41E
:1015B0000E9401A4181624F0083011050CF442C052
:1015C00069E279E085E990E10E94AE9F66E279E008
:1015D00085E990E10E947E9FB5016F5F7F4F4AE0F1
:1015E00050E085E990E10E946CA0CE0101965C017B
:1015F00064E279E085E990E10E947E9FF5016191C6
:101600005F0140E150E085E990E10E9495A0A814B7
:10161000B90471F762E279E085E990E10E947E9F6A
:1016200022E030E0B701A60185E990E10E94A0A187
:10163000083011053CF0C12C80E4D82E8AE7E82E52
:1016400084E4F82EC701B6012C960FB6F894DEBFDD
:101650000FBECDBFDF91CF911F910F91FF90EF9003
:10166000DF90CF90BF90AF909F908F900895CF93D1
:10167000DF93EC0161111BC08CEF9AE00E94BE6702
:10168000C930D10539F440E06CEC8CEF9AE00E944F
:101690005B6810C0BE01F3E0660F771FFA95E1F7B3
:1016A000645C754F8CEF9AE00E94B76803C0DF91CD
:1016B000CF91F0CE40E064E48CEF9AE00E945B684A
:1016C00060E070E48AE794ECDF91CF910895AF92E7
:1016D000BF92CF92DF92EF92FF920F931F93CF931F
:1016E000DF93EC016A017B01CB01BA010E94B66A6B
:1016F000B82EA92EC701B6010E94B16A182F092F72
:10170000C701B6010E94AC6AAF92BF920F931F93BC
:101710009F938F9329E034E03F932F93DF93CF93F0
:101720000E94D2A78DB79EB70A960FB6F8949EBFB7
:101730000FBE8DBFDF91CF911F910F91FF90EF9062
:10174000DF90CF90BF90AF900895DC01ED91FC91B8
:101750000190F081E02D1994CF92DF92EF92FF92E9
:10176000CF93DF93EC010E94859A6B017C010E946C
:10177000859A6C197D098E099F0965367105810569
:10178000910558F4BE018FE39CE00E945A6D8FE3EF
:101790009CE00E946D6D8111EACFDF91CF91FF90A7
:1017A000EF90DF90CF900895CF92DF92EF92FF926B
:1017B0000F931F93CF93DF93EC016A017B012223E8
:1017C00049F0DF91CF911F910F91FF90EF90DF9043
:1017D000CF907DCFCB01BA010E94B16A182F092F9B
:1017E000C701B6010E94AC6A0F931F939F938F931A
:1017F0002DE834E03F932F93DF93CF930E94D2A73D
:101800008DB79EB708960FB6F8949EBF0FBE8DBFDA
:10181000DF91CF911F910F91FF90EF90DF90CF90CC
:1018200008950E945A6C019731F00E945A6C0797F4
:1018300011F080E0089581E008958F929F92AF9219
:10184000BF92CF92DF92EF92FF924B015C01690150
:101850007A0120E030E0A901C701B6010E9401A48D
:1018600018165CF427E137EB41ED58E3C701B601E8
:101870000E945CA287FF0BC011C027E137EB41ED4E
:1018800058EBC701B6010E9401A418163CF0A7014D
:101890009601C501B4010E9460A203C060E070E03F
:1018A000CB01FF90EF90DF90CF90BF90AF909F90D3
:1018B0008F90089520E030E040EA51E40E94F7A1C3
:1018C00020E030E040EA51E40E9460A220910F0C39
:1018D0003091100C4091110C5091120C0E9475A483
:1018E00020E030E040E85FE30C94F8A108959B010C
:1018F000AC010E9475A49B01AC0160E070E081E640
:1019000095E40E94F7A120E030E041E655E40E9412
:1019100060A220910B0C30910C0C40910D0C509159
:101920000E0C0E9475A420E030E040E85FE30C94C8
:10193000F8A108958F929F92AF92BF92CF92DF92BB
:10194000EF92FF926091610B7091620B8091630B3B
:101950009091640BAFDF6B017C018090790B9090CC
:101960007A0BA0907B0BB0907C0BC501B401BFDF5C
:101970009B01AC01C701B6010E9475A46B017C01FB
:101980006091650B7091660B8091670B9091680B6D
:101990000E942AA320E030E041E655E40E9460A2C4
:1019A0009B01AC01C701B6010E9475A46B017C01CB
:1019B00020E030E0A9010E9401A418165CF42FE693
:1019C00032E143E85AE3C701B6010E945CA287FFF7
:1019D00014C00AC02FE632E143E85AEBC701B60152
:1019E0000E9401A418164CF46091130C7091140C11
:1019F0008091150C9091160C10C0A5019401609176
:101A0000E80B7091E90B8091EA0B9091EB0B0E942F
:101A1000F7A1A70196010E9460A2FF90EF90DF90CE
:101A2000CF90BF90AF909F908F9008954F925F920C
:101A30006F927F928F929F92AF92BF92CF92DF92DE
:101A4000EF92FF92CF93DF9300D01F92CDB7DEB716
:101A50008091D80A882309F4C0C06091650B709109
:101A6000660B8091670B9091680B0E942AA320E07F
:101A700030E041E655E40E9460A22091130C3091C1
:101A8000140C4091150C5091160C0E9475A46B011A
:101A90007C014090790B50907A0B60907B0B70909A
:101AA0007C0BC301B20123DF9B01AC01C701B6016E
:101AB0000E9475A44B015C018091E80B9091E90BA9
:101AC000A091EA0BB091EB0B89839A83AB83BC8323
:101AD00020E030E040EA51E46091610B7091620BCC
:101AE0008091630B9091640B0E94F7A19B01AC0164
:101AF000C501B4010E9475A46B017C0120E030E0B7
:101B0000A9010E9401A418165CF427E137EB41ED0E
:101B100058E3C701B6010E945CA287FF14C00AC047
:101B200027E137EB41ED58EBC701B6010E9401A454
:101B300018164CF4C0900F0CD090100CE090110CC3
:101B4000F090120C4EC0A301920169817A818B81C1
:101B50009C810E94F7A1A50194010E94F7A120E0B9
:101B600030E040EA51E40E9475A4A70196010E946A
:101B700060A24B015C0120E030E0A9010E9401A4B9
:101B800018165CF5C0900F0CD090100CE090110C62
:101B9000F090120C20E030E040E05FE3C701B601B6
:101BA0000E9401A41816B4F420912203309123035B
:101BB0004091240350912503C701B6010E9475A4EA
:101BC0006B017C019B01AC01B401C5010E9401A421
:101BD00018163CF06401750104C0C12CD12CE12C15
:101BE000F12CB601C7010F900F900F900F90DF916D
:101BF000CF91FF90EF90DF90CF90BF90AF909F90EC
:101C00008F907F906F905F904F9008954F925F926A
:101C10006F927F928F929F92AF92BF92CF92DF92FC
:101C2000EF92FF92CF93DF93CDB7DEB728970FB631
:101C3000F894DEBF0FBECDBF8090790B90907A0BE9
:101C4000A0907B0BB0907C0BA5019401C501B40161
:101C50000E9475A46B017C018091E80B9091E90BC7
:101C6000A091EA0BB091EB0B8D839E83AF83B88775
:101C70006091650B7091660B8091670B9091680B7A
:101C80000E942AA320E030E041E655E40E9460A2D1
:101C90002091130C3091140C4091150C5091160C9E
:101CA0000E9475A42B013C016091610B7091620B45
:101CB0008091630B9091640BFDDD69837A838B8344
:101CC0009C83A701960160E070E081E695E40E94A4
:101CD000F7A19B01AC01C301B2010E9475A4298147
:101CE0003A814B815C810E9475A46B017C0120E0EC
:101CF00030E0A9010E9401A418165CF427E137EB3B
:101D000041ED58E3C701B6010E945CA287FF14C0F1
:101D10000AC027E137EB41ED58EBC701B6010E943D
:101D200001A418164CF4C0900B0CD0900C0CE09051
:101D30000D0CF0900E0C55C0A50194016D817E81B3
:101D40008F8198850E94F7A14B015C0129813A811E
:101D50004B815C81C301B2010E9475A49B01AC015F
:101D6000C501B4010E94F7A120E030E041E655E44E
:101D70000E9475A4A70196010E9460A24B015C011C
:101D800020E030E0A9010E9401A4181644F5C0909B
:101D90000B0CD0900C0CE0900D0CF0900E0C2DEC78
:101DA0003CEC4CE45EE3C701B6010E9401A41816A6
:101DB000B4F42091220330912303409124035091E5
:101DC0002503C701B6010E9475A46B017C019B012C
:101DD000AC01B401C5010E9401A4181614F06401FD
:101DE0007501B601C70128960FB6F894DEBF0FBE85
:101DF000CDBFDF91CF91FF90EF90DF90CF90BF905C
:101E0000AF909F908F907F906F905F904F900895CC
:101E10008F929F92AF92BF92CF92DF92EF92FF92FA
:101E20002091790B30917A0B40917B0B50917C0B78
:101E30006091E80B7091E90B8091EA0B9091EB0BAC
:101E40000E94F7A120E037ED4BE659E40E9475A40B
:101E50004B015C016093550B7093560B8093570BAD
:101E60009093580B2091590B30915A0B40915B0B7A
:101E700050915C0B60915D0B70915E0B80915F0BDC
:101E80009091600B0E94F7A120E030E041E655E41C
:101E90000E9475A46B017C016093510B7093520BEF
:101EA0008093530B9093540B20E030E0A9010E94E3
:101EB00001A418163CF4A7019601C501B4010E94C3
:101EC00060A203C060E070E0CB01FF90EF90DF9074
:101ED000CF90BF90AF909F908F9008958F929F92D8
:101EE000AF92BF92CF92DF92EF92FF92CF93C82F23
:101EF00020914C0330914D0340914E0350914F037C
:101F00006091FC0B7091FD0B8091FE0B9091FF0B8B
:101F10000E945CA287FD7EC0C090E80BD090E90BC8
:101F2000E090EA0BF090EB0BA70196016091D40AC8
:101F30007091D50A8091D60A9091D70A0E94F7A194
:101F40009B01AC010E9475A44B015C01A7019601A5
:101F50006091D00A7091D10A8091D20A9091D30AEF
:101F60000E94F7A19B01AC010E9475A49B01AC01EA
:101F7000C501B4010E94F8A10E94DCA46B017C01A0
:101F8000CC23E1F16BEB7DE085E990E10E947E9F3F
:101F900022E030E0B701A60185E990E10E94A0A10E
:101FA00069EB7DE085E990E10E947E9F4091D40A33
:101FB0005091D50A6091D60A7091D70A22E030E09C
:101FC00085E990E10E94A0A167EB7DE085E990E1C1
:101FD0000E947E9F4091D00A5091D10A6091D20A0E
:101FE0007091D30A22E030E085E990E10E94A0A13F
:101FF00064EB7DE085E990E10E947E9F2DEC3CEC56
:102000004CEC5DE3C701B6010E945CA2881F8827E3
:10201000881F01C080E0CF91FF90EF90DF90CF90BC
:10202000BF90AF909F908F900895CF92DF92EF92E4
:10203000FF92C090950BD090960BE090970BF0908C
:10204000980B0E94B86B6C197D098E099F0921E0DD
:10205000693077408105910508F420E0822FFF90D8
:10206000EF90DF90CF9008952F923F924F925F9222
:102070006F927F928F929F92AF92BF92CF92DF9298
:10208000EF92FF920F931F93CF93DF931C016A018E
:102090007B010E94486C00915203109153038017FA
:1020A0009107D4F40E94486CEC01B801882777FDB1
:1020B0008095982F0E942CA32B013C01BE018827FC
:1020C00077FD8095982F0E942CA39B01AC01C30142
:1020D000B2010E94F7A14DC00E94486CBC01882744
:1020E00077FD8095982F0E942CA320E030E040ECF3
:1020F00051E40E94F7A120E030E0A9010E9401A470
:10210000181694F40E94486CBC01882777FD8095CE
:10211000982F0E942CA320E030E040EC51E40E9474
:10212000F7A12B013C0115C00E94486CBC01882717
:1021300077FD8095982F0E942CA320E030E040ECA2
:1021400051E40E94F7A12B013C0177FA709477F8D3
:1021500070946091520370915303882777FD8095A6
:10216000982F0E942CA39B01AC01C301B2010E94D5
:10217000F8A120E030E040E85FE30E94F7A12B01E6
:102180003C018090130C9090140CA090150CB09012
:10219000160C0E944E6CBC01882777FD8095982F05
:1021A0000E942CA320E030E040E752E40E9460A2AD
:1021B0009B01AC0160E070E080E89FE30E94F7A122
:1021C0009B01AC01C301B2010E94F8A19B01AC01CB
:1021D000C501B4010E9475A42B013C016091000C63
:1021E0007091010C8091020C9091030C63DB9B01B8
:1021F000AC01C301B2010E9475A42B013C016091A6
:10220000E80B7091E90B8091EA0B9091EB0B6FDB7F
:102210009B01AC01C301B2010E9475A49B01AC01FA
:10222000B601C7010E94F7A18B01D82FC92F211435
:10223000310409F040C040907803509079036090D9
:102240007A0370907B0320E030E040E05FE3609130
:10225000130C7091140C8091150C9091160C0E9427
:1022600075A44B015C019B01AC01B8018D2F9C2F23
:102270000E94F8A18B01D82FC92F9B01482F592FFD
:10228000B201C3010E9401A418161CF48201D62DCC
:10229000C72DA5019401B601C7010E94F7A16B01EA
:1022A0007C019B01AC01B8018D2F9C2F0E945CA288
:1022B00087FF44C046C02A94232809F042C04090BA
:1022C0007C0350907D0360907E0370907F0320918B
:1022D00078033091790340917A0350917B03C301D5
:1022E000B2010E94F8A14B015C01A3019201B80167
:1022F0008D2F9C2F0E94F8A12091130C3091140C6B
:102300004091150C5091160C0E94F8A18B01D82F0A
:10231000C92F9B01482F592FB401C5010E9401A468
:1023200018161CF48401DA2DCB2D98014D2F5C2F4B
:10233000B601C7010E945CA287FF03C08601DE2DA3
:10234000CF2DB8018D2F9C2FDF91CF911F910F9131
:10235000FF90EF90DF90CF90BF90AF909F908F90C5
:102360007F906F905F904F903F902F9008958F9245
:102370009F92AF92BF92CF92DF92EF92FF920F9314
:102380001F93CF93DF936091540370915503882777
:1023900077FD8095982F0E942CA36B017C016091A2
:1023A000500370915103882777FD8095982F0E94E4
:1023B0002CA320E030E040E752E40E9460A29B01A1
:1023C000AC01C701B6010E94F7A16B017C010E941C
:1023D000486CBC01882777FD8095982F0E942CA31C
:1023E000A70196010E945CA287FF11C020917C0387
:1023F00030917D0340917E0350917F036091820371
:1024000070918303809184039091850356C00E944C
:10241000486C8C010E944E6CEC01B801882777FD56
:102420008095982F0E942CA34B015C01BE01882748
:1024300077FD8095982F0E942CA320E030E040E7A4
:1024400052E40E9460A29B01AC01C501B4010E944C
:10245000F8A1A70196010E94F7A14B015C016091D0
:10246000540370915503882777FD8095982F0E941B
:102470002CA3A70196010E94F7A19B01AC01C50105
:10248000B4010E9460A29B01AC0160E070E080E8B2
:102490009FE30E94F7A120917C0330917D0340913E
:1024A0007E0350917F030E9475A420918203309196
:1024B000830340918403509185030E94F8A1DF912A
:1024C000CF911F910F91FF90EF90DF90CF90BF9031
:1024D000AF909F908F9008954F925F926F927F92EE
:1024E0008F929F92AF92BF92CF92DF92EF92FF9224
:1024F000CF93C0907C03D0907D03E0907E03F0905A
:102500007F036091090370910A0380E090E00E94CC
:102510002AA34B015C016091CF0B7091D00B80918D
:10252000D10B9091D20BA501940187D92B013C01CD
:102530006091CB0B7091CC0B8091CD0B9091CE0B19
:10254000A50194017AD94B015C0120E030E040E81C
:1025500050E4C701B6010E9475A49B01AC01C501FE
:10256000B4010E94F7A19B01AC01C301B2010E941A
:102570005CA287FF1DC0A7019601C701B6010E949A
:10258000F8A12091820330918303409184035091FC
:1025900085030E94F8A19B01AC01C1E0C501B40113
:1025A0000E9401A418160CF0C0E081E08C2701C045
:1025B00081E0CF91FF90EF90DF90CF90BF90AF90F0
:1025C0009F908F907F906F905F904F900895CF92E3
:1025D000DF92EF92FF926B017C0120E030E04AE74E
:1025E00054E40E9401A487FD2DC020E030E04AE7BA
:1025F00054E4C701B6010E9460A26B017C0120E097
:1026000030E048EC52E40E9401A418161CF421E0CA
:1026100030E00FC020E030E040E251E4C701B601F5
:102620000E9401A418161CF422E030E002C023E04E
:1026300030E0B701A60185E990E10E94A0A167E919
:102640007DE024C020E030E048EC52E4C701B60150
:102650000E9401A418161CF421E030E00FC020E015
:1026600030E040E251E4C701B6010E9401A418160F
:102670001CF422E030E002C023E030E0B701A60104
:1026800085E990E10E94A0A163E97DE085E990E100
:10269000FF90EF90DF90CF900C947E9F4F925F92CF
:1026A0006F927F928F929F92AF92BF92CF92DF9262
:1026B000EF92FF920F931F934B015C01CA01B90186
:1026C00027013801A50194010E9475A46B017C01CA
:1026D000A501940160E070E080E89FE30E94F7A10B
:1026E0009B01AC01C301B2010E9475A49B01AC0126
:1026F000C701B6010E94F8A16B017C0120E030E027
:10270000A9010E945CA287FF04C0C12CD12CE12C3E
:10271000F12CB601C7011F910F91FF90EF90DF9050
:10272000CF90BF90AF909F908F907F906F905F9071
:102730004F9008958F929F92AF92BF92CF92DF9267
:10274000EF92FF920F931F93CF93DF93C82F0E94B6
:10275000486CFC01EE0FFF1FE053FD4F608171815B
:10276000882777FD8095982F0E942CA34B015C0150
:102770000E94486CC090F80BD090F90BE090FA0BD7
:10278000F090FB0BFC01EE0FFF1FEE0FFF1FE05957
:10279000FD4F2081318142815381C701B6010E94E2
:1027A00075A49B01AC01C501B4010E94F8A1C13020
:1027B00009F097C09B01AC01C701B6010E94F7A1C7
:1027C0008B01D82FC92F80912103882309F463C07E
:1027D0000E94486CFC01EE0FFF1FE05CFD4F608122
:1027E0007181882777FD8095982F0E942CA320E087
:1027F00030E040E251E40E94F7A16B017C0120E04F
:1028000030E040E85EE30E9475A44B015C0120913A
:10281000E40B3091E50B4091E60B5091E70BC701BB
:10282000B6010E9460A29B01AC01C501B4010E94E7
:1028300075A46B017C010E94486CFC01EE0FFF1F28
:10284000E05CFD4F60817181882777FD8095982F2E
:102850000E942CA3A70196010E94F8A198014D2F78
:102860005C2F0E945CA287FF16C00E94486CFC018E
:10287000EE0FFF1FE05CFD4F60817181882777FDBF
:102880008095982F0E942CA3A70196010E94F8A181
:102890008B01D82FC92FC0902603D0902703E0903A
:1028A0002803F09029039601A7016091F00B709125
:1028B000F10B8091F20B9091F30B0E9401A418167A
:1028C000F4F120E030E040EA50E4B8018D2F9C2F75
:1028D0000E945CA287FF36C000E010E0D0EAC0E4AE
:1028E00031C020912E0330912F034091300350913D
:1028F00031030E9475A44B015C0120E030E040EA06
:1029000050E40E945CA287FF06C0812C912CA0EAB3
:10291000AA2EA0E4BA2EA5019401C701B6010E9417
:10292000F7A18B01D82FC92FC0902A03D0902B0379
:10293000E0902C03F0902D039601A701BECF8601F5
:10294000DE2DCF2DB8018D2F9C2FDF91CF911F91C0
:102950000F91FF90EF90DF90CF90BF90AF909F903E
:102960008F900895209148033091490340914A0384
:1029700050914B0360914C0370914D0380914E0335
:1029800090914F030C94F7A10F931F93CF93DF9374
:10299000CDB7DEB729970FB6F894DEBF0FBECDBF17
:1029A00063EB7BE085E990E10E94AE9F6EE97BE0FE
:1029B00085E990E10E947E9F40919A0B50919B0B7C
:1029C00060919C0B70919D0BCE0101960E94670B4C
:1029D00060919A0B70919B0B80919C0B90919D0B39
:1029E0000E94BB6A4AE050E0BC0185E990E10E9488
:1029F0006CA06CE97BE085E990E10E947E9F60918C
:102A00009A0B70919B0B80919C0B90919D0B0E9457
:102A1000C06A4AE050E0BC0185E990E10E946CA0E8
:102A20006AE97BE085E990E10E947E9F60919A0BC4
:102A300070919B0B80919C0B90919D0B0E94C56A9D
:102A40004AE050E0BC0185E990E10E946CA067E992
:102A50007BE085E990E10E947E9FBE016F5F7F4F22
:102A600085E990E10E94A39F6DE77BE085E990E115
:102A70000E947E9F409168035091690360916A03B0
:102A800070916B0380919A0B90919B0BA0919C0B82
:102A9000B0919D0B480F591F6A1F7B1FCE010196F5
:102AA0000E94670B609168037091690380916A03CB
:102AB00090916B0300919A0B10919B0B20919C0BB2
:102AC00030919D0B600F711F821F931F0E94BB6A84
:102AD0004AE050E0BC0185E990E10E946CA06BE700
:102AE0007BE085E990E10E947E9F60916803709190
:102AF000690380916A0390916B0300919A0B109186
:102B00009B0B20919C0B30919D0B600F711F821FBE
:102B1000931F0E94C06A4AE050E0BC0185E990E141
:102B20000E946CA069E77BE085E990E10E947E9FAE
:102B3000609168037091690380916A0390916B03BF
:102B400000919A0B10919B0B20919C0B30919D0B47
:102B5000600F711F821F931F0E94C56A4AE050E0F8
:102B6000BC0185E990E10E946CA066E77BE085E905
:102B700090E10E947E9FBE016F5F7F4F85E990E1EB
:102B80000E94BE9F29960FB6F894DEBF0FBECDBF40
:102B9000DF91CF911F910F910895CF93DF93C82FAD
:102BA00081E20E94F19C892B11F481E006C082E24F
:102BB0000E94F19C892B21F482E08093B80A02C024
:102BC0001092B80A83E20E94F19C892B11F481E0F3
:102BD00006C084E20E94F19C892B21F482E080935C
:102BE000B90A02C01092B90A85E20E94F19C892BB1
:102BF00011F481E006C086E20E94F19C892B21F449
:102C000082E08093BA0A02C01092BA0ACC23B9F0CB
:102C1000C8EBDAE0699184E0689FB0011124655D3A
:102C20007D4F85E990E10E94A39F6DE37AE085E9FD
:102C300090E10E947E9F8AE0CB3BD80759F7DF9155
:102C4000CF9108954F925F926F927F928F929F9251
:102C5000AF92BF92CF92DF92EF92FF923C01C09071
:102C60001D03D0901E03E0901F03F090200320E08E
:102C700030E040E05FE3C701B6010E9475A44B015C
:102C80005C01B301882777FD8095982F0E942CA3C3
:102C9000A50194010E94F7A10E94F9A22B013C0119
:102CA00020E030E0A901C701B6010E9401A4A20101
:102CB000662757FD6095762F18166CF4CB01BA0184
:102CC0000E942CA320E030E040E85AE30E9475A463
:102CD000A70196010EC0CB01BA010E942CA320E0EF
:102CE00030E040E85AE30E9475A420E030E040EA7A
:102CF00050E40E9475A4A50194010E94F7A124EA62
:102D000030E74DE35EE30E9460A2FF90EF90DF901A
:102D1000CF90BF90AF909F908F907F906F905F907B
:102D20004F900895CF92DF92EF92FF9288E30E9436
:102D3000469B88DF6B017C019B01AC016091480BD5
:102D40007091490B80914A0B90914B0B0E94F8A116
:102D50006093480B7093490B80934A0B90934B0BF5
:102D60008091400B9091410BA091420BB091430B8D
:102D70000196A11DB11D8093400B9093410BA09330
:102D8000420BB093430B2091440B3091450B409183
:102D9000460B5091470BC701B6010E9401A41816BB
:102DA00044F4C092440BD092450BE092460BF09253
:102DB000470BC701B601FF90EF90DF90CF900895C9
:102DC0002091290230912A02821B930BBC01882793
:102DD00077FD8095982F0E942CA320E030E040E8FA
:102DE0005AE30E9475A420911D0330911E03409167
:102DF0001F03509120030E9475A42DEC3CEC4CEC79
:102E00005DE30C9460A208952F923F924F925F92DF
:102E10006F927F928F929F92AF92BF92CF92DF92EA
:102E2000EF92FF920F931F93CF93DF9300D01F92E7
:102E30001F92CDB7DEB78B83162F8091B00A811118
:102E40000DC00E94859A6093240770932507809394
:102E500026079093270781E08093B00A8091990B11
:102E6000811103C0112309F464C062E070E080E0C6
:102E700090E00E94B49A0E94859A4B015C010E94E6
:102E8000919A2B013C0181E40E94469B9D838C8397
:102E900097DF9B01AC010E9475A46B017C012C8023
:102EA0003D8021E030E03A8329830E94919A6419A1
:102EB000750986099709683C710581059105A8F394
:102EC0000E94919A2B013C0181E40E94469B8C0157
:102ED00077DF9B01AC010E9475A49B01AC01C70187
:102EE000B6010E94F8A16B017C018C819D81801745
:102EF00091072CF00215130524F4180102C01D835C
:102F00000C83E981FA813196FA83E9830E94859ADC
:102F1000681979098A099B09643171058105910550
:102F200068F40E94859A681579058A059B0530F03A
:102F3000BCCF10E000E0B12CA12CD9C0E981FA810E
:102F4000BF01882777FD8095982F0E942CA39B01B5
:102F5000AC01C701B6010E9460A20E94DCA4162F3A
:102F6000072FB82EA92EFB81FF2309F445C063E388
:102F70007AE085E990E10E947E9F4AE050E0B1014D
:102F800085E990E10E946CA061E37AE085E990E137
:102F90000E947E9F4AE050E06C817D8185E990E14E
:102FA0000E946CA06FE27AE085E990E10E947E9F2A
:102FB0006091290270912A024AE050E085E990E18F
:102FC0000E946CA06DE27AE085E990E10E947E9F0C
:102FD00040911D0350911E0360911F0370912003C7
:102FE00022E030E085E990E10E94A0A169E27AE068
:102FF00085E990E10E947E9F2091290230912A026A
:10300000C901880F991F820F931F820D931D2C8178
:103010003D81820F931F65E070E00E9462A570936E
:103020002A02609329020E94859AC0902407D090BA
:103030002507E0902607F09027076C157D058E0583
:103040009F0588F00E94859A6B017C01809124077E
:1030500090912507A0912607B0912707C81AD90A91
:10306000EA0AFB0A04C00E94859A6B017C010E9457
:10307000859A609324077093250780932607909381
:103080002707C701B6010E942AA320E030E04AE7E3
:1030900054E40E9460A2209100033091010340910A
:1030A0000203509103030E9475A420E030E041E642
:1030B00055E40E9460A29B01AC01612F702F8B2D03
:1030C0009A2D0E9475A49B01AC0160915D0B7091DB
:1030D0005E0B80915F0B9091600B0E94F8A1609352
:1030E0005D0B70935E0B80935F0B9093600B612F71
:1030F000702F8B2D9A2D0F900F900F900F900F9097
:10310000DF91CF911F910F91FF90EF90DF90CF90C3
:10311000BF90AF909F908F907F906F905F904F90F7
:103120003F902F9008953F924F925F926F927F92BF
:103130008F929F92AF92BF92CF92DF92EF92FF92C7
:103140000F931F93CF93DF93CDB7DEB728970FB6BA
:10315000F894DEBF0FBECDBF382E49835A836B83F0
:103160007C834801590105E010E0412C512C3201CB
:1031700062E070E080E090E00E94B49A832D0E94AB
:10318000469BBC01882777FD8095982F0E942CA331
:1031900020911D0330911E0340911F035091200385
:1031A0000E9475A420E030EC4FE754E40E9460A236
:1031B0006D837E838F839887A501940169817A81CD
:1031C0008B819C810E94F8A19B01AC016D817E8165
:1031D0008F8198850E9475A4A50194010E9460A228
:1031E0009B01AC01C301B2010E94F8A12B013C017B
:1031F0000150110909F0BCCF20E030E040EA50E472
:103200000E9460A2A70196010E9475A428960FB69D
:10321000F894DEBF0FBECDBFDF91CF911F910F910C
:10322000FF90EF90DF90CF90BF90AF909F908F90E6
:103230007F906F905F904F903F900895CF92DF9274
:10324000EF92FF92CF93DF932CE06623A1F0289FAB
:10325000F001299FF00D1124EC58F54F80819181E8
:10326000A281B38184839583A683B7838087918766
:10327000A287B38728C0289FE001299FD00D112481
:10328000CC58D54FC880D980EA80FB802C813D8105
:103290004E815F81C701B6010E945CA287FF05C015
:1032A000CC82DD82EE82FF820EC0288539854A8578
:1032B0005B85C701B6010E9401A4181624F4C886D4
:1032C000D986EA86FB86DF91CF91FF90EF90DF9061
:1032D000CF9008958EE580937C0062E070E080E0FE
:1032E00090E00E94B49A80917A00806480937A0082
:1032F00080917A0086FDFCCF209178008091790042
:1033000030E0382B442737FD4095542F64EB7BE2A7
:1033100081E190E00E9497A5CA01B9010895CF927A
:10332000DF92EF92FF920F931F93CF93DF93C82FFB
:10333000142FD22F662309F492C0CCDF0E942CA355
:1033400020E030E04AE754E40E9460A26B017C0177
:103350006093740A7093750A8093760A9093770A43
:1033600020E030E040E250E40E945CA287FD0AC009
:1033700020E030E040EF50E4C701B6010E9401A414
:103380001816DCF463E27AE085E990E10E947E9F02
:103390004091740A5091750A6091760A7091770A8B
:1033A00022E030E085E990E10E94A0A16CE17AE0A2
:1033B00085E990E10E947E9F08C0C0921D03D092D3
:1033C0001E03E0921F03F092200360910B0280E045
:1033D00090E034DFCC2309F442C066E17AE085E96D
:1033E00090E10E947E9F4091740A5091750A60910D
:1033F000760A7091770A22E030E085E990E10E9438
:10340000A0A168E174E085E990E10E94A39F40914A
:10341000780A5091790A60917A0A70917B0A22E0C9
:1034200030E085E990E10E94A0A164E17AE085E9BD
:1034300090E10E947E9F40917C0A50917D0A6091AC
:103440007E0A70917F0A22E030E085E990E10E94D7
:10345000A0A162E17AE085E990E10E947E9F1123BC
:1034600009F4CAC120E030E0A90160911D03709108
:103470001E0380911F03909120030E945CA2811182
:1034800024C040E050E060EA70E440931D03509394
:103490001E0360931F03709320034093740A50939C
:1034A000750A6093760A7093770A4093780A50936E
:1034B000790A60937A0A70937B0A40937C0A50934E
:1034C0007D0A60937E0A70937F0A74E6C72E70E4CB
:1034D000D72E72E8E72E7FE3F72E00E010E42EE40B
:1034E00035E440E050E864ED75E48EE390E01BDEE7
:1034F0006093800A7093810A8093820A9093830A72
:1035000060910B0281E090E099DECC2309F442C087
:103510006CE07AE085E990E10E947E9F4091800A0C
:103520005091810A6091820A7091830A22E030E012
:1035300085E990E10E94A0A16AE07AE085E990E146
:103540000E947E9F4091840A5091850A6091860A6C
:103550007091870A22E030E085E990E10E94A0A105
:1035600068E07AE085E990E10E947E9F4091880AB8
:103570005091890A60918A0A70918B0A22E030E0AA
:1035800085E990E10E94A0A166E07AE085E990E1FA
:103590000E947E9F69E5C62E66E8D62E60E8E62E7C
:1035A0006FE3F62E00E010EC23E735E440E050E056
:1035B0006AE774E48FE390E0B6DD60938C0A709361
:1035C0008D0A80938E0A90938F0A60910B0282E09D
:1035D00090E034DECC2309F442C060E07AE085E973
:1035E00090E10E947E9F40918C0A50918D0A6091DB
:1035F0008E0A70918F0A22E030E085E990E10E9406
:10360000A0A16EEF79E085E990E10E947E9F409154
:10361000900A5091910A6091920A7091930A22E067
:1036200030E085E990E10E94A0A16CEF79E085E9A6
:1036300090E10E947E9F4091940A5091950A60917A
:10364000960A7091970A22E030E085E990E10E94A5
:10365000A0A16AEF79E085E990E10E947E9FC12CEC
:10366000D12C50E8E52E5FE3F52E00E010E829E0CC
:1036700035E4B901A8018DE390E055DD6093980A27
:103680007093990A80939A0A90939B0A60910B0217
:1036900083E090E0D3DDCC2309F442C064EF79E00D
:1036A00085E990E10E947E9F4091980A5091990A85
:1036B00060919A0A70919B0A22E030E085E990E1DE
:1036C0000E94A0A162EF79E085E990E10E947E9FCF
:1036D00040919C0A50919D0A60919E0A70919F0AA8
:1036E00022E030E085E990E10E94A0A160EF79E05E
:1036F00085E990E10E947E9F4091A00A5091A10A25
:103700006091A20A7091A30A22E030E085E990E17D
:103710000E94A0A16EEE79E085E990E10E947E9F73
:1037200082E40E94469BBC01882777FD8095982FF4
:103730000E942CA320911D0330911E0340911F0372
:10374000509120030E9475A420E030EC4FE754E430
:103750000E9460A26093A40A7093A50A8093A60AAF
:103760009093A70A60910B0284E090E067DDCC2380
:1037700009F442C068EE79E085E990E10E947E9FFD
:103780004091A40A5091A50A6091A60A7091A70AD7
:1037900022E030E085E990E10E94A0A166EE79E0A8
:1037A00085E990E10E947E9F4091A80A5091A90A64
:1037B0006091AA0A7091AB0A22E030E085E990E1BD
:1037C0000E94A0A164EE79E085E990E10E947E9FCD
:1037D0004091AC0A5091AD0A6091AE0A7091AF0A67
:1037E00022E030E085E990E10E94A0A162EE79E05C
:1037F00085E990E10E947E9FDD2309F487C020E0E7
:1038000030E0A90160911D0370911E0380911F0398
:10381000909120030E945CA281110CC080E090E096
:10382000A0EAB0E480931D0390931E03A0931F03AE
:10383000B093200380E40E94469BBC01882777FD5B
:103840008095982F0E942CA320911D0330911E0378
:1038500040911F03509120030E9475A420E030E0A6
:1038600040E85AE30E9475A46093A40A7093A50AE5
:103870008093A60A9093A70A60910B0284E090E0DF
:10388000DDDCCC2309F442C06AED79E085E990E102
:103890000E947E9F4091A40A5091A50A6091A60AB9
:1038A0007091A70A22E030E085E990E10E94A0A192
:1038B00068ED79E085E990E10E947E9F4091A80A39
:1038C0005091A90A6091AA0A7091AB0A22E030E0F7
:1038D00085E990E10E94A0A166ED79E085E990E19B
:1038E0000E947E9F4091AC0A5091AD0A6091AE0A51
:1038F0007091AF0A22E030E085E990E10E94A0A13A
:1039000064ED79E085E990E10E947E9F10920B02C0
:10391000DF91CF911F910F91FF90EF90DF90CF90AB
:1039200008950F931F93CF93DF9360E08AE09BE0AD
:103930000E9459978B01D82FC92F9B01482F592FCF
:103940000E941AA5882321F000E010E0DAECC2EC16
:10395000B8018D2F9C2FDF91CF911F910F9108956A
:103960000F931F93CF93DF938AE09BE00E94CC9745
:103970008B01D82FC92F9B01482F592F0E941AA5C0
:10398000882321F000E010E0D0E8CFEBB8018D2FC4
:103990009C2FDF91CF911F910F910895CF92DF92CD
:1039A000EF92FF926B017C01CA01B9012BE734E968
:1039B00048E853E40E94F8A19B01AC0160E070E08C
:1039C00080E89FE30E9460A29B01AC0162E07BEE75
:1039D0008FE69BE30E94F7A126E03EE449EA55E426
:1039E0000E9475A40E94CDA22FE135E843EC50E47B
:1039F0000E9475A420E030E040E251E40E94F7A16B
:103A00002FE335E34EE05FE30E9475A49B01AC0118
:103A1000C701B6010E94F8A1FF90EF90DF90CF9010
:103A20000895CF92DF92EF92FF920F931F93CF935F
:103A3000DF9389E30E94469B7C01EC016C0104E06A
:103A400010E061E070E080E090E00E94B49A89E3C9
:103A50000E94469BC80ED91EC817D9072CF08E1598
:103A60009F050CF47C01CE010150110911F0EC010D
:103A7000E8CF9C012E0D3F1DE601C21BD30B20E0B9
:103A800030E048EC52E460911D0370911E03809178
:103A90001F03909120030E9475A46B017C01CE014D
:103AA00063E070E00E9462A5882777FD8095982FDB
:103AB0000E942CA39B01AC01C701B6010E9475A412
:103AC00020E030EC4FE754E40E9460A220911B0CF0
:103AD00030911C0C40911D0C50911E0C0E94F8A1BD
:103AE000DF91CF911F910F91FF90EF90DF90CF90DA
:103AF00008957F928F929F92AF92BF92CF92DF9262
:103B0000EF92FF920F931F93CF93DF93782E66234C
:103B100011F0882329F004EE1BE0C0E0D0E0C4C01F
:103B200060E089E090E00E94370BE090210CF0907B
:103B3000220C8701000F111F000F111F0C51144F91
:103B4000C12CD12C8091210C9091220CC091C103E9
:103B5000D091C203C80FD91FEC16FD060CF062C04D
:103B60009701281B390BC901DCDE5801AC0CBD1CC8
:103B7000F50160837183828393838091210C9091FE
:103B8000220CE701C81BD90BCE01EADECC0FDD1FEA
:103B9000CC0FDD1FC155D44F688379838A839B8303
:103BA0008091210C9091220CE701C81BD90BF501E3
:103BB00080809180A280B380CC0FDD1FCC0FDD1FF1
:103BC000FE01E155F44F208131814281538160E053
:103BD00070E088EC92E40E94F7A120E030E040EA37
:103BE00050E40E9460A29B01AC01C501B4010E9497
:103BF000F7A19B01AC01FE01E955F44F608371838D
:103C000082839383C501B401C9DEC555D44F68834F
:103C100079838A839B83FFEFEF1AFF0A24E0C20EA9
:103C2000D11C90CF7E01EE0CFF1CEE0CFF1CC701D7
:103C30008C51944F7C0100E010E04091210C509198
:103C4000220C8091C1039091C2039A01280F391F61
:103C50006091BF037091C003260F371FC217D307AF
:103C60000CF04EC09E01241B350B820F931FD9DE32
:103C7000F701E00FF11F60837183828393832196A4
:103C80000C5F1F4FDACF672DCE010E94370B6B01FF
:103C90007C0120E030E04AE754EC0E945CA22196CF
:103CA00087FF0AC00C5F1F4F8091210C9091220C5E
:103CB000C817D90744F324C020E030E04AE754E4B1
:103CC000C701B6010E945CA287FF06C0F801C0824E
:103CD000D182E282F382E6CF6AED71E085E990E17C
:103CE0000E947E9F4AE050E0BE0185E990E10E947B
:103CF0006CA068ED71E085E990E10E947E9FD2CFD3
:103D0000872DDF91CF911F910F91FF90EF90DF9062
:103D1000CF90BF90AF909F908F907F900895FF922B
:103D20000F931F93CF93DF93EC0118E0F12E8E01D8
:103D30008881803130F460E279E085E990E10E9489
:103D40007E9F219640E150E0F801608185E990E195
:103D50000E9495A06EE179E085E990E10E947E9F46
:103D6000FA9429F7DF91CF911F910F91FF90089559
:103D7000CF92DF92EF92FF92CF93DF93EA0161310E
:103D80002EE072078105910568F00E942AA320E0C9
:103D900030E041E655E40E9460A26B017C016AE1DB
:103DA00074E018C06D3371058105910568F00E94BB
:103DB0002AA320E030E040E752E40E9460A26B01B9
:103DC0007C016CE174E006C00E942AA36B017C01B7
:103DD00066EF75E0CE010E9477A761E070E080E0B9
:103DE00090E00E94B49AC701B601DF91CF91FF9095
:103DF000EF90DF90CF9008950E94486C209152037D
:103E000030915303821793075CF00E94486C209115
:103E10005403309155038217930714F480E00895FA
:103E200081E008954F925F926F927F928F929F925E
:103E3000AF92BF92CF92DF92EF92FF920F931F93B8
:103E4000CF93DF931092C90A8091170C9091180CB0
:103E5000029731F10E94B86BC0906803D09069035B
:103E6000E0906A03F0906B0300919A0B10919B0B0A
:103E700020919C0B30919D0BC00ED11EE21EF31EB3
:103E8000C616D706E806F90638F481E090E090936C
:103E9000180C8093170C04C01092180C1092170C79
:103EA0000E94110C882309F46DC0A6DF882381F0DD
:103EB0000E945A6C019709F001C10E94486C209140
:103EC000520330915303281739070CF4C4C0F6C0CD
:103ED0002091690B30916A0B40916B0B50916C0BE8
:103EE00060913B0270913C0280913D0290913E02B4
:103EF0000E94F7A16B017C0100916C0310916D038E
:103F0000D0916E03C0916F03509170034091710383
:103F100030917203209173038091170C9091180CCB
:103F2000181619061CF0052F142FE90180907C0348
:103F300090907D03A0907E03B0907F0320E030E05E
:103F400040E05FE3C501B4010E9475A42B013C0170
:103F50009B01AC01C701B6010E9401A4181644F4EC
:103F6000A3019201B8018D2F9C2F0E94F7A1AEC032
:103F7000A5019401B8018D2F9C2F0E94F7A1A701E4
:103F800096013CC039DF81113CC02091690B309112
:103F90006A0B40916B0B50916C0B60913B027091DE
:103FA0003C0280913D0290913E020E94F7A16B017C
:103FB0007C0120E030E040E05FE360917C037091A1
:103FC0007D0380917E0390917F030E9475A44B0135
:103FD0005C019B01AC01C701B6010E9401A42091C4
:103FE0008203309183034091840350918503181616
:103FF0001CF4C501B40102C0C701B6010E94F8A1BA
:1040000065C00E946C12811109C0409182035091D9
:10401000830360918403709185033CC081E08093A9
:10402000C90AF0916C03E0916D0370916E03609189
:104030006F03309174032091750350917603409182
:1040400077038091170C9091180C18161906ECF450
:104050009F01CB011BC081E08093C90A30916C03A2
:1040600020916D0350916E0340916F03F0917403A2
:10407000E091750370917603609177038091170C3E
:104080009091180C181619061CF7CA01432F522FCD
:10409000692F782F80E090E0DF91CF911F910F91F1
:1040A000FF90EF90DF90CF90BF90AF909F908F9058
:1040B0007F906F905F904F900C94341060917803D4
:1040C0007091790380917A0390917B03DF91CF9176
:1040D0001F910F91FF90EF90DF90CF90BF90AF9026
:1040E0009F908F907F906F905F904F900895CF92A8
:1040F000DF92EF92FF920E94110C811144C092DE78
:104100002091440330914503409146035091470369
:104110000E94F8A16B017C0185DE2091740330912F
:10412000750340917603509177030E94F8A120E037
:1041300030E040E05FE30E9475A49B01AC01C70141
:10414000B6010E9401A4181664F46CDE20914403A9
:104150003091450340914603509147030E94F8A1D6
:1041600024C060DE20917403309175034091760382
:10417000509177030E94F8A120E030E040E05FE337
:104180000E9475A412C020914403309145034091D0
:1041900046035091470360917003709171038091C1
:1041A0007203909173030E94F7A1FF90EF90DF904C
:1041B000CF9008958091170C9091180C029749F4B4
:1041C00060916C0370916D0380916E0390916F0309
:1041D00008950E94110C811112C00EDE811102C0DF
:1041E0000C94B7110E946C12811123C0409182037C
:1041F00050918303609184037091850322C0FCDD9C
:10420000882371F00E945A6C0197F9F40E94486C5F
:1042100020915203309153032817390754F015C0E9
:104220006091700370917103809172039091730398
:1042300008954091740350917503609176037091D5
:10424000770381E090E00C94341020917C0330914E
:104250007D0340917E0350917F03609178037091BC
:10426000790380917A0390917B030C94F8A18F924B
:104270009F92AF92BF92CF92DF92EF92FF920E94F5
:10428000110C81115CC096DF2091440330914503ED
:1042900040914603509147030E94F8A16B017C01B5
:1042A0008090480390904903A0904A03B0904B033C
:1042B000B9DD2091740330917503409176035091DC
:1042C00077030E94F8A120E030E040E05FE30E9425
:1042D00075A49B01AC01C501B4010E94F8A19B012A
:1042E000AC01C701B6010E9401A4181654F462DFA4
:1042F0002091440330914503409146035091470378
:104300002EC0C0904803D0904903E0904A03F0903B
:104310004B0388DD2091740330917503409176033F
:10432000509177030E94F8A120E030E040E05FE385
:104330000E9475A49B01AC01C701B60110C0209179
:1043400044033091450340914603509147036091E7
:1043500070037091710380917203909173030E94B6
:10436000F8A1FF90EF90DF90CF90BF90AF909F901B
:104370008F9008950E94486C469734F40E94486CD0
:10438000049714F080E0089581E00895AF92BF9201
:10439000CF92DF92EF92FF920F931F93CF93DF9311
:1043A0005C01EB010E94B86B0091070310910803B8
:1043B00020E831E541E050E00E9475A54CE3409FC4
:1043C0009001419F300D1124442737FD4095542F13
:1043D0000E9475A569017A014091090350910A0371
:1043E000049FC001059F900D149F900D1124813AE8
:1043F0009540A8F00E945A6CFC0131976091070328
:104400007091080380EA95E00E9462A5E69F900102
:10441000E79F300DF69F300D11242C0D3D1D40916E
:10442000090350910A03209759F02C173D0718F003
:104430002C1B3D0B05C0CA018C1B9D0B280F391F7F
:10444000A49EC001A59E900DB49E900D1124820FD4
:10445000931F880F991F20910B0330910C03820F3B
:10446000931FDF91CF911F910F91FF90EF90DF90FD
:10447000CF90BF90AF90089520E042E064E188E1E2
:104480009BE00E94BE826AEF70E080E090E00E94B4
:10449000B49A63EE78E088E19BE00E947E9F60EA38
:1044A00070E087E00C946B9BCF93C82F61E08DE1A7
:1044B0000E94BC9C6C2F70E080E090E00E94B49A57
:1044C00060E08DE1CF910C94BC9CBF92CF92DF92C3
:1044D000EF92FF920F931F93CF93DF93EC017B0139
:1044E00028E228838FEA898389ED8A838EE98B838A
:1044F00034E03C831D821E8281EA8F838091210CEF
:104500009091220C288744EA498744E44A874FE97E
:104510004B873C871D861E863DE83F87288B59E9DF
:10452000598B33E73A8B47E94B8B33E03C8B1D8A41
:104530001E8A5F8B288F52E3598F5CE75A8F4B8F0F
:104540003C8F1D8E1E8E52E55F8F28A35AEE59A315
:104550005AE35AA34BA33CA31DA21EA252E45FA39D
:1045600028A752E059A75BE85AA74BA73CA71DA66E
:104570001EA658E45FA728AB27ED29AB25E82AAB98
:104580004BAB3CAB1DAA1EAA25EC2FAB079688307F
:1045900091052CF49093220C8093210C18C087E095
:1045A00090E09093220C8093210C6AED7EE085E9E7
:1045B00090E10E947E9F88E19BE00E94A08263ECD4
:1045C0007EE088E19BE00E947E9F8AEF6DDF87019D
:1045D000BB24B3946801CE18DF088091210C909120
:1045E000220CC816D906DCF565EB7EE085E990E182
:1045F0000E947E9F4AE050E0B60185E990E10E946A
:104600006CA088A9823281F0883259F08031A9F4F7
:104610006BEA7EE085E990E10E94AE9FF801B082EE
:104620001BC061EA7EE002C068E97EE085E990E1B6
:104630000E94AE9FF80110820FC06CE77EE085E912
:1046400090E1DF91CF911F910F91FF90EF90DF905C
:10465000CF90BF900C94AE9F0F5F1F4FBBCFDF91E9
:10466000CF911F910F91FF90EF90DF90CF90BF906F
:104670000895CF93DF93EC018031910534F461EE1E
:1046800078E088E19BE00E947E9F40E150E0BE011F
:1046900088E19BE0DF91CF910C946CA0AF92BF9228
:1046A000CF92DF92EF92FF920F931F93CF93DF93FE
:1046B000CDB7DEB728970FB6F894DEBF0FBECDBFDB
:1046C0006BED7BE08CE39AE000DF63ED79E085E958
:1046D00090E10E94AE9F6091210C7091220C4AE003
:1046E00050E085E990E10E946CA069EC79E085E9F1
:1046F00090E10E94AE9F0BED1BE04CE3E42E4AE0FC
:10470000F42E8091210C9091220C98012B5D3B405E
:104710002817390724F5C70102DB67EC79E085E942
:1047200090E10E947E9FF80161918F014AE050E084
:1047300085E990E10E949BA0F8E0EF0EF11CE1CF2B
:1047400067E0CE0101960E94A4699885891709F453
:104750005CC06EE174E088E39BE00E9477A7BE0135
:104760006F5F7F4F8CEF9AE00E9411698111E8CF53
:104770008CEF9AE00E94DD686AEF70E080E090E0E4
:104780000E94B49A8091210C9091220C2091C10337
:104790003091C203820F931F2091BF033091C00359
:1047A000820F931F9093200C80931F0C0A978CF11B
:1047B00088EC7ADE66EC79E085E990E10E94AE9FB4
:1047C00060EA79E085E990E10E94AE9F88E19BE094
:1047D0000E94A0826EE879E088E19BE00E947E9FC3
:1047E00088EC62DE89E090E02091C1033091C20341
:1047F000821B930B2091BF033091C003821B930B4C
:104800009093220C8093210C04C0CE01019687DA8C
:10481000A6CF24EEE22E2BE0F22E3CE3C32E3AE0AC
:10482000D32E00E010E08091210C9091220C08170B
:1048300019070CF072C088E19BE00E94A0826BE82F
:1048400079E088E19BE00E947E9F0A30110534F4F4
:1048500069E879E088E19BE00E947E9F4AE050E0B1
:10486000B80188E19BE00E946CA067E879E088E1EC
:104870009BE00E947E9F41E060E088E19BE00E9417
:10488000A682A12CB12CF601EA0DFB1D808190E0DF
:10489000F0DEA0FE06C065E879E088E19BE00E94BA
:1048A0007E9F2FEFA21AB20A38E0A316B10459F77F
:1048B00060E0C8010E94370B6091250270912602CA
:1048C00080912702909128020E94B49AC8010E9408
:1048D0004A0A5701F70161937193819391937F0184
:1048E00040E067E088E19BE00E94A682F5014081FC
:1048F00051816281738121E030E088E19BE00E9478
:10490000A0A160ED77E080E090E00E94B49A0F5F94
:104910001F4FF8E0CF0ED11C86CF8AE09BE00E94AB
:10492000A8960091210C1091220C6801CC0CDD1C82
:10493000CC0CDD1C96012C51344F6901E12CF12C7B
:104940008091210C9091220CA090C103B090C203E1
:10495000A80EB91E0A151B050CF06BC0F801E81B68
:10496000F90BCF010E94911C5601AE0CBF1CF50142
:10497000608371838283938320E030E048EC52ECC3
:104980000E945CA287FF0CC06DE679E085E990E1AA
:104990000E947E9F65E579E088E19BE00E947E9F12
:1049A00088E19BE00E94A08262E579E088E19BE0DB
:1049B0000E947E9F0A30110534F460E579E088E1B9
:1049C0009BE00E947E9F4AE050E0B80188E19BE0B6
:1049D0000E946CA06EE479E088E19BE00E947E9FDB
:1049E00041E060E088E19BE00E94A68260E479E01B
:1049F00088E19BE00E947E9F40E067E088E19BE0C9
:104A00000E94A682F501408151816281738121E07B
:104A100030E088E19BE00E94A0A160ED77E080E0BB
:104A200090E00E94B49A0F5F1F4FF4E0EF0EF11C6C
:104A300087CF8501000F111F000F111F0C51144F5C
:104A4000E12CF12C4091210C5091220C2091C103BA
:104A50003091C203CA01820F931F6091BF0370910E
:104A6000C003860F971FA816B9060CF05AC0C501DF
:104A7000841B950B821B930B0E94111D6801CE0CA9
:104A8000DF1CF601608371838283938388E19BE05E
:104A90000E94A0826DE379E088E19BE00E947E9F06
:104AA000FAE0AF16B10434F46BE379E088E19BE0FF
:104AB0000E947E9F4AE050E0B50188E19BE00E94A1
:104AC0006CA069E379E088E19BE00E947E9F41E071
:104AD00060E088E19BE00E94A6826AE279E088E1DA
:104AE0009BE00E947E9F40E067E088E19BE00E949F
:104AF000A682F601408151816281738121E030E01C
:104B000088E19BE00E94A0A160ED77E080E090E06A
:104B10000E94B49AFFEFAF1ABF0A24E0E20EF11C24
:104B200091CF8091E80B9091E90BA091EA0BB091A5
:104B3000EB0B8093380A9093390AA0933A0AB0930A
:104B40003B0A28960FB6F894DEBF0FBECDBFDF91AB
:104B5000CF911F910F91FF90EF90DF90CF90BF907A
:104B6000AF900895CF93DF93EC018A30910534F430
:104B70006FED78E088E19BE00E947E9F4AE050E084
:104B8000BE0188E19BE0DF91CF910C946CA088E19D
:104B90009BE00E94A08266ED78E088E19BE00C94A7
:104BA0007E9F62E083E00E94839C62E082E00E943C
:104BB000839C62E084E00E94839C66E678E085E95D
:104BC00090E10E947E9F41E050E068EF79E080E054
:104BD0000E94429841E050E06EEC79E081E00E9452
:104BE000429863E678E085E990E10C94AE9F88E115
:104BF0009BE00E94A0826AE578E088E19BE00E9449
:104C00007E9F41E060E088E19BE00E94A68265E330
:104C100080E09DE00E94AA71811112C067E274E0F9
:104C200088E39BE00E9477A768E37BE085E990E159
:104C30000E94A39F68E37BE088E19BE00C94A39F24
:104C400063E578E088E19BE00C947E9FEF92FF9211
:104C50000F931F93CF93DF93EC010E94546CF82EB7
:104C6000E92E0E94606C182F092F0E94666CEF924B
:104C7000FF920F931F939F938F932FE234E03F9304
:104C80002F93DF93CF930E94D2A78DB79EB70A963A
:104C90000FB6F8949EBF0FBE8DBFDF91CF911F91CD
:104CA0000F91FF90EF900895EF92FF920F931F9353
:104CB000CF93DF93EC010E94546CF82EE92E0E94F2
:104CC000606C182F092F0E94666CEF92FF920F9371
:104CD0001F93805D97409F938F9320E434E03F9330
:104CE0002F93DF93CF930E94D2A78DB79EB70A96DA
:104CF0000FB6F8949EBF0FBE8DBFDF91CF911F916D
:104D00000F91FF90EF900895CF93DF93EB012A81ED
:104D10003B81FC01338322834C815D816E817F81E5
:104D20004483558366837783488559856A857B8567
:104D300040875187628773872DE0FE013C96DC0136
:104D40001C9601900D922A95E1F7298D3A8DFC0170
:104D5000328F218FDF91CF910895DF92EF92FF92F2
:104D60000F931F93CF93DF93CDB7DEB76B970FB63B
:104D7000F894DEBF0FBECDBF8C017B01D42E0E9404
:104D80002B712D2DA70160E07DE0CE0101960E94E0
:104D9000BD72BE016F5F7F4FC801B6DFC8010E94C0
:104DA0009D71811178C061E574E088E39BE00E9409
:104DB00077A768E37BE085E990E10E94A39F61E526
:104DC00078E085E990E10E947E9FB70185E990E156
:104DD0000E94A39F6FE478E085E990E10E947E9FA6
:104DE00065E070E080E090E00E94B49A2D2DA7016C
:104DF00060E07DE0CE0101960E94BD72BE016F5F52
:104E00007F4FC80181DF62E070E080E090E00E94A7
:104E1000B49AC8010E949D7181113DC069E574E09A
:104E200088E39BE00E9477A768E37BE085E990E157
:104E30000E94A39F65E070E080E090E00E94B49A39
:104E4000D6DE65E070E080E090E00E94B49A2D2DFF
:104E5000A70160E07DE0CE0101960E94BD72BE0117
:104E60006F5F7F4FC80150DF62E070E080E090E04C
:104E70000E94B49AC8010E949D7181110CC061E624
:104E800074E088E39BE00E9477A768E37BE085E914
:104E900090E10E94A39FC8016B960FB6F894DEBF05
:104EA0000FBECDBFDF91CF911F910F91FF90EF907B
:104EB000DF9008958F929F92AF92BF92CF92DF9230
:104EC000EF92FF920F931F93CF93DF93CDB7DEB78F
:104ED000C354D1090FB6F894DEBF0FBECDBFCE01CB
:104EE0004C960E942B71CE01C796B0DE43E1BE0105
:104EF000695C7F4FCE01019630DFBE016F5F7F4F4F
:104F0000CE014C9601DFCE014C960E949D71882304
:104F100009F469C10E94B86BAB01BC01CE01C79610
:104F20000E94670BBE01695C7F4FCE014C960E94C8
:104F3000A39F6DE478E0CE014C960E947E9F0E9474
:104F4000B86BAB01BC012AE030E0CE014C960E9468
:104F500089A004EE1BE0E12CF12C80911F0C9091B4
:104F6000200CE816F906B4F46BE478E0CE014C9618
:104F70000E947E9FF80141915191619171918F0141
:104F800022E030E0CE014C960E94A0A1FFEFEF1A84
:104F9000FF0AE3CFE090210CF090220C8091210CCD
:104FA0009091220C2091C1033091C203820F931F74
:104FB000E816F9063CF567E478E0CE014C960E94CD
:104FC0007E9F8091210C9091220CF701E81BF90B38
:104FD000EE0FFF1FEE0FFF1FE155F44F408151818F
:104FE0006281738122E030E0CE014C960E94A0A144
:104FF00065E478E0CE014C960E947E9F8FEFE81A20
:10500000F80ACCCF63E478E0CE014C960E947E9FF4
:1050100080910603811106C061E478E0CE014C96D0
:105020000E947E9F8091990B813089F480910503C5
:10503000811106C06FE378E0CE014C960E947E9FFE
:1050400080910403811109C06CE378E002C068E339
:1050500078E0CE014C960E947E9F66E378E0CE0118
:105060004C960E947E9F60E080E00E940417AB0196
:10507000BC0123E030E0CE014C960E94A0A160E389
:1050800078E0CE014C960E947E9F60913907709126
:105090003A074AE050E0CE014C960E946CA06DE2C7
:1050A00078E0CE014C960E947E9FC0903D07D09044
:1050B0003E07E0903F07F0904007609141077091F4
:1050C00042078091430790914407C114D104E10441
:1050D000F10489F00E942AA34B015C01C701B601CB
:1050E0000E942AA39B01AC01C501B4010E9460A2E9
:1050F000AB01BC0104C040E050E060E87FEB23E07E
:1051000030E0CE014C960E94A0A16BE278E0CE0187
:105110004C960E947E9F60913B0770913C074AE04D
:1051200050E0CE014C960E946CA069E278E0CE017E
:105130004C960E947E9F60E278E0CE014C960E94E1
:105140007E9F0E949216AB01BC0122E030E0CE01AE
:105150004C960E94A0A16EE178E0CE014C960E9490
:105160007E9F6091400B7091410B8091420B90911A
:10517000430B0E942AA39B01AC016091480B7091E4
:10518000490B80914A0B90914B0B0E941D0CAB0177
:10519000BC0124E030E0CE014C960E94A0A16CE15D
:1051A00078E0CE014C960E947E9F4091440B509136
:1051B000450B6091460B7091470B22E030E0CE0129
:1051C0004C960E94A0A169E178E0CE014C960E9425
:1051D0007E9F68E178E0CE014C960E94AE9FCE01A2
:1051E0004C960E948B7164E670E080E090E00E9433
:1051F000B49ACD5BDF4F0FB6F894DEBF0FBECDBFC4
:10520000DF91CF911F910F91FF90EF90DF90CF90A2
:10521000BF90AF909F908F9008950F931F93CF935F
:10522000DF93CDB7DEB7C454D1090FB6F894DEBF13
:105230000FBECDBF8C01CE014C9625966FAF259742
:105240000E942B71CE01C7962FDD6AE070E080E0EE
:1052500090E00E94B49A43E1BE01695C7F4FCE01A9
:1052600001967BDDBE016F5F7F4FCE014C964CDD1A
:1052700065E070E080E090E00E94B49ACE014C9628
:105280000E949D7125962FAD2597811128C069E652
:1052900074E088E39BE00E9477A70E94B86BAB01A3
:1052A000BC01CE01C7960E94670B67E178E085E9F3
:1052B00090E10E947E9FBE01695C7F4F85E990E18D
:1052C0000E94A39F65E178E085E990E10E947E9FBE
:1052D00068E37BE085E990E10E94A39FE0C3211190
:1052E000AFC00130110509F044C06AE078E0CE019A
:1052F0004C960E947E9F40919E0B50919F0B609117
:10530000A00B7091A10BCE01C7960E94670BBE0146
:10531000695C7F4FCE014C960E94A39F67E078E0C6
:10532000CE014C960E947E9F4091790B50917A0B52
:1053300060917B0B70917C0B22E030E0CE014C96AB
:105340000E94A0A164E078E0CE014C960E947E9F6E
:105350004091000C5091010C6091020C7091030C73
:1053600022E030E0CE014C960E94A0A162E078E0FD
:105370008EC3012B09F08FC366EF77E0CE014C9608
:105380000E947E9F0E94B86BAB01BC01CE01C79604
:105390000E94670BBE01695C7F4FCE014C960E9454
:1053A000A39F63EF77E0CE014C960E947E9F4091D1
:1053B000E80B5091E90B6091EA0B7091EB0B22E046
:1053C00030E0CE014C960E94A0A16DEE77E0CE01B8
:1053D0004C960E947E9F0E94B86B00919E0B10918C
:1053E0009F0B2091A00B3091A10B601B710B820BC6
:1053F000930B0E942AA320E030E040E752E40E9491
:1054000060A2AB01BC0122E030E0CE014C960E94CC
:10541000A0A16FED77E0CE014C960E947E9F409157
:105420007D0B50917E0B60917F0B7091800B22E081
:1054300030E0CE014C960E94A0A16AED77E027C330
:10544000243609F04DC20B30110531F462ED77E0DE
:10545000CE014C960E947E9F61EC77E0CE014C9687
:105460000E947E9F0E94B86BAB01BC01CE01C79623
:105470000E94670BBE01695C7F4FCE014C960E9473
:10548000A39F69EB77E0CE014C960E947E9F4091EE
:10549000130C5091140C6091150C7091160C23E0B4
:1054A00030E0CE014C960E94A0A16FEA77E0CE01D9
:1054B0004C960E947E9F4091750B5091760B6091A7
:1054C000770B7091780B23E030E0CE014C960E9470
:1054D000A1A16EE977E0CE014C960E947E9F40919B
:1054E0000F0C5091100C6091110C7091120C24E073
:1054F00030E0CE014C960E94A0A164E977E0CE0195
:105500004C960E947E9F4091710B5091720B60915E
:10551000730B7091740B24E030E0CE014C960E9426
:10552000A0A169E877E0CE014C960E947E9F22E020
:1055300030E040E050E060E771E4CE014C960E941C
:10554000A0A166E877E0CE014C960E947E9F22E003
:1055500030E040E050E068EC71E4CE014C960E94EF
:10556000A0A163E877E0CE014C960E947E9F22E0E6
:1055700030E040E050E060EF71E4CE014C960E94D4
:10558000A0A16FE777E0CE014C960E947E9F20E0BD
:1055900030E040E85EEB60910F0C7091100C809150
:1055A000110C9091120C0E9475A420E030E040E8AC
:1055B0005FE30E94F8A1AB01BC0124E030E0CE0122
:1055C0004C960E94A0A16CE777E0CE014C960E9419
:1055D0007E9F20E030E040E85EE360910F0C709128
:1055E000100C8091110C9091120C0E9475A420E077
:1055F00030E040E85FE30E94F8A1AB01BC0124E089
:1056000030E0CE014C960E94A0A169E777E0CE0180
:105610004C960E947E9F20E030E040E05FE3609186
:105620000F0C7091100C8091110C9091120C0E9433
:1056300075A420E030E040E85FE30E94F8A1AB01F0
:10564000BC0124E030E0CE014C960E94A1A168E6A6
:1056500077E0CE014C960E947E9F40910B0C5091BA
:105660000C0C60910D0C70910E0C24E030E0CE011A
:105670004C960E94A0A16EE577E0CE014C960E9468
:105680007E9F40916D0B50916E0B60916F0B7091EE
:10569000700B24E030E0CE014C960E94A0A16DE496
:1056A00077E0CE014C960E947E9F22E030E040E001
:1056B00050E060EF71E4CE014C960E94A0A16AE434
:1056C00077E0CE014C960E947E9F22E030E040E0E1
:1056D00050E064E372E4CE014C960E94A0A167E41E
:1056E00077E0CE014C960E947E9F22E030E040E0C1
:1056F00050E06CE872E4CE014C960E94A0A163E4F5
:1057000077E0CE014C960E947E9F20E030E040E49E
:105710005FE360910B0C70910C0C80910D0C9091DB
:105720000E0C0E9475A420E030E040E85FE30E9488
:10573000F8A1AB01BC0124E030E0CE014C960E9400
:10574000A0A160E477E0CE014C960E947E9F20E00D
:1057500030E040EE5EE360910B0C70910C0C809198
:105760000D0C90910E0C0E9475A420E030E040E8F2
:105770005FE30E94F8A1AB01BC0124E030E0CE0160
:105780004C960E94A0A16DE377E0CE014C960E945A
:105790007E9F2EE833EE48EB5EEB60910B0C709130
:1057A0000C0C80910D0C90910E0C0E9475A420E0C1
:1057B00030E040E85FE30E94F8A1AB01BC0124E0C7
:1057C00030E0CE014C960E94A0A16CEC76E0CE01B8
:1057D0004C960E94BE9F68E277E0CE014C960E94F4
:1057E0007E9F4091ED0A5091EE0A6091EF0A709110
:1057F000F00A24E030E0CE014C960E94A0A16CECAF
:1058000076E0CE014C960E94BE9F65E177E0CE0126
:105810004C960E947E9F20E030E04AE754E460917D
:10582000590B70915A0B80915B0B90915C0B0E940D
:1058300060A2AB01BC0123E030E0CE014C960E9497
:10584000A0A161E077E0CE014C960E947E9F20E00F
:1058500034E244E759E46091510B7091520B80910E
:10586000530B9091540B0E9460A2AB01BC0123E04A
:1058700030E0CE014C960E94A0A160EF76E0CE0110
:105880004C960E947E9F20E034E244E759E4609108
:10589000550B7091560B8091570B9091580B0E94AD
:1058A00060A2AB01BC0123E030E0CE014C960E9427
:1058B000A0A169EE76E0CE014C960E947E9F0E94E8
:1058C000080FAB01BC0123E030E0CE014C960E94F2
:1058D000A0A16CEC76E0CE014C960E94BE9FDBC08E
:1058E0000130110509F06AC0213019F46AED76E043
:1058F00013C0223019F468EC76E00EC02A3019F497
:1059000064EB76E009C0243119F465EA76E004C05E
:10591000293131F465E976E0CE014C960E947E9FF4
:105920000E94B86BAB01BC01CE01C7960E94670B09
:10593000BE01695C7F4FCE014C960E94A39F62E935
:1059400076E0CE014C960E947E9F4091E80B5091EC
:10595000E90B6091EA0B7091EB0B22E030E0CE0195
:105960004C960E94A0A16FE876E0CE014C960E9472
:105970007E9F4091F00B5091F10B6091F20B709172
:10598000F30B22E030E0CE014C960E94A0A16BE820
:1059900076E0CE014C960E947E9F4091FC0B509188
:1059A000FD0B6091FE0B7091FF0B22E030E0CE0109
:1059B0004C960E94A0A169E876E069C0213019F4F4
:1059C0006AE776E013C0223019F468E676E00EC08C
:1059D0002A3019F463E576E009C0243119F463E450
:1059E00076E004C0293131F462E376E0CE014C96D2
:1059F0000E947E9F0E94B86BAB01BC01CE01C7968E
:105A00000E94670BBE01695C7F4FCE014C960E94DD
:105A1000A39F6FE276E0CE014C960E947E9F40915C
:105A2000E80B5091E90B6091EA0B7091EB0B22E0CF
:105A300030E0CE014C960E94A0A16CE276E0CE014F
:105A40004C960E947E9F4091F00B5091F10B60911B
:105A5000F20B7091F30B22E030E0CE014C960E94E5
:105A6000A0A168E276E0CE014C960E947E9F409114
:105A7000FC0B5091FD0B6091FE0B7091FF0B22E02F
:105A800030E0CE014C960E94A0A166E276E0CE0105
:105A90004C960E94AE9FCE014C960E948B7164E69C
:105AA00070E080E090E00E94B49ACC5BDF4F0FB6CC
:105AB000F894DEBF0FBECDBFDF91CF911F910F9144
:105AC00008958F929F92AF92BF92FF920F931F9370
:105AD000CF93DF93CDB7DEB72D970FB6F894DEBF27
