:100000000C940D090C94AB950C94DC950C940D9606
:100010000C943E960C946F960C94A0960C94D196EA
:100020000C9402970C943E090C943E090C943E09E2
:100030000C943E090C943E090C943E090C943E0924
:100040000C943E090C943E090C943E090C943E0914
:100050000C943E090C943E090C943E090C94339781
:100060000C943E090C94809B0C94B69B0C943E0916
:100070000C943E090C943E090C943E090C943E09E4
:100080000C943E090C943E090C943E090C943E09D4
:100090000C943E090C943E090C943E090C943E6C61
:1000A0000C943E090C943E090C943E090C943E09B4
:1000B0000C943E090C943E090C943E090C943E09A4
:1000C0000C943E090C943E090C943E090C943E0994
:1000D0000C943E090C943E090C943E090C943E0984
:1000E0000C943E0978467846DE46C04707484248A9
:1000F0007D48374985954F955795639570959195AE
:100100009E9587988C9891989B98A5981E99AF98E2
:10011000B798BF98C998D398DD98EC98F6981E992F
:1001200000990A99149940994399329936993C99C2
:100130007A9947994B995199559959995F9963992A
:1001400067997A996D997199759907634236B79B4A
:10015000D8A71A39685618AEBAAB558C1D3CB7CC27
:100160005763BD6DEDFD753EF6177231BF0000009F
:10017000803F20497A6B6C6F70206B6F6D70726579
:10018000736F726A612054430020497A6B6C6F7000
:100190002076656E742E206B6F6D707265736F7252
:1001A0006A612054430020566B6C6F702076656E38
:1001B000742E206B6F6D707265736F726A6120545C
:1001C000430020566B6C6F70206B6F6D707265739F
:1001D0006F726A61205443002043457200204D65D0
:1001E0006E7500436F756E7400427574746F6E2087
:1001F00070726573736564002D20002D20002D2022
:100200000052656654656D70423030202D20526575
:100210006654656D70423031202D2054656D7049F3
:100220007A6B6C6F7061202D2070726576437270EE
:10023000544353746174653A200027002F0027004F
:10024000496E69742E204F4B005374696B616C6169
:100250003A2000467265652052414D3A20004672B0
:1002600065652052414D002020002E002E002020E8
:100270000020525443204F4B0054696D653A0044AE
:1002800053313330372072656164206572726F724A
:100290002120205072657665726920706F76657ACC
:1002A0006176652E00546865204453313330372021
:1002B0006A652075737461766C6A656E2E20507263
:1002C0006F73696D206E6173746176692063617309
:1002D0002E00546F6B3A20004B6F6E74726F6C651A
:1002E000722054433A2000434F2120003C003E003E
:1002F00035563328457272293A20003C3C3C205444
:10030000685300504F5354202F75706461746520FA
:10031000485454502F312E310D0A486F73743A20CF
:1003200024460D0A436F6E6E656374696F6E3A20E2
:10033000636C6F73650D0A582D5448494E475350EE
:1003400045414B4150494B45593A2024460D0A43FB
:100350006F6E74656E742D547970653A206170709B
:100360006C69636174696F6E2F782D7777772D666E
:100370006F726D2D75726C656E636F6465640D0AC6
:10038000436F6E74656E742D4C656E6774683A20A9
:1003900024440D0A0D0A2448004342395249345777
:1003A00046323941473051463100660074002069B9
:1003B000734C696E6B55703A0064656C6179636E5D
:1003C000743A200066616C73650074727565007024
:1003D0006572736973745F7463705F636F6E6E656B
:1003E0006374696F6E3A200066616C7365007472A5
:1003F00075650055736520444843503A20004869AC
:1004000073706F72743A2000485454502F312E305C
:1004100020323030204F4B0D0A436F6E74656E747E
:100420002D547970653A20746578742F68746D6CFA
:100430000D0A507261676D613A206E6F2D636163C2
:1004400068650D0A0D0A3C6D6574612068747470EE
:100450002D65717569763D277265667265736827CB
:1004600020636F6E74656E743D273539272F3E3CCF
:100470007469746C653E496E666F2073657276654B
:10048000723C2F7469746C653E3C68313E20245385
:100490003C2F68313E3C68333E2054313A2024538F
:1004A00043203C62723E2054323A20245343203C85
:1004B00062723E2054333A20245343203C62723E01
:1004C0002054343A20245343203C62723E20543559
:1004D0003A20245343203C62723E2054363A202472
:1004E0005343203C62723E2054373A202453432029
:1004F0003C62723E2054383A20245343203C6272BE
:100500003E2054393A20245343203C62723E5248E4
:100510003A20245325203C62723E48756D6964651B
:10052000783A202453433C62723E434F3A2024449D
:100530003C62723E53746174653A2024442444241E
:100540004424442444244424442020203C2F683361
:100550003E203C62723E002920003B002045772867
:10056000005265537420756E737563210047617482
:1005700065776179204950206E6F7420666F756EC3
:1005800064200064656C6179636E743A20002920F0
:10059000003B002045702800207375636573733A33
:1005A0002000444E53206661696C656400207375B9
:1005B000636573733A2000207375636573733A2023
:1005C00000207375636573733A200020737563654B
:1005D00073733A2000207375636573733A2000507B
:1005E00072657665726920706F76657A61766F20C4
:1005F00065746865726E6574206D6F64756C6121D9
:10060000004574682E206669727761726520726594
:10061000763A20004661696C656420746F206163DE
:10062000636573732045746865726E657420636FCB
:100630006E74726F6C6C6572000000006572726F90
:100640007200002900202D200020280020200049D1
:100650007A6B6C2E206B6F6D70722E54433A2000B3
:10066000497A6B6C2E2076656E742E54433A2000C6
:10067000497A6B6C2E20637270616C6B65207261BD
:10068000642E3A2000497A6B6C2E637270616C6B39
:10069000652054433A20005A61702E2076656E74AE
:1006A000696C613A20002900202D200020280020BC
:1006B0002000566B6C2E206B6F6D70722E54433A77
:1006C0002000566B6C2E2076656E742E54433A20B3
:1006D00000566B6C2E20637270616C6B65207261CA
:1006E000642E3A2000566B6C2E20637270616C6B26
:1006F000652054433A20004F64702E2076656E7456
:10070000696C613A200020436F703A200020446FEA
:10071000626C6A656E6F20284D4A293A2000205588
:10072000707261626C6A656E6F20284D5773293A4A
:100730002000205A61632E20506F72616261206B2D
:1007400056413A2000206661637457656967687492
:1007500041766754656D703A20002C20002C2000F3
:10076000293D20002C20002C2000204B6F6D702E86
:1007700073742E74656D702E202800205A61646E8B
:100780006A613A200020466163742E7A61632E7498
:10079000656D703A20002C20002C2000293D20009F
:1007A0002C20002C2000204B6F6D702E6F6B2028AA
:1007B00000207A61646E6A613A20002046616374A9
:1007C0002E6B6F6D702E6F6B2E3A2000205A616475
:1007D0006E6A613A2000204E6F76613A20004869C7
:1007E00074726F737420677265746A613A2000498D
:1007F0006E666F202D200073742F68006D696E2067
:1008000020486974722E673A200020204F6E3A000B
:10081000202000497A6B6C6F702054433A200029E5
:1008200000202800202000566B6C6F702054433A43
:10083000200000002941002F0028002049283132E3
:1008400056293A0029002F002028004120434F3A22
:10085000004F4646004547004B0056002500432008
:100860002000205344204F4B0053442043617264C6
:100870003A004F4B00456E636F6465723A007858DA
:1008800078587858785800785878587858785800B8
:100890005A61646E6A652070726567726576616E12
:1008A0006A653A200054692000547620004F46467D
:1008B000004547004B004100546F6B3A0020434F06
:1008C0003A004F4646004547004B00252000432094
:1008D00052483A00536520707269646500300030F8
:1008E00000204C4344204F4B002D003A0054002D73
:1008F000002F002F00290028002F00290028003A8F
:100900000054002D0050726567726576616E6A65ED
:10091000204F4B0029002F002F0028003A005400E0
:100920003000204400204B2D747970652073656E73
:100930007A6F72003A00300054200020444854324C
:10094000322073656E7A6F72003A003000542000D6
:100950004E6170616B612044485432322073656E81
:100960007A6F726A612121004E6170616B6120446F
:10097000485432322073656E7A6F726A61212100A9
:100980003A00300054200053746576696C6F207310
:10099000656E7A6F726A65760053746576696C6FFE
:1009A0002074656D702E2073656E7A6F726A65763D
:1009B000207365206E6520756A656D6121210020B8
:1009C000646576696365732E0029002F0028002076
:1009D000426174742B3A0029002F002800203356FE
:1009E000333A0029002F002800203556333A0029D9
:1009F000002F002800203556323A0029002F002809
:100A000000203132563A0029002F002800203549B5
:100A10006E3A00284572722920002035496E3A004E
:100A200056202D003A003A002D004D696E2E2D6D96
:100A300061783A003A2000202000416464726573B6
:100A40003A003A20002020004164647265733A0045
:100A5000202F20006661637457656967687441766A
:100A60006754656D703A200043206A6520004B6F23
:100A70006D70656E7A2E207A616365746E65207480
:100A8000656D702E207072692074656D702E200067
:100A9000202F20004B6F6D702E73742E3A20004370
:100AA000206A6520004B6F6D70656E7A2E2074652C
:100AB0006D702E206F6B6F6C69636520707269209A
:100AC00074656D702E2000202F20004B6F6D702EEE
:100AD0006F6B2E3A20004B2F6800202F20004869B2
:100AE000722E20677265743A20002020002E002E9E
:100AF00000204E61736C65646E6A65207072656774
:100B0000726576616E6A653A20002020002E002E04
:100B1000005A61646E6A65207072656772657661FD
:100B20006E6A653A20002270726576544353746190
:100B3000746522206E61737461766C6A656E6F20D5
:100B40006E6120002020002E002E004C6173742066
:100B50005443206368673A200073004F6E54696DF8
:100B6000653A20002020002E002E0020204E6173C8
:100B70006C65646E6A652070726567726576616E19
:100B80006A653A20002020002E002E005A61646E13
:100B90006A652070726567726576616E6A653A2073
:100BA000004F4646004547004B005600202D3E2092
:100BB0000066007400204C553A002064636E743A5D
:100BC00000294120002F00280020492831327629B1
:100BD0003A0029002F0028002920434F3A002D0019
:100BE0002D3E002D0020280020546920002054763E
:100BF0003A002F002F004F6E2074696D653A200077
:100C000029200041280020546F6B3A20006D73208A
:100C100000293A2000204176672E70696E672074A3
:100C2000696D65286E3D002D004D696E2D4D617812
:100C3000286C6173742068293A20006D73200029A4
:100C40003A2000204176672E6379636C6554696DA4
:100C500065286E3D0029003E0028003A00205248D9
:100C6000610056200050200029003E0028003A0074
:100C7000205461002050200020452000204E6F7637
:100C8000613A00204661637457656967687441760C
:100C90006754656D703A0020436F703A2000204918
:100CA0006E666F2064656C7461546853743A2000FA
:100CB00020496E666F2064656C746154684F6B3AAE
:100CC000200020496E666F2064656C746154683A38
:100CD0002000206B6F6D702E73743A2000204E6FD1
:100CE0007661206B6F6D702E6F6B3A200020746BF5
:100CF0006F6D7053743A200020746B6F6D70303AD2
:100D000020002072756E2074696D652868293A206C
:100D1000002074656D70206F6B6F6C696365207364
:100D2000743A200020496E666F2063616C2E287330
:100D30007461727454656D70293A2000204C61739F
:100D4000743A00204B6F6D702E73743A00204C6122
:100D500073743A00204B6F6D702E6F6B3A00204C0D
:100D60006173743A0020482E677265743A00496EC8
:100D7000666F202D2000564168006B5641680020A8
:100D80002000436173206A65206E61737461766C24
:100D90006A656E003E2000203C4454656D703A2028
:100DA0000020497A6B6C6F7020637270616C6B65A8
:100DB0002054430020566B6C6F7020637270616C1E
:100DC0006B6520544300205A61706972616D207612
:100DD000656E74696C00204F64706972616D207675
:100DE000656E74696C200020497A6B6F6C702063AB
:100DF00072702E207261646961746F720020566B8C
:100E00006C6F70206372702E207261646961746F00
:100E100072004572724570526542752000457272CB
:100E2000457072526542754C65004572724570524C
:100E300065427520004572724570577242792000F4
:100E400045727245705772506720003A206E6920D3
:100E5000445331387832302066616D696C79206492
:100E600065766963652E003A20445331383232008A
:100E70003A2044533138423230003A20445331381A
:100E80005332300054656D702E2073656E736F722F
:100E9000200053746576696C6F2044532073656E2F
:100EA0006F73726A657621210053746576696C6F81
:100EB0002044532073656E6F73726A65762121003A
:100EC0006170692E7468696E67737065616B2E63FB
:100ED0006F6D00005EBCE2613FDD83C29C7E20A39B
:100EE000FD1F419DC3217FFCA2401E5F01E3BD3E6B
:100EF0006082DC237D9FC1421CFEA0E1BF5D0380B8
:100F0000DE3C62BEE0025CDF81633D7C22C09E1D50
:100F100043A1FF4618FAA427799BC584DA3866E511
:100F2000BB5907DB856739BAE406581947A5FB7832
:100F300026C49A653BD987045AB8E6A7F91B45C66B
:100F4000987A24F8A6441A99C7257B3A6486D85B18
:100F500005E7B98CD2306EEDB3510F4E10F2AC2FC5
:100F60007193CD114FADF3702ECC92D38D6F31B202
:100F7000EC0E50AFF1134DCE90722C6D33D18F0C1F
:100F800052B0EE326C8ED0530DEFB1F0AE4C1291E8
:100F9000CF2D73CA947628ABF517490856B4EA6981
:100FA00037D58B5709EBB536688AD495CB2977F4BA
:100FB000AA4816E9B7550B88D6346A2B7597C94AE3
:100FC00014F6A8742AC896154BA9F7B6E80A54D7A0
:100FD000896B357C3C3E5E2B3D3F2F5B5D3B2C2A75
:100FE000225C004500008200004000200001080053
:100FF0000604000100000A0B02090C0D0E0807038D
:1010000004010000000000000000000000000000DB
:1010100000000000000000000000000000000000D0
:10102000121110000000000000000000000000008D
:101030000000000000000000000001021020200855
:101040000810204010204080020102010804020123
:101050000102040810204080804020100804020192
:1010600080040201804020100804020108040201EB
:101070000102040810204080010204081020408072
:1010800005050505070508080808020202020A0A04
:101090000808040404040101010101010101030322
:1010A000030303030303040707070C0C0C0C0C0CCD
:1010B0000C0C0202020206060606060606060B0BCA
:1010C0000B0B0B0B0B0B000020002300260029004C
:1010D0002C002F003200000100000301060109016D
:1010E00000002200250028002B002E0031003400D3
:1010F00002010000050108010B010000210024008D
:1011000027002A002D0030003300010100000401F7
:1011100007010A0100407A10F35A00A0724E180924
:101120000010A5D4E80000E87648170000E40B544E
:10113000020000CA9A3B000000E1F505000080961D
:101140009800000040420F000000A086010000004F
:10115000102700000000E803000000006400000009
:1011600000000A00000000000100000000002C76D2
:10117000D888DC674F0823DFC1DFAE59E1B1B796ED
:10118000E5E3E453C63AE651997696E8E6C284264A
:10119000EB898C9B62ED407C6FFCEFBC9C9F40F226
:1011A000BAA56FA5F490055A2AF75C936B6CF967A2
:1011B0006DC11BFCE0E40D47FEF520E6B500D0ED67
:1011C000902E0300943577050080841E08000020CF
:1011D0004E0A000000C80C333333330F986E12836D
:1011E0001141EF8D2114893BE65516CFFEE6DB1841
:1011F000D1844B381BF77C1D901DA4BBE424203206
:1012000084725E228100C9F124ECA1E53D274C3CAB
:101210005D6B7E6D30714274E89B11241FBECFEF71
:10122000D1E2DEBFCDBF00E00CBF16E0A0E0B2E02F
:10123000EAEDF3E501E00BBF02C007900D92AC3C74
:10124000B107D9F721E1ACECB6E001C01D92A030A6
:10125000B207E1F712E1CAE1D2E100E006C022974D
:101260000109FE010BBF0E94D6A2CE30D10780E05B
:101270000807A9F70E942C9C0C94EBA90C94000081
:10128000DC011696ED91FC9117979F012F5F3F4F60
:1012900017963C932E931697608381E090E0089513
:1012A0000E943D8981E090E008958091080A88239A
:1012B00031F061E070E080E090E00E94AC9783E064
:1012C0000E94E9994091090A242F30E08217930780
:1012D000A9F081E084278093090A882369F080912E
:1012E0000A0A811109C080910B0A90910C0A01979A
:1012F00090930C0A80930B0A1092080A089580912B
:10130000080A882331F061E070E080E090E00E94FC
:10131000AC9782E00E94E99940910A0A242F30E0BC
:1013200082179307A9F081E0842780930A0A882313
:1013300069F08091090A811109C080910B0A90918E
:101340000C0A019690930C0A80930B0A1092080ADB
:101350000895BC0187EF93E00C943A938F929F928B
:10136000AF92BF92CF92DF92EF92FF920F931F93B3
:10137000CF93DF93CDB7DEB72C970FB6F894DEBFCF
:101380000FBECDBF5C0182ED9AE00E94AC65B50155
:10139000E3E0660F771FEA95E1F76E5E754F82ED29
:1013A0009AE00E94A56640E06EEB82ED9AE00E9412
:1013B00049664E018AE0880E911CFE0131967F013C
:1013C00000E010E082ED9AE00E948A66F7018193C6
:1013D0007F01811102C00F5F1F4FE814F90491F7DC
:1013E00068E0CE0101960E9492679985891711F0F5
:1013F000085F1F4F6A8170E0762F66278981682B0E
:10140000F501EF54F44F8081882391F043E0660F9B
:10141000771F4A95E1F788858031F1F4CB01807F11
:101420002F816CE070E0621B7109680F791F14C096
:101430008D81807631F433E0660F771F3A95E1F7BE
:101440000BC0803229F4660F771F660F771F04C028
:10145000803411F4660F771F80E090E00E9422A094
:1014600020E030E040E85DE30E946DA16B017C016B
:1014700020E030E04AE754E40E94F9A0181624F076
:10148000083011050CF440C08FE590E10E94A39C48
:1014900062E279E08FE590E10E94769CB5016F5F92
:1014A0007F4F4AE050E08FE590E10E94649DCE01BD
:1014B00001965C016CE476E08FE590E10E949B9CD4
:1014C000F50161915F0140E150E08FE590E10E94FC
:1014D0008D9DA814B90471F76CE476E08FE590E176
:1014E0000E949B9C22E030E0B701A6018FE590E1CD
:1014F0000E94989E083011053CF0C12C80E4D82E43
:101500008AE7E82E84E4F82EC701B6012C960FB6C0
:10151000F894DEBF0FBECDBFDF91CF911F910F9129
:10152000FF90EF90DF90CF90BF90AF909F908F9003
:101530000895CF93DF93EC0161111BC082ED9AE017
:101540000E94AC65C930D10539F440E06CEC82ED05
:101550009AE00E94496610C0BE01F3E0660F771F53
:10156000FA95E1F76E5E754F82ED9AE00E94A566EE
:1015700003C0DF91CF91F2CE40E064E482ED9AE0C7
:101580000E94496660E070E48AE794ECDF91CF91B5
:101590000895AF92BF92CF92DF92EF92FF920F9396
:1015A0001F93CF93DF93EC016A017B01CB01BA015A
:1015B0000E94A468B82EA92EC701B6010E949F6898
:1015C000182F092FC701B6010E949A68AF92BF92E7
:1015D0000F931F939F938F9327E034E03F932F93B4
:1015E000DF93CF930E94BCA48DB79EB70A960FB627
:1015F000F8949EBF0FBE8DBFDF91CF911F910F91C9
:10160000FF90EF90DF90CF90BF90AF900895DC01F6
:10161000ED91FC910190F081E02D1994CF92DF9231
:10162000EF92FF92CF93DF93EC010E947D976B01C5
:101630007C010E947D976C197D098E099F09653692
:1016400071058105910558F4BE0185E19CE00E9479
:10165000486B85E19CE00E945B6B8111EACFDF91D2
:10166000CF91FF90EF90DF90CF900895CF92DF92CF
:10167000EF92FF920F931F93CF93DF93EC016A01D8
:101680007B01222349F0DF91CF911F910F91FF90B1
:10169000EF90DF90CF907DCFCB01BA010E949F6881
:1016A000182F092FC701B6010E949A680F931F9344
:1016B0009F938F932BE834E03F932F93DF93CF9347
:1016C0000E94BCA48DB79EB708960FB6F8949EBF33
:1016D0000FBE8DBFDF91CF911F910F91FF90EF90C3
:1016E000DF90CF9008950E94486A019731F00E94E0
:1016F000486A079711F080E0089581E008958F927D
:101700009F92AF92BF92CF92DF92EF92FF924B01E6
:101710005C0169017A0120E030E0A901C701B6014E
:101720000E94F9A018165CF427E137EB41ED58E36D
:10173000C701B6010E94549F87FF0BC011C027E16B
:1017400037EB41ED58EBC701B6010E94F9A018161E
:101750003CF0A7019601C501B4010E94589F03C047
:1017600060E070E0CB01FF90EF90DF90CF90BF90F2
:10177000AF909F908F90089520E030E040EA51E4D0
:101780000E94EF9E20E030E040EA51E40E94589F22
:101790002091E50B3091E60B4091E70B5091E80B5F
:1017A0000E946DA120E030E040E85FE30C94F09EE1
:1017B00008959B01AC010E946DA19B01AC0160E00A
:1017C00070E081E695E40E94EF9E20E030E041E683
:1017D00055E40E94589F2091E10B3091E20B40911B
:1017E000E30B5091E40B0E946DA120E030E040E853
:1017F0005FE30C94F09E08958F929F92AF92BF92F8
:10180000CF92DF92EF92FF926091370B7091380B7D
:101810008091390B90913A0BAFDF6B017C01809086
:101820004F0B9090500BA090510BB090520BC501F4
:10183000B401BFDF9B01AC01C701B6010E946DA1DD
:101840006B017C0160913B0B70913C0B80913D0BD7
:1018500090913E0B0E9422A020E030E041E655E44A
:101860000E94589F9B01AC01C701B6010E946DA167
:101870006B017C0120E030E0A9010E94F9A018165C
:101880005CF42FE632E143E85AE3C701B6010E9457
:10189000549F87FF14C00AC02FE632E143E85AEB99
:1018A000C701B6010E94F9A018164CF46091E90B2B
:1018B0007091EA0B8091EB0B9091EC0B10C0A5019D
:1018C00094016091BE0B7091BF0B8091C00B909101
:1018D000C10B0E94EF9EA70196010E94589FFF90A6
:1018E000EF90DF90CF90BF90AF909F908F90089532
:1018F0004F925F926F927F928F929F92AF92BF9220
:10190000CF92DF92EF92FF92CF93DF9300D01F929E
:10191000CDB7DEB78091AE0A882309F4C0C06091CC
:101920003B0B70913C0B80913D0B90913E0B0E94C4
:1019300022A020E030E041E655E40E94589F20912B
:10194000E90B3091EA0B4091EB0B5091EC0B0E94AC
:101950006DA16B017C0140904F0B5090500B60903B
:10196000510B7090520BC301B20123DF9B01AC01FC
:10197000C701B6010E946DA14B015C018091BE0BB5
:101980009091BF0BA091C00BB091C10B89839A833A
:10199000AB83BC8320E030E040EA51E46091370B38
:1019A0007091380B8091390B90913A0B0E94EF9E09
:1019B0009B01AC01C501B4010E946DA16B017C01CA
:1019C00020E030E0A9010E94F9A018165CF427E19C
:1019D00037EB41ED58E3C701B6010E94549F87FFE2
:1019E00014C00AC027E137EB41ED58EBC701B6013F
:1019F0000E94F9A018164CF4C090E50BD090E60BAD
:101A0000E090E70BF090E80B4EC0A30192016981D2
:101A10007A818B819C810E94EF9EA50194010E9496
:101A2000EF9E20E030E040EA51E40E946DA1A70162
:101A300096010E94589F4B015C0120E030E0A90113
:101A40000E94F9A018165CF5C090E50BD090E60B4B
:101A5000E090E70BF090E80B20E030E040E05FE33F
:101A6000C701B6010E94F9A01816B4F42091220310
:101A7000309123034091240350912503C701B601FF
:101A80000E946DA16B017C019B01AC01B401C501F9
:101A90000E94F9A018163CF06401750104C0C12C25
:101AA000D12CE12CF12CB601C7010F900F900F90B3
:101AB0000F90DF91CF91FF90EF90DF90CF90BF908C
:101AC000AF909F908F907F906F905F904F90089510
:101AD0004F925F926F927F928F929F92AF92BF923E
:101AE000CF92DF92EF92FF92CF93DF93CDB7DEB725
:101AF00028970FB6F894DEBF0FBECDBF80904F0B76
:101B00009090500BA090510BB090520BA5019401F6
:101B1000C501B4010E946DA16B017C018091BE0BD7
:101B20009091BF0BA091C00BB091C10B8D839E8390
:101B3000AF83B88760913B0B70913C0B80913D0B5C
:101B400090913E0B0E9422A020E030E041E655E457
:101B50000E94589F2091E90B3091EA0B4091EB0BCA
:101B60005091EC0B0E946DA12B013C016091370B51
:101B70007091380B8091390B90913A0BFDDD6983A0
:101B80007A838B839C83A701960160E070E081E6F5
:101B900095E40E94EF9E9B01AC01C301B2010E943B
:101BA0006DA129813A814B815C810E946DA16B01FD
:101BB0007C0120E030E0A9010E94F9A018165CF435
:101BC00027E137EB41ED58E3C701B6010E94549F6E
:101BD00087FF14C00AC027E137EB41ED58EBC7017E
:101BE000B6010E94F9A018164CF4C090E10BD090F9
:101BF000E20BE090E30BF090E40B55C0A5019401DB
:101C00006D817E818F8198850E94EF9E4B015C01E2
:101C100029813A814B815C81C301B2010E946DA18F
:101C20009B01AC01C501B4010E94EF9E20E030E0B1
:101C300041E655E40E946DA1A70196010E94589FBC
:101C40004B015C0120E030E0A9010E94F9A01816C8
:101C500044F5C090E10BD090E20BE090E30BF090E4
:101C6000E40B2DEC3CEC4CE45EE3C701B6010E94B2
:101C7000F9A01816B4F42091220330912303409167
:101C8000240350912503C701B6010E946DA16B0189
:101C90007C019B01AC01B401C5010E94F9A018169A
:101CA00014F064017501B601C70128960FB6F894C7
:101CB000DEBF0FBECDBFDF91CF91FF90EF90DF90E1
:101CC000CF90BF90AF909F908F907F906F905F90DC
:101CD0004F9008958F929F92AF92BF92CF92DF92D2
:101CE000EF92FF9220914F0B3091500B4091510B8E
:101CF0005091520B6091BE0B7091BF0B8091C00B45
:101D00009091C10B0E94EF9E20E037ED4BE659E425
:101D10000E946DA14B015C0160932B0B70932C0B07
:101D200080932D0B90932E0B20912F0B3091300B25
:101D30004091310B5091320B6091330B7091340B09
:101D40008091350B9091360B0E94EF9E20E030E0A1
:101D500041E655E40E946DA16B017C016093270B65
:101D60007093280B8093290B90932A0B20E030E08E
:101D7000A9010E94F9A018163CF4A7019601C5011B
:101D8000B4010E94589F03C060E070E0CB01FF9057
:101D9000EF90DF90CF90BF90AF909F908F9008957D
:101DA0008F929F92AF92BF92CF92DF92EF92FF926B
:101DB000CF93C82F20914C0330914D0340914E0397
:101DC00050914F036091D20B7091D30B8091D40B43
:101DD0009091D50B0E94549F87FD7EC0C090BE0B92
:101DE000D090BF0BE090C00BF090C10BA701960103
:101DF0006091AA0A7091AB0A8091AC0A9091AD0AE9
:101E00000E94EF9E9B01AC010E946DA14B015C0101
:101E1000A70196016091A60A7091A70A8091A80A6D
:101E20009091A90A0E94EF9E9B01AC010E946DA1B6
:101E30009B01AC01C501B4010E94F09E0E94D4A197
:101E40006B017C01CC23E1F167E97DE08FE590E156
:101E50000E94769C22E030E0B701A6018FE590E178
:101E60000E94989E6CE476E08FE590E10E949B9C36
:101E70004091AA0A5091AB0A6091AC0A7091AD0AE8
:101E800022E030E08FE590E10E94989E6CE476E0DD
:101E90008FE590E10E949B9C4091A60A5091A70A71
:101EA0006091A80A7091A90A22E030E08FE590E1E4
:101EB0000E94989E64E97DE08FE590E10E94769C07
:101EC0002DEC3CEC4CEC5DE3C701B6010E94549F45
:101ED000881F8827881F01C080E0CF91FF90EF9076
:101EE000DF90CF90BF90AF909F908F900895CF924A
:101EF000DF92EF92FF92C0906B0BD0906C0BE09052
:101F00006D0BF0906E0B0E94A6696C197D098E090D
:101F10009F0921E0693077408105910508F420E0B0
:101F2000822FFF90EF90DF90CF9008952F923F92F5
:101F30004F925F926F927F928F929F92AF92BF92D9
:101F4000CF92DF92EF92FF920F931F93CF93DF9385
:101F50001C016A017B010E94366A009152031091B4
:101F6000530380179107D4F40E94366AEC01B8013C
:101F7000882777FD8095982F0E9424A02B013C0193
:101F8000BE01882777FD8095982F0E9424A09B0191
:101F9000AC01C301B2010E94EF9E4DC00E94366A9F
:101FA000BC01882777FD8095982F0E9424A020E00F
:101FB00030E040EC51E40E94EF9E20E030E0A901C7
:101FC0000E94F9A0181694F40E94366ABC01882772
:101FD00077FD8095982F0E9424A020E030E040EC0F
:101FE00051E40E94EF9E2B013C0115C00E94366A0D
:101FF000BC01882777FD8095982F0E9424A020E0BF
:1020000030E040EC51E40E94EF9E2B013C0177FA56
:10201000709477F8709460915203709153038827FD
:1020200077FD8095982F0E9424A09B01AC01C301ED
:10203000B2010E94F09E20E030E040E85FE30E94A1
:10204000EF9E2B013C018090E90B9090EA0BA09051
:10205000EB0BB090EC0B0E943C6ABC01882777FD2B
:102060008095982F0E9424A020E030E040E752E4C1
:102070000E94589F9B01AC0160E070E080E89FE304
:102080000E94EF9E9B01AC01C301B2010E94F09E31
:102090009B01AC01C501B4010E946DA12B013C0163
:1020A0006091D60B7091D70B8091D80B9091D90B82
:1020B00063DB9B01AC01C301B2010E946DA12B0146
:1020C0003C016091BE0B7091BF0B8091C00B909151
:1020D000C10B6FDB9B01AC01C301B2010E946DA17A
:1020E0009B01AC01B601C7010E94EF9E8B01D82F66
:1020F000C92F2114310409F040C04090780350905A
:10210000790360907A0370907B0320E030E040E038
:102110005FE36091E90B7091EA0B8091EB0B90917A
:10212000EC0B0E946DA14B015C019B01AC01B8015D
:102130008D2F9C2F0E94F09E8B01D82FC92F9B01C1
:10214000482F592FB201C3010E94F9A018161CF4A0
:102150008201D62DC72DA5019401B601C7010E94A9
:10216000EF9E6B017C019B01AC01B8018D2F9C2F70
:102170000E94549F87FF44C046C02A94232809F038
:1021800042C040907C0350907D0360907E0370902D
:102190007F03209178033091790340917A03509125
:1021A0007B03C301B2010E94F09E4B015C01A301BD
:1021B0009201B8018D2F9C2F0E94F09E2091E90B77
:1021C0003091EA0B4091EB0B5091EC0B0E94F09E8A
:1021D0008B01D82FC92F9B01482F592FB401C5015E
:1021E0000E94F9A018161CF48401DA2DCB2D980159
:1021F0004D2F5C2FB601C7010E94549F87FF03C07B
:102200008601DE2DCF2DB8018D2F9C2FDF91CF9130
:102210001F910F91FF90EF90DF90CF90BF90AF9004
:102220009F908F907F906F905F904F903F902F90F6
:1022300008958F929F92AF92BF92CF92DF92EF92CA
:10224000FF920F931F93CF93DF936091540370918C
:102250005503882777FD8095982F0E9424A06B0155
:102260007C016091500370915103882777FD809520
:10227000982F0E9424A020E030E040E752E40E9422
:10228000589F9B01AC01C701B6010E94EF9E6B01F4
:102290007C010E94366ABC01882777FD8095982FC3
:1022A0000E9424A0A70196010E94549F87FF11C09D
:1022B00020917C0330917D0340917E0350917F03F8
:1022C00060918203709183038091840390918503D0
:1022D00056C00E94366A8C010E943C6AEC01B8012B
:1022E000882777FD8095982F0E9424A04B015C01E0
:1022F000BE01882777FD8095982F0E9424A020E0BA
:1023000030E040E752E40E94589F9B01AC01C501B8
:10231000B4010E94F09EA70196010E94EF9E4B011E
:102320005C016091540370915503882777FD809577
:10233000982F0E9424A0A70196010E94EF9E9B0166
:10234000AC01C501B4010E94589F9B01AC0160E043
:1023500070E080E89FE30E94EF9E20917C03309123
:102360007D0340917E0350917F030E946DA12091D7
:1023700082033091830340918403509185030E942E
:10238000F09EDF91CF911F910F91FF90EF90DF9022
:10239000CF90BF90AF909F908F9008954F925F9293
:1023A0006F927F928F929F92AF92BF92CF92DF9265
:1023B000EF92FF92CF93C0907C03D0907D03E0908A
:1023C0007E03F0907F036091090370910A0380E01F
:1023D00090E00E9422A04B015C016091A50B7091DE
:1023E000A60B8091A70B9091A80BA501940187D90A
:1023F0002B013C016091A10B7091A20B8091A30B6A
:102400009091A40BA50194017AD94B015C0120E0C5
:1024100030E040E850E4C701B6010E946DA19B0185
:10242000AC01C501B4010E94EF9E9B01AC01C30148
:10243000B2010E94549F87FF1DC0A7019601C701EA
:10244000B6010E94F09E2091820330918303409157
:102450008403509185030E94F09E9B01AC01C1E072
:10246000C501B4010E94F9A018160CF0C0E081E08B
:102470008C2701C081E0CF91FF90EF90DF90CF904B
:10248000BF90AF909F908F907F906F905F904F9094
:102490000895CF92DF92EF92FF926B017C0120E0D2
:1024A00030E04AE754E40E94F9A087FD2DC020E007
:1024B00030E04AE754E4C701B6010E94589F6B011F
:1024C0007C0120E030E048EC52E40E94F9A01816AC
:1024D0001CF421E030E00FC020E030E040E251E4A5
:1024E000C701B6010E94F9A018161CF422E030E0E2
:1024F00002C023E030E0B701A6018FE590E10E9421
:10250000989E6AE77DE024C020E030E048EC52E489
:10251000C701B6010E94F9A018161CF421E030E0B2
:102520000FC020E030E040E251E4C701B6010E9454
:10253000F9A018161CF422E030E002C023E030E0DD
:10254000B701A6018FE590E10E94989E66E77DE0C5
:102550008FE590E1FF90EF90DF90CF900C94769C08
:102560004F925F926F927F928F929F92AF92BF92A3
:10257000CF92DF92EF92FF920F931F934B015C017A
:10258000CA01B90127013801A50194010E946DA17A
:102590006B017C01A501940160E070E080E89FE39D
:1025A0000E94EF9E9B01AC01C301B2010E946DA18C
:1025B0009B01AC01C701B6010E94F09E6B017C013A
:1025C00020E030E0A9010E94549F87FF04C0C12C85
:1025D000D12CE12CF12CB601C7011F910F91FF9076
:1025E000EF90DF90CF90BF90AF909F908F907F90B3
:1025F0006F905F904F9008958F929F92AF92BF928D
:10260000CF92DF92EF92FF920F931F93CF93DF93BE
:10261000C82F0E94366AFC01EE0FFF1FE053FD4FEA
:1026200060817181882777FD8095982F0E9424A072
:102630004B015C010E94366AC090CE0BD090CF0B4C
:10264000E090D00BF090D10BFC01EE0FFF1FEE0FCE
:10265000FF1FE059FD4F2081318142815381C70125
:10266000B6010E946DA19B01AC01C501B4010E949D
:10267000F09EC13009F097C09B01AC01C701B601C3
:102680000E94EF9E8B01D82FC92F809121038823B0
:1026900009F463C00E94366AFC01EE0FFF1FE05C84
:1026A000FD4F60817181882777FD8095982F0E946A
:1026B00024A020E030E040E251E40E94EF9E6B0154
:1026C0007C0120E030E040E85EE30E946DA14B0118
:1026D0005C012091BA0B3091BB0B4091BC0B509127
:1026E000BD0BC701B6010E94589F9B01AC01C501FB
:1026F000B4010E946DA16B017C010E94366AFC014D
:10270000EE0FFF1FE05CFD4F60817181882777FD30
:102710008095982F0E9424A0A70196010E94F09E08
:1027200098014D2F5C2F0E94549F87FF16C00E9476
:10273000366AFC01EE0FFF1FE05CFD4F6081718186
:10274000882777FD8095982F0E9424A0A7019601E5
:102750000E94F09E8B01D82FC92FC0902603D090E5
:102760002703E0902803F09029039601A7016091C8
:10277000C60B7091C70B8091C80B9091C90B0E943A
:10278000F9A01816F4F120E030E040EA50E4B80176
:102790008D2F9C2F0E94549F87FF36C000E010E0D1
:1027A000D0EAC0E431C020912E0330912F03409134
:1027B0003003509131030E946DA14B015C0120E078
:1027C00030E040EA50E40E94549F87FF06C0812C0D
:1027D000912CA0EAAA2EA0E4BA2EA5019401C7016B
:1027E000B6010E94EF9E8B01D82FC92FC0902A03FB
:1027F000D0902B03E0902C03F0902D039601A701BD
:10280000BECF8601DE2DCF2DB8018D2F9C2FDF91FD
:10281000CF911F910F91FF90EF90DF90CF90BF90DD
:10282000AF909F908F900895209148033091490375
:1028300040914A0350914B0360914C0370914D03BA
:1028400080914E0390914F030C94EF9E08950F9347
:102850001F93CF93DF93CDB7DEB729970FB6F894C8
:10286000DEBF0FBECDBF8FE590E10E94A39C6CE858
:102870007BE08FE590E10E94769C4091700B509137
:10288000710B6091720B7091730BCE0101960E94D7
:10289000C90A6091700B7091710B8091720B9091CD
:1028A000730B0E94A9684AE050E0BC018FE590E1FB
:1028B0000E94649D6AE87BE08FE590E10E94769C2F
:1028C0006091700B7091710B8091720B9091730BF2
:1028D0000E94AE684AE050E0BC018FE590E10E94A2
:1028E000649D68E87BE08FE590E10E94769C6091B2
:1028F000700B7091710B8091720B9091730B0E9411
:10290000B3684AE050E0BC018FE590E10E94649D0D
:1029100065E87BE08FE590E10E94769CBE016F5FE9
:102920007F4F8FE590E10E949B9C6BE67BE08FE5FB
:1029300090E10E94769C40916803509169036091F8
:102940006A0370916B038091700B9091710BA09151
:10295000720BB091730B480F591F6A1F7B1FCE017A
:1029600001960E94C90A6091680370916903809181
:102970006A0390916B030091700B1091710B209181
:10298000720B3091730B600F711F821F931F0E9497
:10299000A9684AE050E0BC018FE590E10E94649D87
:1029A00069E67BE08FE590E10E94769C6091680388
:1029B0007091690380916A0390916B030091700B91
:1029C0001091710B2091720B3091730B600F711F7E
:1029D000821F931F0E94AE684AE050E0BC018FE561
:1029E00090E10E94649D67E67BE08FE590E10E94A4
:1029F000769C609168037091690380916A0390915D
:102A00006B030091700B1091710B2091720B309140
:102A1000730B600F711F821F931F0E94B3684AE0FF
:102A200050E0BC018FE590E10E94649D64E67BE08C
:102A30008FE590E10E94769CBE016F5F7F4F8FE52E
:102A400090E10E94B69C29960FB6F894DEBF0FBEA7
:102A5000CDBFDF91CF911F910F910895CF93DF9359
:102A6000C82F81E20E94E999892B11F481E006C008
:102A700082E20E94E999892B21F482E080938E0AF8
:102A800002C010928E0A83E20E94E999892B11F408
:102A900081E006C084E20E94E999892B21F482E05A
:102AA00080938F0A02C010928F0A85E20E94E999F2
:102AB000892B11F481E006C086E20E94E999892BF6
:102AC00021F482E08093900A02C01092900ACC23F5
:102AD000B9F0CEE8DAE0699184E0689FB001112492
:102AE000655D7D4F8FE590E10E949B9C6CE476E0F4
:102AF0008FE590E10E949B9C8AE0C139D80759F785
:102B0000DF91CF9108954F925F926F927F928F9253
:102B10009F92AF92BF92CF92DF92EF92FF923C01D1
:102B2000C0901D03D0901E03E0901F03F09020037F
:102B300020E030E040E05FE3C701B6010E946DA1F4
:102B40004B015C01B301882777FD8095982F0E9487
:102B500024A0A50194010E94EF9E0E94F19F2B01E9
:102B60003C0120E030E0A901C701B6010E94F9A0B4
:102B7000A201662757FD6095762F18166CF4CB01DD
:102B8000BA010E9424A020E030E040E85AE30E940D
:102B90006DA1A70196010EC0CB01BA010E9424A02D
:102BA00020E030E040E85AE30E946DA120E030E0F0
:102BB00040EA50E40E946DA1A50194010E94EF9E9D
:102BC00024EA30E74DE35EE30E94589FFF90EF90C8
:102BD000DF90CF90BF90AF909F908F907F906F903D
:102BE0005F904F900895CF92DF92EF92FF9288E32B
:102BF0000E943E9888DF6B017C019B01AC016091D3
:102C00001E0B70911F0B8091200B9091210B0E9445
:102C1000F09E60931E0B70931F0B8093200B90937C
:102C2000210B8091160B9091170BA091180BB0916E
:102C3000190B0196A11DB11D8093160B9093170BD4
:102C4000A093180BB093190B20911A0B30911B0B0A
:102C500040911C0B50911D0BC701B6010E94F9A0B9
:102C6000181644F4C0921A0BD0921B0BE0921C0B66
:102C7000F0921D0BC701B601FF90EF90DF90CF904F
:102C800008952091290230912A02821B930BBC01E6
:102C9000882777FD8095982F0E9424A020E030E0BF
:102CA00040E85AE30E946DA120911D0330911E035C
:102CB00040911F03509120030E946DA12DEC3CEC2C
:102CC0004CEC5DE30C94589F08952F923F924F92E5
:102CD0005F926F927F928F929F92AF92BF92CF92AC
:102CE000DF92EF92FF920F931F93CF93DF9300D069
:102CF0001F921F92CDB7DEB78B83162F8091860A65
:102D000081110DC00E947D976093FA067093FB06B7
:102D10008093FC069093FD0681E08093860A809163
:102D20006F0B811103C0112309F464C062E070E0ED
:102D300080E090E00E94AC970E947D974B015C017F
:102D40000E9489972B013C0181E40E943E989D835B
:102D50008C8397DF9B01AC010E946DA16B017C010C
:102D60002C803D8021E030E03A8329830E948997BE
:102D70006419750986099709683C710581059105F3
:102D8000A8F30E9489972B013C0181E40E943E98A0
:102D90008C0177DF9B01AC010E946DA19B01AC010E
:102DA000C701B6010E94F09E6B017C018C819D8160
:102DB000801791072CF00215130524F4180102C0A6
:102DC0001D830C83E981FA813196FA83E9830E949D
:102DD0007D97681979098A099B0964317105810514
:102DE000910568F40E947D97681579058A059B0511
:102DF00030F0BCCF10E000E0B12CA12CD9C0E981AB
:102E0000FA81BF01882777FD8095982F0E9424A022
:102E10009B01AC01C701B6010E94589F0E94D4A13A
:102E2000162F072FB82EA92EFB81FF2309F445C0CA
:102E30006AE27AE08FE590E10E94769C4AE050E0F9
:102E4000B1018FE590E10E94649D68E27AE08FE530
:102E500090E10E94769C4AE050E06C817D818FE594
:102E600090E10E94649D66E27AE08FE590E10E9425
:102E7000769C6091290270912A024AE050E08FE529
:102E800090E10E94649D64E27AE08FE590E10E9407
:102E9000769C40911D0350911E0360911F03709119
:102EA000200322E030E08FE590E10E94989E60E2EE
:102EB0007AE08FE590E10E94769C20912902309182
:102EC0002A02C901880F991F820F931F820D931D3B
:102ED0002C813D81820F931F65E070E00E945AA211
:102EE00070932A02609329020E947D97C090FA068F
:102EF000D090FB06E090FC06F090FD066C157D0579
:102F00008E059F0588F00E947D976B017C01809162
:102F1000FA069091FB06A091FC06B091FD06C81A36
:102F2000D90AEA0AFB0A04C00E947D976B017C0162
:102F30000E947D976093FA067093FB068093FC06CF
:102F40009093FD06C701B6010E9422A020E030E068
:102F50004AE754E40E94589F2091000330910103F6
:102F600040910203509103030E946DA120E030E0E4
:102F700041E655E40E94589F9B01AC01612F702FE0
:102F80008B2D9A2D0E946DA19B01AC016091330B9A
:102F90007091340B8091350B9091360B0E94F09E0E
:102FA0006093330B7093340B8093350B9093360BF7
:102FB000612F702F8B2D9A2D0F900F900F900F90E7
:102FC0000F90DF91CF911F910F91FF90EF90DF90C5
:102FD000CF90BF90AF909F908F907F906F905F90B9
:102FE0004F903F902F9008953F924F925F926F9233
:102FF0007F928F929F92AF92BF92CF92DF92EF9289
:10300000FF920F931F93CF93DF93CDB7DEB728972F
:103010000FB6F894DEBF0FBECDBF382E49835A835A
:103020006B837C834801590105E010E0412C512C51
:10303000320162E070E080E090E00E94AC97832D66
:103040000E943E98BC01882777FD8095982F0E94AA
:1030500024A020911D0330911E0340911F03509125
:1030600020030E946DA120E030EC4FE754E40E9461
:10307000589F6D837E838F839887A5019401698112
:103080007A818B819C810E94F09E9B01AC016D81B5
:103090007E818F8198850E946DA1A50194010E9477
:1030A000589F9B01AC01C301B2010E94F09E2B010D
:1030B0003C010150110909F0BCCF20E030E040EAAA
:1030C00050E40E94589FA70196010E946DA1289686
:1030D0000FB6F894DEBF0FBECDBFDF91CF911F9129
:1030E0000F91FF90EF90DF90CF90BF90AF909F90A7
:1030F0008F907F906F905F904F903F900895CF9208
:10310000DF92EF92FF92CF93DF932CE06623A1F042
:10311000289FF001299FF00D1124E65BF54F808177
:103120009181A281B38184839583A683B7838087AD
:103130009187A287B38728C0289FE001299FD00DDF
:103140001124C65BD54FC880D980EA80FB802C81D2
:103150003D814E815F81C701B6010E94549F87FF68
:1031600005C0CC82DD82EE82FF820EC028853985C3
:103170004A855B85C701B6010E94F9A0181624F4A0
:10318000C886D986EA86FB86DF91CF91FF90EF90C3
:10319000DF90CF9008958EE580937C0062E070E030
:1031A00080E090E00E94AC9780917A0080648093E8
:1031B0007A0080917A0086FDFCCF20917800809182
:1031C000790030E0382B442737FD4095542F64EBCD
:1031D0007BE281E190E00E948FA2CA01B9010895CB
:1031E000CF92DF92EF92FF920F931F93CF93DF93D3
:1031F000C82F142FD22F662309F492C0CCDF0E946F
:1032000024A020E030E04AE754E40E94589F6B017C
:103210007C0160934A0A70934B0A80934C0A909306
:103220004D0A20E030E040E250E40E94549F87FDC8
:103230000AC020E030E040EF50E4C701B6010E9430
:10324000F9A01816DCF46AE17AE08FE590E10E94BB
:10325000769C40914A0A50914B0A60914C0A7091B9
:103260004D0A22E030E08FE590E10E94989E63E1F4
:103270007AE08FE590E10E94769C08C0C0921D0321
:10328000D0921E03E0921F03F092200360910B0284
:1032900080E090E034DFCC2309F442C06DE07AE0B6
:1032A0008FE590E10E94769C40914A0A50914B0A2A
:1032B00060914C0A70914D0A22E030E08FE590E178
:1032C0000E94989E6BE07AE08FE590E10E94769CE8
:1032D00040914E0A50914F0A6091500A7091510AE4
:1032E00022E030E08FE590E10E94989E69E07AE06C
:1032F0008FE590E10E94769C4091520A5091530ACA
:103300006091540A7091550A22E030E08FE590E117
:103310000E94989E67E07AE08FE590E10E94769C9B
:10332000112309F4CAC120E030E0A90160911D0316
:1033300070911E0380911F03909120030E94549F5F
:10334000811124C040E050E060EA70E440931D0326
:1033500050931E0360931F037093200340934A0A07
:1033600050934B0A60934C0A70934D0A40934E0A57
:1033700050934F0A6093500A7093510A4093520A37
:103380005093530A6093540A7093550A74E6C72EFB
:1033900070E4D72E72E8E72E7FE3F72E00E010E40A
:1033A0002EE435E440E050E864ED75E48EE390E00F
:1033B0001BDE6093560A7093570A8093580A9093C5
:1033C000590A60910B0281E090E099DECC2309F468
:1033D00042C061E07AE08FE590E10E94769C4091E6
:1033E000560A5091570A6091580A7091590A22E082
:1033F00030E08FE590E10E94989E6FEF79E08FE5D5
:1034000090E10E94769C40915A0A50915B0A60912B
:103410005C0A70915D0A22E030E08FE590E10E9445
:10342000989E6DEF79E08FE590E10E94769C409147
:103430005E0A50915F0A6091600A7091610A22E011
:1034400030E08FE590E10E94989E6BEF79E08FE588
:1034500090E10E94769C69E5C62E66E8D62E60E86B
:10346000E62E6FE3F62E00E010EC23E735E440E0B3
:1034700050E06AE774E48FE390E0B6DD6093620A9F
:103480007093630A8093640A9093650A60910B02BB
:1034900082E090E034DECC2309F442C065EF79E0AD
:1034A0008FE590E10E94769C4091620A5091630AF8
:1034B0006091640A7091650A22E030E08FE590E146
:1034C0000E94989E63EF79E08FE590E10E94769CE0
:1034D0004091660A5091670A6091680A7091690A82
:1034E00022E030E08FE590E10E94989E61EF79E064
:1034F0008FE590E10E94769C40916A0A50916B0A98
:1035000060916C0A70916D0A22E030E08FE590E1E5
:103510000E94989E6FEE79E08FE590E10E94769C84
:10352000C12CD12C50E8E52E5FE3F52E00E010E829
:1035300029E035E4B901A8018DE390E055DD609301
:103540006E0A70936F0A8093700A9093710A60916B
:103550000B0283E090E0D3DDCC2309F442C069EE96
:1035600079E08FE590E10E94769C40916E0A50913F
:103570006F0A6091700A7091710A22E030E08FE565
:1035800090E10E94989E67EE79E08FE590E10E94BD
:10359000769C4091720A5091730A6091740A7091FE
:1035A000750A22E030E08FE590E10E94989E65EE7A
:1035B00079E08FE590E10E94769C4091760A5091E7
:1035C000770A6091780A7091790A22E030E08FE5FD
:1035D00090E10E94989E63EE79E08FE590E10E9471
:1035E000769C82E40E943E98BC01882777FD8095F6
:1035F000982F0E9424A020911D0330911E0340911A
:103600001F03509120030E946DA120E030EC4FE792
:1036100054E40E94589F60937A0A70937B0A8093C7
:103620007C0A90937D0A60910B0284E090E067DD54
:10363000CC2309F442C06DED79E08FE590E10E9462
:10364000769C40917A0A50917B0A60917C0A709135
:103650007D0A22E030E08FE590E10E94989E6BEDBC
:1036600079E08FE590E10E94769C40917E0A50912E
:103670007F0A6091800A7091810A22E030E08FE534
:1036800090E10E94989E69ED79E08FE590E10E94BB
:10369000769C4091820A5091830A6091840A7091CD
:1036A000850A22E030E08FE590E10E94989E67ED68
:1036B00079E08FE590E10E94769CDD2309F487C0D4
:1036C00020E030E0A90160911D0370911E038091FC
:1036D0001F03909120030E94549F81110CC080E031
:1036E00090E0A0EAB0E480931D0390931E03A093A2
:1036F0001F03B093200380E40E943E98BC018827FA
:1037000077FD8095982F0E9424A020911D03309171
:103710001E0340911F03509120030E946DA120E0E1
:1037200030E040E85AE30E946DA160937A0A7093FA
:103730007B0A80937C0A90937D0A60910B0284E05F
:1037400090E0DDDCCC2309F442C06FEC79E08FE53A
:1037500090E10E94769C40917A0A50917B0A609198
:103760007C0A70917D0A22E030E08FE590E10E94B2
:10377000989E6DEC79E08FE590E10E94769C4091F7
:103780007E0A50917F0A6091800A7091810A22E03E
:1037900030E08FE590E10E94989E6BEC79E08FE538
:1037A00090E10E94769C4091820A5091830A609138
:1037B000840A7091850A22E030E08FE590E10E9452
:1037C000989E69EC79E08FE590E10E94769C1092DA
:1037D0000B02DF91CF911F910F91FF90EF90DF903F
:1037E000CF9008950F931F93CF93DF9360E080EE07
:1037F0009AE00E9451948B01D82FC92F9B01482F2A
:10380000592F0E9412A2882321F000E010E0DAEC88
:10381000C2ECB8018D2F9C2FDF91CF911F910F919A
:1038200008950F931F93CF93DF9380EE9AE00E9449
:10383000C4948B01D82FC92F9B01482F592F0E9468
:1038400012A2882321F000E010E0D0E8CFEBB8010D
:103850008D2F9C2FDF91CF911F910F910895CF92C3
:10386000DF92EF92FF926B017C01CA01B9012BE755
:1038700034E948E853E40E94F09E9B01AC0160E00B
:1038800070E080E89FE30E94589F9B01AC0162E0DA
:103890007BEE8FE69BE30E94EF9E26E03EE449EA42
:1038A00055E40E946DA10E94C59F2FE135E843ECCD
:1038B00050E40E946DA120E030E040E251E40E941B
:1038C000EF9E2FE335E34EE05FE30E946DA19B0185
:1038D000AC01C701B6010E94F09EFF90EF90DF900F
:1038E000CF900895CF92DF92EF92FF920F931F93A4
:1038F000CF93DF9389E30E943E987C01EC016C0139
:1039000004E010E061E070E080E090E00E94AC979D
:1039100089E30E943E98C80ED91EC817D9072CF01B
:103920008E159F050CF47C01CE010150110911F098
:10393000EC01E8CF9C012E0D3F1DE601C21BD30B0D
:1039400020E030E048EC52E460911D0370911E03CA
:1039500080911F03909120030E946DA16B017C0157
:10396000CE0163E070E00E945AA2882777FD80951F
:10397000982F0E9424A09B01AC01C701B6010E94B0
:103980006DA120E030EC4FE754E40E94589F209155
:10399000F10B3091F20B4091F30B5091F40B0E941C
:1039A000F09EDF91CF911F910F91FF90EF90DF90EC
:1039B000CF9008957F928F929F92AF92BF92CF92B5
:1039C000DF92EF92FF920F931F93CF93DF93782EA6
:1039D000662311F0882329F00AEB1BE0C0E0D0E059
:1039E000C4C060E089E090E00E94990AE090F70B83
:1039F000F090F80B8701000F111F000F111F0654E4
:103A0000144FC12CD12C8091F70B9091F80BC091E1
:103A1000C103D091C203C80FD91FEC16FD060CF0EC
:103A200062C09701281B390BC901DCDE5801AC0CC0
:103A3000BD1CF50160837183828393838091F70BB2
:103A40009091F80BE701C81BD90BCE01EADECC0F31
:103A5000DD1FCC0FDD1FCB57D44F688379838A835A
:103A60009B838091F70B9091F80BE701C81BD90B52
:103A7000F50180809180A280B380CC0FDD1FCC0F38
:103A8000DD1FFE01EB57F44F2081318142815381CC
:103A900060E070E088EC92E40E94EF9E20E030E06D
:103AA00040EA50E40E94589F9B01AC01C501B4015B
:103AB0000E94EF9E9B01AC01FE01E358F44F60832E
:103AC000718382839383C501B401C9DECF57D44F7C
:103AD000688379838A839B83FFEFEF1AFF0A24E0D0
:103AE000C20ED11C90CF7E01EE0CFF1CEE0CFF1C11
:103AF000C7018654944F7C0100E010E04091F70B21
:103B00005091F80B8091C1039091C2039A01280F44
:103B1000391F6091BF037091C003260F371FC21772
:103B2000D3070CF04EC09E01241B350B820F931F50
:103B3000D9DEF701E00FF11F6083718382839383E5
:103B400021960C5F1F4FDACF672DCE010E94990A94
:103B50006B017C0120E030E04AE754EC0E94549F66
:103B6000219687FF0AC00C5F1F4F8091F70B909141
:103B7000F80BC817D90744F324C020E030E04AE727
:103B800054E4C701B6010E94549F87FF06C0F801A4
:103B9000C082D182E282F382E6CF68ED71E08FE5E8
:103BA00090E10E94769C4AE050E0BE018FE590E1F2
:103BB0000E94649D6CE476E08FE590E10E949B9CFE
:103BC000D2CF872DDF91CF911F910F91FF90EF9072
:103BD000DF90CF90BF90AF909F908F907F9008958F
:103BE000FF920F931F93CF93DF93EC0118E0F12E18
:103BF0008E018881803130F460E279E08FE590E1D8
:103C00000E94769C219640E150E0F80160818FE5AA
:103C100090E10E948D9D6CE476E08FE590E10E943A
:103C20009B9CFA9429F7DF91CF911F910F91FF9000
:103C30000895CF92DF92EF92FF92CF93DF93EA0144
:103C400061312EE072078105910568F00E9422A083
:103C500020E030E041E655E40E94589F6B017C0172
:103C600066E174E018C06D3371058105910568F057
:103C70000E9422A020E030E040E752E40E94589FDA
:103C80006B017C0168E174E006C00E9422A06B0118
:103C90007C016AE174E0CE010E946FA461E070E0F3
:103CA00080E090E00E94AC97C701B601DF91CF9110
:103CB000FF90EF90DF90CF9008950E94366A209198
:103CC000520330915303821793075CF00E94366AC7
:103CD00020915403309155038217930714F480E028
:103CE000089581E008954F925F926F927F928F9234
:103CF0009F92AF92BF92CF92DF92EF92FF920F937B
:103D00001F93CF93DF9310929F0A8091ED0B9091B8
:103D1000EE0B029731F10E94A669C0906803D09023
:103D20006903E0906A03F0906B030091700B1091AF
:103D3000710B2091720B3091730BC00ED11EE21EDD
:103D4000F31EC616D706E806F90638F481E090E0BF
:103D50009093EE0B8093ED0B04C01092EE0B10923B
:103D6000ED0B0E94730B882309F46DC0A6DF882336
:103D700081F00E94486A019709F001C10E94366AE9
:103D80002091520330915303281739070CF4C4C013
:103D9000F6C020913F0B3091400B4091410B509168
:103DA000420B60913B0270913C0280913D029091E8
:103DB0003E020E94EF9E6B017C0100916C0310910A
:103DC0006D03D0916E03C0916F03509170034091C9
:103DD000710330917203209173038091ED0B9091E8
:103DE000EE0B181619061CF0052F142FE901809010
:103DF0007C0390907D03A0907E03B0907F0320E031
:103E000030E040E05FE3C501B4010E946DA12B01E9
:103E10003C019B01AC01C701B6010E94F9A0181634
:103E200044F4A3019201B8018D2F9C2F0E94EF9EB4
:103E3000AEC0A5019401B8018D2F9C2F0E94EF9E6A
:103E4000A70196013CC039DF81113CC020913F0B96
:103E50003091400B4091410B5091420B60913B02DD
:103E600070913C0280913D0290913E020E94EF9E33
:103E70006B017C0120E030E040E05FE360917C0377
:103E800070917D0380917E0390917F030E946DA1CC
:103E90004B015C019B01AC01C701B6010E94F9A076
:103EA00020918203309183034091840350918503D4
:103EB00018161CF4C501B40102C0C701B6010E9466
:103EC000F09E65C00E94CE11811109C0409182030D
:103ED0005091830360918403709185033CC081E01D
:103EE00080939F0AF0916C03E0916D0370916E03D3
:103EF00060916F03309174032091750350917603A4
:103F0000409177038091ED0B9091EE0B18161906F6
:103F1000ECF49F01CB011BC081E080939F0A30919C
:103F20006C0320916D0350916E0340916F03F091EB
:103F30007403E0917503709176036091770380912B
:103F4000ED0B9091EE0B181619061CF7CA01432FC2
:103F5000522F692F782F80E090E0DF91CF911F9151
:103F60000F91FF90EF90DF90CF90BF90AF909F9018
:103F70008F907F906F905F904F900C94960F609110
:103F800078037091790380917A0390917B03DF919C
:103F9000CF911F910F91FF90EF90DF90CF90BF9046
:103FA000AF909F908F907F906F905F904F9008950B
:103FB000CF92DF92EF92FF920E94730B811144C067
:103FC00092DE209144033091450340914603509185
:103FD00047030E94F09E6B017C0185DE20917403F3
:103FE0003091750340917603509177030E94F09EC3
:103FF00020E030E040E05FE30E946DA19B01AC0156
:10400000C701B6010E94F9A0181664F46CDE209175
:1040100044033091450340914603509147030E9469
:10402000F09E24C060DE20917403309175034091AE
:104030007603509177030E94F09E20E030E040E04C
:104040005FE30E946DA112C02091440330914503AB
:104050004091460350914703609170037091710342
:1040600080917203909173030E94EF9EFF90EF90F6
:10407000DF90CF9008958091ED0B9091EE0B029719
:1040800049F460916C0370916D0380916E0390917F
:104090006F0308950E94730B811112C00EDE81110F
:1040A00002C00C9419110E94CE11811123C04091BD
:1040B000820350918303609184037091850322C031
:1040C000FCDD882371F00E94486A0197F9F40E9490
:1040D000366A20915203309153032817390754F060
:1040E00015C060917003709171038091720390917B
:1040F00073030895409174035091750360917603A2
:104100007091770381E090E00C94960F20917C03EE
:1041100030917D0340917E0350917F03609178033D
:104120007091790380917A0390917B030C94F09EB7
:104130008F929F92AF92BF92CF92DF92EF92FF92B7
:104140000E94730B81115CC096DF20914403309173
:10415000450340914603509147030E94F09E6B0136
:104160007C018090480390904903A0904A03B0904E
:104170004B03B9DD209174033091750340917603B0
:10418000509177030E94F09E20E030E040E05FE332
:104190000E946DA19B01AC01C501B4010E94F09E7B
:1041A0009B01AC01C701B6010E94F9A0181654F496
:1041B00062DF2091440330914503409146035091C2
:1041C00047032EC0C0904803D0904903E0904A03B3
:1041D000F0904B0388DD209174033091750340917A
:1041E0007603509177030E94F09E20E030E040E09B
:1041F0005FE30E946DA19B01AC01C701B60110C035
:104200002091440330914503409146035091470368
:1042100060917003709171038091720390917303A8
:104220000E94F09EFF90EF90DF90CF90BF90AF90F4
:104230009F908F9008950E94366A469734F40E94AA
:10424000366A049714F080E0089581E00895AF92F3
:10425000BF92CF92DF92EF92FF920F931F93CF9373
:10426000DF935C01EB010E94A669009107031091A6
:10427000080320E831E541E050E00E946DA24CE3E4
:10428000409F9001419F300D1124442737FD4095F8
:10429000542F0E946DA269017A0140910903509147
:1042A0000A03049FC001059F900D149F900D1124D7
:1042B000813A9540A8F00E94486AFC0131976091CC
:1042C00007037091080380EA95E00E945AA2E69FD6
:1042D0009001E79F300DF69F300D11242C0D3D1DF0
:1042E0004091090350910A03209759F02C173D077C
:1042F00018F02C1B3D0B05C0CA018C1B9D0B280F11
:10430000391FA49EC001A59E900DB49E900D11244E
:10431000820F931F880F991F20910B0330910C037C
:10432000820F931FDF91CF911F910F91FF90EF901C
:10433000DF90CF90BF90AF90089520E042E064E11D
:104340008EEE9AE00E94AC806AEF70E080E090E030
:104350000E94AC9761EE78E08EEE9AE00E94769C27
:1043600060EA70E087E00C946398CF93C82F61E017
:104370008DE10E94B4996C2F70E080E090E00E9483
:10438000AC9760E08DE1CF910C94B499BF92CF923D
:10439000DF92EF92FF920F931F93CF93DF93EC0185
:1043A0007B0128E228838FEA898389ED8A838EE95D
:1043B0008B8334E03C831D821E8281EA8F8380914F
:1043C000F70B9091F80B288744EA498744E44A8721
:1043D0004FE94B873C871D861E863DE83F87288B2B
:1043E00059E9598B33E73A8B47E94B8B33E03C8BE8
:1043F0001D8A1E8A5F8B288F52E3598F5CE75A8F84
:104400004B8F3C8F1D8E1E8E52E55F8F28A35AEE78
:1044100059A35AE35AA34BA33CA31DA21EA252E4E4
:104420005FA328A752E059A75BE85AA74BA73CA770
:104430001DA61EA658E45FA728AB27ED29AB25E8EB
:104440002AAB4BAB3CAB1DAA1EAA25EC2FAB0796A3
:10445000883091052CF49093F80B8093F70B18C0DB
:1044600087E090E09093F80B8093F70B69EA7EE089
:104470008FE590E10E94769C8EEE9AE00E948E80FD
:1044800062E97EE08EEE9AE00E94769C8AEF6DDF14
:104490008701BB24B3946801CE18DF088091F70B25
:1044A0009091F80BC816D906DCF564E87EE08FE53C
:1044B00090E10E94769C4AE050E0B6018FE590E1E1
:1044C0000E94649D88A9823281F0883259F080313F
:1044D000A9F46AE77EE08FE590E10E94A69CF801CE
:1044E000B0821BC060E77EE002C067E67EE08FE539
:1044F00090E10E94A69CF80110820FC06BE47EE060
:104500008FE590E1DF91CF911F910F91FF90EF9098
:10451000DF90CF90BF900C94A69C0F5F1F4FBBCF36
:10452000DF91CF911F910F91FF90EF90DF90CF908F
:10453000BF900895CF93DF93EC018031910534F45F
:104540006FED78E08EEE9AE00E94769C40E150E0BC
:10455000BE018EEE9AE0DF91CF910C94649DAF92F4
:10456000BF92CF92DF92EF92FF920F931F93CF9360
:10457000DF93CDB7DEB728970FB6F894DEBF0FBE36
:10458000CDBF61EB7BE082E19AE000DF8FE590E157
:104590000E94A39C6091F70B7091F80B4AE050E0E9
:1045A0008FE590E10E94649D6FEB79E08FE590E1EB
:1045B0000E94A69C01EB1BE042E1E42E4AE0F42EAF
:1045C0008091F70B9091F80B9801215B3B402817E5
:1045D000390724F5C70104DB6CE476E08FE590E150
:1045E0000E949B9CF80161918F014AE050E08FE5A9
:1045F00090E10E94939DF8E0EF0EF11CE1CF67E09F
:10460000CE0101960E9492679885891709F45AC0D5
:104610006CE174E08EE09BE00E946FA4BE016F5FCE
:104620007F4F82ED9AE00E94FF668111E8CF82ED14
:104630009AE00E94CB666AEF70E080E090E00E9412
:10464000AC978091F70B9091F80B2091C1033091BA
:10465000C203820F931F2091BF033091C003820FCA
:10466000931F9093F60B8093F50B0A977CF188ECDF
:104670007CDE8FE590E10E94A39C69E979E08FE5FB
:1046800090E10E94A69C8EEE9AE00E948E8067E8E0
:1046900079E08EEE9AE00E94769C88EC66DE89E0F6
:1046A00090E02091C1033091C203821B930B2091B3
:1046B000BF033091C003821B930B9093F80B809340
:1046C000F70B04C0CE0101968BDAA8CF2AEBE22EBD
:1046D0002BE0F22E32E1C32E3AE0D32E00E010E0C0
:1046E0008091F70B9091F80B081719070CF072C026
:1046F0008EEE9AE00E948E8064E879E08EEE9AE079
:104700000E94769C0A30110534F462E879E08EEE5E
:104710009AE00E94769C4AE050E0B8018EEE9AE062
:104720000E94649D60E879E08EEE9AE00E94769C9B
:1047300041E060E08EEE9AE00E949480A12CB12CC2
:10474000F601EA0DFB1D808190E0F4DEA0FE06C0BC
:104750006CE476E08EEE9AE00E949B9C2FEFA21A0A
:10476000B20A38E0A316B10459F760E0C8010E940C
:10477000990A6091250270912602809127029091FA
:1047800028020E94AC97C8010E94AE095701F701A8
:1047900061937193819391937F0140E067E08EEE86
:1047A0009AE00E949480F501408151816281738179
:1047B00021E030E08EEE9AE00E94989E60ED77E076
:1047C00080E090E00E94AC970F5F1F4FF8E0CF0EA3
:1047D000D11C86CF80EE9AE00E94A0930091F70B47
:1047E0001091F80B6801CC0CDD1CCC0CDD1C960183
:1047F0002654344F6901E12CF12C8091F70B9091F4
:10480000F80BA090C103B090C203A80EB91E0A1500
:104810001B050CF06BC0F801E81BF90BCF010E94DF
:10482000F21B5601AE0CBF1CF501608371838283BD
:10483000938320E030E048EC52EC0E94549F87FFC5
:104840000CC068E679E08FE590E10E94769C60E517
:1048500079E08EEE9AE00E94769C8EEE9AE00E94BD
:104860008E806DE479E08EEE9AE00E94769C0A30AC
:10487000110534F46BE479E08EEE9AE00E94769CA8
:104880004AE050E0B8018EEE9AE00E94649D69E42F
:1048900079E08EEE9AE00E94769C41E060E08EEE38
:1048A0009AE00E9494806BE379E08EEE9AE00E9499
:1048B000769C40E067E08EEE9AE00E949480F501DD
:1048C000408151816281738121E030E08EEE9AE077
:1048D0000E94989E60ED77E080E090E00E94AC97A7
:1048E0000F5F1F4FF4E0EF0EF11C87CF8501000F23
:1048F000111F000F111F0654144FE12CF12C409191
:10490000F70B5091F80B2091C1033091C203CA01FB
:10491000820F931F6091BF037091C003860F971F92
:10492000A816B9060CF05AC0C501841B950B821B52
:10493000930B0E94721C6801CE0CDF1CF601608391
:104940007183828393838EEE9AE00E948E8068E367
:1049500079E08EEE9AE00E94769CFAE0AF16B10400
:1049600034F466E379E08EEE9AE00E94769C4AE0A9
:1049700050E0B5018EEE9AE00E94649D64E379E018
:104980008EEE9AE00E94769C41E060E08EEE9AE026
:104990000E94948065E279E08EEE9AE00E94769C17
:1049A00040E067E08EEE9AE00E949480F60140813C
:1049B00051816281738121E030E08EEE9AE00E94A5
:1049C000989E60ED77E080E090E00E94AC97FFEF6A
:1049D000AF1ABF0A24E0E20EF11C91CF8091BE0B0A
:1049E0009091BF0BA091C00BB091C10B80930E0AA8
:1049F00090930F0AA093100AB093110A28960FB64D
:104A0000F894DEBF0FBECDBFDF91CF911F910F9104
:104A1000FF90EF90DF90CF90BF90AF900895CF932D
:104A2000DF93EC018A30910534F46DED78E08EEE81
:104A30009AE00E94769C4AE050E0BE018EEE9AE039
:104A4000DF91CF910C94649D8EEE9AE00E948E804F
:104A500064ED78E08EEE9AE00C94769C62E083E060
:104A60000E947B9962E082E00E947B9962E084E090
:104A70000E947B9965E778E08FE590E10E94769C43
:104A800041E050E06FE779E080E00E943A9541E034
:104A900050E065E579E081E00E943A9562E778E0D0
:104AA0008FE590E10C94A69C8EEE9AE00E948E8099
:104AB00069E678E08EEE9AE00E94769C41E060E044
:104AC0008EEE9AE00E94948065E386ED9CE00E9461
:104AD000986F811112C065E274E08EE09BE00E9445
:104AE0006FA46EE07BE08FE590E10E949B9C6EE0FE
:104AF0007BE08EEE9AE00C949B9C62E678E08EEE72
:104B00009AE00C94769CEF92FF920F931F93CF93B1
:104B1000DF93EC010E94426AF82EE92E0E944E6A51
:104B2000182F092F0E94546AEF92FF920F931F9340
:104B30009F938F932DE234E03F932F93DF93CF9396
:104B40000E94BCA48DB79EB70A960FB6F8949EBF7C
:104B50000FBE8DBFDF91CF911F910F91FF90EF900E
:104B60000895EF92FF920F931F93CF93DF93EC0181
:104B70000E94426AF82EE92E0E944E6A182F092FD1
:104B80000E94546AEF92FF920F931F93805D9740AB
:104B90009F938F932EE334E03F932F93DF93CF9334
:104BA0000E94BCA48DB79EB70A960FB6F8949EBF1C
:104BB0000FBE8DBFDF91CF911F910F91FF90EF90AE
:104BC0000895CF93DF93EB012A813B81FC0133836E
:104BD00022834C815D816E817F814483558366830E
:104BE0007783488559856A857B85408751876287A9
:104BF00073872DE0FE013C96DC011C9601900D921E
:104C00002A95E1F7298D3A8DFC01328F218FDF91B2
:104C1000CF910895DF92EF92FF920F931F93CF935E
:104C2000DF93CDB7DEB76B970FB6F894DEBF0FBE3C
:104C3000CDBF8C017B01D42E0E94196F2D2DA701B1
:104C400066ED7CE0CE0101960E94AB70BE016F5F05
:104C50007F4FC801B6DFC8010E948B6F811178C0F9
:104C60006FE474E08EE09BE00E946FA46EE07BE056
:104C70008FE590E10E949B9C6CE476E08FE590E1EB
:104C80000E949B9CB7018FE590E10E949B9C6CE485
:104C900076E08FE590E10E949B9C65E070E080E00B
:104CA00090E00E94AC972D2DA70166ED7CE0CE012F
:104CB00001960E94AB70BE016F5F7F4FC80181DF1C
:104CC00062E070E080E090E00E94AC97C8010E9432
:104CD0008B6F81113DC067E574E08EE09BE00E9420
:104CE0006FA46EE07BE08FE590E10E949B9C65E005
:104CF00070E080E090E00E94AC97D6DE65E070E066
:104D000080E090E00E94AC972D2DA70166ED7CE03D
:104D1000CE0101960E94AB70BE016F5F7F4FC8014C
:104D200050DF62E070E080E090E00E94AC97C80144
:104D30000E948B6F81110CC06FE574E08EE09BE0E8
:104D40000E946FA46EE07BE08FE590E10E949B9C47
:104D5000C8016B960FB6F894DEBF0FBECDBFDF91D2
:104D6000CF911F910F91FF90EF90DF9008958F9258
:104D70009F92AF92BF92CF92DF92EF92FF920F93EA
:104D80001F93CF93DF93CDB7DEB7C354D1090FB6CE
:104D9000F894DEBF0FBECDBFCE014C960E94196FB6
:104DA000CE01C796B0DE43E1BE01695C7F4FCE0104
:104DB000019630DFBE016F5F7F4FCE014C9601DF61
:104DC000CE014C960E948B6F882309F469C10E9422
:104DD000A669AB01BC01CE01C7960E94C90ABE01FB
:104DE000695C7F4FCE014C960E949B9C6CE476E000
:104DF000CE014C960E949B9C0E94A669AB01BC010F
:104E00002AE030E0CE014C960E94819D0AEB1BE027
:104E1000E12CF12C8091F50B9091F60BE816F90638
:104E2000B4F46CE476E0CE014C960E949B9CF801B1
:104E300041915191619171918F0122E030E0CE0159
:104E40004C960E94989EFFEFEF1AFF0AE3CFE09086
:104E5000F70BF090F80B8091F70B9091F80B2091E5
:104E6000C1033091C203820F931FE816F9063CF587
:104E70006EE578E0CE014C960E94769C8091F70B0F
:104E80009091F80BF701E81BF90BEE0FFF1FEE0FE7
:104E9000FF1FEB57F44F408151816281738122E003
:104EA00030E0CE014C960E94989E6CE578E0CE01F1
:104EB0004C960E94769C8FEFE81AF80ACCCF6CE4EF
:104EC00076E0CE014C960E949B9C80910603811156
:104ED00006C06AE578E0CE014C960E94769C8091EF
:104EE0006F0B813089F480910503811106C068E55C
:104EF00078E0CE014C960E94769C8091040381114B
:104F000009C065E578E002C061E578E0CE014C9625
:104F10000E94769C6CE476E0CE014C960E949B9CAD
:104F200060E080E00E946516AB01BC0123E030E048
:104F3000CE014C960E94989E6BE478E0CE014C9690
:104F40000E94769C60910F07709110074AE050E034
:104F5000CE014C960E94649D68E478E0CE014C96A8
:104F60000E94769CC0901307D0901407E09015071C
:104F7000F090160760911707709118078091190734
:104F800090911A07C114D104E104F10489F00E9440
:104F900022A04B015C01C701B6010E9422A09B0127
:104FA000AC01C501B4010E94589FAB01BC0104C013
:104FB00040E050E060E87FEB23E030E0CE014C962B
:104FC0000E94989E66E478E0CE014C960E94769C02
:104FD00060911107709112074AE050E0CE014C96A3
:104FE0000E94649D64E478E0CE014C960E94769C19
:104FF0006BE378E0CE014C960E94769C0E94F315FC
:10500000AB01BC0122E030E0CE014C960E94989E9C
:1050100069E378E0CE014C960E94769C6091160B75
:105020007091170B8091180B9091190B0E9422A080
:105030009B01AC0160911E0B70911F0B8091200BA6
:105040009091210B0E947F0BAB01BC0124E030E06A
:10505000CE014C960E94989E67E378E0CE014C9674
:105060000E94769C40911A0B50911B0B60911C0B77
:1050700070911D0B22E030E0CE014C960E94989E6C
:1050800064E378E0CE014C960E94769C63E378E07E
:10509000CE014C960E94A69CCE014C960E94796F40
:1050A00064E670E080E090E00E94AC97CD5BDF4F5B
:1050B0000FB6F894DEBF0FBECDBFDF91CF911F9129
:1050C0000F91FF90EF90DF90CF90BF90AF909F90A7
:1050D0008F9008950F931F93CF93DF93CDB7DEB7D3
:1050E000C454D1090FB6F894DEBF0FBECDBF8C01FA
:1050F000CE014C9625966FAF25970E94196FCE0171
:10510000C7962FDD6AE070E080E090E00E94AC97E7
:1051100043E1BE01695C7F4FCE0101967BDDBE019C
:105120006F5F7F4FCE014C964CDD65E070E080E014
:1051300090E00E94AC97CE014C960E948B6F259612
:105140002FAD2597811128C067E674E08EE09BE0C3
:105150000E946FA40E94A669AB01BC01CE01C79654
:105160000E94C90A62E378E08FE590E10E94769C94
:10517000BE01695C7F4F8FE590E10E949B9C6CE4CF
:1051800076E08FE590E10E949B9C6EE07BE08FE5EE
:1051900090E10E949B9CE0C32111AFC0013011053A
:1051A00009F044C067E278E0CE014C960E94769CFC
:1051B0004091740B5091750B6091760B7091770B49
:1051C000CE01C7960E94C90ABE01695C7F4FCE011D
:1051D0004C960E949B9C64E278E0CE014C960E9423
:1051E000769C40914F0B5091500B6091510B7091F8
:1051F000520B22E030E0CE014C960E94989E61E274
:1052000078E0CE014C960E94769C4091D60B50914E
:10521000D70B6091D80B7091D90B22E030E0CE0112
:105220004C960E94989E6FE178E08EC3012B09F0A6
:105230008FC363E178E0CE014C960E94769C0E9479
:10524000A669AB01BC01CE01C7960E94C90ABE0186
:10525000695C7F4FCE014C960E949B9C60E178E098
:10526000CE014C960E94769C4091BE0B5091BF0B94
:105270006091C00B7091C10B22E030E0CE014C96E2
:105280000E94989E6AE078E0CE014C960E94769C3F
:105290000E94A6690091740B1091750B2091760BFA
:1052A0003091770B601B710B820B930B0E9422A035
:1052B00020E030E040E752E40E94589FAB01BC017F
:1052C00022E030E0CE014C960E94989E6CEF77E091
:1052D000CE014C960E94769C4091530B5091540BFA
:1052E0006091550B7091560B22E030E0CE014C9648
:1052F0000E94989E67EF77E027C3243609F04DC2DD
:105300000B30110531F46FEE77E0CE014C960E9420
:10531000769C6EED77E0CE014C960E94769C0E94C2
:10532000A669AB01BC01CE01C7960E94C90ABE01A5
:10533000695C7F4FCE014C960E949B9C66ED77E0A6
:10534000CE014C960E94769C4091E90B5091EA0B5D
:105350006091EB0B7091EC0B23E030E0CE014C96AA
:105360000E94989E6CEC77E0CE014C960E94769C51
:1053700040914B0B50914C0B60914D0B70914E0B2B
:1053800023E030E0CE014C960E94999E6BEB77E0D3
:10539000CE014C960E94769C4091E50B5091E60B15
:1053A0006091E70B7091E80B24E030E0CE014C9661
:1053B0000E94989E61EB77E0CE014C960E94769C0D
:1053C0004091470B5091480B6091490B70914A0BEB
:1053D00024E030E0CE014C960E94989E66EA77E089
:1053E000CE014C960E94769C22E030E040E050E0F6
:1053F00060E771E4CE014C960E94989E63EA77E0E4
:10540000CE014C960E94769C22E030E040E050E0D5
:1054100068EC71E4CE014C960E94989E60EA77E0B9
:10542000CE014C960E94769C22E030E040E050E0B5
:1054300060EF71E4CE014C960E94989E6CE977E093
:10544000CE014C960E94769C20E030E040E85EEB76
:105450006091E50B7091E60B8091E70B9091E80B62
:105460000E946DA120E030E040E85FE30E94F09EE2
:10547000AB01BC0124E030E0CE014C960E94989E26
:1054800069E977E0CE014C960E94769C20E030E0FE
:1054900040E85EE36091E50B7091E60B8091E70BCD
:1054A0009091E80B0E946DA120E030E040E85FE3BE
:1054B0000E94F09EAB01BC0124E030E0CE014C968E
:1054C0000E94989E66E977E0CE014C960E94769CF9
:1054D00020E030E040E05FE36091E50B7091E60B87
:1054E0008091E70B9091E80B0E946DA120E030E0E5
:1054F00040E85FE30E94F09EAB01BC0124E030E095
:10550000CE014C960E94999E65E877E0CE014C96BC
:105510000E94769C4091E10B5091E20B6091E30B6D
:105520007091E40B24E030E0CE014C960E94989EEE
:105530006BE777E0CE014C960E94769C4091430B3E
:105540005091440B6091450B7091460B24E030E084
:10555000CE014C960E94989E6AE677E0CE014C966A
:105560000E94769C22E030E040E050E060EF71E481
:10557000CE014C960E94989E67E677E0CE014C964D
:105580000E94769C22E030E040E050E064E372E468
:10559000CE014C960E94989E64E677E0CE014C9630
:1055A0000E94769C22E030E040E050E06CE872E43B
:1055B000CE014C960E94989E60E677E0CE014C9614
:1055C0000E94769C20E030E040E45FE36091E10BD4
:1055D0007091E20B8091E30B9091E40B0E946DA11E
:1055E00020E030E040E85FE30E94F09EAB01BC01A8
:1055F00024E030E0CE014C960E94989E6DE577E065
:10560000CE014C960E94769C20E030E040EE5EE3B6
:105610006091E10B7091E20B8091E30B9091E40BB0
:105620000E946DA120E030E040E85FE30E94F09E20
:10563000AB01BC0124E030E0CE014C960E94989E64
:105640006AE577E0CE014C960E94769C2EE833EE18
:1056500048EB5EEB6091E10B7091E20B8091E30B04
:105660009091E40B0E946DA120E030E040E85FE300
:105670000E94F09EAB01BC0124E030E0CE014C96CC
:105680000E94989E6CEB76E0CE014C960E94B69CF0
:1056900065E477E0CE014C960E94769C4091C30A67
:1056A0005091C40A6091C50A7091C60A24E030E0A6
:1056B000CE014C960E94989E6CEB76E0CE014C9603
:1056C0000E94B69C62E377E0CE014C960E94769CE5
:1056D00020E030E04AE754E460912F0B7091300BEA
:1056E0008091310B9091320B0E94589FAB01BC010D
:1056F00023E030E0CE014C960E94989E6EE177E068
:10570000CE014C960E94769C20E034E244E759E4B6
:105710006091270B7091280B8091290B90912A0B97
:105720000E94589FAB01BC0123E030E0CE014C96B3
:105730000E94989E6DE077E0CE014C960E94769C88
:1057400020E034E244E759E460912B0B70912C0B7C
:1057500080912D0B90912E0B0E94589FAB01BC01A4
:1057600023E030E0CE014C960E94989E66E077E000
:10577000CE014C960E94769C0E946A0EAB01BC0141
:1057800023E030E0CE014C960E94989E6CEB76E0D0
:10579000CE014C960E94B69CDBC00130110509F089
:1057A0006AC0213019F467EF76E013C0223019F493
:1057B00065EE76E00EC02A3019F461ED76E009C09E
:1057C000243119F462EC76E004C0293131F462EB43
:1057D00076E0CE014C960E94769C0E94A669AB01B1
:1057E000BC01CE01C7960E94C90ABE01695C7F4F09
:1057F000CE014C960E949B9C6FEA76E0CE014C96BF
:105800000E94769C4091BE0B5091BF0B6091C00BE3
:105810007091C10B22E030E0CE014C960E94989E20
:105820006CEA76E0CE014C960E94769C4091C60BC5
:105830005091C70B6091C80B7091C90B22E030E00A
:10584000CE014C960E94989E68EA76E0CE014C9676
:105850000E94769C4091D20B5091D30B6091D40B57
:105860007091D50B22E030E0CE014C960E94989EBC
:1058700066EA76E069C0213019F467E976E013C082
:10588000223019F465E876E00EC02A3019F460E79A
:1058900076E009C0243119F460E676E004C02931CD
:1058A00031F46FE476E0CE014C960E94769C0E9423
:1058B000A669AB01BC01CE01C7960E94C90ABE0110
:1058C000695C7F4FCE014C960E949B9C6CE476E015
:1058D000CE014C960E94769C4091BE0B5091BF0B1E
:1058E0006091C00B7091C10B22E030E0CE014C966C
:1058F0000E94989E69E476E0CE014C960E94769CC8
:105900004091C60B5091C70B6091C80B7091C90BA9
:1059100022E030E0CE014C960E94989E65E476E04D
:10592000CE014C960E94769C4091D20B5091D30BA5
:105930006091D40B7091D50B22E030E0CE014C96F3
:105940000E94989E63E476E0CE014C960E94A69C4D
:10595000CE014C960E94796F64E670E080E090E0A2
:105960000E94AC97CC5BDF4F0FB6F894DEBF0FBE42
:10597000CDBFDF91CF911F910F9108958F929F928C
:10598000AF92BF92FF920F931F93CF93DF93CDB748
:10599000DEB72D970FB6F894DEBF0FBECDBFF82E41
:1059A00081E0F81220C060E08AE20E94B4996AE0C7
:1059B00081E090E08FDB6CE476E08FE590E10E947F
:1059C000B69C0E94A669AB01BC01CE0101960E9463
:1059D000C90ABE016F5F7F4F8FE590E10E949B9CDB
:1059E0006DEF7DE041C061E08AE20E94B4990E94BF
:1059F000A66980905F0B9090600BA090610BB090B7
:105A0000620B0091630B1091640B2091650B309138
:105A1000660B801A910AA20AB30A860E971EA81E68
:105A2000B91E80925F0B9092600BA092610BB092B6
:105A3000620B6AE080E090E04DDB6CE476E08FE59D
:105A400090E10E94B69C0E94A669AB01BC01CE0108
:105A500001960E94C90ABE016F5F7F4F8FE590E1FA
:105A60000E949B9C67EE7DE08FE590E10E94769C12
:105A7000F092E00B0E94A6696093630B7093640B35
:105A80008093650B9093660B2D960FB6F894DEBF4E
:105A90000FBECDBFDF91CF911F910F91FF90BF90AF
:105AA000AF909F908F9008951F93CF93DF93CDB7C2
:105AB000DEB72D970FB6F894DEBF0FBECDBF823094
:105AC00048F48093FE066AE070E080E090E00E9477
:105AD000AC978BC01091FE06123008F086C0809102
