:100000000C946D090C94CA960C94FB960C942C9746
:100010000C945D970C948E970C94BF970C94F0976A
:100020000C9421980C949E090C949E090C949E09A2
:100030000C949E090C949E090C949E090C949E09A4
:100040000C949E090C949E090C949E090C949E0994
:100050000C949E090C949E090C949E090C94529841
:100060000C949E090C949F9C0C94D59C0C949E0916
:100070000C949E090C949E090C949E090C949E0964
:100080000C949E090C949E090C949E090C949E0954
:100090000C949E090C949E090C949E090C945D6D21
:1000A0000C949E090C949E090C949E090C949E0934
:1000B0000C949E090C949E090C949E090C949E0924
:1000C0000C949E090C949E090C949E090C949E0914
:1000D0000C949E090C949E090C949E090C949E0904
:1000E0000C949E09F646F646A947C94812494F495D
:1000F0008C49484AA4966E96769682968F96B096CC
:10010000BD96A699AB99B099BA99C4993D9ACE99E2
:10011000D699DE99E899F299FC990B9A159A3D9A2D
:100120001F9A299A339A5F9A629A519A559A5B9AC2
:10013000999A669A6A9A709A749A789A7E9A829A2A
:10014000869A999A8C9A909A949A07634236B79BAA
:10015000D8A71A39685618AEBAAB558C1D3CB7CC27
:100160005763BD6DEDFD753EF6177231BF0000009F
:10017000803F20497A6B6C6F70206B6F6D70726579
:10018000736F726A612054430020497A6B6C6F7000
:100190002076656E742E206B6F6D707265736F7252
:1001A0006A612054430020566B6C6F702076656E38
:1001B000742E206B6F6D707265736F726A6120545C
:1001C000430020566B6C6F70206B6F6D707265739F
:1001D0006F726A61205443002043457200204D65D0
:1001E0006E7500436F756E7400427574746F6E2087
:1001F00070726573736564002D20002D20002D2022
:100200000052656654656D70423030202D20526575
:100210006654656D70423031202D2054656D7049F3
:100220007A6B6C6F7061202D2070726576437270EE
:10023000544353746174653A200027002F0027004F
:10024000496E69742E204F4B005374696B616C6169
:100250003A2000467265652052414D3A20004672B0
:1002600065652052414D002020002E002E002020E8
:100270000020525443204F4B0054696D653A0044AE
:1002800053313330372072656164206572726F724A
:100290002120205072657665726920706F76657ACC
:1002A0006176652E00546865204453313330372021
:1002B0006A652075737461766C6A656E2E20507263
:1002C0006F73696D206E6173746176692063617309
:1002D0002E00546F6B3A20004B6F6E74726F6C651A
:1002E000722054433A2000434F2120003C003E003E
:1002F00035563328457272293A20003C3C3C205444
:10030000685300504F5354202F75706461746520FA
:10031000485454502F312E310D0A486F73743A20CF
:1003200024460D0A436F6E6E656374696F6E3A20E2
:10033000636C6F73650D0A582D5448494E475350EE
:1003400045414B4150494B45593A2024460D0A43FB
:100350006F6E74656E742D547970653A206170709B
:100360006C69636174696F6E2F782D7777772D666E
:100370006F726D2D75726C656E636F6465640D0AC6
:10038000436F6E74656E742D4C656E6774683A20A9
:1003900024440D0A0D0A2448004342395249345777
:1003A00046323941473051463100660074002069B9
:1003B000734C696E6B55703A0064656C6179636E5D
:1003C000743A200066616C73650074727565007024
:1003D0006572736973745F7463705F636F6E6E656B
:1003E0006374696F6E3A200066616C7365007472A5
:1003F00075650055736520444843503A20004869AC
:1004000073706F72743A2000485454502F312E305C
:1004100020323030204F4B0D0A436F6E74656E747E
:100420002D547970653A20746578742F68746D6CFA
:100430000D0A507261676D613A206E6F2D636163C2
:1004400068650D0A0D0A3C6D6574612068747470EE
:100450002D65717569763D277265667265736827CB
:1004600020636F6E74656E743D273539272F3E3CCF
:100470007469746C653E496E666F2073657276654B
:10048000723C2F7469746C653E3C68313E20245385
:100490003C2F68313E3C68333E2054313A2024538F
:1004A00043203C62723E2054323A20245343203C85
:1004B00062723E2054333A20245343203C62723E01
:1004C0002054343A20245343203C62723E20543559
:1004D0003A20245343203C62723E2054363A202472
:1004E0005343203C62723E2054373A202453432029
:1004F0003C62723E2054383A20245343203C6272BE
:100500003E2054393A20245343203C62723E5248E4
:100510003A20245325203C62723E48756D6964651B
:10052000783A202453433C62723E434F3A2024449D
:100530003C62723E53746174653A2024442444241E
:100540004424442444244424442020203C2F683361
:100550003E203C62723E002920003B002045772867
:10056000005265537420756E737563210047617482
:1005700065776179204950206E6F7420666F756EC3
:1005800064200064656C6179636E743A20002920F0
:10059000003B002045702800207375636573733A33
:1005A0002000444E53206661696C656400207375B9
:1005B000636573733A2000207375636573733A2023
:1005C00000207375636573733A200020737563654B
:1005D00073733A2000207375636573733A2000507B
:1005E00072657665726920706F76657A61766F20C4
:1005F00065746865726E6574206D6F64756C6121D9
:10060000004574682E206669727761726520726594
:10061000763A20004661696C656420746F206163DE
:10062000636573732045746865726E657420636FCB
:100630006E74726F6C6C6572000000006572726F90
:100640007200002900202D200020280020200049D1
:100650007A6B6C2E206B6F6D70722E54433A2000B3
:10066000497A6B6C2E2076656E742E54433A2000C6
:10067000497A6B6C2E20637270616C6B65207261BD
:10068000642E3A2000497A6B6C2E637270616C6B39
:10069000652054433A20005A61702E2076656E74AE
:1006A000696C613A20002900202D200020280020BC
:1006B0002000566B6C2E206B6F6D70722E54433A77
:1006C0002000566B6C2E2076656E742E54433A20B3
:1006D00000566B6C2E20637270616C6B65207261CA
:1006E000642E3A2000566B6C2E20637270616C6B26
:1006F000652054433A20004F64702E2076656E7456
:10070000696C613A200020436F703A200020446FEA
:10071000626C6A656E6F20284D4A293A2000205588
:10072000707261626C6A656E6F20284D5773293A4A
:100730002000205A61632E20506F72616261206B2D
:1007400056413A2000206661637457656967687492
:1007500041766754656D703A20002C20002C2000F3
:10076000293D20002C20002C2000204B6F6D702E86
:1007700073742E74656D702E202800205A61646E8B
:100780006A613A200020466163742E7A61632E7498
:10079000656D703A20002C20002C2000293D20009F
:1007A0002C20002C2000204B6F6D702E6F6B2028AA
:1007B00000207A61646E6A613A20002046616374A9
:1007C0002E6B6F6D702E6F6B2E3A2000205A616475
:1007D0006E6A613A2000204E6F76613A20004869C7
:1007E00074726F737420677265746A613A2000498D
:1007F0006E666F202D200073742F68006D696E2067
:1008000020486974722E673A200020204F6E3A000B
:10081000202000497A6B6C6F702054433A200029E5
:1008200000202800202000566B6C6F702054433A43
:10083000200000002941002F0028002049283132E3
:1008400056293A0029002F002028004120434F3A22
:10085000004F4646004547004B0056002500432008
:100860002000205344204F4B0053442043617264C6
:100870003A004F4B00456E636F6465723A007858DA
:1008800078587858785800785878587858785800B8
:100890005A61646E6A652070726567726576616E12
:1008A0006A653A200054692000547620004F46467D
:1008B000004547004B004100546F6B3A00434F3AEC
:1008C000004F4646004547004B0056002500432098
:1008D00052483A00536520707269646500300030F8
:1008E00000204C4344204F4B002D003A0054002D73
:1008F000002F002F00290028002F00290028003A8F
:100900000054002D0050726567726576616E6A65ED
:10091000204F4B0029002F002F0028003A005400E0
:100920003000204400204B2D747970652073656E73
:100930007A6F72003A00300054200020444854324C
:10094000322073656E7A6F72003A003000542000D6
:100950004E6170616B612044485432322073656E81
:100960007A6F726A612121004E6170616B6120446F
:10097000485432322073656E7A6F726A61212100A9
:100980003A00300054200053746576696C6F207310
:10099000656E7A6F726A65760053746576696C6FFE
:1009A0002074656D702E2073656E7A6F726A65763D
:1009B000207365206E6520756A656D6121210020B8
:1009C000646576696365732E0029002F0028002076
:1009D000426174742B3A0029002F002800203356FE
:1009E000333A0029002F002800203556333A0029D9
:1009F000002F002800203556323A0029002F002809
:100A000000203132563A0029002F002800203549B5
:100A10006E3A00284572722920002035496E3A004E
:100A200056202D003A003A002D004D696E2E2D6D96
:100A300061783A003A2000202000416464726573B6
:100A40003A003A20002020004164647265733A0045
:100A5000202F20006661637457656967687441766A
:100A60006754656D703A200043206A6520004B6F23
:100A70006D70656E7A2E207A616365746E65207480
:100A8000656D702E207072692074656D702E200067
:100A9000202F20004B6F6D702E73742E3A20004370
:100AA000206A6520004B6F6D70656E7A2E2074652C
:100AB0006D702E206F6B6F6C69636520707269209A
:100AC00074656D702E2000202F20004B6F6D702EEE
:100AD0006F6B2E3A20004B2F6800202F20004869B2
:100AE000722E20677265743A20002020002E002E9E
:100AF00000204E61736C65646E6A65207072656774
:100B0000726576616E6A653A20002020002E002E04
:100B1000005A61646E6A65207072656772657661FD
:100B20006E6A653A20002270726576544353746190
:100B3000746522206E61737461766C6A656E6F20D5
:100B40006E6120002020002E002E004C6173742066
:100B50005443206368673A200073004F6E54696DF8
:100B6000653A20002020002E002E0020204E6173C8
:100B70006C65646E6A652070726567726576616E19
:100B80006A653A20002020002E002E005A61646E13
:100B90006A652070726567726576616E6A653A2073
:100BA000004F4646004547004B005600202D3E2092
:100BB0000066007400204C553A002064636E743A5D
:100BC00000294120002F00280020492831327629B1
:100BD0003A0029002F0028002920434F3A002D0019
:100BE0002D3E002D0020280020546920002054763E
:100BF0003A002F002F004F6E2074696D653A200077
:100C000029200041280020546F6B3A20006D73208A
:100C100000293A2000204176672E70696E672074A3
:100C2000696D65286E3D002D004D696E2D4D617812
:100C3000286C6173742068293A20006D73200029A4
:100C40003A2000204176672E6379636C6554696DA4
:100C500065286E3D0029003E0028003A00205248D9
:100C6000610056200050200029003E0028003A0074
:100C7000205461002050200020452000204E6F7637
:100C8000613A00204661637457656967687441760C
:100C90006754656D703A0020436F703A2000204918
:100CA0006E666F2064656C7461546853743A2000FA
:100CB00020496E666F2064656C746154684F6B3AAE
:100CC000200020496E666F2064656C746154683A38
:100CD0002000206B6F6D702E73743A2000204E6FD1
:100CE0007661206B6F6D702E6F6B3A200020746BF5
:100CF0006F6D7053743A200020746B6F6D70303AD2
:100D000020002072756E2074696D652868293A206C
:100D1000002074656D70206F6B6F6C696365207364
:100D2000743A200020496E666F2063616C2E287330
:100D30007461727454656D70293A2000204C61739F
:100D4000743A00204B6F6D702E73743A00204C6122
:100D500073743A00204B6F6D702E6F6B3A00204C0D
:100D60006173743A0020482E677265743A00496EC8
:100D7000666F202D2000564168006B5641680020A8
:100D80002000436173206A65206E61737461766C24
:100D90006A656E003E2000203C4454656D703A2028
:100DA0000020497A6B6C6F7020637270616C6B65A8
:100DB0002054430020566B6C6F7020637270616C1E
:100DC0006B6520544300205A61706972616D207612
:100DD000656E74696C00204F64706972616D207675
:100DE000656E74696C200020497A6B6F6C702063AB
:100DF00072702E207261646961746F720020566B8C
:100E00006C6F70206372702E207261646961746F00
:100E100072004572724570526542752000457272CB
:100E2000457072526542754C65004572724570524C
:100E300065427520004572724570577242792000F4
:100E400045727245705772506720003A206E6920D3
:100E5000445331387832302066616D696C79206492
:100E600065766963652E003A20445331383232008A
:100E70003A2044533138423230003A20445331381A
:100E80005332300054656D702E2073656E736F722F
:100E9000200053746576696C6F2044532073656E2F
:100EA0006F73726A657621210053746576696C6F81
:100EB0002044532073656E6F73726A65762121003A
:100EC0006170692E7468696E67737065616B2E63FB
:100ED0006F6D000F000F000F000F000F000F0011CB
:100EE000001300160019001E001E00190019001939
:100EF000001C001E0020001E001C001B0019001416
:100F0000000F00CDCC4C3ECDCC4C3ECDCC4C3ECD9C
:100F1000CC4C3ECDCC4C3ECDCC4C3ECDCC4C3ECD45
:100F2000CC4C3ECDCC4C3ECDCC4C3ECDCC4C3ECD35
:100F3000CC4C3ECDCC4C3ECDCC4C3ECDCC4C3ECD25
:100F4000CC4C3ECDCC4C3ECDCC4C3ECDCC4C3ECD15
:100F5000CC4C3ECDCC4C3ECDCC4C3ECDCC4C3ECD05
:100F6000CC4C3E1E001E001E001E001E001E001C5B
:100F7000000F000C000D000F0011001300150014ED
:100F80000012000F000C000E001000120016001ED0
:100F9000001E00005EBCE2613FDD83C29C7E20A398
:100FA000FD1F419DC3217FFCA2401E5F01E3BD3EAA
:100FB0006082DC237D9FC1421CFEA0E1BF5D0380F7
:100FC000DE3C62BEE0025CDF81633D7C22C09E1D90
:100FD00043A1FF4618FAA427799BC584DA3866E551
:100FE000BB5907DB856739BAE406581947A5FB7872
:100FF00026C49A653BD987045AB8E6A7F91B45C6AB
:10100000987A24F8A6441A99C7257B3A6486D85B57
:1010100005E7B98CD2306EEDB3510F4E10F2AC2F04
:101020007193CD114FADF3702ECC92D38D6F31B241
:10103000EC0E50AFF1134DCE90722C6D33D18F0C5E
:1010400052B0EE326C8ED0530DEFB1F0AE4C129127
:10105000CF2D73CA947628ABF517490856B4EA69C0
:1010600037D58B5709EBB536688AD495CB2977F4F9
:10107000AA4816E9B7550B88D6346A2B7597C94A22
:1010800014F6A8742AC896154BA9F7B6E80A54D7DF
:10109000896B357C3C3E5E2B3D3F2F5B5D3B2C2AB4
:1010A000225C004500008200004000200001080092
:1010B0000604000100000A0B02090C0D0E080703CC
:1010C000040100000000000000000000000000001B
:1010D0000000000000000000000000000000000010
:1010E00012111000000000000000000000000000CD
:1010F0000000000000000000000001021020200895
:101100000810204010204080020102010804020162
:1011100001020408102040808040201008040201D1
:10112000800402018040201008040201080402012A
:1011300001020408102040800102040810204080B1
:1011400005050505070508080808020202020A0A43
:101150000808040404040101010101010101030361
:10116000030303030303040707070C0C0C0C0C0C0C
:101170000C0C0202020206060606060606060B0B09
:101180000B0B0B0B0B0B000020002300260029008B
:101190002C002F00320000010000030106010901AC
:1011A00000002200250028002B002E003100340012
:1011B00002010000050108010B01000021002400CC
:1011C00027002A002D003000330001010000040137
:1011D00007010A0100407A10F35A00A0724E180964
:1011E0000010A5D4E80000E87648170000E40B548E
:1011F000020000CA9A3B000000E1F505000080965D
:101200009800000040420F000000A086010000008E
:10121000102700000000E803000000006400000048
:1012200000000A00000000000100000000002C7611
:10123000D888DC674F0823DFC1DFAE59E1B1B7962C
:10124000E5E3E453C63AE651997696E8E6C2842689
:10125000EB898C9B62ED407C6FFCEFBC9C9F40F265
:10126000BAA56FA5F490055A2AF75C936B6CF967E1
:101270006DC11BFCE0E40D47FEF520E6B500D0EDA6
:10128000902E0300943577050080841E080000200E
:101290004E0A000000C80C333333330F986E1283AC
:1012A0001141EF8D2114893BE65516CFFEE6DB1880
:1012B000D1844B381BF77C1D901DA4BBE424203245
:1012C00084725E228100C9F124ECA1E53D27BC3C7B
:1012D0007C6C9D6E4F726175079D11241FBECFEF10
:1012E000D1E2DEBFCDBF00E00CBF16E0A0E0B2E06F
:1012F000E8E1F6E501E00BBF02C007900D92AE30C9
:10130000B107D9F720E1AEE0B6E001C01D92A834E4
:10131000B207E1F712E1CAEDD2E100E006C0229780
:101320000109FE010BBF0E94F5A3CE3CD10780E06E
:101330000807A9F70E944B9D0C940AAB0C9400007F
:10134000DC011696ED91FC9117979F012F5F3F4F9F
:1013500017963C932E931697608381E090E0089552
:101360000E945C8A81E090E0089580915009882372
:1013700031F061E070E080E090E00E94CB9883E083
:101380000E94089B40915109242F30E08217930757
:10139000A9F081E0842780935109882369F0809126
:1013A0005209811109C08091530990915409019704
:1013B0009093540980935309109250090895809195
:1013C0005009882331F061E070E080E090E00E94F5
:1013D000CB9882E00E94089B40915209242F30E074
:1013E00082179307A9F081E084278093520988230C
:1013F00069F080915109811109C080915309909140
:1014000054090196909354098093530910925009FE
:101410000895BC0189E393E00C9459948F929F92B4
:10142000AF92BF92CF92DF92EF92FF920F931F93F2
:10143000CF93DF93CDB7DEB72C970FB6F894DEBF0E
:101440000FBECDBF5C018AE19AE00E94CB66B50178
:10145000E3E0660F771FEA95E1F7665A764F8AE177
:101460009AE00E94C46740E06EEB8AE19AE00E9435
:1014700068674E018AE0880E911CFE0131967F015B
:1014800000E010E08AE19AE00E94A967F7018193E9
:101490007F01811102C00F5F1F4FE814F90491F71B
:1014A00068E0CE0101960E94B1689985891711F014
:1014B000085F1F4F6A8170E0762F66278981682B4D
:1014C000F501E750F54F8081882391F043E0660FE6
:1014D000771F4A95E1F788858031F1F4CB01807F51
:1014E0002F816CE070E0621B7109680F791F14C0D6
:1014F0008D81807631F433E0660F771F3A95E1F7FE
:101500000BC0803229F4660F771F660F771F04C067
:10151000803411F4660F771F80E090E00E9441A1B3
:1015200020E030E040E85DE30E948CA26B017C018A
:1015300020E030E04AE754E40E9418A2181624F094
:10154000083011050CF440C087EA9FE00E94C29D5C
:1015500062E279E087EA9FE00E94959DB5016F5FA6
:101560007F4F4AE050E087EA9FE00E94839ECE01D1
:1015700001965C016EE875E087EA9FE00E94BA9DE3
:10158000F50161915F0140E150E087EA9FE00E9430
:10159000AC9EA814B90471F76EE875E087EA9FE085
:1015A0000E94BA9D22E030E0B701A60187EA9FE0E1
:1015B0000E94B79F083011053CF0C12C80E4D82E62
:1015C0008AE7E82E84E4F82EC701B6012C960FB600
:1015D000F894DEBF0FBECDBFDF91CF911F910F9169
:1015E000FF90EF90DF90CF90BF90AF909F908F9043
:1015F0000895CF93DF93EC0161111BC08AE19AE05B
:101600000E94CB66C930D10539F440E06CEC8AE128
:101610009AE00E94686710C0BE01F3E0660F771F72
:10162000FA95E1F7665A764F8AE19AE00E94C4671C
:1016300003C0DF91CF91F2CE40E064E48AE19AE00A
:101640000E94686760E070E48AE794ECDF91CF91D4
:101650000895AF92BF92CF92DF92EF92FF920F93D5
:101660001F93CF93DF93EC016A017B01CB01BA0199
:101670000E94C369B82EA92EC701B6010E94BE6997
:10168000182F092FC701B6010E94B969AF92BF9206
:101690000F931F939F938F9329E433E03F932F93EE
:1016A000DF93CF930E94DBA58DB79EB70A960FB646
:1016B000F8949EBF0FBE8DBFDF91CF911F910F9108
:1016C000FF90EF90DF90CF90BF90AF900895DC0136
:1016D000ED91FC910190F081E02D1994CF92DF9271
:1016E000EF92FF92CF93DF93EC010E949C986B01E5
:1016F0007C010E949C986C197D098E099F096536B2
:1017000071058105910558F4BE018DE59BE00E94AD
:10171000676C8DE59BE00E947A6C8111EACFDF91C6
:10172000CF91FF90EF90DF90CF900895CF92DF920E
:10173000EF92FF920F931F93CF93DF93EC016A0117
:101740007B01222349F0DF91CF911F910F91FF90F0
:10175000EF90DF90CF907DCFCB01BA010E94BE69A0
:10176000182F092FC701B6010E94B9690F931F9363
:101770009F938F932DEC33E03F932F93DF93CF9381
:101780000E94DBA58DB79EB708960FB6F8949EBF52
:101790000FBE8DBFDF91CF911F910F91FF90EF9002
:1017A000DF90CF9008950E94676B019731F00E94FF
:1017B000676B079711F080E0089581E008958F929C
:1017C0009F92AF92BF92CF92DF92EF92FF924B0126
:1017D0005C0169017A0120E030E0A901C701B6018E
:1017E0000E9418A218165CF427E137EB41ED58E38C
:1017F000C701B6010E9473A087FF0BC011C027E18B
:1018000037EB41ED58EBC701B6010E9418A218163C
:101810003CF0A7019601C501B4010E9477A003C066
:1018200060E070E0CB01FF90EF90DF90CF90BF9031
:10183000AF909F908F90089520E030E040EA51E40F
:101840000E940EA020E030E040EA51E40E9477A020
:1018500020912D0B30912E0B40912F0B5091300B7E
:101860000E948CA220E030E040E85FE30C940FA0DF
:1018700008959B01AC010E948CA29B01AC0160E029
:1018800070E081E695E40E940EA020E030E041E6A1
:1018900055E40E9477A02091290B30912A0B4091AA
:1018A0002B0B50912C0B0E948CA220E030E040E8E2
:1018B0005FE30C940FA008958F929F92AF92BF9216
:1018C000CF92DF92EF92FF9260917F0A7091800A2F
:1018D0008091810A9091820AAFDF6B017C01809038
:1018E000970A9090980AA090990AB0909A0AC50118
:1018F000B401BFDF9B01AC01C701B6010E948CA2FD
:101900006B017C016091830A7091840A8091850A41
:101910009091860A0E9441A120E030E041E655E422
:101920000E9477A09B01AC01C701B6010E948CA266
:101930006B017C0120E030E0A9010E9418A218167A
:101940005CF42FE632E143E85AE3C701B6010E9496
:1019500073A087FF14C00AC02FE632E143E85AEBB8
:10196000C701B6010E9418A218164CF46091310B01
:101970007091320B8091330B9091340B10C0A50104
:1019800094016091060B7091070B8091080B909168
:10199000090B0E940EA0A70196010E9477A0FF905C
:1019A000EF90DF90CF90BF90AF909F908F90089571
:1019B0004F925F926F927F928F929F92AF92BF925F
:1019C000CF92DF92EF92FF92CF93DF9300D01F92DE
:1019D000CDB7DEB78091F609882309F4C0C06091C5
:1019E000830A7091840A8091850A9091860A0E94E8
:1019F00041A120E030E041E655E40E9477A020912B
:101A0000310B3091320B4091330B5091340B0E94CB
:101A10008CA26B017C014090970A5090980A6090CC
:101A2000990A70909A0AC301B20123DF9B01AC01AD
:101A3000C701B6010E948CA24B015C018091060B8C
:101A40009091070BA091080BB091090B89839A83A1
:101A5000AB83BC8320E030E040EA51E460917F0A30
:101A60007091800A8091810A9091820A0E940EA052
:101A70009B01AC01C501B4010E948CA26B017C01E9
:101A800020E030E0A9010E9418A218165CF427E1BA
:101A900037EB41ED58E3C701B6010E9473A087FF01
:101AA00014C00AC027E137EB41ED58EBC701B6017E
:101AB0000E9418A218164CF4C0902D0BD0902E0B3B
:101AC000E0902F0BF090300B4EC0A3019201698182
:101AD0007A818B819C810E940EA0A50194010E94B5
:101AE0000EA020E030E040EA51E40E948CA2A70161
:101AF00096010E9477A04B015C0120E030E0A90133
:101B00000E9418A218165CF5C0902D0BD0902E0BD9
:101B1000E0902F0BF090300B20E030E040E05FE3EE
:101B2000C701B6010E9418A21816B4F420916402ED
:101B3000309165024091660250916702C701B6017B
:101B40000E948CA26B017C019B01AC01B401C50118
:101B50000E9418A218163CF06401750104C0C12C43
:101B6000D12CE12CF12CB601C7010F900F900F90F2
:101B70000F90DF91CF91FF90EF90DF90CF90BF90CB
:101B8000AF909F908F907F906F905F904F9008954F
:101B90004F925F926F927F928F929F92AF92BF927D
:101BA000CF92DF92EF92FF92CF93DF93CDB7DEB764
:101BB00028970FB6F894DEBF0FBECDBF8090970A6E
:101BC0009090980AA090990AB0909A0AA501940161
:101BD000C501B4010E948CA26B017C018091060BAF
:101BE0009091070BA091080BB091090B8D839E83F8
:101BF000AF83B8876091830A7091840A8091850AC7
:101C00009091860A0E9441A120E030E041E655E42F
:101C10000E9477A02091310B3091320B4091330B11
:101C20005091340B0E948CA22B013C0160917F0AE1
:101C30007091800A8091810A9091820AFDDD69830A
:101C40007A838B839C83A701960160E070E081E634
:101C500095E40E940EA09B01AC01C301B2010E9459
:101C60008CA229813A814B815C810E948CA26B01FC
:101C70007C0120E030E0A9010E9418A218165CF453
:101C800027E137EB41ED58E3C701B6010E9473A08D
:101C900087FF14C00AC027E137EB41ED58EBC701BD
:101CA000B6010E9418A218164CF4C090290BD090CF
:101CB0002A0BE0902B0BF0902C0B55C0A501940142
:101CC0006D817E818F8198850E940EA04B015C0101
:101CD00029813A814B815C81C301B2010E948CA2AF
:101CE0009B01AC01C501B4010E940EA020E030E0D0
:101CF00041E655E40E948CA2A70196010E9477A0BC
:101D00004B015C0120E030E0A9010E9418A21816E6
:101D100044F5C090290BD0902A0BE0902B0BF0904B
:101D20002C0B2DEC3CEC4CE45EE3C701B6010E94A9
:101D300018A21816B4F42091640230916502409103
:101D4000660250916702C701B6010E948CA26B0126
:101D50007C019B01AC01B401C5010E9418A21816B8
:101D600014F064017501B601C70128960FB6F89406
:101D7000DEBF0FBECDBFDF91CF91FF90EF90DF9020
:101D8000CF90BF90AF909F908F907F906F905F901B
:101D90004F9008958F929F92AF92BF92CF92DF9211
:101DA000EF92FF922091970A3091980A4091990AF8
:101DB00050919A0A6091060B7091070B8091080B65
:101DC0009091090B0E940EA020E037ED4BE659E4FC
:101DD0000E948CA24B015C016093730A7093740A99
:101DE0008093750A9093760A2091770A3091780A49
:101DF0004091790A50917A0A60917B0A70917C0A2D
:101E000080917D0A90917E0A0E940EA020E030E031
:101E100041E655E40E948CA26B017C0160936F0A3D
:101E20007093700A8093710A9093720A20E030E0F8
:101E3000A9010E9418A218163CF4A7019601C50139
:101E4000B4010E9477A003C060E070E0CB01FF9076
:101E5000EF90DF90CF90BF90AF909F908F900895BC
:101E60008F929F92AF92BF92CF92DF92EF92FF92AA
:101E7000CF93C82F20918E0230918F024091900213
:101E80005091910260911A0B70911B0B80911C0B69
:101E900090911D0B0E9473A087FD7EC0C090060B21
:101EA000D090070BE090080BF090090BA70196016A
:101EB0006091F2097091F3098091F4099091F5090C
:101EC0000E940EA09B01AC010E948CA24B015C0100
:101ED000A70196016091EE097091EF098091F009D8
:101EE0009091F1090E940EA09B01AC010E948CA26E
:101EF0009B01AC01C501B4010E940FA00E94F3A296
:101F00006B017C01CC23E1F167E97DE087EA9FE08A
:101F10000E94959D22E030E0B701A60187EA9FE08C
:101F20000E94B79F6EE875E087EA9FE00E94BA9D25
:101F30004091F2095091F3096091F4097091F5090B
:101F400022E030E087EA9FE00E94B79F6EE875E0EC
:101F500087EA9FE00E94BA9D4091EE095091EF09F7
:101F60006091F0097091F10922E030E087EA9FE08A
:101F70000E94B79F64E97DE087EA9FE00E94959DFB
:101F80002DEC3CEC4CEC5DE3C701B6010E9473A064
:101F9000881F8827881F01C080E0CF91FF90EF90B5
:101FA000DF90CF90BF90AF909F908F900895CF9289
:101FB000DF92EF92FF92C090B30AD090B40AE09003
:101FC000B50AF090B60A0E94C56A6C197D098E099F
:101FD0009F0921E0693077408105910508F420E0F0
:101FE000822FFF90EF90DF90CF9008952F923F9235
:101FF0004F925F926F927F928F929F92AF92BF9219
:10200000CF92DF92EF92FF920F931F93CF93DF93C4
:102010001C016A017B010E94556B00919402109192
:10202000950280179107D4F40E94556BEC01B8011A
:10203000882777FD8095982F0E9443A12B013C01B2
:10204000BE01882777FD8095982F0E9443A19B01B0
:10205000AC01C301B2010E940EA04DC00E94556B9D
:10206000BC01882777FD8095982F0E9443A120E02E
:1020700030E040EC51E40E940EA020E030E0A901E5
:102080000E9418A2181694F40E94556BBC01882770
:1020900077FD8095982F0E9443A120E030E040EC2E
:1020A00051E40E940EA02B013C0115C00E94556B0B
:1020B000BC01882777FD8095982F0E9443A120E0DE
:1020C00030E040EC51E40E940EA02B013C0177FA75
:1020D000709477F8709460919402709195028827BB
:1020E00077FD8095982F0E9443A19B01AC01C3010D
:1020F000B2010E940FA020E030E040E85FE30E94C0
:102100000EA02B013C018090310B9090320BA090DF
:10211000330BB090340B0E945B6BBC01882777FDBA
:102120008095982F0E9443A120E030E040E752E4E0
:102130000E9477A09B01AC0160E070E080E89FE323
:102140000E940EA09B01AC01C301B2010E940FA02E
:102150009B01AC01C501B4010E948CA22B013C0182
:1021600060911E0B70911F0B8091200B9091210BA1
:1021700063DB9B01AC01C301B2010E948CA22B0165
:102180003C016091060B7091070B8091080B9091B8
:10219000090B6FDB9B01AC01C301B2010E948CA251
:1021A0009B01AC01B601C7010E940EA08B01D82F84
:1021B000C92F2114310409F040C04090BA02509058
:1021C000BB026090BC027090BD0220E030E040E0B5
:1021D0005FE36091310B7091320B8091330B9091E2
:1021E000340B0E948CA24B015C019B01AC01B80135
:1021F0008D2F9C2F0E940FA08B01D82FC92F9B01E0
:10220000482F592FB201C3010E9418A218161CF4BE
:102210008201D62DC72DA5019401B601C7010E94E8
:102220000EA06B017C019B01AC01B8018D2F9C2F8E
:102230000E9473A087FF44C046C02A94232809F057
:1022400042C04090BE025090BF026090C0027090A9
:10225000C1022091BA023091BB024091BC02509160
:10226000BD02C301B2010E940FA04B015C01A3019A
:102270009201B8018D2F9C2F0E940FA02091310B4D
:102280003091320B4091330B5091340B0E940FA0D0
:102290008B01D82FC92F9B01482F592FB401C5019D
:1022A0000E9418A218161CF48401DA2DCB2D980177
:1022B0004D2F5C2FB601C7010E9473A087FF03C09A
:1022C0008601DE2DCF2DB8018D2F9C2FDF91CF9170
:1022D0001F910F91FF90EF90DF90CF90BF90AF9044
:1022E0009F908F907F906F905F904F903F902F9036
:1022F00008958F929F92AF92BF92CF92DF92EF920A
:10230000FF920F931F93CF93DF936091960270918A
:102310009702882777FD8095982F0E9443A16B0133
:102320007C016091920270919302882777FD8095DD
:10233000982F0E9443A120E030E040E752E40E9441
:1023400077A09B01AC01C701B6010E940EA06B01F2
:102350007C010E94556BBC01882777FD8095982FE2
:102360000E9443A1A70196010E9473A087FF11C09C
:102370002091BE023091BF024091C0025091C10233
:102380006091C4027091C5028091C6029091C7020B
:1023900056C00E94556B8C010E945B6BEC01B8012A
:1023A000882777FD8095982F0E9443A14B015C01FF
:1023B000BE01882777FD8095982F0E9443A120E0D9
:1023C00030E040E752E40E9477A09B01AC01C501D8
:1023D000B4010E940FA0A70196010E940EA04B011C
:1023E0005C016091960270919702882777FD809535
:1023F000982F0E9443A1A70196010E940EA09B0165
:10240000AC01C501B4010E9477A09B01AC0160E062
:1024100070E080E89FE30E940EA02091BE02309100
:10242000BF024091C0025091C1020E948CA2209133
:10243000C4023091C5024091C6025091C7020E9469
:102440000FA0DF91CF911F910F91FF90EF90DF9040
:10245000CF90BF90AF909F908F9008954F925F92D2
:102460006F927F928F929F92AF92BF92CF92DF92A4
:10247000EF92FF92CF93C090BE02D090BF02E09047
:10248000C002F090C10260914B0270914C0280E05A
:1024900090E00E9441A14B015C016091ED0A7091B6
:1024A000EE0A8091EF0A9091F00AA501940187D974
:1024B0002B013C016091E90A7091EA0A8091EB0AD4
:1024C0009091EC0AA50194017AD94B015C0120E0BE
:1024D00030E040E850E4C701B6010E948CA29B01A5
:1024E000AC01C501B4010E940EA09B01AC01C30167
:1024F000B2010E9473A087FF1DC0A7019601C7010A
:10250000B6010E940FA02091C4023091C5024091F3
:10251000C6025091C7020E940FA09B01AC01C1E00E
:10252000C501B4010E9418A218160CF0C0E081E0A9
:102530008C2701C081E0CF91FF90EF90DF90CF908A
:10254000BF90AF909F908F907F906F905F904F90D3
:102550000895CF92DF92EF92FF926B017C0120E011
:1025600030E04AE754E40E9418A287FD2DC020E025
:1025700030E04AE754E4C701B6010E9477A06B013E
:102580007C0120E030E048EC52E40E9418A21816CA
:102590001CF421E030E00FC020E030E040E251E4E4
:1025A000C701B6010E9418A218161CF422E030E000
:1025B00002C023E030E0B701A60187EA9FE00E9455
:1025C000B79F6AE77DE024C020E030E048EC52E4A9
:1025D000C701B6010E9418A218161CF421E030E0D1
:1025E0000FC020E030E040E251E4C701B6010E9494
:1025F00018A218161CF422E030E002C023E030E0FC
:10260000B701A60187EA9FE00E94B79F66E77DE0D9
:1026100087EA9FE0FF90EF90DF90CF900C94959D1C
:102620004F925F926F927F928F929F92AF92BF92E2
:10263000CF92DF92EF92FF920F931F934B015C01B9
:10264000CA01B90127013801A50194010E948CA299
:102650006B017C01A501940160E070E080E89FE3DC
:102660000E940EA09B01AC01C301B2010E948CA28A
:102670009B01AC01C701B6010E940FA06B017C0158
:1026800020E030E0A9010E9473A087FF04C0C12CA4
:10269000D12CE12CF12CB601C7011F910F91FF90B5
:1026A000EF90DF90CF90BF90AF909F908F907F90F2
:1026B0006F905F904F90089520918A0230918B0225
:1026C00040918C0250918D0260918E0270918F0228
:1026D00080919002909191020C940EA00F931F9301
:1026E000CF93DF93CDB7DEB729970FB6F894DEBF4F
:1026F0000FBECDBF87EA9FE00E94C29D6CE87BE0E1
:1027000087EA9FE00E94959D4091B80A5091B90ACE
:102710006091BA0A7091BB0ACE0101960E94290B02
:102720006091B80A7091B90A8091BA0A9091BB0A77
:102730000E94C8694AE050E0BC0187EA9FE00E941D
:10274000839E6AE87BE087EA9FE00E94959D609106
:10275000B80A7091B90A8091BA0A9091BB0A0E9496
:10276000CD694AE050E0BC0187EA9FE00E94839E69
:1027700068E87BE087EA9FE00E94959D6091B80A37
:102780007091B90A8091BA0A9091BB0A0E94D269ED
:102790004AE050E0BC0187EA9FE00E94839E65E822
:1027A0007BE087EA9FE00E94959DBE016F5F7F4FAF
:1027B00087EA9FE00E94BA9D6BE67BE087EA9FE094
:1027C0000E94959D4091AA025091AB026091AC028B
:1027D0007091AD028091B80A9091B90AA091BA0A9D
:1027E000B091BB0A480F591F6A1F7B1FCE0101968B
:1027F0000E94290B6091AA027091AB028091AC02F9
:102800009091AD020091B80A1091B90A2091BA0ACC
:102810003091BB0A600F711F821F931F0E94C8690D
:102820004AE050E0BC0187EA9FE00E94839E69E68F
:102830007BE087EA9FE00E94959D6091AA027091DB
:10284000AB028091AC029091AD020091B80A109158
:10285000B90A2091BA0A3091BB0A600F711F821F1A
:10286000931F0E94CD694AE050E0BC0187EA9FE0D7
:102870000E94839E67E67BE087EA9FE00E94959D29
:102880006091AA027091AB028091AC029091AD026E
:102890000091B80A1091B90A2091BA0A3091BB0A86
:1028A000600F711F821F931F0E94D2694AE050E09F
:1028B000BC0187EA9FE00E94839E64E67BE087EA92
:1028C0009FE00E94959DBE016F5F7F4F87EA9FE06A
:1028D0000E94D59D29960FB6F894DEBF0FBECDBFDE
:1028E000DF91CF911F910F910895CF93DF93C82F60
:1028F00081E20E94089B892B11F481E006C082E2EC
:102900000E94089B892B21F482E08093D60902C0A3
:102910001092D60983E20E94089B892B11F481E072
:1029200006C084E20E94089B892B21F482E08093F8
:10293000D70902C01092D70985E20E94089B892B13
:1029400011F481E006C086E20E94089B892B21F4E5
:1029500082E08093D80902C01092D809CC23B9F044
:10296000C6EDD9E0699184E0689FB0011124635DF0
:102970007D4F87EA9FE00E94BA9D6EE875E087EA86
:102980009FE00E94BA9D89E0C93DD80759F7DF91C1
:10299000CF9108954F925F926F927F928F929F9204
:1029A000AF92BF92CF92DF92EF92FF923C01C09024
:1029B0005F02D0906002E0906102F090620220E03D
:1029C00030E040E05FE3C701B6010E948CA24B01FA
:1029D0005C01B301882777FD8095982F0E9443A161
:1029E000A50194010E940EA00E9410A12B013C01A0
:1029F00020E030E0A901C701B6010E9418A2A2019F
:102A0000662757FD6095762F18166CF4CB01BA0136
:102A10000E9443A120E030E040E85AE30E948CA2EB
:102A2000A70196010EC0CB01BA010E9443A120E08C
:102A300030E040E85AE30E948CA220E030E040EA17
:102A400050E40E948CA2A50194010E940EA024EAE9
:102A500030E74DE35EE30E9477A0FF90EF90DF90B8
:102A6000CF90BF90AF909F908F907F906F905F902E
:102A70004F900895CF92DF92EF92FF9288E30E94E9
:102A80005D9988DF6B017C019B01AC016091660A56
:102A90007091670A8091680A9091690A0E940FA05C
:102AA0006093660A7093670A8093680A9093690A34
:102AB00080915E0A90915F0AA091600AB091610ACC
:102AC0000196A11DB11D80935E0A90935F0AA093A9
:102AD000600AB093610A2091620A3091630A4091C2
:102AE000640A5091650AC701B6010E9418A218161F
:102AF00044F4C092620AD092630AE092640AF092AF
:102B0000650AC701B601FF90EF90DF90CF9008955E
:102B100020912B0230912C02821B930BBC01882741
:102B200077FD8095982F0E9443A120E030E040E897
:102B30005AE30E948CA220915F0230916002409182
:102B40006102509162020E948CA22DEC3CEC4CEC94
:102B50005DE30C9477A008952F923F924F925F927D
:102B60006F927F928F929F92AF92BF92CF92DF929D
:102B7000EF92FF920F931F93CF93DF9300D01F929A
:102B80001F92CDB7DEB78B83162F8091CE098111AE
:102B90000DC00E949C9860933C0670933D06809304
:102BA0003E0690933F0681E08093CE098091B70A5C
:102BB000811103C0112309F464C062E070E080E079
:102BC00090E00E94CB980E949C984B015C010E946F
:102BD000A8982B013C0181E40E945D999D838C8320
:102BE00097DF9B01AC010E948CA26B017C012C80C1
:102BF0003D8021E030E03A8329830E94A89864193F
:102C0000750986099709683C710581059105A8F346
:102C10000E94A8982B013C0181E40E945D998C01DF
:102C200077DF9B01AC010E948CA29B01AC01C70124
:102C3000B6010E940FA06B017C018C819D818017E1
:102C400091072CF00215130524F4180102C01D830E
:102C50000C83E981FA813196FA83E9830E949C987A
:102C6000681979098A099B09643171058105910503
:102C700068F40E949C98681579058A059B0530F0D8
:102C8000BCCF10E000E0B12CA12CD9C0E981FA81C1
:102C9000BF01882777FD8095982F0E9443A19B0153
:102CA000AC01C701B6010E9477A00E94F3A2162FC3
:102CB000072FB82EA92EFB81FF2309F445C06AE235
:102CC0007AE087EA9FE00E94959D4AE050E0B101DA
:102CD00087EA9FE00E94839E68E27AE087EA9FE0AD
:102CE0000E94959D4AE050E06C817D8187EA9FE0DB
:102CF0000E94839E66E27AE087EA9FE00E94959DAB
:102D000060912B0270912C024AE050E087EA9FE02C
:102D10000E94839E64E27AE087EA9FE00E94959D8C
:102D200040915F0250916002609161027091620275
:102D300022E030E087EA9FE00E94B79F60E27AE0FD
:102D400087EA9FE00E94959D20912B0230912C02F2
:102D5000C901880F991F820F931F820D931D2C812B
:102D60003D81820F931F65E070E00E9479A370930C
:102D70002C0260932B020E949C98C0903C06D0903D
:102D80003D06E0903E06F0903F066C157D058E05F1
:102D90009F0588F00E949C986B017C0180913C0605
:102DA00090913D06A0913E06B0913F06C81AD90AFF
:102DB000EA0AFB0A04C00E949C986B017C010E94F5
:102DC0009C9860933C0670933D0680933E069093DA
:102DD0003F06C701B6010E9441A120E030E04AE76A
:102DE00054E40E9477A02091420230914302409126
:102DF0004402509145020E948CA220E030E041E65E
:102E000055E40E9477A09B01AC01612F702F8B2DA0
:102E10009A2D0E948CA29B01AC0160917B0A70915B
:102E20007C0A80917D0A90917E0A0E940FA0609397
:102E30007B0A70937C0A80937D0A90937E0A612FAF
:102E4000702F8B2D9A2D0F900F900F900F900F9049
:102E5000DF91CF911F910F91FF90EF90DF90CF9076
:102E6000BF90AF909F908F907F906F905F904F90AA
:102E70003F902F9008953F924F925F926F927F9272
:102E80008F929F92AF92BF92CF92DF92EF92FF927A
:102E90000F931F93CF93DF93CDB7DEB728970FB66D
:102EA000F894DEBF0FBECDBF382E49835A836B83A3
:102EB0007C834801590105E010E0412C512C32017E
:102EC00062E070E080E090E00E94CB98832D0E9449
:102ED0005D99BC01882777FD8095982F0E9443A1BA
:102EE00020915F0230916002409161025091620234
:102EF0000E948CA220E030EC4FE754E40E9477A0BF
:102F00006D837E838F839887A501940169817A817F
:102F10008B819C810E940FA09B01AC016D817E8101
:102F20008F8198850E948CA2A50194010E9477A0B0
:102F30009B01AC01C301B2010E940FA02B013C0117
:102F40000150110909F0BCCF20E030E040EA50E424
:102F50000E9477A0A70196010E948CA228960FB626
:102F6000F894DEBF0FBECDBFDF91CF911F910F91BF
:102F7000FF90EF90DF90CF90BF90AF909F908F9099
:102F80007F906F905F904F903F900895CF92DF9227
:102F9000EF92FF92CF93DF932CE06623A1F0289F5E
:102FA000F001299FF00D1124EE56F64F808191819A
:102FB000A281B38184839583A683B7838087918719
:102FC000A287B38728C0289FE001299FD00D112434
:102FD000CE56D64FC880D980EA80FB802C813D81B7
:102FE0004E815F81C701B6010E9473A087FF05C0B3
:102FF000CC82DD82EE82FF820EC0288539854A852B
:103000005B85C701B6010E9418A2181624F4C88671
:10301000D986EA86FB86DF91CF91FF90EF90DF9013
:10302000CF9008958EE580937C0062E070E080E0B0
:1030300090E00E94CB9880917A00806480937A001F
:1030400080917A0086FDFCCF2091780080917900F4
:1030500030E0382B442737FD4095542F64EB7BE25A
:1030600081E190E00E94AEA3CA01B9010895CF9218
:10307000DF92EF92FF920F931F93CF93DF93C82FAE
:10308000142FD22F662309F492C0CCDF0E9443A1F3
:1030900020E030E04AE754E40E9477A06B017C0115
:1030A0006093920970939309809394099093950982
:1030B00020E030E040E250E40E9473A087FD0AC0A7
:1030C00020E030E040EF50E4C701B6010E9418A2B2
:1030D0001816DCF46AE17AE087EA9FE00E94959D89
:1030E00040919209509193096091940970919509CA
:1030F00022E030E087EA9FE00E94B79F63E17AE038
:1031000087EA9FE00E94959D08C0C0925F02D0921E
:103110006002E0926102F092620260910D0280E032
:1031200090E034DFCC2309F442C06DE07AE087EA16
:103130009FE00E94959D4091920950919309609162
:1031400094097091950922E030E087EA9FE00E949F
:10315000B79F6BE07AE087EA9FE00E94959D4091DF
:10316000960950919709609198097091990922E008
:1031700030E087EA9FE00E94B79F69E07AE087EA43
:103180009FE00E94959D40919A0950919B09609102
:103190009C0970919D0922E030E087EA9FE00E943F
:1031A000B79F67E07AE087EA9FE00E94959D112330
:1031B00009F4CAC120E030E0A90160915F0270917A
:1031C000600280916102909162020E9473A081115D
:1031D00024C040E050E060EA70E440935F02509306
:1031E000600260936102709362024093920950936F
:1031F00093096093940970939509409396095093AD
:103200009709609398097093990940939A0950938C
:103210009B0960939C0970939D0904E6C02E00E40D
:10322000D02E02E8E02E0FE3F02E00E010E42EE4B2
:1032300035E440E050E864ED75E48EE390E01BDE99
:1032400060939E0970939F098093A0099093A109B0
:1032500060910D0281E090E099DECC2309F442C038
:1032600061E07AE087EA9FE00E94959D40919E0987
:1032700050919F096091A0097091A10922E030E06E
:1032800087EA9FE00E94B79F6FEF79E087EA9FE0AF
:103290000E94959D4091A2095091A3096091A409B3
:1032A0007091A50922E030E087EA9FE00E94B79F75
:1032B0006DEF79E087EA9FE00E94959D4091A60915
:1032C0005091A7096091A8097091A90922E030E006
:1032D00087EA9FE00E94B79F6BEF79E087EA9FE063
:1032E0000E94959D19E5C12E16E8D12E10E8E12E19
:1032F0001FE3F12E00E010EC23E735E440E050E05E
:103300006AE774E48FE390E0B6DD6093AA097093F6
:10331000AB098093AC099093AD0960910D0282E0F6
:1033200090E034DECC2309F442C065EF79E087EA0F
:103330009FE00E94959D4091AA095091AB09609130
:10334000AC097091AD0922E030E087EA9FE00E946D
:10335000B79F63EF79E087EA9FE00E94959D4091D7
:10336000AE095091AF096091B0097091B10922E0A6
:1033700030E087EA9FE00E94B79F61EF79E087EA3B
:103380009FE00E94959D4091B2095091B3096091D0
:10339000B4097091B50922E030E087EA9FE00E940D
:1033A000B79F6FEE79E087EA9FE00E94959DC12C60
:1033B000D12CB0E8EB2EBFE3FB2E00E010E829E0B3
:1033C00035E4B901A8018DE390E055DD6093B609BD
:1033D0007093B7098093B8099093B90960910D0271
:1033E00083E090E0D3DDCC2309F442C069EE79E0BC
:1033F00087EA9FE00E94959D4091B6095091B709D8
:103400006091B8097091B90922E030E087EA9FE045
:103410000E94B79F67EE79E087EA9FE00E94959D42
:103420004091BA095091BB096091BC097091BD09E6
:1034300022E030E087EA9FE00E94B79F65EE79E0E6
:1034400087EA9FE00E94959D4091BE095091BF0977
:103450006091C0097091C10922E030E087EA9FE0E5
:103460000E94B79F63EE79E087EA9FE00E94959DF6
:1034700082E40E945D99BC01882777FD8095982F92
:103480000E9443A120915F0230916002409161024D
:10349000509162020E948CA220E030EC4FE754E48D
:1034A0000E9477A06093C2097093C3098093C409F6
:1034B0009093C50960910D0284E090E067DDCC2314
:1034C00009F442C06DED79E087EA9FE00E94959D86
:1034D0004091C2095091C3096091C4097091C50916
:1034E00022E030E087EA9FE00E94B79F6BED79E031
:1034F00087EA9FE00E94959D4091C6095091C709B7
:103500006091C8097091C90922E030E087EA9FE024
:103510000E94B79F69ED79E087EA9FE00E94959D40
:103520004091CA095091CB096091CC097091CD09A5
:1035300022E030E087EA9FE00E94B79F67ED79E0E4
:1035400087EA9FE00E94959DDD2309F487C020E073
:1035500030E0A90160915F02709160028091610288
:10356000909162020E9473A081110CC080E090E0F3
:10357000A0EAB0E480935F0290936002A09361029E
:10358000B093620280E40E945D99BC01882777FDB8
:103590008095982F0E9443A120915F023091600294
:1035A00040916102509162020E948CA220E030E0C2
:1035B00040E85AE30E948CA26093C2097093C30949
:1035C0008093C4099093C50960910D0284E090E056
:1035D000DDDCCC2309F442C06FEC79E087EA9FE0A0
:1035E0000E94959D4091C2095091C3096091C40900
:1035F0007091C50922E030E087EA9FE00E94B79F02
:103600006DEC79E087EA9FE00E94959D4091C609A4
:103610005091C7096091C8097091C90922E030E052
:1036200087EA9FE00E94B79F6BEC79E087EA9FE012
:103630000E94959D4091CA095091CB096091CC0997
:103640007091CD0922E030E087EA9FE00E94B79FA9
:1036500069EC79E087EA9FE00E94959D10920D0247
:10366000DF91CF911F910F91FF90EF90DF90CF905E
:1036700008950F931F93CF93DF9360E088E29AE061
:103680000E9470958B01D82FC92F9B01482F592F6D
:103690000E9431A3882321F000E010E0DAECC2ECB4
:1036A000B8018D2F9C2FDF91CF911F910F9108951D
:1036B0000F931F93CF93DF9388E29AE00E94E395E4
:1036C0008B01D82FC92F9B01482F592F0E9431A35E
:1036D000882321F000E010E0D0E8CFEBB8018D2F77
:1036E0009C2FDF91CF911F910F910895CF92DF9280
:1036F000EF92FF926B017C01CA01B9012BE734E91B
:1037000048E853E40E940FA09B01AC0160E070E028
:1037100080E89FE30E9477A09B01AC0162E07BEE12
:103720008FE69BE30E940EA026E03EE449EA55E4C2
:103730000E948CA20E94E4A02FE135E843EC50E403
:103740000E948CA220E030E040E251E40E940EA0F2
:103750002FE335E34EE05FE30E948CA29B01AC01B6
:10376000C701B6010E940FA0FF90EF90DF90CF90AD
:103770000895CF92DF92EF92FF920F931F93CF9312
:10378000DF9389E30E945D997C01EC016C0104E008
:1037900010E061E070E080E090E00E94CB9889E367
:1037A0000E945D99C80ED91EC817D9072CF08E1536
:1037B0009F050CF47C01CE010150110911F0EC01C0
:1037C000E8CF9C012E0D3F1DE601C21BD30B20E06C
:1037D00030E048EC52E460915F02709160028091A9
:1037E0006102909162020E948CA26B017C01CE0169
:1037F00063E070E00E9479A3882777FD8095982F79
:103800000E9443A19B01AC01C701B6010E948CA29A
:1038100020E030EC4FE754E40E9477A02091390B70
:1038200030913A0B40913B0B50913C0B0E940FA002
:10383000DF91CF911F910F91FF90EF90DF90CF908C
:1038400008957F928F929F92AF92BF92CF92DF9214
:10385000EF92FF920F931F93CF93DF93782E6623FF
:1038600011F0882329F002E01BE0C0E0D0E0C4C0E2
:1038700060E089E090E00E94F90AE0903F0BF09050
:10388000400B8701000F111F000F111F0E5F144F17
:10389000C12CD12C80913F0B9091400BC091030320
:1038A000D0910403C80FD91FEC16FD060CF062C0BE
:1038B0009701281B390BC901DCDE5801AC0CBD1C7B
:1038C000F501608371838283938380913F0B909194
:1038D000400BE701C81BD90BCE01EADECC0FDD1F80
:1038E000CC0FDD1FC353D54F688379838A839B83B5
:1038F00080913F0B9091400BE701C81BD90BF5015C
:1039000080809180A280B380CC0FDD1FCC0FDD1FA3
:10391000FE01E353F54F208131814281538160E004
:1039200070E088EC92E40E940EA020E030E040EAD3
:1039300050E40E9477A09B01AC01C501B4010E9434
:103940000EA09B01AC01FE01EB53F54F6083718328
:1039500082839383C501B401C9DEC753D54F688301
:1039600079838A839B83FFEFEF1AFF0A24E0C20E5C
:10397000D11C90CF7E01EE0CFF1CEE0CFF1CC7018A
:103980008E5F944F7C0100E010E040913F0B50911E
:10399000400B80910303909104039A01280F391F73
:1039A0006091010370910203260F371FC217D307DE
:1039B0000CF04EC09E01241B350B820F931FD9DEE5
:1039C000F701E00FF11F6083718382839383219657
:1039D0000C5F1F4FDACF672DCE010E94F90A6B01F1
:1039E0007C0120E030E04AE754EC0E9473A021966D
:1039F00087FF0AC00C5F1F4F80913F0B9091400BD7
:103A0000C817D90744F324C020E030E04AE754E463
:103A1000C701B6010E9473A087FF06C0F801C082EB
:103A2000D182E282F382E6CF68ED71E087EA9FE01F
:103A30000E94959D4AE050E0BE0187EA9FE00E9407
:103A4000839E6EE875E087EA9FE00E94BA9DD2CF20
:103A5000872DDF91CF911F910F91FF90EF90DF9015
:103A6000CF90BF90AF909F908F907F900895FF92DE
:103A70000F931F93CF93DF93EC0158E0F52E8E0147
:103A80008881803130F460E279E087EA9FE00E942B
:103A9000959D219640E150E0F801608187EA9FE022
:103AA0000E94AC9E6EE875E087EA9FE00E94BA9D96
:103AB000FA9429F7DF91CF911F910F91FF9008950C
:103AC000CF92DF92EF92FF92CF93DF93EA016131C1
:103AD0002EE072078105910568F00E9441A120E067
:103AE00030E041E655E40E9477A06B017C0168E577
:103AF00073E018C06D3371058105910568F00E946F
:103B000041A120E030E040E752E40E9477A06B0141
:103B10007C016AE573E006C00E9441A16B017C0153
:103B20006CE573E0CE010E948EA561E070E080E05C
:103B300090E00E94CB98C701B601DF91CF91FF9032
:103B4000EF90DF90CF9008950E94556B20919402E2
:103B500030919502821793075CF00E94556B20917B
:103B60009602309197028217930714F480E008952B
:103B700081E008954F925F926F927F928F929F9211
:103B8000AF92BF92CF92DF92EF92FF920F931F936B
:103B9000CF93DF931092E7098091350B9091360B0C
:103BA000029731F10E94C56AC090AA02D090AB0280
:103BB000E090AC02F090AD020091B80A1091B90A01
:103BC0002091BA0A3091BB0AC00ED11EE21EF31E2C
:103BD000C616D706E806F90638F481E090E090931F
:103BE000360B8093350B04C01092360B1092350BB8
:103BF0000E94D30B882309F46DC0A6DF882381F0CF
:103C00000E94676B019709F001C10E94556B2091DA
:103C1000940230919502281739070CF4C4C0F6C0FD
:103C20002091870A3091880A4091890A50918A0A26
:103C300060913D0270913E0280913F02909140025E
:103C40000E940EA06B017C010091AE021091AF02A8
:103C5000D091B002C091B1025091B2024091B30232
:103C60003091B4022091B5028091350B9091360BC2
:103C7000181619061CF0052F142FE9018090BE02BA
:103C80009090BF02A090C002B090C10220E030E04E
:103C900040E05FE3C501B4010E948CA22B013C010E
:103CA0009B01AC01C701B6010E9418A2181644F48A
:103CB000A3019201B8018D2F9C2F0E940EA0AEC0CF
:103CC000A5019401B8018D2F9C2F0E940EA0A70181
:103CD00096013CC039DF81113CC02091870A3091A8
:103CE000880A4091890A50918A0A60913D02709138
:103CF0003E0280913F02909140020E940EA06B0113
:103D00007C0120E030E040E05FE36091BE02709112
:103D1000BF028091C0029091C1020E948CA24B010F
:103D20005C019B01AC01C701B6010E9418A2209161
:103D3000C4023091C5024091C6025091C7021816C4
:103D40001CF4C501B40102C0C701B6010E940FA056
:103D500065C00E942E12811109C04091C402509189
:103D6000C5026091C6027091C7023CC081E0809399
:103D7000E709F091AE02E091AF027091B00260915C
:103D8000B1023091B6022091B7025091B802409131
:103D9000B9028091350B9091360B18161906ECF488
:103DA0009F01CB011BC081E08093E7093091AE02F7
:103DB0002091AF025091B0024091B102F091B60251
:103DC000E091B7027091B8026091B9028091350B11
:103DD0009091360B181619061CF7CA01432F522F63
:103DE000692F782F80E090E0DF91CF911F910F91A4
:103DF000FF90EF90DF90CF90BF90AF909F908F900B
:103E00007F906F905F904F900C94F60F6091BA0284
:103E10007091BB028091BC029091BD02DF91CF9165
:103E20001F910F91FF90EF90DF90CF90BF90AF90D8
:103E30009F908F907F906F905F904F900895CF925A
:103E4000DF92EF92FF920E94D30B811144C092DE69
:103E50002091860230918702409188025091890218
:103E60000E940FA06B017C0185DE2091B60230918B
:103E7000B7024091B8025091B9020E940FA020E011
:103E800030E040E05FE30E948CA29B01AC01C701DF
:103E9000B6010E9418A2181664F46CDE2091860206
:103EA0003091870240918802509189020E940FA0B0
:103EB00024C060DE2091B6023091B7024091B80272
:103EC0005091B9020E940FA020E030E040E05FE393
:103ED0000E948CA212C020918602309187024091EC
:103EE0008802509189026091B2027091B302809170
:103EF000B4029091B5020E940EA0FF90EF90DF9067
:103F0000CF9008958091350B9091360B029749F42C
:103F10006091AE027091AF028091B0029091B102B7
:103F200008950E94D30B811112C00EDE811102C0D0
:103F30000C9479110E942E12811123C04091C40269
:103F40005091C5026091C6027091C70222C0FCDD8B
:103F5000882371F00E94676B0197F9F40E94556BFA
:103F600020919402309195022817390754F015C01A
:103F70006091B2027091B3028091B4029091B50247
:103F800008954091B6025091B7026091B8027091C5
:103F9000B90281E090E00C94F60F2091BE023091BE
:103FA000BF024091C0025091C1026091BA0270916B
:103FB000BB028091BC029091BD020C940FA08F9225
:103FC0009F92AF92BF92CF92DF92EF92FF920E94A8
:103FD000D30B81115CC096DF20918602309187025D
:103FE00040918802509189020E940FA06B017C01D0
:103FF00080908A0290908B02A0908C02B0908D02EB
:10400000B9DD2091B6023091B7024091B8025091CB
:10401000B9020E940FA020E030E040E05FE30E9480
:104020008CA29B01AC01C501B4010E940FA09B01B1
:10403000AC01C701B6010E9418A2181654F462DF41
:104040002091860230918702409188025091890226
:104050002EC0C0908A02D0908B02E0908C02F0902B
:104060008D0288DD2091B6023091B7024091B802EE
:104070005091B9020E940FA020E030E040E05FE3E1
:104080000E948CA29B01AC01C701B60110C0209117
:104090008602309187024091880250918902609196
:1040A000B2027091B3028091B4029091B5020E9465
:1040B0000FA0FF90EF90DF90CF90BF90AF909F90B8
:1040C0008F9008950E94556B469734F40E94556B6B
:1040D000049714F080E0089581E00895AF92BF92B4
:1040E000CF92DF92EF92FF920F931F93CF93DF93C4
:1040F0005C01EB010E94C56A0091490210914A02DD
:1041000020E831E541E050E00E948CA34CE3409F61
:104110009001419F300D1124442737FD4095542FC5
:104120000E948CA369017A0140914B0250914C028C
:10413000049FC001059F900D149F900D1124813A9A
:104140009540A8F00E94676BFC013197609149028D
:1041500070914A0280EA95E00E9479A3E69F90015F
:10416000E79F300DF69F300D11242C0D3D1D409121
:104170004B0250914C02209759F02C173D0718F034
:104180002C1B3D0B05C0CA018C1B9D0B280F391F32
:10419000A49EC001A59E900DB49E900D1124820F87
:1041A000931F880F991F20914D0230914E02820F6C
:1041B000931FDF91CF911F910F91FF90EF90DF90B0
:1041C000CF90BF90AF90089520E042E064E186E395
:1041D0009AE00E94CB816AEF70E080E090E00E945C
:1041E000CB9861EE78E086E39AE00E94959D60EAC4
:1041F00070E087E00C948299CF93C82F61E08DE145
:104200000E94D39A6C2F70E080E090E00E94CB98DF
:1042100060E08DE1CF910C94D39ABF92CF92DF9260
:10422000EF92FF920F931F93CF93DF93EC017B01EB
:1042300028E228838FEA898389ED8A838EE98B833C
:1042400034E03C831D821E8281EA8F8380913F0B84
:104250009091400B288744EA498744E44A874FE914
:104260004B873C871D861E863DE83F87288B59E992
:10427000598B33E73A8B47E94B8B33E03C8B1D8AF4
:104280001E8A5F8B288F52E3598F5CE75A8F4B8FC2
:104290003C8F1D8E1E8E52E55F8F28A35AEE59A3C8
:1042A0005AE35AA34BA33CA31DA21EA252E45FA350
:1042B00028A752E059A75BE85AA74BA73CA71DA621
:1042C0001EA658E45FA728AB27ED29AB25E82AAB4B
:1042D0004BAB3CAB1DAA1EAA25EC2FAB0796883032
:1042E00091052CF49093400B80933F0B18C087E00E
:1042F00090E09093400B80933F0B69EA7EE087EA61
:104300009FE00E94959D86E39AE00E94AD8162E95C
:104310007EE086E39AE00E94959D8AEF6DDF87013B
:10432000BB24B3946801CE18DF0880913F0B9091B5
:10433000400BC816D906DCF564E87EE087EA9FE00A
:104340000E94959D4AE050E0B60187EA9FE00E94F6
:10435000839E88A9823281F0883259F08031A9F495
:104360006AE77EE087EA9FE00E94C59DF801B0827F
:104370001BC060E77EE002C067E67EE087EA9FE060
:104380000E94C59DF80110820FC06BE47EE087EAB1
:104390009FE0DF91CF911F910F91FF90EF90DF9001
:1043A000CF90BF900C94C59D0F5F1F4FBBCFDF9187
:1043B000CF911F910F91FF90EF90DF90CF90BF9022
:1043C0000895CF93DF93EC018031910534F46FEDC4
:1043D00078E086E39AE00E94959D40E150E0BE01BE
:1043E00086E39AE0DF91CF910C94839EAF92BF92C7
:1043F000CF92DF92EF92FF920F931F93CF93DF93B1
:10440000CDB7DEB728970FB6F894DEBF0FBECDBF8D
:1044100069EF7AE08AE599E000DF87EA9FE00E9491
:10442000C29D60913F0B7091400B4AE050E087EADB
:104430009FE00E94839E6FEB79E087EA9FE00E94F5
:10444000C59D09EF1AE0BAE5EB2EB9E0FB2E80918D
:104450003F0B9091400B9801295F3A40281739078C
:1044600024F5C70104DB6EE875E087EA9FE00E944F
:10447000BA9DF80161918F014AE050E087EA9FE020
:104480000E94B29EF8E0EF0EF11CE1CF67E0CE0192
:1044900001960E94B1689885891709F45AC06EE5A3
:1044A00073E086E59AE00E948EA5BE016F5F7F4FA4
:1044B0008AE19AE00E941E688111E8CF8AE19AE0C1
:1044C0000E94EA676AEF70E080E090E00E94CB987B
:1044D00080913F0B9091400B209103033091040396
:1044E000820F931F2091010330910203820F931FCB
:1044F00090933E0B80933D0B0A977CF188EC7CDE19
:1045000087EA9FE00E94C29D69E979E087EA9FE01F
:104510000E94C59D86E39AE00E94AD8167E879E03C
:1045200086E39AE00E94959D88EC66DE89E090E043
:104530002091030330910403821B930B209101030C
:1045400030910203821B930B9093400B80933F0B9F
:1045500004C0CE0101968BDAA8CFF2E0EF2EFBE08B
:10456000FF2EAAE5CA2EA9E0DA2E00E010E0809125
:104570003F0B9091400B081719070CF072C086E3AF
:104580009AE00E94AD8164E879E086E39AE00E94B7
:10459000959D0A30110534F462E879E086E39AE0EB
:1045A0000E94959D4AE050E0B80186E39AE00E949F
:1045B000839E60E879E086E39AE00E94959D41E061
:1045C00060E086E39AE00E94B381A12CB12CF60151
:1045D000EA0DFB1D808190E0F4DEA0FE06C06EE8CF
:1045E00075E086E39AE00E94BA9D2FEFA21AB20A04
:1045F00038E0A316B10459F760E0C8010E94F90A37
:1046000060912702709128028091290290912A02DC
:104610000E94CB98C8010E940E0A5701F7016193CE
:104620007193819391937F0140E067E086E39AE084
:104630000E94B381F501408151816281738121E043
:1046400030E086E39AE00E94B79F60ED77E080E07B
:1046500090E00E94CB980F5F1F4FF8E0CF0ED11C67
:1046600086CF88E29AE00E94BF9400913F0B1091A0
:10467000400B6801CC0CDD1CCC0CDD1C96012E5FC0
:10468000344F6901E12CF12C80913F0B9091400B4C
:10469000A0900303B0900403A80EB91E0A151B05D1
:1046A0000CF06BC0F801E81BF90BCF010E94391B1D
:1046B0005601AE0CBF1CF501608371838283938326
:1046C00020E030E048EC52EC0E9473A087FF0CC061
:1046D00068E679E087EA9FE00E94959D60E579E0D1
:1046E00086E39AE00E94959D86E39AE00E94AD8160
:1046F0006DE479E086E39AE00E94959D0A30110509
:1047000034F46BE479E086E39AE00E94959D4AE0F8
:1047100050E0B80186E39AE00E94839E69E479E064
:1047200086E39AE00E94959D41E060E086E39AE08E
:104730000E94B3816BE379E086E39AE00E94959D45
:1047400040E067E086E39AE00E94B381F501408192
:1047500051816281738121E030E086E39AE00E941A
:10476000B79F60ED77E080E090E00E94CB980F5F0C
:104770001F4FF4E0EF0EF11C87CF8501000F111FD2
:10478000000F111F0E5F144FE12CF12C40913F0BD5
:104790005091400B2091030330910403CA01820F12
:1047A000931F6091010370910203860F971FA81653
:1047B000B9060CF05AC0C501841B950B821B930BE4
:1047C0000E94B91B6801CE0CDF1CF6016083718367
:1047D0008283938386E39AE00E94AD8168E379E067
:1047E00086E39AE00E94959DFAE0AF16B10434F496
:1047F00066E379E086E39AE00E94959D4AE050E006
:10480000B50186E39AE00E94839E64E379E086E343
:104810009AE00E94959D41E060E086E39AE00E9464
:10482000B38165E279E086E39AE00E94959D40E0DD
:1048300067E086E39AE00E94B381F60140815181EE
:104840006281738121E030E086E39AE00E94B79FA5
:1048500060ED77E080E090E00E94CB98FFEFAF1A28
:10486000BF0A24E0E20EF11C91CF8091060B9091DB
:10487000070BA091080BB091090B809356099093F8
:104880005709A0935809B093590928960FB6F89480
:10489000DEBF0FBECDBFDF91CF911F910F91FF9073
:1048A000EF90DF90CF90BF90AF900895CF93DF93BC
:1048B000EC018A30910534F46DED78E086E39AE0FE
:1048C0000E94959D4AE050E0BE0186E39AE0DF91A8
:1048D000CF910C94839E86E39AE00E94AD8164EDB3
:1048E00078E086E39AE00C94959D62E083E00E9474
:1048F0009A9A62E082E00E949A9A62E084E00E94C2
:104900009A9A65E778E087EA9FE00E94959D41E0EA
:1049100050E06FED79E080E00E94599641E050E070
:1049200065EB79E081E00E94599662E778E087EADA
:104930009FE00C94C59D86E39AE00E94AD8169E6F4
:1049400078E086E39AE00E94959D41E060E086E38E
:104950009AE00E94B38165E38EE19CE00E94B7700B
:10496000811112C067E673E086E59AE00E948EA589
:1049700066E57AE087EA9FE00E94BA9D66E57AE004
:1049800086E39AE00C94BA9D62E678E086E39AE0CA
:104990000C94959DEF92FF920F931F93CF93DF930B
:1049A000EC010E94616BF82EE92E0E946D6B182FAE
:1049B000092F0E94736BEF92FF920F931F939F93A7
:1049C0008F932FE633E03F932F93DF93CF930E9493
:1049D000DBA58DB79EB70A960FB6F8949EBF0FBEA3
:1049E0008DBFDF91CF911F910F91FF90EF900895B0
:1049F000EF92FF920F931F93CF93DF93EC010E94EE
:104A0000616BF82EE92E0E946D6B182F092F0E9402
:104A1000736BEF92FF920F931F93805D97409F936C
:104A20008F9320E833E03F932F93DF93CF930E943F
:104A3000DBA58DB79EB70A960FB6F8949EBF0FBE42
:104A40008DBFDF91CF911F910F91FF90EF9008954F
:104A5000CF93DF93EB012A813B81FC0133832283D7
:104A60004C815D816E817F8144835583668377832A
:104A7000488559856A857B8540875187628773871A
:104A80002DE0FE013C96DC011C9601900D922A95CA
:104A9000E1F7298D3A8DFC01328F218FDF91CF9183
:104AA0000895DF92EF92FF920F931F93CF93DF93BE
:104AB000CDB7DEB76B970FB6F894DEBF0FBECDBF94
:104AC0008C017B01D42E0E9438702D2DA7016EE140
:104AD0007CE0CE0101960E94CA71BE016F5F7F4FDC
:104AE000C801B6DFC8010E94AA70811178C061E9CF
:104AF00073E086E59AE00E948EA566E57AE087EA93
:104B00009FE00E94BA9D6EE875E087EA9FE00E94F0
:104B1000BA9DB70187EA9FE00E94BA9D6EE875E0F2
:104B200087EA9FE00E94BA9D65E070E080E090E037
:104B30000E94CB982D2DA7016EE17CE0CE0101965D
:104B40000E94CA71BE016F5F7F4FC80181DF62E0C2
:104B500070E080E090E00E94CB98C8010E94AA70AB
:104B600081113DC069E973E086E59AE00E948EA557
:104B700066E57AE087EA9FE00E94BA9D65E070E012
:104B800080E090E00E94CB98D6DE65E070E080E0A7
:104B900090E00E94CB982D2DA7016EE17CE0CE0124
:104BA00001960E94CA71BE016F5F7F4FC80150DF3E
:104BB00062E070E080E090E00E94CB98C8010E9423
:104BC000AA7081110CC061EA73E086E59AE00E9448
:104BD0008EA566E57AE087EA9FE00E94BA9DC8014B
:104BE0006B960FB6F894DEBF0FBECDBFDF91CF91AD
:104BF0001F910F91FF90EF90DF9008958F929F92F9
:104C0000AF92BF92CF92DF92EF92FF920F931F93DA
:104C1000CF93DF93CDB7DEB7C354D1090FB6F89465
:104C2000DEBF0FBECDBFCE014C960E943870CE01C4
:104C3000C796B0DE43E1BE01695C7F4FCE010196AD
:104C400030DFBE016F5F7F4FCE014C9601DFCE019A
:104C50004C960E94AA70882309F469C10E94C56A13
:104C6000AB01BC01CE01C7960E94290BBE01695C55
:104C70007F4FCE014C960E94BA9D6EE875E0CE0142
:104C80004C960E94BA9D0E94C56AAB01BC012AE005
:104C900030E0CE014C960E94A09E02E01BE0E12C89
:104CA000F12C80913D0B90913E0BE816F906B4F47F
:104CB0006EE875E0CE014C960E94BA9DF8014191D4
:104CC0005191619171918F0122E030E0CE014C96BB
:104CD0000E94B79FFFEFEF1AFF0AE3CFE0903F0B70
:104CE000F090400B80913F0B9091400B209103037B
:104CF00030910403820F931FE816F9063CF56EE528
:104D000078E0CE014C960E94959D80913F0B90914A
:104D1000400BF701E81BF90BEE0FFF1FEE0FFF1F13
:104D2000E353F54F408151816281738122E030E08D
:104D3000CE014C960E94B79F6CE578E0CE014C9670
:104D40000E94959D8FEFE81AF80ACCCF6EE875E0C7
:104D5000CE014C960E94BA9D80914802811106C0F6
:104D60006AE578E0CE014C960E94959D8091B70A45
:104D7000813089F480914702811106C068E578E0AE
:104D8000CE014C960E94959D80914602811109C0EA
:104D900065E578E002C061E578E0CE014C960E94BE
:104DA000959D6EE875E0CE014C960E94BA9D60E03C
:104DB00080E00E94AC15AB01BC0123E030E0CE01E5
:104DC0004C960E94B79F6BE478E0CE014C960E940F
:104DD000959D60915706709158064AE050E0CE01CB
:104DE0004C960E94839E68E478E0CE014C960E9427
:104DF000959DC0905B06D0905C06E0905D06F090BB
:104E00005E0660915F0670916006809161069091E8
:104E10006206C114D104E104F10489F00E9441A1A9
:104E20004B015C01C701B6010E9441A19B01AC018D
:104E3000C501B4010E9477A0AB01BC0104C040E0F1
:104E400050E060E87FEB23E030E0CE014C960E941A
:104E5000B79F66E478E0CE014C960E94959D6091E4
:104E6000590670915A064AE050E0CE014C960E94D5
:104E7000839E64E478E0CE014C960E94959D6BE39E
:104E800078E0CE014C960E94959D0E943A15AB01A8
:104E9000BC0122E030E0CE014C960E94B79F69E34E
:104EA00078E0CE014C960E94959D60915E0A7091CB
:104EB0005F0A8091600A9091610A0E9441A19B0162
:104EC000AC016091660A7091670A8091680A9091BE
:104ED000690A0E94DF0BAB01BC0124E030E0CE0187
:104EE0004C960E94B79F67E378E0CE014C960E94F3
:104EF000959D4091620A5091630A6091640A709195
:104F0000650A22E030E0CE014C960E94B79F64E330
:104F100078E0CE014C960E94959D63E378E0CE0147
:104F20004C960E94C59DCE014C960E94987064E6F6
:104F300070E080E090E00E94CB98CD5BDF4F0FB631
:104F4000F894DEBF0FBECDBFDF91CF911F910F91BF
:104F5000FF90EF90DF90CF90BF90AF909F908F9099
:104F600008950F931F93CF93DF93CDB7DEB7C4544B
:104F7000D1090FB6F894DEBF0FBECDBF8C01CE01B4
:104F80004C9625966FAF25970E943870CE01C79634
:104F90002FDD6AE070E080E090E00E94CB9843E172
:104FA000BE01695C7F4FCE0101967BDDBE016F5F64
:104FB0007F4FCE014C964CDD65E070E080E090E0E4
:104FC0000E94CB98CE014C960E94AA7025962FADD8
:104FD0002597811128C069EA73E086E59AE00E946E
:104FE0008EA50E94C56AAB01BC01CE01C7960E9486
:104FF000290B62E378E087EA9FE00E94959DBE015D
:10500000695C7F4F87EA9FE00E94BA9D6EE875E079
:1050100087EA9FE00E94BA9D66E57AE087EA9FE012
:105020000E94BA9DE0C32111AFC00130110509F003
:1050300044C067E278E0CE014C960E94959D409175
:10504000BC0A5091BD0A6091BE0A7091BF0ACE01A0
:10505000C7960E94290BBE01695C7F4FCE014C961A
:105060000E94BA9D64E278E0CE014C960E94959D24
:105070004091970A5091980A6091990A70919A0A02
:1050800022E030E0CE014C960E94B79F61E278E0CA
:10509000CE014C960E94959D40911E0B50911F0B86
:1050A0006091200B7091210B22E030E0CE014C96F4
:1050B0000E94B79F6FE178E08EC3012B09F08FC388
:1050C00063E178E0CE014C960E94959D0E94C56AEE
:1050D000AB01BC01CE01C7960E94290BBE01695CE1
:1050E0007F4FCE014C960E94BA9D60E178E0CE01E0
:1050F0004C960E94959D4091060B5091070B609134
:10510000080B7091090B22E030E0CE014C960E9412
:10511000B79F6AE078E0CE014C960E94959D0E9470
:10512000C56A0091BC0A1091BD0A2091BE0A309157
:10513000BF0A601B710B820B930B0E9441A120E000
:1051400030E040E752E40E9477A0AB01BC0122E0CE
:1051500030E0CE014C960E94B79F6CEF77E0CE0115
:105160004C960E94959D40919B0A50919C0A60919B
:105170009D0A70919E0A22E030E0CE014C960E947A
:10518000B79F67EF77E027C3243609F04DC20B3095
:10519000110531F46FEE77E0CE014C960E94959D9B
:1051A0006EED77E0CE014C960E94959D0E94C56AF7
:1051B000AB01BC01CE01C7960E94290BBE01695C00
:1051C0007F4FCE014C960E94BA9D66ED77E0CE01EE
:1051D0004C960E94959D4091310B5091320B6091FD
:1051E000330B7091340B23E030E0CE014C960E94DB
:1051F000B79F6CEC77E0CE014C960E94959D409154
:10520000930A5091940A6091950A7091960A23E04E
:1052100030E0CE014C960E94B89F6BEB77E0CE0158
:105220004C960E94959D40912D0B50912E0B6091B4
:105230002F0B7091300B24E030E0CE014C960E9491
:10524000B79F61EB77E0CE014C960E94959D40910F
:105250008F0A5091900A6091910A7091920A24E00D
:1052600030E0CE014C960E94B79F66EA77E0CE010F
:105270004C960E94959D22E030E040E050E060E7CF
:1052800071E4CE014C960E94B79F63EA77E0CE01AD
:105290004C960E94959D22E030E040E050E068ECA2
:1052A00071E4CE014C960E94B79F60EA77E0CE0190
:1052B0004C960E94959D22E030E040E050E060EF87
:1052C00071E4CE014C960E94B79F6CE977E0CE0165
:1052D0004C960E94959D20E030E040E85EEB6091A6
:1052E0002D0B70912E0B80912F0B9091300B0E9403
:1052F0008CA220E030E040E85FE30E940FA0AB0109
:10530000BC0124E030E0CE014C960E94B79F69E9D1
:1053100077E0CE014C960E94959D20E030E040E879
:105320005EE360912D0B70912E0B80912F0B90916D
:10533000300B0E948CA220E030E040E85FE30E9446
:105340000FA0AB01BC0124E030E0CE014C960E94DE
:10535000B79F66E977E0CE014C960E94959D20E0CC
:1053600030E040E05FE360912D0B70912E0B809157
:105370002F0B9091300B0E948CA220E030E040E88F
:105380005FE30E940FA0AB01BC0124E030E0CE013E
:105390004C960E94B89F65E877E0CE014C960E943B
:1053A000959D4091290B50912A0B60912B0B709188
:1053B0002C0B24E030E0CE014C960E94B79F6BE7A7
:1053C00077E0CE014C960E94959D40918B0A5091BA
:1053D0008C0A60918D0A70918E0A24E030E0CE0133
:1053E0004C960E94B79F6AE677E0CE014C960E94E9
:1053F000959D22E030E040E050E060EF71E4CE01A6
:105400004C960E94B79F67E677E0CE014C960E94CB
:10541000959D22E030E040E050E064E372E4CE018C
:105420004C960E94B79F64E677E0CE014C960E94AE
:10543000959D22E030E040E050E06CE872E4CE015F
:105440004C960E94B79F60E677E0CE014C960E9492
:10545000959D20E030E040E45FE36091290B70917E
:105460002A0B80912B0B90912C0B0E948CA220E098
:1054700030E040E85FE30E940FA0AB01BC0124E0F4
:1054800030E0CE014C960E94B79F6DE577E0CE01EB
:105490004C960E94959D20E030E040EE5EE36091E6
:1054A000290B70912A0B80912B0B90912C0B0E9451
:1054B0008CA220E030E040E85FE30E940FA0AB0147
:1054C000BC0124E030E0CE014C960E94B79F6AE513
:1054D00077E0CE014C960E94959D2EE833EE48EB86
:1054E0005EEB6091290B70912A0B80912B0B9091B0
:1054F0002C0B0E948CA220E030E040E85FE30E9489
:105500000FA0AB01BC0124E030E0CE014C960E941C
:10551000B79F6EEF75E0CE014C960E94D59D65E475
:1055200077E0CE014C960E94959D40910B0A5091D8
:105530000C0A60910D0A70910E0A24E030E0CE0151
:105540004C960E94B79F6EEF75E0CE014C960E947C
:10555000D59D62E377E0CE014C960E94959D20E0B8
:1055600030E04AE754E46091770A7091780A8091BC
:10557000790A90917A0A0E9477A0AB01BC0123E0DE
:1055800030E0CE014C960E94B79F6EE177E0CE01ED
:105590004C960E94959D20E034E244E759E46091E6
:1055A0006F0A7091700A8091710A9091720A0E943C
:1055B00077A0AB01BC0123E030E0CE014C960E9405
:1055C000B79F6DE077E0CE014C960E94959D20E05C
:1055D00034E244E759E46091730A7091740A80914F
:1055E000750A9091760A0E9477A0AB01BC0123E076
:1055F00030E0CE014C960E94B79F66E077E0CE0186
:105600004C960E94959D0E94CA0EAB01BC0123E0FE
:1056100030E0CE014C960E94B79F6EEF75E0CE0150
:105620004C960E94D59DDBC00130110509F06AC07F
:10563000213019F467EF76E013C0223019F465EEDB
:1056400076E00EC02A3019F461ED76E009C024310D
:1056500019F462EC76E004C0293131F462EB76E0B3
:10566000CE014C960E94959D0E94C56AAB01BC017B
:10567000CE01C7960E94290BBE01695C7F4FCE0107
:105680004C960E94BA9D6FEA76E0CE014C960E943D
:10569000959D4091060B5091070B6091080B7091FE
:1056A000090B22E030E0CE014C960E94B79F6CEAD5
:1056B00076E0CE014C960E94959D40910E0B509144
:1056C0000F0B6091100B7091110B22E030E0CE01B6
:1056D0004C960E94B79F68EA76E0CE014C960E94F5
:1056E000959D40911A0B50911B0B60911C0B709172
:1056F0001D0B22E030E0CE014C960E94B79F66EA77
:1057000076E069C0213019F467E976E013C02230F1
:1057100019F465E876E00EC02A3019F460E776E007
:1057200009C0243119F460E676E004C0293131F46F
:105730006FE476E0CE014C960E94959D0E94C56A6A
:10574000AB01BC01CE01C7960E94290BBE01695C6A
:105750007F4FCE014C960E94BA9D6CE476E0CE015C
:105760004C960E94959D4091060B5091070B6091BD
:10577000080B7091090B22E030E0CE014C960E949C
:10578000B79F69E476E0CE014C960E94959D4091CA
:105790000E0B50910F0B6091100B7091110B22E0CA
:1057A00030E0CE014C960E94B79F65E476E0CE01D2
:1057B0004C960E94959D40911A0B50911B0B609145
:1057C0001C0B70911D0B22E030E0CE014C960E9424
:1057D000B79F63E476E0CE014C960E94C59DCE0152
:1057E0004C960E94987064E670E080E090E00E9421
:1057F000CB98CC5BDF4F0FB6F894DEBF0FBECDBFAA
:10580000DF91CF911F910F9108958F929F92AF9248
:10581000BF92FF920F931F93CF93DF93CDB7DEB765
:105820002D970FB6F894DEBF0FBECDBFF82E81E0E6
:10583000F81220C060E08AE20E94D39A6AE081E018
:1058400090E08FDB6EE875E087EA9FE00E94D59DCF
:105850000E94C56AAB01BC01CE0101960E94290BD2
:10586000BE016F5F7F4F87EA9FE00E94BA9D6DEF98
:105870007DE041C061E08AE20E94D39A0E94C56A3D
:105880008090A70A9090A80AA090A90AB090AA0AAE
:105890000091AB0A1091AC0A2091AD0A3091AE0A8A
:1058A000801A910AA20AB30A860E971EA81EB91E74
:1058B0008092A70A9092A80AA092A90AB092AA0A76
:1058C0006AE080E090E04DDB6EE875E087EA9FE0FB
:1058D0000E94D59D0E94C56AAB01BC01CE01019614
:1058E0000E94290BBE016F5F7F4F87EA9FE00E94F5
:1058F000BA9D67EE7DE087EA9FE00E94959DF09259
:10590000280B0E94C56A6093AB0A7093AC0A80931F
:10591000AD0A9093AE0A2D960FB6F894DEBF0FBE77
:10592000CDBFDF91CF911F910F91FF90BF90AF90AE
:105930009F908F9008951F93CF93DF93CDB7DEB7DD
:105940002D970FB6F894DEBF0FBECDBF823048F45E
:10595000809346066AE070E080E090E00E94CB9879
:105960008BC010914606123008F086C0809141022B
:10597000811709F481C0109341020E94C56A24E096
:10598000129FF0011124EF5EF54F608371838283D3
:1059900093831130C1F560E080E30E94D39A61E007
:1059A0008FE20E94D39A87EA9FE00E94C29D61E045
:1059B00081E090E0D6DA6EE875E087EA9FE00E9429
:1059C000D59D0E94C56AAB01BC01CE0101960E9423
:1059D000290BBE016F5F7F4F87EA9FE00E94BA9D4F
:1059E0006EE875E087EA9FE00E94BA9D0E949C984D
:1059F000AB01BC012AE030E087EA9FE00E94A09E54
:105A000066ED7DE035C0111137C060E08FE20E9485
:105A1000D39A61E080E30E94D39A61E080E090E055
:105A2000A0DA6EE875E087EA9FE00E94D59D0E94AB
:105A3000C56AAB01BC01CE0101960E94290BBE01D3
:105A40006F5F7F4F87EA9FE00E94BA9D6EE875E026
:105A500087EA9FE00E94BA9D0E949C98AB01BC011E
:105A60002AE030E087EA9FE00E94A09E66EC7DE09D
:105A700087EA9FE00E94959D2D960FB6F894DEBFB1
:105A80000FBECDBFDF91CF911F9108958F929F924E
:105A9000AF92BF92CF92DF92EF92FF921F93CF937C
:105AA000DF93CDB7DEB72D970FB6F894DEBF0FBEEC
:105AB000CDBF182F813009F051C080910F0A90910D
:105AC000100A892B09F04AC0C0908E02D0908F0234
:105AD000E0909002F0909102A701960160911A0B5C
