:100000000C943A090C9463930C9494930C94C593B8
:100010000C94F6930C9427940C9458940C94899413
:100020000C94BA940C946B090C946B090C946B09A6
:100030000C946B090C946B090C946B090C946B0970
:100040000C946B090C946B090C946B090C946B0960
:100050000C946B090C946B090C946B090C94EB9445
:100060000C946B090C9438990C946E990C946B0950
:100070000C946B090C946B090C946B090C946B0930
:100080000C946B090C946B090C946B090C946B0920
:100090000C946B090C946B090C946B090C94A86C70
:1000A0000C946B090C946B090C946B090C946B0900
:1000B0000C946B090C946B090C946B090C946B09F0
:1000C0000C946B090C946B090C946B090C946B09E0
:1000D0000C946B090C946B090C946B090C946B09D0
:1000E0000C946B09AF46AF461F4701483E4887480E
:1000F000C4487E493D9307930F931B9328934993DC
:1001000056933F964496499653965D96D696679633
:100110006F96779681968B969596A496AE96D69680
:10012000B896C296CC96F896FB96EA96EE96F4961A
:100130003297FF96039709970D97119717971B977B
:100140001F973297259729972D9707634236B79BBC
:10015000D8A71A39685618AEBAAB558C1D3CB7CC27
:100160005763BD6DEDFD753EF6177231BF0000009F
:10017000803F20497A6B6C6F70206B6F6D70726579
:10018000736F726A612054430020497A6B6C6F7000
:100190002076656E742E206B6F6D707265736F7252
:1001A0006A612054430020566B6C6F702076656E38
:1001B000742E206B6F6D707265736F726A6120545C
:1001C000430020566B6C6F70206B6F6D707265739F
:1001D0006F726A6120544300200020434572000082
:1001E000427574746F6E2070726573736564002D50
:1001F00020002D20002D200052656654656D704250
:100200003030202D2052656654656D7042303120AB
:100210002D2054656D70497A6B6C6F7061202D20B4
:1002200070726576437270544353746174653A20FA
:100230000027002F002700496E69742E204F4B00C5
:10024000005374696B616C613A20004672656520E9
:1002500052414D3A2000467265652052414D0020C2
:1002600020002E002E0020200020525443204F4B0F
:100270000054696D653A004453313330372072655C
:100280006164206572726F722120205072657665FC
:10029000726920706F76657A6176652E00546865A4
:1002A00020445331333037206A652075737461768A
:1002B0006C6A656E2E2050726F73696D206E61736B
:1002C00074617669206361732E00546F6B3A20006D
:1002D000004B6F6E74726F6C65722054433A20004D
:1002E00000434F2120003C003E0035563328457224
:1002F00072293A20002F757064617465003C3C3CA3
:1003000020524551002E2E2E003E3E3E002F696F9A
:100310002F3737352F003C3C3C20524551006600BA
:1003200074002069734C696E6B55703A0064656C9B
:100330006179636E743A200066616C736500747253
:10034000756500706572736973745F7463705F6361
:100350006F6E6E656374696F6E3A200066616C73D0
:100360006500747275650055736520444843503AC2
:100370002000486973706F72743A200048545450DA
:100380002F312E3020323030204F4B0D0A436F6E0C
:1003900074656E742D547970653A20746578742F85
:1003A00068746D6C0D0A507261676D613A206E6FF2
:1003B0002D63616368650D0A0D0A3C6D65746120EB
:1003C000687474702D65717569763D277265667203
:1003D0006573682720636F6E74656E743D273539C9
:1003E000272F3E3C7469746C653E496E666F2073BE
:1003F00065727665723C2F7469746C653E3C683139
:100400003E2024533C2F68313E3C68333E2054311B
:100410003A20245343203C62723E2054323A202436
:100420005343203C62723E2054333A2024534320ED
:100430003C62723E2054343A20245343203C627282
:100440003E2054353A20245343203C62723E2054CF
:10045000363A20245343203C62723E2054373A20DF
:10046000245343203C62723E2054383A20245343A4
:10047000203C62723E2054393A20245343203C628F
:10048000723E52483A20245325203C62723E487501
:100490006D696465783A202453433C62723E434F51
:1004A0003A2024443C62723E53746174653A2024BD
:1004B0004424442444244424442444244420202028
:1004C0003C2F68333E203C62723E002920003B00F6
:1004D00020457728005265537420756E737563212B
:1004E0000047617465776179204950206E6F7420F0
:1004F000666F756E64200064656C6179636E743A32
:1005000020002920003B00204570280020737563DF
:100510006573733A2000207375636573733A200026
:10052000207375636573733A200020737563657378
:10053000733A2000207375636573733A200020734B
:1005400075636573733A2000507265766572692031
:10055000706F76657A61766F2065746865726E6516
:1005600074206D6F64756C6121004574682E20667F
:10057000697277617265207265763A20000000002A
:100580006572726F7200002900202D200020280063
:10059000202000497A6B6C2E206B6F6D70722E5488
:1005A000433A2000497A6B6C2E2076656E742E5487
:1005B000433A2000497A6B6C2E20637270616C6B39
:1005C00065207261642E3A2000497A6B6C2E63724A
:1005D00070616C6B652054433A20005A61702E2084
:1005E00076656E74696C613A20002900202D200028
:1005F000202800202000566B6C2E206B6F6D7072CF
:100600002E54433A2000566B6C2E2076656E742E65
:1006100054433A2000566B6C2E20637270616C6BF1
:1006200065207261642E3A2000566B6C2E20637236
:1006300070616C6B652054433A20004F64702E202B
:1006400076656E74696C613A200020436F703A20C1
:100650000020446F626C6A656E6F20284D4A293A0B
:1006600020002055707261626C6A656E6F20284DA3
:100670005773293A2000205A61632E20506F72610F
:100680006261206B56413A200020666163745765B1
:100690006967687441766754656D703A20002C2054
:1006A000002C2000293D20002C20002C2000204B75
:1006B0006F6D702E73742E74656D702E202800205F
:1006C0005A61646E6A613A200020466163742E7A32
:1006D00061632E74656D703A20002C20002C200080
:1006E000293D20002C20002C2000204B6F6D702E07
:1006F0006F6B202800207A61646E6A613A200020C6
:10070000466163742E6B6F6D702E6F6B2E3A2000F6
:10071000205A61646E6A613A2000204E6F76613A19
:100720002000486974726F737420677265746A611F
:100730003A2000496E666F202D200073742F6800E8
:100740006D696E2020486974722E673A200020205F
:100750004F6E3A00202000497A6B6C6F7020544332
:100760003A20002900202800202000566B6C6F7072
:100770002054433A2000200000002941002F002887
:1007800000204928313256293A0029002F0020281C
:10079000004120434F3A0020004F464600454700A5
:1007A0004B005600200025004320200020002000A0
:1007B00020002000205344204F4B0053442043612D
:1007C00072643A004F4B00456E636F6465723A0085
:1007D00078587858785878580078587858785878F1
:1007E000580020002E002E005A61646E6A65207049
:1007F000726567726576616E6A653A200054692099
:1008000000547620004F4646004547004B0041000B
:10081000546F6B3A0020434F3A004F46460045471D
:10082000004B0020003A20004300252000432052C6
:10083000483A002E002E00536520707269646500EE
:1008400030003000204C4344204F4B00543A0041CC
:10085000643A002053656E3A000020003A005D00C3
:100860005B002D0054002D003A0054002D002F0095
:100870002F00290028002F00290028003A005400EA
:100880002D0050726567726576616E6A65204F4B08
:1008900000290028003A00540020003000200020E9
:1008A0000020440000204B2D747970652073656E24
:1008B0007A6F72003A0030005420002044485432CD
:1008C000322073656E7A6F72003A00300054200057
:1008D0004E6170616B612044485432322073656E02
:1008E0007A6F726A612121004E6170616B612044F0
:1008F000485432322073656E7A6F726A612121002A
:1009000020003A00300054200053746576696C6F03
:100910002073656E7A6F726A6576005374657669C6
:100920006C6F2074656D702E2073656E7A6F726ABD
:100930006576207365206E6520756A656D6121217D
:100940000000200020646576696365732E0000292D
:10095000002F00280020426174742B3A0029002FD8
:10096000002800203356333A0029002F00280020A9
:100970003556333A0029002F002800203556323AE8
:100980000029002F002800203132563A0029002F7C
:10099000002035496E3A0028457272292000203522
:1009A000496E3A0056202D003A003A002D004D695C
:1009B0006E2E2D6D61783A00200020003A20002034
:1009C00020004164647265733A0020003A200020E0
:1009D00020004164647265733A0000202F20006695
:1009E00061637457656967687441766754656D70B3
:1009F0003A200043206A6520004B6F6D70656E7A67
:100A00002E207A616365746E652074656D702E208A
:100A10007072692074656D702E200000202F2000F8
:100A20004B6F6D702E73742E3A200043206A652040
:100A3000004B6F6D70656E7A2E2074656D702E2080
:100A40006F6B6F6C696365207072692074656D707F
:100A50002E200000202F20004B6F6D702E6F6B2E0C
:100A60003A20004B2F6800202F20004869722E206A
:100A7000677265743A20002020002E002E00204E60
:100A800061736C65646E6A65207072656772657605
:100A9000616E6A653A20002020002E002E005A6107
:100AA000646E6A652070726567726576616E6A65EC
:100AB0003A20002270726576544353746174652243
:100AC000206E61737461766C6A656E6F206E612052
:100AD000002020002E002E004C617374205443200F
:100AE0006368673A200073004F6E54696D653A2061
:100AF000002020002E002E0020204E61736C6564C3
:100B00006E6A652070726567726576616E6A653AB5
:100B100020002020002E002E005A61646E6A65209D
:100B200070726567726576616E6A653A2000004F83
:100B30004646004547004B005600202D3E200066EB
:100B4000007400204C553A002064636E743A00290A
:100B50004120002F002800204928313276293A0010
:100B6000200029002F0028002920434F3A002D00A3
:100B70002D3E002D002028002054692000205476AE
:100B80003A004F6E2074696D653A200029200041BB
:100B9000280020546F6B3A2000006D732000293A22
:100BA0002000204176672E70696E672074696D653C
:100BB000286E3D002D004D696E2D4D6178286C61C9
:100BC00073742068293A20006D732000293A2000B0
:100BD000204176672E6379636C6554696D65286E74
:100BE0003D000029003E0028003A002052486100E4
:100BF0000056200050200029003E0028003A002026
:100C000054610000205020002045200020002000DA
:100C1000200000204E6F76613A00204661637457D1
:100C2000656967687441766754656D703A00204362
:100C30006F703A200020496E666F2064656C7461A5
:100C4000546853743A200020496E666F2064656CC6
:100C5000746154684F6B3A200020496E666F2064BF
:100C6000656C746154683A2000206B6F6D702E7350
:100C7000743A2000204E6F7661206B6F6D702E6F7E
:100C80006B3A200020746B6F6D7053743A20002013
:100C9000746B6F6D70303A20002072756E2074692D
:100CA0006D652868293A20002074656D70206F6B8F
:100CB0006F6C6963652073743A200020496E666F1B
:100CC0002063616C2E28737461727454656D702991
:100CD0003A2000204C6173743A00204B6F6D702EE7
:100CE00073743A00204C6173743A00204B6F6D703E
:100CF0002E6F6B3A00204C6173743A0020482E67C7
:100D00007265743A00496E666F202D2000005641CE
:100D100068006B564168002000202000004361738A
:100D2000206A65206E61737461766C6A656E003E40
:100D3000200020002000203C4454656D703A2000C3
:100D400020497A6B6C6F7020637270616C6B6520E8
:100D500054430020566B6C6F7020637270616C6B33
:100D60006520544300205A61706972616D20766578
:100D70006E74696C002000204F64706972616D2090
:100D800076656E74696C200020000020497A6B6FD4
:100D90006C70206372702E207261646961746F726E
:100DA00000200020566B6C6F70206372702E2072D2
:100DB00061646961746F72002000457272457052FF
:100DC0006542752000457272457072526542754CDD
:100DD0006500457272457052654275200020002002
:100DE0000045727245705772427920004572724513
:100DF000705772506720003A206E69204453313892
:100E00007832302066616D696C792064657669633B
:100E1000652E003A20445331383232003A20445390
:100E20003138423230003A204453313853323000A6
:100E300054656D702E2073656E736F72200053744D
:100E40006576696C6F2044532073656E6F73726AA8
:100E5000657621210053746576696C6F20445320B8
:100E600073656E6F73726A65762121007777772ECE
:100E70006465766963656875622E6E657400005EF0
:100E8000BCE2613FDD83C29C7E20A3FD1F419DC368
:100E9000217FFCA2401E5F01E3BD3E6082DC237D1A
:100EA0009FC1421CFEA0E1BF5D0380DE3C62BEE04C
:100EB000025CDF81633D7C22C09E1D43A1FF46187A
:100EC000FAA427799BC584DA3866E5BB5907DB8528
:100ED0006739BAE406581947A5FB7826C49A653BDA
:100EE000D987045AB8E6A7F91B45C6987A24F8A60C
:100EF000441A99C7257B3A6486D85B05E7B98CD23A
:100F0000306EEDB3510F4E10F2AC2F7193CD114FE7
:100F1000ADF3702ECC92D38D6F31B2EC0E50AFF199
:100F2000134DCE90722C6D33D18F0C52B0EE326CCB
:100F30008ED0530DEFB1F0AE4C1291CF2D73CA94F9
:100F40007628ABF517490856B4EA6937D58B5709A7
:100F5000EBB536688AD495CB2977F4AA4816E9B759
:100F6000550B88D6346A2B7597C94A14F6A8742A8B
:100F7000C896154BA9F7B6E80A54D7896B357C3C5F
:100F80003E5E2B3D3F2F5B5D3B2C2A225C00504F89
:100F9000535420244620485454502F312E300D0AEB
:100FA000486F73743A2024460D0A24462453416343
:100FB000636570743A202A2F2A0D0A436F6E746598
:100FC0006E742D4C656E6774683A2024440D0A4394
:100FD0006F6E74656E742D547970653A206170700F
:100FE0006C69636174696F6E2F782D7777772D66E2
:100FF0006F726D2D75726C656E636F6465640D0A3A
:101000000D0A245300004745542024462453204809
:101010005454502F312E300D0A486F73743A2024E7
:10102000460D0A24460D0A0D0A004163636570747B
:101030003A20746578742F68746D6C0045000082E6
:101040000000400020000108000604000100000A22
:101050000B02090C0D0E080703040100000000003C
:101060000000000000000000000000000000000080
:10107000000000000000000000121110000000003D
:101080000000000000000000000000000000000060
:10109000000000010210202008081020401020400D
:1010A000800201020108040201010204081020402C
:1010B000808040201008040201800402018040204A
:1010C0001008040201080402010102040810204073
:1010D0008001020408102040800505050507050869
:1010E000080808020202020A0A08080404040401AB
:1010F00001010101010101030303030303030304CD
:101100000707070C0C0C0C0C0C0C0C02020202065C
:10111000060606060606060B0B0B0B0B0B0B0B004D
:101120000020002300260029002C002F00320000A0
:10113000010000030106010901000022002500282A
:10114000002B002E003100340002010000050108D0
:10115000010B0100002100240027002A002D00308F
:1011600000330001010000040107010A0100407A78
:1011700010F35A00A0724E18090010A5D4E8000020
:10118000E87648170000E40B54020000CA9A3B00BE
:101190000000E1F505000080969800000040420F35
:1011A000000000A08601000000102700000000E8F9
:1011B00003000000006400000000000A00000000BE
:1011C000000100000000002C76D888DC674F08235F
:1011D000DFC1DFAE59E1B1B796E5E3E453C63AE6C5
:1011E00051997696E8E6C28426EB898C9B62ED40A5
:1011F0007C6FFCEFBC9C9F40F2BAA56FA5F49005F4
:101200005A2AF75C936B6CF9676DC11BFCE0E40D27
:1012100047FEF520E6B500D0ED902E03009435771B
:10122000050080841E080000204E0A000000C80C43
:10123000333333330F986E12831141EF8D211489AC
:101240003BE65516CFFEE6DB18D1844B381BF77C06
:101250001D901DA4BBE424203284725E228100C94B
:10126000F124ECA1E53D2700893CC76BE86D9A713C
:10127000AC74A09911241FBECFEFD1E2DEBFCDBF69
:1012800000E00CBF17E0A0E0B2E0E4E5FFE401E01D
:101290000BBF02C007900D92A630B107D9F720E12D
:1012A000A6E0B7E001C01D92A13DB207E1F712E14F
:1012B000C4E7D2E100E006C022970109FE010BBF9E
:1012C0000E948EA0C836D10780E00807A9F70E94C7
:1012D000E4990C94A8A70C940000DC011696ED91FB
:1012E000FC9117979F012F5F3F4F17963C932E93CA
:1012F0001697608381E090E008958091390A8823F1
:1013000031F061E070E080E090E00E94649583E05D
:101310000E94A19740913A0A242F30E08217930748
:10132000A9F081E0842780933A0A882369F08091AC
:101330003B0A811109C080913C0A90913D0A0197B6
:1013400090933D0A80933C0A1092390A0895809147
:10135000390A882331F061E070E080E090E00E947B
:10136000649582E00E94A19740913B0A242F30E0CF
:1013700082179307A9F081E0842780933B0A882392
:1013800069F080913A0A811109C080913C0A9091DC
:101390003D0A019690933D0A80933C0A1092390AC7
:1013A0000895BC018DEF93E00C94F290CF93DF93FE
:1013B000EB018091C3038823C9F069E073E080E307
:1013C00090E10E942E9ABE016F58784FFB01E45DB8
:1013D000FE4F108280E390E10E94539A65E073E033
:1013E00080E390E1DF91CF910C942E9ADF91CF9121
:1013F00008958F929F92AF92BF92CF92DF92EF9219
:10140000FF920F931F93CF93DF93CDB7DEB72C9747
:101410000FB6F894DEBF0FBECDBF5C0183E09BE04A
:101420000E941666B501E3E0660F771FEA95E1F7C3
:101430006D5B754F83E09BE00E940F6740E06EEBB1
:1014400083E09BE00E94B3664E018AE0880E911C07
:10145000FE0131967F0100E010E083E09BE00E94F6
:10146000F466F70181937F01811102C00F5F1F4F66
:10147000E814F90491F768E0CE0101960E94FC6738
:101480009985891711F0085F1F4F6A8170E0762FE8
:1014900066278981682BF501EE51F44F80818823FE
:1014A00091F043E0660F771F4A95E1F78885803118
:1014B000F1F4CB01807F2F816CE070E0621B710939
:1014C000680F791F14C08D81807631F433E0660F88
:1014D000771F3A95E1F70BC0803229F4660F771F2A
:1014E000660F771F04C0803411F4660F771F80E009
:1014F00090E00E94DA9D20E030E040E85DE30E9449
:10150000259F6B017C0120E030E04AE754E40E9413
:10151000B19E181624F0083011050CF442C064EA9C
:1015200078E080E390E10E945E9A61EA78E080E3EF
:1015300090E10E942E9AB5016F5F7F4F4AE050E024
:1015400080E390E10E941C9BCE0101965C016FE953
:1015500078E080E390E10E942E9AF50161915F01AD
:1015600040E150E080E390E10E94459BA814B9045B
:1015700071F76DE978E080E390E10E942E9A22E015
:1015800030E0B701A60180E390E10E94509C083052
:1015900011053CF0C12C80E4D82E8AE7E82E84E4C3
:1015A000F82EC701B6012C960FB6F894DEBF0FBE19
:1015B000CDBFDF91CF911F910F91FF90EF90DF9002
:1015C000CF90BF90AF909F908F900895CF93DF936F
:1015D000EC0161111BC083E09BE00E941666C930DC
:1015E000D10539F440E06CEC83E09BE00E94B366E7
:1015F00010C0BE01F3E0660F771FFA95E1F76D5B4F
:10160000754F83E09BE00E940F6703C0DF91CF918D
:10161000F0CE40E064E483E09BE00E94B36660E0CB
:1016200070E48AE794ECDF91CF910895AF92BF9276
:10163000CF92DF92EF92FF920F931F93CF93DF939E
:10164000EC016A017B01CB01BA010E940E69B82E40
:10165000A92EC701B6010E940969182F092FC701D9
:10166000B6010E940469AF92BF920F931F939F939C
:101670008F932DE034E03F932F93DF93CF930E941D
:1016800079A28DB79EB70A960FB6F8949EBF0FBE8B
:101690008DBFDF91CF911F910F91FF90EF90DF9061
:1016A000CF90BF90AF900895DC01ED91FC91019037
:1016B000F081E02D1994CF92DF92EF92FF92CF93B9
:1016C000DF93EC010E9435956B017C010E943595FA
:1016D0006C197D098E099F09653671058105910593
:1016E00058F4BE0186E49CE00E94B26B86E49CE064
:1016F0000E94C56B8111EACFDF91CF91FF90EF90EF
:10170000DF90CF900895CF92DF92EF92FF920F93E8
:101710001F93CF93DF93EC016A017B01222349F0F1
:10172000DF91CF911F910F91FF90EF90DF90CF90BD
:101730007DCFCB01BA010E940969182F092FC7017B
:10174000B6010E9404690F931F939F938F9321E921
:1017500034E03F932F93DF93CF930E9479A28DB70C
:101760009EB708960FB6F8949EBF0FBE8DBFDF914F
:10177000CF911F910F91FF90EF90DF90CF90089540
:101780000E94B26A019731F00E94B26A079711F085
:1017900080E0089581E008958F929F92AF92BF926A
:1017A000CF92DF92EF92FF924B015C0169017A01C7
:1017B00020E030E0A901C701B6010E94B19E1816D1
:1017C0005CF427E137EB41ED58E3C701B6010E9415
:1017D0000C9D87FF0BC011C027E137EB41ED58EBA3
:1017E000C701B6010E94B19E18163CF0A7019601F0
:1017F000C501B4010E94109D03C060E070E0CB0100
:10180000FF90EF90DF90CF90BF90AF909F908F9020
:10181000089520E030E040EA51E40E94A79C20E0D7
:1018200030E040EA51E40E94109D2091160C309166
:10183000170C4091180C5091190C0E94259F20E024
:1018400030E040E85FE30C94A89C08959B01AC0154
:101850000E94259F9B01AC0160E070E081E695E469
:101860000E94A79C20E030E041E655E40E94109DD4
:101870002091120C3091130C4091140C5091150CC6
:101880000E94259F20E030E040E85FE30C94A89C94
:1018900008958F929F92AF92BF92CF92DF92EF9274
:1018A000FF926091680B7091690B80916A0B909127
:1018B0006B0BAFDF6B017C018090800B9090810BF4
:1018C000A090820BB090830BC501B401BFDF9B01D8
:1018D000AC01C701B6010E94259F6B017C0160919C
:1018E0006C0B70916D0B80916E0B90916F0B0E9441
:1018F000DA9D20E030E041E655E40E94109D9B0116
:10190000AC01C701B6010E94259F6B017C0120E05C
:1019100030E0A9010E94B19E18165CF42FE632E176
:1019200043E85AE3C701B6010E940C9D87FF14C02B
:101930000AC02FE632E143E85AEBC701B6010E9424
:10194000B19E18164CF460911A0C70911B0C80918A
:101950001C0C90911D0C10C0A50194016091EF0B1F
:101960007091F00B8091F10B9091F20B0E94A79C6B
:10197000A70196010E94109DFF90EF90DF90CF90FD
:10198000BF90AF909F908F9008954F925F926F920B
:101990007F928F929F92AF92BF92CF92DF92EF92FF
:1019A000FF92CF93DF9300D01F92CDB7DEB7809127
:1019B000DF0A882309F4C0C060916C0B70916D0B35
:1019C00080916E0B90916F0B0E94DA9D20E030E0C9
:1019D00041E655E40E94109D20911A0C30911B0C99
:1019E00040911C0C50911D0C0E94259F6B017C01A5
:1019F0004090800B5090810B6090820B7090830B15
:101A0000C301B20123DF9B01AC01C701B6010E94F3
:101A1000259F4B015C018091EF0B9091F00BA09101
:101A2000F10BB091F20B89839A83AB83BC8320E0E6
:101A300030E040EA51E46091680B7091690B80914D
:101A40006A0B90916B0B0E94A79C9B01AC01C50196
:101A5000B4010E94259F6B017C0120E030E0A901C8
:101A60000E94B19E18165CF427E137EB41ED58E374
:101A7000C701B6010E940C9D87FF14C00AC027E170
:101A800037EB41ED58EBC701B6010E94B19E181625
:101A90004CF4C090160CD090170CE090180CF090FD
:101AA000190C4EC0A301920169817A818B819C81BE
:101AB0000E94A79CA50194010E94A79C20E030E011
:101AC00040EA51E40E94259FA70196010E94109DC3
:101AD0004B015C0120E030E0A9010E94B19E181684
:101AE0005CF5C090160CD090170CE090180CF0909C
:101AF000190C20E030E040E05FE3C701B6010E942E
:101B0000B19E1816B4F42091220330912303409122
:101B1000240350912503C701B6010E94259F6B0144
:101B20007C019B01AC01B401C5010E94B19E181655
:101B30003CF06401750104C0C12CD12CE12CF12CC6
:101B4000B601C7010F900F900F900F90DF91CF91CA
:101B5000FF90EF90DF90CF90BF90AF909F908F90CD
:101B60007F906F905F904F9008954F925F926F9229
:101B70007F928F929F92AF92BF92CF92DF92EF921D
:101B8000FF92CF93DF93CDB7DEB728970FB6F894C7
:101B9000DEBF0FBECDBF8090800B9090810BA090D8
:101BA000820BB090830BA5019401C501B4010E9482
:101BB000259F6B017C018091EF0B9091F00BA09120
:101BC000F10BB091F20B8D839E83AF83B887609148
:101BD0006C0B70916D0B80916E0B90916F0B0E944E
:101BE000DA9D20E030E041E655E40E94109D20910E
:101BF0001A0C30911B0C40911C0C50911D0C0E9432
:101C0000259F2B013C016091680B7091690B8091BD
:101C10006A0B90916B0BFDDD69837A838B839C83C8
:101C2000A701960160E070E081E695E40E94A79C20
:101C30009B01AC01C301B2010E94259F29813A8119
:101C40004B815C810E94259F6B017C0120E030E08C
:101C5000A9010E94B19E18165CF427E137EB41ED13
:101C600058E3C701B6010E940C9D87FF14C00AC04B
:101C700027E137EB41ED58EBC701B6010E94B19E59
:101C800018164CF4C090120CD090130CE090140C69
:101C9000F090150C55C0A50194016D817E818F8156
:101CA00098850E94A79C4B015C0129813A814B8158
:101CB0005C81C301B2010E94259F9B01AC01C5015B
:101CC000B4010E94A79C20E030E041E655E40E9468
:101CD000259FA70196010E94109D4B015C0120E009
:101CE00030E0A9010E94B19E181644F5C090120C74
:101CF000D090130CE090140CF090150C2DEC3CECF3
:101D00004CE45EE3C701B6010E94B19E1816B4F41C
:101D10002091220330912303409124035091250305
:101D2000C701B6010E94259F6B017C019B01AC019C
:101D3000B401C5010E94B19E181614F0640175012A
:101D4000B601C70128960FB6F894DEBF0FBECDBF0F
:101D5000DF91CF91FF90EF90DF90CF90BF90AF9049
:101D60009F908F907F906F905F904F9008958F928B
:101D70009F92AF92BF92CF92DF92EF92FF9220910B
:101D8000800B3091810B4091820B5091830B6091BD
:101D9000EF0B7091F00B8091F10B9091F20B0E9480
:101DA000A79C20E037ED4BE659E40E94259F4B01AC
:101DB0005C0160935C0B70935D0B80935E0B909362
:101DC0005F0B2091600B3091610B4091620B509141
:101DD000630B6091640B7091650B8091660B909121
:101DE000670B0E94A79C20E030E041E655E40E948A
:101DF000259F6B017C016093580B7093590B809366
:101E00005A0B90935B0B20E030E0A9010E94B19E39
:101E100018163CF4A7019601C501B4010E94109D5B
:101E200003C060E070E0CB01FF90EF90DF90CF90B7
:101E3000BF90AF909F908F9008958F929F92AF9296
:101E4000BF92CF92DF92EF92FF92CF93C82F209153
:101E50004C0330914D0340914E0350914F036091DC
:101E6000030C7091040C8091050C9091060C0E945B
:101E70000C9D87FD7EC0C090EF0BD090F00BE090E2
:101E8000F10BF090F20BA70196016091DB0A7091C3
:101E9000DC0A8091DD0A9091DE0A0E94A79C9B01DA
:101EA000AC010E94259F4B015C01A7019601609146
:101EB000D70A7091D80A8091D90A9091DA0A0E94C3
:101EC000A79C9B01AC010E94259F9B01AC01C50111
:101ED000B4010E94A89C0E948C9F6B017C01CC23C2
:101EE000E1F166E37DE080E390E10E942E9A22E03A
:101EF00030E0B701A60180E390E10E94509C64E3CA
:101F00007DE080E390E10E942E9A4091DB0A50919F
:101F1000DC0A6091DD0A7091DE0A22E030E080E3A5
:101F200090E10E94509C62E37DE080E390E10E949A
:101F30002E9A4091D70A5091D80A6091D90A70918F
:101F4000DA0A22E030E080E390E10E94509C6FE2E8
:101F50007DE080E390E10E942E9A2DEC3CEC4CEC6D
:101F60005DE3C701B6010E940C9D881F8827881F6A
:101F700001C080E0CF91FF90EF90DF90CF90BF90B5
:101F8000AF909F908F900895CF92DF92EF92FF9243
:101F9000C0909C0BD0909D0BE0909E0BF0909F0BFF
:101FA0000E94106A6C197D098E099F0921E0693031
:101FB00077408105910508F420E0822FFF90EF9093
:101FC000DF90CF9008952F923F924F925F926F9241
:101FD0007F928F929F92AF92BF92CF92DF92EF92B9
:101FE000FF920F931F93CF93DF931C016A017B0134
:101FF0000E94A06A00915203109153038017910729
:10200000D4F40E94A06AEC01B801882777FD80957E
:10201000982F0E94DC9D2B013C01BE01882777FD93
:102020008095982F0E94DC9D9B01AC01C301B201F9
:102030000E94A79C4DC00E94A06ABC01882777FD22
:102040008095982F0E94DC9D20E030E040EC51E428
:102050000E94A79C20E030E0A9010E94B19E1816C2
:1020600094F40E94A06ABC01882777FD8095982F80
:102070000E94DC9D20E030E040EC51E40E94A79CEF
:102080002B013C0115C00E94A06ABC01882777FD86
:102090008095982F0E94DC9D20E030E040EC51E4D8
:1020A0000E94A79C2B013C0177FA709477F87094FA
:1020B0006091520370915303882777FD8095982F84
:1020C0000E94DC9D9B01AC01C301B2010E94A89C4F
:1020D00020E030E040E85FE30E94A79C2B013C0138
:1020E00080901A0C90901B0CA0901C0CB0901D0CB2
:1020F0000E94A66ABC01882777FD8095982F0E94D0
:10210000DC9D20E030E040E752E40E94109D9B01FE
:10211000AC0160E070E080E89FE30E94A79C9B0117
:10212000AC01C301B2010E94A89C9B01AC01C50196
:10213000B4010E94259F2B013C016091070C709116
:10214000080C8091090C90910A0C63DB9B01AC0197
:10215000C301B2010E94259F2B013C016091EF0B4E
:102160007091F00B8091F10B9091F20B6FDB9B0162
:10217000AC01C301B2010E94259F9B01AC01B601D5
:10218000C7010E94A79C8B01D82FC92F21143104AD
:1021900009F040C0409078035090790360907A0332
:1021A00070907B0320E030E040E05FE360911A0C28
:1021B00070911B0C80911C0C90911D0C0E94259F0E
:1021C0004B015C019B01AC01B8018D2F9C2F0E943B
:1021D000A89C8B01D82FC92F9B01482F592FB201E2
:1021E000C3010E94B19E18161CF48201D62DC72D82
:1021F000A5019401B601C7010E94A79C6B017C0157
:102200009B01AC01B8018D2F9C2F0E940C9D87FF74
:1022100044C046C02A94232809F042C040907C0361
:1022200050907D0360907E0370907F03209178032F
:102230003091790340917A0350917B03C301B2013D
:102240000E94A89C4B015C01A3019201B8018D2F53
:102250009C2F0E94A89C20911A0C30911B0C40913D
:102260001C0C50911D0C0E94A89C8B01D82FC92FCB
:102270009B01482F592FB401C5010E94B19E181629
:102280001CF48401DA2DCB2D98014D2F5C2FB60163
:10229000C7010E940C9D87FF03C08601DE2DCF2D54
:1022A000B8018D2F9C2FDF91CF911F910F91FF903F
:1022B000EF90DF90CF90BF90AF909F908F907F90E6
:1022C0006F905F904F903F902F9008958F929F92C4
:1022D000AF92BF92CF92DF92EF92FF920F931F9334
:1022E000CF93DF936091540370915503882777FD56
:1022F0008095982F0E94DC9D6B017C0160915003BA
:1023000070915103882777FD8095982F0E94DC9D5E
:1023100020E030E040E752E40E94109D9B01AC01B8
:10232000C701B6010E94A79C6B017C010E94A06AB4
:10233000BC01882777FD8095982F0E94DC9DA7011E
:1023400096010E940C9D87FF11C020917C03309163
:102350007D0340917E0350917F03609182037091D1
:102360008303809184039091850356C00E94A06AE4
:102370008C010E94A66AEC01B801882777FD809540
:10238000982F0E94DC9D4B015C01BE01882777FDE0
:102390008095982F0E94DC9D20E030E040E752E4D9
:1023A0000E94109D9B01AC01C501B4010E94A89C34
:1023B000A70196010E94A79C4B015C016091540308
:1023C00070915503882777FD8095982F0E94DC9D9A
:1023D000A70196010E94A79C9B01AC01C501B40115
:1023E0000E94109D9B01AC0160E070E080E89FE3DB
:1023F0000E94A79C20917C0330917D0340917E0335
:1024000050917F030E94259F209182033091830386
:1024100040918403509185030E94A89CDF91CF9145
:102420001F910F91FF90EF90DF90CF90BF90AF90F2
:102430009F908F9008954F925F926F927F928F92AC
:102440009F92AF92BF92CF92DF92EF92FF92CF9383
:10245000C0907C03D0907D03E0907E03F0907F03DA
:102460006091090370910A0380E090E00E94DA9D78
:102470004B015C016091D60B7091D70B8091D80B0A
:102480009091D90BA501940187D92B013C01609152
:10249000D20B7091D30B8091D40B9091D50BA501E9
:1024A00094017AD94B015C0120E030E040E850E42F
:1024B000C701B6010E94259F9B01AC01C501B40173
:1024C0000E94A79C9B01AC01C301B2010E940C9D1C
:1024D00087FF1DC0A7019601C701B6010E94A89CF5
:1024E00020918203309183034091840350918503AE
:1024F0000E94A89C9B01AC01C1E0C501B4010E94EF
:10250000B19E18160CF0C0E081E08C2701C081E07C
:10251000CF91FF90EF90DF90CF90BF90AF909F90C2
:102520008F907F906F905F904F900895CF92DF9241
:10253000EF92FF926B017C0120E030E04AE754E427
:102540000E94B19E87FD2DC020E030E04AE754E4B0
:10255000C701B6010E94109D6B017C0120E030E0B4
:1025600048EC52E40E94B19E18161CF421E030E0C1
:102570000FC020E030E040E251E4C701B6010E9404
:10258000B19E18161CF422E030E002C023E030E0D7
:10259000B701A60180E390E10E94509C62E17DE0DA
:1025A00024C020E030E048EC52E4C701B6010E94AC
:1025B000B19E18161CF421E030E00FC020E030E09E
:1025C00040E251E4C701B6010E94B19E18161CF406
:1025D00022E030E002C023E030E0B701A60180E352
:1025E00090E10E94509C6EE07DE080E390E1FF90DE
:1025F000EF90DF90CF900C942E9A4F925F926F9253
:102600007F928F929F92AF92BF92CF92DF92EF9282
:10261000FF920F931F934B015C01CA01B90127017F
:102620003801A50194010E94259F6B017C01A50141
:10263000940160E070E080E89FE30E94A79C9B010A
:10264000AC01C301B2010E94259F9B01AC01C701EF
:10265000B6010E94A89C6B017C0120E030E0A9013A
:102660000E940C9D87FF04C0C12CD12CE12CF12CC1
:10267000B601C7011F910F91FF90EF90DF90CF90AF
:10268000BF90AF909F908F907F906F905F904F9092
:1026900008958F929F92AF92BF92CF92DF92EF9266
:1026A000FF920F931F93CF93DF93C82F0E94A06ACE
:1026B000FC01EE0FFF1FE053FD4F60817181882701
:1026C00077FD8095982F0E94DC9D4B015C010E9454
:1026D000A06AC090FF0BD090000CE090010CF0902D
:1026E000020CFC01EE0FFF1FEE0FFF1FE059FD4F24
:1026F0002081318142815381C701B6010E94259F0B
:102700009B01AC01C501B4010E94A89CC13009F035
:1027100097C09B01AC01C701B6010E94A79C8B0129
:10272000D82FC92F80912103882309F463C00E9408
:10273000A06AFC01EE0FFF1FE05CFD4F608171811C
:10274000882777FD8095982F0E94DC9D20E030E05F
:1027500040E251E40E94A79C6B017C0120E030E044
:1027600040E85EE30E94259F4B015C012091EB0B4A
:102770003091EC0B4091ED0B5091EE0BC701B6017F
:102780000E94109D9B01AC01C501B4010E94259FD0
:102790006B017C010E94A06AFC01EE0FFF1FE05C50
:1027A000FD4F60817181882777FD8095982F0E9469
:1027B000DC9DA70196010E94A89C98014D2F5C2FDB
:1027C0000E940C9D87FF16C00E94A06AFC01EE0FBC
:1027D000FF1FE05CFD4F60817181882777FD809548
:1027E000982F0E94DC9DA70196010E94A89C8B0156
:1027F000D82FC92FC0902603D0902703E09028033C
:10280000F09029039601A7016091F70B7091F80BE6
:102810008091F90B9091FA0B0E94B19E1816F4F179
:1028200020E030E040EA50E4B8018D2F9C2F0E9458
:102830000C9D87FF36C000E010E0D0EAC0E431C054
:1028400020912E0330912F0340913003509131039A
:102850000E94259F4B015C0120E030E040EA50E4FB
:102860000E940C9D87FF06C0812C912CA0EAAA2E05
:10287000A0E4BA2EA5019401C701B6010E94A79C4D
:102880008B01D82FC92FC0902A03D0902B03E09042
:102890002C03F0902D039601A701BECF8601DE2DFB
:1028A000CF2DB8018D2F9C2FDF91CF911F910F91CC
:1028B000FF90EF90DF90CF90BF90AF909F908F9060
:1028C0000895209148033091490340914A03509163
:1028D0004B0360914C0370914D0380914E03909196
:1028E0004F030C94A79C0F931F93CF93DF93CDB707
:1028F000DEB729970FB6F894DEBF0FBECDBF6EE2EC
:102900007BE080E390E10E945E9A69E17BE080E3F6
:1029100090E10E942E9A4091A10B5091A20B6091E0
:10292000A30B7091A40BCE0101960E94160B60912F
:10293000A10B7091A20B8091A30B9091A40B0E940C
:1029400013694AE050E0BC0180E390E10E941C9BC7
:1029500067E17BE080E390E10E942E9A6091A10BF9
:102960007091A20B8091A30B9091A40B0E94186907
:102970004AE050E0BC0180E390E10E941C9B65E1CD
:102980007BE080E390E10E942E9A6091A10B709110
:10299000A20B8091A30B9091A40B0E941D694AE0A9
:1029A00050E0BC0180E390E10E941C9B62E17BE06F
:1029B00080E390E10E942E9ABE016F5F7F4F80E31B
:1029C00090E10E94539A68EF7AE080E390E10E94E0
:1029D0002E9A409168035091690360916A03709147
:1029E0006B038091A10B9091A20BA091A30BB091CE
:1029F000A40B480F591F6A1F7B1FCE0101960E942E
:102A0000160B609168037091690380916A0390913D
:102A10006B030091A10B1091A20B2091A30B30919D
:102A2000A40B600F711F821F931F0E9413694AE05D
:102A300050E0BC0180E390E10E941C9B66EF7AE0CD
:102A400080E390E10E942E9A60916803709169037F
:102A500080916A0390916B030091A10B1091A20BDE
:102A60002091A30B3091A40B600F711F821F931F45
:102A70000E9418694AE050E0BC0180E390E10E94A6
:102A80001C9B64EF7AE080E390E10E942E9A6091B3
:102A900068037091690380916A0390916B030091C0
:102AA000A10B1091A20B2091A30B3091A40B600FEE
:102AB000711F821F931F0E941D694AE050E0BC01F4
:102AC00080E390E10E941C9B61EF7AE080E390E15B
:102AD0000E942E9ABE016F5F7F4F80E390E10E94BB
:102AE0006E9A29960FB6F894DEBF0FBECDBFDF9168
:102AF000CF911F910F910895CF93DF93C82F81E25B
:102B00000E94A197892B11F481E006C082E20E9405
:102B1000A197892B21F482E08093BF0A02C0109212
:102B2000BF0A83E20E94A197892B11F481E006C0BD
:102B300084E20E94A197892B21F482E08093C00A4D
:102B400002C01092C00A85E20E94A197892B11F45D
:102B500081E006C086E20E94A197892B21F482E0E1
:102B60008093C10A02C01092C10ACC23B9F0CFEB06
:102B7000DAE0699184E0689FB0011124655D7D4FC2
:102B800080E390E10E94539A68EB79E080E390E162
:102B90000E942E9A8AE0C23CD80759F7DF91CF9164
:102BA00008954F925F926F927F928F929F92AF9211
:102BB000BF92CF92DF92EF92FF923C01C0901D0333
:102BC000D0901E03E0901F03F090200320E030E03F
:102BD00040E05FE3C701B6010E94259F4B015C0105
:102BE000B301882777FD8095982F0E94DC9DA50171
:102BF00094010E94A79C0E94A99D2B013C0120E00A
:102C000030E0A901C701B6010E94B19EA20166276A
:102C100057FD6095762F18166CF4CB01BA010E940F
:102C2000DC9D20E030E040E85AE30E94259FA701A8
:102C300096010EC0CB01BA010E94DC9D20E030E07D
:102C400040E85AE30E94259F20E030E040EA50E44B
:102C50000E94259FA50194010E94A79C24EA30E7C9
:102C60004DE35EE30E94109DFF90EF90DF90CF90C8
:102C7000BF90AF909F908F907F906F905F904F909C
:102C80000895CF92DF92EF92FF9288E30E94F6952B
:102C900088DF6B017C019B01AC0160914F0B70914F
:102CA000500B8091510B9091520B0E94A89C609305
:102CB0004F0B7093500B8093510B9093520B80915C
:102CC000470B9091480BA091490BB0914A0B01968C
:102CD000A11DB11D8093470B9093480BA093490B06
:102CE000B0934A0B20914B0B30914C0B40914D0B04
:102CF00050914E0BC701B6010E94B19E181644F4C4
:102D0000C0924B0BD0924C0BE0924D0BF0924E0BBD
:102D1000C701B601FF90EF90DF90CF90089520910A
:102D2000290230912A02821B930BBC01882777FD70
:102D30008095982F0E94DC9D20E030E040E85AE327
:102D40000E94259F20911D0330911E0340911F0377
:102D5000509120030E94259F2DEC3CEC4CEC5DE350
:102D60000C94109D08952F923F924F925F926F9214
:102D70007F928F929F92AF92BF92CF92DF92EF920B
:102D8000FF920F931F93CF93DF9300D01F921F9258
:102D9000CDB7DEB78B83162F8091B70A81110DC096
:102DA0000E943595609334077093350780933607FA
:102DB0009093370781E08093B70A8091A00B81112F
:102DC00003C0112309F464C062E070E080E090E089
:102DD0000E9464950E9435954B015C010E944195CB
:102DE0002B013C0181E40E94F6959D838C8397DF43
:102DF0009B01AC010E94259F6B017C012C803D80D2
:102E000021E030E03A8329830E94419564197509D5
:102E100086099709683C710581059105A8F30E9410
:102E200041952B013C0181E40E94F6958C0177DFEE
:102E30009B01AC010E94259F9B01AC01C701B6011B
:102E40000E94A89C6B017C018C819D818017910759
:102E50002CF00215130524F4180102C01D830C8305
:102E6000E981FA813196FA83E9830E9435956819E0
:102E700079098A099B09643171058105910568F416
:102E80000E943595681579058A059B0530F0BCCF01
:102E900010E000E0B12CA12CD9C0E981FA81BF017A
:102EA000882777FD8095982F0E94DC9D9B01AC01BF
:102EB000C701B6010E94109D0E948C9F162F072FFC
:102EC000B82EA92EFB81FF2309F445C06EEA79E0F4
:102ED00080E390E10E942E9A4AE050E0B10180E345
:102EE00090E10E941C9B6CEA79E080E390E10E94F3
:102EF0002E9A4AE050E06C817D8180E390E10E944F
:102F00001C9B6AEA79E080E390E10E942E9A60912E
:102F1000290270912A024AE050E080E390E10E9489
:102F20001C9B68EA79E080E390E10E942E9A409130
:102F30001D0350911E0360911F037091200322E036
:102F400030E080E390E10E94509C64EA79E080E305
:102F500090E10E942E9A2091290230912A02C90103
:102F6000880F991F820F931F820D931D2C813D8125
:102F7000820F931F65E070E00E9412A070932A02F6
:102F8000609329020E943595C0903407D090350790
:102F9000E0903607F09037076C157D058E059F058C
:102FA00088F00E9435956B017C01809134079091E7
:102FB0003507A0913607B0913707C81AD90AEA0A2F
:102FC000FB0A04C00E9435956B017C010E94359577
:102FD00060933407709335078093360790933707D3
:102FE000C701B6010E94DA9D20E030E04AE754E4D0
:102FF0000E94109D20910003309101034091020333
:10300000509103030E94259F20E030E041E655E403
:103010000E94109D9B01AC01612F702F8B2D9A2D6A
:103020000E94259F9B01AC016091640B7091650B20
:103030008091660B9091670B0E94A89C6093640B33
:103040007093650B8093660B9093670B612F702FC5
:103050008B2D9A2D0F900F900F900F900F90DF9166
:10306000CF911F910F91FF90EF90DF90CF90BF9085
:10307000AF909F908F907F906F905F904F903F9018
:103080002F9008953F924F925F926F927F928F920E
:103090009F92AF92BF92CF92DF92EF92FF920F93E7
:1030A0001F93CF93DF93CDB7DEB728970FB6F89471
:1030B000DEBF0FBECDBF382E49835A836B837C831E
:1030C0004801590105E010E0412C512C320162E029
:1030D00070E080E090E00E946495832D0E94F69558
:1030E000BC01882777FD8095982F0E94DC9D209158
:1030F0001D0330911E0340911F03509120030E9435
:10310000259F20E030EC4FE754E40E94109D6D8332
:103110007E838F839887A501940169817A818B8151
:103120009C810E94A89C9B01AC016D817E818F8156
:1031300098850E94259FA50194010E94109D9B01E6
:10314000AC01C301B2010E94A89C2B013C010150BB
:10315000110909F0BCCF20E030E040EA50E40E94C1
:10316000109DA70196010E94259F28960FB6F894FE
:10317000DEBF0FBECDBFDF91CF911F910F91FF90AA
:10318000EF90DF90CF90BF90AF909F908F907F9007
:103190006F905F904F903F900895CF92DF92EF92A3
:1031A000FF92CF93DF932CE06623A1F0289FF001DC
:1031B000299FF00D1124E558F54F80819181A2815E
:1031C000B38184839583A683B78380879187A28701
:1031D000B38728C0289FE001299FD00D1124C5582E
:1031E000D54FC880D980EA80FB802C813D814E81FB
:1031F0005F81C701B6010E940C9D87FF05C0CC828C
:10320000DD82EE82FF820EC0288539854A855B8586
:10321000C701B6010E94B19E181624F4C886D9864B
:10322000EA86FB86DF91CF91FF90EF90DF90CF9001
:1032300008958EE580937C0062E070E080E090E08D
:103240000E94649580917A00806480937A008091D6
:103250007A0086FDFCCF209178008091790030E0E3
:10326000382B442737FD4095542F64EB7BE281E1F6
:1032700090E00E9447A0CA01B9010895CF92DF9261
:10328000EF92FF920F931F93CF93DF93C82F142FCA
:10329000D22F662309F492C0CCDF0E94DC9D20E08F
:1032A00030E04AE754E40E94109D6B017C0160937A
:1032B0007B0A70937C0A80937D0A90937E0A20E0BB
:1032C00030E040E250E40E940C9D87FD0AC020E0FF
:1032D00030E040EF50E4C701B6010E94B19E1816DD
:1032E000DCF46EE979E080E390E10E942E9A40914F
:1032F0007B0A50917C0A60917D0A70917E0A22E0DF
:1033000030E080E390E10E94509C67E979E080E33F
:1033100090E10E942E9A08C0C0921D03D0921E0315
:10332000E0921F03F092200360910B0280E090E096
:1033300034DFCC2309F442C061E979E080E390E115
:103340000E942E9A40917B0A50917C0A60917D0ADE
:1033500070917E0A22E030E080E390E10E94509C70
:103360006CE174E080E390E10E94539A40917F0AFF
:103370005091800A6091810A7091820A22E030E0C7
:1033800080E390E10E94509C6FE879E080E390E157
:103390000E942E9A4091830A5091840A6091850A76
:1033A0007091860A22E030E080E390E10E94509C18
:1033B0006DE879E080E390E10E942E9A112309F4F0
:1033C000CAC120E030E0A90160911D0370911E0385
:1033D00080911F03909120030E940C9D811124C0B5
:1033E00040E050E060EA70E440931D0350931E03F8
:1033F00060931F037093200340937B0A50937C0AD1
:1034000060937D0A70937E0A40937F0A5093800AEE
:103410006093810A7093820A4093830A5093840ACE
:103420006093850A7093860A74E6C72E70E4D72EDF
:1034300072E8E72E7FE3F72E00E010E42EE435E497
:1034400040E050E864ED75E48EE390E01BDE6093AD
:10345000870A7093880A8093890A90938A0A6091F8
:103460000B0281E090E099DECC2309F442C067E8CA
:1034700079E080E390E10E942E9A4091870A509172
:10348000880A6091890A70918A0A22E030E080E31C
:1034900090E10E94509C65E879E080E390E10E9411
:1034A0002E9A40918B0A50918C0A60918D0A7091EE
:1034B0008E0A22E030E080E390E10E94509C63E8B5
:1034C00079E080E390E10E942E9A40918F0A50911A
:1034D000900A6091910A7091920A22E030E080E3B4
:1034E00090E10E94509C61E879E080E390E10E94C5
:1034F0002E9A69E5C62E66E8D62E60E8E62E6FE3C2
:10350000F62E00E010EC23E735E440E050E06AE7F7
:1035100074E48FE390E0B6DD6093930A7093940AAD
:103520008093950A9093960A60910B0282E090E056
:1035300034DECC2309F442C06BE779E080E390E10C
:103540000E942E9A4091930A5091940A6091950A94
:103550007091960A22E030E080E390E10E94509C56
:1035600069E779E080E390E10E942E9A4091970A02
:103570005091980A6091990A70919A0A22E030E07D
:1035800080E390E10E94509C67E779E080E390E15E
:103590000E942E9A40919B0A50919C0A60919D0A2C
:1035A00070919E0A22E030E080E390E10E94509CFE
:1035B00065E779E080E390E10E942E9AC12CD12C3E
:1035C00050E8E52E5FE3F52E00E010E829E035E451
:1035D000B901A8018DE390E055DD60939F0A7093D7
:1035E000A00A8093A10A9093A20A60910B0283E043
:1035F00090E0D3DDCC2309F442C06FE679E080E3AC
:1036000090E10E942E9A40919F0A5091A00A6091E9
:10361000A10A7091A20A22E030E080E390E10E94CA
:10362000509C6DE679E080E390E10E942E9A4091F3
:10363000A30A5091A40A6091A50A7091A60A22E0FB
:1036400030E080E390E10E94509C6BE679E080E3FB
:1036500090E10E942E9A4091A70A5091A80A609189
:10366000A90A7091AA0A22E030E080E390E10E946A
:10367000509C69E679E080E390E10E942E9A82E412
:103680000E94F695BC01882777FD8095982F0E94AF
:10369000DC9D20911D0330911E0340911F0350912A
:1036A00020030E94259F20E030EC4FE754E40E9465
:1036B000109D6093AB0A7093AC0A8093AD0A90930F
:1036C000AE0A60910B0284E090E067DDCC2309F440
:1036D00042C063E679E080E390E10E942E9A409137
:1036E000AB0A5091AC0A6091AD0A7091AE0A22E02B
:1036F00030E080E390E10E94509C61E679E080E355
:1037000090E10E942E9A4091AF0A5091B00A6091C8
:10371000B10A7091B20A22E030E080E390E10E94A9
:10372000509C6FE579E080E390E10E942E9A4091F1
:10373000B30A5091B40A6091B50A7091B60A22E0BA
:1037400030E080E390E10E94509C6DE579E080E3F9
:1037500090E10E942E9ADD2309F487C020E030E03A
:10376000A90160911D0370911E0380911F03909128
:1037700020030E940C9D81110CC080E090E0A0EA23
:10378000B0E480931D0390931E03A0931F03B09396
:10379000200380E40E94F695BC01882777FD809580
:1037A000982F0E94DC9D20911D0330911E034091B3
:1037B0001F03509120030E94259F20E030E040E845
:1037C0005AE30E94259F6093AB0A7093AC0A8093E2
:1037D000AD0A9093AE0A60910B0284E090E0DDDCCC
:1037E000CC2309F442C065E579E080E390E10E94D2
:1037F0002E9A4091AB0A5091AC0A6091AD0A70913B
:10380000AE0A22E030E080E390E10E94509C63E544
:1038100079E080E390E10E942E9A4091AF0A5091A6
:10382000B00A6091B10A7091B20A22E030E080E300
:1038300090E10E94509C61E579E080E390E10E9474
:103840002E9A4091B30A5091B40A6091B50A7091D2
:10385000B60A22E030E080E390E10E94509C6FE4E1
:1038600079E080E390E10E942E9A10920B02DF91A2
:10387000CF911F910F91FF90EF90DF90CF9008951F
:103880000F931F93CF93DF9360E081E19BE00E9451
:1038900009928B01D82FC92F9B01482F592F0E94C5
:1038A000CA9F882321F000E010E0DAECC2ECB801F6
:1038B0008D2F9C2FDF91CF911F910F9108950F9322
:1038C0001F93CF93DF9381E19BE00E947C928B0159
:1038D000D82FC92F9B01482F592F0E94CA9F882398
:1038E00021F000E010E0D0E8CFEBB8018D2F9C2F45
:1038F000DF91CF911F910F910895CF92DF92EF92B8
:10390000FF926B017C01CA01B9012BE734E948E859
:1039100053E40E94A89C9B01AC0160E070E080E849
:103920009FE30E94109D9B01AC0162E07BEE8FE65D
:103930009BE30E94A79C26E03EE449EA55E40E94EE
:10394000259F0E947D9D2FE135E843EC50E40E94C5
:10395000259F20E030E040E251E40E94A79C2FE345
:1039600035E34EE05FE30E94259F9B01AC01C70158
:10397000B6010E94A89CFF90EF90DF90CF90089531
:10398000CF92DF92EF92FF920F931F93CF93DF932B
:1039900089E30E94F6957C01EC016C0104E010E0E3
:1039A00061E070E080E090E00E94649589E30E940D
:1039B000F695C80ED91EC817D9072CF08E159F058D
:1039C0000CF47C01CE010150110911F0EC01E8CF9B
:1039D0009C012E0D3F1DE601C21BD30B20E030E001
:1039E00048EC52E460911D0370911E0380911F0307
:1039F000909120030E94259F6B017C01CE0163E022
:103A000070E00E9412A0882777FD8095982F0E9471
:103A1000DC9D9B01AC01C701B6010E94259F20E0FF
:103A200030EC4FE754E40E94109D2091220C30911D
:103A3000230C4091240C5091250C0E94A89CDF91EE
:103A4000CF911F910F91FF90EF90DF90CF9008954D
:103A50007F928F929F92AF92BF92CF92DF92EF921E
:103A6000FF920F931F93CF93DF93782E662311F06D
:103A7000882329F00BEE1BE0C0E0D0E0C4C060E07A
:103A800089E090E00E94E60AE090280CF090290C72
:103A90008701000F111F000F111F0551144FC12C7A
:103AA000D12C8091280C9091290CC091C103D09108
:103AB000C203C80FD91FEC16FD060CF062C09701B7
:103AC000281B390BC901DCDE5801AC0CBD1CF5010B
:103AD00060837183828393838091280C9091290C59
:103AE000E701C81BD90BCE01EADECC0FDD1FCC0FDE
:103AF000DD1FCA54D44F688379838A839B83809166
:103B0000280C9091290CE701C81BD90BF501808086
:103B10009180A280B380CC0FDD1FCC0FDD1FFE0192
:103B2000EA54F44F208131814281538160E070E09A
:103B300088EC92E40E94A79C20E030E040EA50E448
:103B40000E94109D9B01AC01C501B4010E94A79C7D
:103B50009B01AC01FE01E255F44F608371838283C7
:103B60009383C501B401C9DECE54D44F68837983F1
:103B70008A839B83FFEFEF1AFF0A24E0C20ED11C59
:103B800090CF7E01EE0CFF1CEE0CFF1CC70185518F
:103B9000944F7C0100E010E04091280C5091290CDA
:103BA0008091C1039091C2039A01280F391F60913F
:103BB000BF037091C003260F371FC217D3070CF045
:103BC0004EC09E01241B350B820F931FD9DEF701D7
:103BD000E00FF11F608371838283938321960C5FD2
:103BE0001F4FDACF672DCE010E94E60A6B017C01E0
:103BF00020E030E04AE754EC0E940C9D219687FFBC
:103C00000AC00C5F1F4F8091280C9091290CC81797
:103C1000D90744F324C020E030E04AE754E4C70168
:103C2000B6010E940C9D87FF06C0F801C082D182B8
:103C3000E282F382E6CF6AED71E080E390E10E94D8
:103C40002E9A4AE050E0BE0180E390E10E941C9B66
:103C500068ED71E080E390E10E942E9AD2CF872D2B
:103C6000DF91CF911F910F91FF90EF90DF90CF9058
:103C7000BF90AF909F908F907F900895FF920F9389
:103C80001F93CF93DF93EC0118E0F12E8E01888112
:103C9000803130F46BE978E080E390E10E942E9A65
:103CA000219640E150E0F801608180E390E10E94BC
:103CB000459B69E978E080E390E10E942E9AFA94AE
:103CC00029F7DF91CF911F910F91FF900895CF9227
:103CD000DF92EF92FF92CF93DF93EA0161312EE002
:103CE00072078105910568F00E94DA9D20E030E0BE
:103CF00041E655E40E94109D6B017C016EE174E089
:103D000018C06D3371058105910568F00E94DA9D38
:103D100020E030E040E752E40E94109D6B017C01FE
:103D200060E274E006C00E94DA9D6B017C0166E5EA
:103D300076E0CE010E941EA261E070E080E090E09B
:103D40000E946495C701B601DF91CF91FF90EF907B
:103D5000DF90CF9008950E94A06A20915203309185
:103D60005303821793075CF00E94A06A20915403CA
:103D7000309155038217930714F480E0089581E091
:103D800008954F925F926F927F928F929F92AF921F
:103D9000BF92CF92DF92EF92FF920F931F93CF9338
:103DA000DF931092D00A80911E0C90911F0C029705
:103DB00031F10E94106AC0906803D0906903E090CE
:103DC0006A03F0906B030091A10B1091A20B20915C
:103DD000A30B3091A40BC00ED11EE21EF31EC6161B
:103DE000D706E806F90638F481E090E090931F0CBE
:103DF00080931E0C04C010921F0C10921E0C0E9487
:103E0000C00B882309F46DC0A6DF882381F00E94CF
:103E1000B26A019709F001C10E94A06A2091520381
:103E200030915303281739070CF4C4C0F6C0209111
:103E3000700B3091710B4091720B5091730B60912C
:103E40003B0270913C0280913D0290913E020E94A3
:103E5000A79C6B017C0100916C0310916D03D091C4
:103E60006E03C0916F0350917003409171033091C4
:103E700072032091730380911E0C90911F0C1816F1
:103E800019061CF0052F142FE90180907C039090F7
:103E90007D03A0907E03B0907F0320E030E040E0FF
:103EA0005FE3C501B4010E94259F2B013C019B01EA
:103EB000AC01C701B6010E94B19E181644F4A301DB
:103EC0009201B8018D2F9C2F0E94A79CAEC0A50126
:103ED0009401B8018D2F9C2F0E94A79CA7019601E9
:103EE0003CC039DF81113CC02091700B3091710BC7
:103EF0004091720B5091730B60913B0270913C02A8
:103F000080913D0290913E020E94A79C6B017C0132
:103F100020E030E040E05FE360917C0370917D033E
:103F200080917E0390917F030E94259F4B015C014D
:103F30009B01AC01C701B6010E94B19E2091820392
:103F400030918303409184035091850318161CF42B
:103F5000C501B40102C0C701B6010E94A89C65C09A
:103F60000E941B12811109C040918203509183036A
:103F700060918403709185033CC081E08093D00AF6
:103F8000F0916C03E0916D0370916E0360916F038B
:103F9000309174032091750350917603409177031B
:103FA00080911E0C90911F0C18161906ECF49F01BD
:103FB000CB011BC081E08093D00A30916C0320912B
:103FC0006D0350916E0340916F03F0917403E09183
:103FD0007503709176036091770380911E0C909128
:103FE0001F0C181619061CF7CA01432F522F692FF0
:103FF000782F80E090E0DF91CF911F910F91FF909B
:10400000EF90DF90CF90BF90AF909F908F907F9078
:104010006F905F904F900C94E30F609178037091D4
:10402000790380917A0390917B03DF91CF911F9167
:104030000F91FF90EF90DF90CF90BF90AF909F9047
:104040008F907F906F905F904F900895CF92DF9206
:10405000EF92FF920E94C00B811144C092DE20912A
:1040600044033091450340914603509147030E9419
:10407000A89C6B017C0185DE20917403309175034F
:1040800040917603509177030E94A89C20E030E095
:1040900040E05FE30E94259F9B01AC01C701B60190
:1040A0000E94B19E181664F46CDE20914403309196
:1040B000450340914603509147030E94A89C24C0A9
:1040C00060DE209174033091750340917603509126
:1040D00077030E94A89C20E030E040E05FE30E946C
:1040E000259F12C02091440330914503409146031F
:1040F0005091470360917003709171038091720336
:10410000909173030E94A79CFF90EF90DF90CF9057
:10411000089580911E0C90911F0C029749F46091B4
:104120006C0370916D0380916E0390916F030895FD
:104130000E94C00B811112C00EDE811102C00C94CE
:1041400066110E941B12811123C04091820350917D
:104150008303609184037091850322C0FCDD882372
:1041600071F00E94B26A0197F9F40E94A06A20914E
:104170005203309153032817390754F015C060914A
:10418000700370917103809172039091730308958D
:104190004091740350917503609176037091770399
:1041A00081E090E00C94E30F20917C0330917D033B
:1041B00040917E0350917F03609178037091790361
:1041C00080917A0390917B030C94A89C8F929F928C
:1041D000AF92BF92CF92DF92EF92FF920E94C00BFC
:1041E00081115CC096DF20914403309145034091DA
:1041F0004603509147030E94A89C6B017C0180906C
:10420000480390904903A0904A03B0904B03B9DD56
:104210002091740330917503409176035091770398
:104220000E94A89C20E030E040E05FE30E94259FD0
:104230009B01AC01C501B4010E94A89C9B01AC018B
:10424000C701B6010E94B19E181654F462DF209196
:1042500044033091450340914603509147032EC0DB
:10426000C0904803D0904903E0904A03F0904B037C
:1042700088DD20917403309175034091760350914D
:1042800077030E94A89C20E030E040E05FE30E94BA
:10429000259F9B01AC01C701B60110C020914403CA
:1042A000309145034091460350914703609170035C
:1042B0007091710380917203909173030E94A89C86
:1042C000FF90EF90DF90CF90BF90AF909F908F9036
:1042D00008950E94A06A469734F40E94A06A049749
:1042E00014F080E0089581E00895AF92BF92CF92DC
:1042F000DF92EF92FF920F931F93CF93DF935C01B6
:10430000EB010E94106A009107031091080320E856
:1043100031E541E050E00E9425A04CE3409F900130
:10432000419F300D1124442737FD4095542F0E94A2
:1043300025A069017A014091090350910A03049F65
:10434000C001059F900D149F900D1124813A954056
:10435000A8F00E94B26AFC01319760910703709146
:10436000080380EA95E00E9412A0E69F9001E79F73
:10437000300DF69F300D11242C0D3D1D4091090389
:1043800050910A03209759F02C173D0718F02C1B69
:104390003D0B05C0CA018C1B9D0B280F391FA49E25
:1043A000C001A59E900DB49E900D1124820F931F05
:1043B000880F991F20910B0330910C03820F931FDC
:1043C000DF91CF911F910F91FF90EF90DF90CF90F1
:1043D000BF90AF90089520E042E064E18FE19BE060
:1043E0000E9416816AEF70E080E090E00E94649580
:1043F00064E478E08FE19BE00E942E9A60EA70E02E
:1044000087E00C941B96CF93C82F61E08DE10E944A
:104410006C976C2F70E080E090E00E94649560E003
:104420008DE1CF910C946C97BF92CF92DF92EF9277
:10443000FF920F931F93CF93DF93EC017B0128E250
:1044400028838FEA898389ED8A838EE98B8334E020
:104450003C831D821E8281EA8F838091280C90917B
:10446000290C288744EA498744E44A874FE94B8767
:104470003C871D861E863DE83F87288B59E9598B6E
:1044800033E73A8B47E94B8B33E03C8B1D8A1E8A1E
:104490005F8B288F52E3598F5CE75A8F4B8F3C8F8D
:1044A0001D8E1E8E52E55F8F28A35AEE59A35AE344
:1044B0005AA34BA33CA31DA21EA252E45FA328A7AC
:1044C00052E059A75BE85AA74BA73CA71DA61EA61A
:1044D00058E45FA728AB27ED29AB25E82AAB4BAB07
:1044E0003CAB1DAA1EAA25EC2FAB07968830910580
:1044F0002CF49093290C8093280C18C087E090E04E
:104500009093290C8093280C65E57EE080E390E190
:104510000E942E9A8FE19BE00E94F8806EE37EE07D
:104520008FE19BE00E942E9A8AEF6DDF8701BB240A
:10453000B3946801CE18DF088091280C9091290C63
:10454000C816D906DCF560E37EE080E390E10E94C6
:104550002E9A4AE050E0B60180E390E10E941C9B55
:1045600088A9823281F0883259F08031A9F466E25C
:104570007EE080E390E10E945E9AF801B0821BC069
:104580006CE17EE002C063E17EE080E390E10E94A6
:104590005E9AF80110820FC067EF7DE080E390E142
:1045A000DF91CF911F910F91FF90EF90DF90CF900F
:1045B000BF900C945E9A0F5F1F4FBBCFDF91CF91DE
:1045C0001F910F91FF90EF90DF90CF90BF900895D3
:1045D000CF93DF93EC018031910534F462E478E00D
:1045E0008FE19BE00E942E9A40E150E0BE018FE1F6
:1045F0009BE0DF91CF910C941C9BAF92BF92CF9226
:10460000DF92EF92FF920F931F93CF93DF93CDB77B
:10461000DEB728970FB6F894DEBF0FBECDBF62EEAF
:104620007BE083E49AE000DF6EE479E080E390E1F0
:104630000E945E9A6091280C7091290C4AE050E02B
:1046400080E390E10E941C9B64E479E080E390E1C8
:104650000E945E9A02EE1BE043E4E42E4AE0F42E50
:104660008091280C9091290C9801225E3B402817DC
:10467000390724F5C70102DB62E479E080E390E1C9
:104680000E942E9AF80161918F014AE050E080E388
:1046900090E10E944B9BF8E0EF0EF11CE1CF67E048
:1046A000CE0101960E94FC679885891709F45CC0C9
:1046B00062E274E08FE39BE00E941EA2BE016F5F86
:1046C0007F4F83E09BE00E9469678111E8CF83E020
:1046D0009BE00E9435676AEF70E080E090E00E9406
:1046E00064958091280C9091290C2091C103309100
:1046F000C203820F931F2091BF033091C003820F2A
:10470000931F9093270C8093260C0A978CF188ECCA
:104710007ADE61E479E080E390E10E945E9A6BE1E9
:1047200079E080E390E10E945E9A8FE19BE00E9435
:10473000F88069E079E08FE19BE00E942E9A88EC96
:1047400062DE89E090E02091C1033091C203821BB8
:10475000930B2091BF033091C003821B930B909366
:10476000290C8093280C04C0CE01019687DAA6CFCD
:104770002BEEE22E2BE0F22E33E4C32E3AE0D32EC2
:1047800000E010E08091280C9091290C081719077F
:104790000CF072C08FE19BE00E94F88066E079E047
:1047A0008FE19BE00E942E9A0A30110534F464E0F8
:1047B00079E08FE19BE00E942E9A4AE050E0B80138
:1047C0008FE19BE00E941C9B62E079E08FE19BE01F
:1047D0000E942E9A41E060E08FE19BE00E94FE8003
:1047E000A12CB12CF601EA0DFB1D808190E0F0DEDA
:1047F000A0FE06C060E079E08FE19BE00E942E9A67
:104800002FEFA21AB20A38E0A316B10459F760E0FC
:10481000C8010E94E60A60912502709126028091EB
:104820002702909128020E946495C8010E94F9090C
:104830005701F70161937193819391937F0140E058
:1048400067E08FE19BE00E94FE80F501408151818D
:104850006281738121E030E08FE19BE00E94509CF7
:1048600060ED77E080E090E00E9464950F5F1F4F5D
:10487000F8E0CF0ED11C86CF81E19BE00E945891D9
:104880000091280C1091290C6801CC0CDD1CCC0C7B
:10489000DD1C96012551344F6901E12CF12C8091EA
:1048A000280C9091290CA090C103B090C203A80ECF
:1048B000B91E0A151B050CF06BC0F801E81BF90BBB
:1048C000CF010E94401C5601AE0CBF1CF501608355
:1048D00071838283938320E030E048EC52EC0E94A5
:1048E0000C9D87FF0CC068EE78E080E390E10E94A9
:1048F0002E9A60ED78E08FE19BE00E942E9A8FE186
:104900009BE00E94F8806DEC78E08FE19BE00E94D4
:104910002E9A0A30110534F46BEC78E08FE19BE0BD
:104920000E942E9A4AE050E0B8018FE19BE00E947D
:104930001C9B69EC78E08FE19BE00E942E9A41E09D
:1049400060E08FE19BE00E94FE806BEB78E08FE1FE
:104950009BE00E942E9A40E067E08FE19BE00E947E
:10496000FE80F501408151816281738121E030E058
:104970008FE19BE00E94509C60ED77E080E090E04A
:104980000E9464950F5F1F4FF4E0EF0EF11C87CF7C
:104990008501000F111F000F111F0551144FE12C4D
:1049A000F12C4091280C5091290C2091C103309199
:1049B000C203CA01820F931F6091BF037091C003AD
:1049C000860F971FA816B9060CF05AC0C501841BA4
:1049D000950B821B930B0E94C01C6801CE0CDF1C40
:1049E000F60160837183828393838FE19BE00E9451
:1049F000F88068EB78E08FE19BE00E942E9AFAE065
:104A0000AF16B10434F466EB78E08FE19BE00E94CE
:104A10002E9A4AE050E0B5018FE19BE00E941C9B7A
:104A200064EB78E08FE19BE00E942E9A41E060E029
:104A30008FE19BE00E94FE8065EA78E08FE19BE0D9
:104A40000E942E9A40E067E08FE19BE00E94FE808A
:104A5000F601408151816281738121E030E08FE174
:104A60009BE00E94509C60ED77E080E090E00E9427
:104A70006495FFEFAF1ABF0A24E0E20EF11C91CF5C
:104A80008091EF0B9091F00BA091F10BB091F20B94
:104A900080933F0A9093400AA093410AB093420A40
:104AA00028960FB6F894DEBF0FBECDBFDF91CF9131
:104AB0001F910F91FF90EF90DF90CF90BF90AF903C
:104AC0000895CF93DF93EC018A30910534F460E4CC
:104AD00078E08FE19BE00E942E9A4AE050E0BE0110
:104AE0008FE19BE0DF91CF910C941C9B8FE19BE0C9
:104AF0000E94F88067E378E08FE19BE00C942E9AA7
:104B000062E083E00E94339762E082E00E94339784
:104B100062E084E00E94339767EC77E080E390E105
:104B20000E942E9A41E050E067EA79E080E00E941E
:104B3000F29241E050E06DE779E081E00E94F2926C
:104B400064EC77E080E390E10C945E9A8FE19BE067
:104B50000E94F8806BEB77E08FE19BE00E942E9A39
:104B600041E060E08FE19BE00E94FE8065E387E02A
:104B70009DE00E940270811112C06BE274E08FE32D
:104B80009BE00E941EA26FE37BE080E390E10E9425
:104B9000539A6FE37BE08FE19BE00C94539A64EBB4
:104BA00077E08FE19BE00C942E9AEF92FF920F93A7
:104BB0001F93CF93DF93EC010E94AC6AF82EE92E8D
:104BC0000E94B86A182F092F0E94BE6AEF92FF92C6
:104BD0000F931F939F938F9323E334E03F932F937F
:104BE000DF93CF930E9479A28DB79EB70A960FB636
:104BF000F8949EBF0FBE8DBFDF91CF911F910F9193
:104C0000FF90EF900895EF92FF920F931F93CF9331
:104C1000DF93EC010E94AC6AF82EE92E0E94B86A7C
:104C2000182F092F0E94BE6AEF92FF920F931F93D5
:104C3000805D97409F938F9324E434E03F932F93BC
:104C4000DF93CF930E9479A28DB79EB70A960FB6D5
:104C5000F8949EBF0FBE8DBFDF91CF911F910F9132
:104C6000FF90EF900895CF93DF93EB012A813B8172
:104C7000FC01338322834C815D816E817F8144837B
:104C8000558366837783488559856A857B85408708
:104C90005187628773872DE0FE013C96DC011C96EC
:104CA00001900D922A95E1F7298D3A8DFC01328F02
:104CB000218FDF91CF910895DF92EF92FF920F93B2
:104CC0001F93CF93DF93CDB7DEB76B970FB6F894F2
:104CD000DEBF0FBECDBF8C017B01D42E0E94836F3F
:104CE0002D2DA70167E07DE0CE0101960E94157190
:104CF000BE016F5F7F4FC801B6DFC8010E94F56F2C
:104D0000811178C065E574E08FE39BE00E941EA2EC
:104D10006FE37BE080E390E10E94539A62EB77E0DF
:104D200080E390E10E942E9AB70180E390E10E9417
:104D3000539A60EB77E080E390E10E942E9A65E061
:104D400070E080E090E00E9464952D2DA70167E05F
:104D50007DE0CE0101960E941571BE016F5F7F4F0D
:104D6000C80181DF62E070E080E090E00E9464951D
:104D7000C8010E94F56F81113DC06DE574E08FE3BD
:104D80009BE00E941EA26FE37BE080E390E10E9423
:104D9000539A65E070E080E090E00E946495D6DE72
:104DA00065E070E080E090E00E9464952D2DA70101
:104DB00067E07DE0CE0101960E941571BE016F5F34
:104DC0007F4FC80150DF62E070E080E090E00E9419
:104DD0006495C8010E94F56F81110CC065E674E00E
:104DE0008FE39BE00E941EA26FE37BE080E390E1F3
:104DF0000E94539AC8016B960FB6F894DEBF0FBE9F
:104E0000CDBFDF91CF911F910F91FF90EF90DF9079
:104E100008958F929F92AF92BF92CF92DF92EF92BE
:104E2000FF920F931F93CF93DF93CDB7DEB7C35499
:104E3000D1090FB6F894DEBF0FBECDBFCE014C96A0
:104E40000E94836FCE01C796B0DE43E1BE01695C6C
:104E50007F4FCE01019630DFBE016F5F7F4FCE01E5
:104E60004C9601DFCE014C960E94F56F882309F421
:104E700069C10E94106AAB01BC01CE01C7960E94B5
:104E8000160BBE01695C7F4FCE014C960E94539A6F
:104E90006EEA77E0CE014C960E942E9A0E94106A2C
:104EA000AB01BC012AE030E0CE014C960E94399B58
:104EB0000BEE1BE0E12CF12C8091260C9091270C3D
:104EC000E816F906B4F46CEA77E0CE014C960E943D
:104ED0002E9AF80141915191619171918F0122E0D7
:104EE00030E0CE014C960E94509CFFEFEF1AFF0A73
:104EF000E3CFE090280CF090290C8091280C909141
:104F0000290C2091C1033091C203820F931FE81630
:104F1000F9063CF568EA77E0CE014C960E942E9A9D
:104F20008091280C9091290CF701E81BF90BEE0FEA
:104F3000FF1FEE0FFF1FEA54F44F40815181628141
:104F4000738122E030E0CE014C960E94509C66EACC
:104F500077E0CE014C960E942E9A8FEFE81AF80A5D
:104F6000CCCF64EA77E0CE014C960E942E9A8091D5
:104F70000603811106C062EA77E0CE014C960E94DA
:104F80002E9A8091A00B813089F4809105038111C4
:104F900006C060EA77E0CE014C960E942E9A80917E
:104FA0000403811109C06DE977E002C069E977E087
:104FB000CE014C960E942E9A67E977E0CE014C967E
:104FC0000E942E9A60E080E00E94B316AB01BC0103
:104FD00023E030E0CE014C960E94509C61E977E0DE
:104FE000CE014C960E942E9A6091490770914A0713
:104FF0004AE050E0CE014C960E941C9B6EE877E0A0
:10500000CE014C960E942E9AC0904D07D0904E072C
:10501000E0904F07F0905007609151077091520750
:105020008091530790915407C114D104E104F10415
:1050300089F00E94DA9D4B015C01C701B6010E9414
:10504000DA9D9B01AC01C501B4010E94109DAB012A
:10505000BC0104C040E050E060E87FEB23E030E0BA
:10506000CE014C960E94509C6CE877E0CE014C96A5
:105070000E942E9A60914B0770914C074AE050E0D5
:10508000CE014C960E941C9B6AE877E0CE014C96BC
:105090000E942E9A61E877E0CE014C960E942E9AEB
:1050A0000E944116AB01BC0122E030E0CE014C96DB
:1050B0000E94509C6FE777E0CE014C960E942E9A9A
:1050C0006091470B7091480B8091490B90914A0B6E
:1050D0000E94DA9D9B01AC0160914F0B7091500BC7
:1050E0008091510B9091520B0E94CC0BAB01BC01F3
:1050F00024E030E0CE014C960E94509C6DE777E0B2
:10510000CE014C960E942E9A40914B0B50914C0B25
:1051100060914D0B70914E0B22E030E0CE014C9629
:105120000E94509C6AE777E0CE014C960E942E9A2E
:1051300069E777E0CE014C960E945E9ACE014C96CC
:105140000E94E36F64E670E080E090E00E94649566
:10515000CD5BDF4F0FB6F894DEBF0FBECDBFDF9142
:10516000CF911F910F91FF90EF90DF90CF90BF9064
:10517000AF909F908F9008950F931F93CF93DF93DD
:10518000CDB7DEB7C454D1090FB6F894DEBF0FBE59
:10519000CDBF8C01CE014C9625966FAF25970E940E
:1051A000836FCE01C7962FDD6AE070E080E090E06B
:1051B0000E94649543E1BE01695C7F4FCE01019678
:1051C0007BDDBE016F5F7F4FCE014C964CDD65E00D
:1051D00070E080E090E00E946495CE014C960E94C1
:1051E000F56F25962FAD2597811128C06DE674E0E7
:1051F0008FE39BE00E941EA20E94106AAB01BC01DB
:10520000CE01C7960E94160B68E777E080E390E135
:105210000E942E9ABE01695C7F4F80E390E10E945C
:10522000539A66E777E080E390E10E942E9A6FE35D
:105230007BE080E390E10E94539AE0C32111AFC06C
:105240000130110509F044C06BE677E0CE014C96C1
:105250000E942E9A4091A50B5091A60B6091A70B2E
:105260007091A80BCE01C7960E94160BBE01695C17
:105270007F4FCE014C960E94539A68E677E0CE01AC
:105280004C960E942E9A4091800B5091810B609118
:10529000820B7091830B22E030E0CE014C960E948D
:1052A000509C65E677E0CE014C960E942E9A409184
:1052B000070C5091080C6091090C70910A0C22E0C7
:1052C00030E0CE014C960E94509C63E677E08EC39E
:1052D000012B09F08FC367E577E0CE014C960E9461
:1052E0002E9A0E94106AAB01BC01CE01C7960E94A3
:1052F000160BBE01695C7F4FCE014C960E94539AFB
:1053000064E577E0CE014C960E942E9A4091EF0B17
:105310005091F00B6091F10B7091F20B22E030E0B4
:10532000CE014C960E94509C6EE477E0CE014C96E4
:105330000E942E9A0E94106A0091A50B1091A60B54
:105340002091A70B3091A80B601B710B820B930B64
:105350000E94DA9D20E030E040E752E40E94109D78
:10536000AB01BC0122E030E0CE014C960E94509C83
:1053700060E477E0CE014C960E942E9A4091840B17
:105380005091850B6091860B7091870B22E030E085
:10539000CE014C960E94509C6BE377E027C32436E5
:1053A00009F04DC20B30110531F463E377E0CE0113
:1053B0004C960E942E9A62E277E0CE014C960E94B3
:1053C0002E9A0E94106AAB01BC01CE01C7960E94C2
:1053D000160BBE01695C7F4FCE014C960E94539A1A
:1053E0006AE177E0CE014C960E942E9A40911A0C09
:1053F00050911B0C60911C0C70911D0C23E030E04F
:10540000CE014C960E94509C60E177E0CE014C9614
:105410000E942E9A40917C0B50917D0B60917E0BE7
:1054200070917F0B23E030E0CE014C960E94519C9E
:105430006FEF76E0CE014C960E942E9A4091160CAA
:105440005091170C6091180C7091190C24E030E009
:10545000CE014C960E94509C65EF76E0CE014C96B2
:105460000E942E9A4091780B5091790B60917A0BA3
:1054700070917B0B24E030E0CE014C960E94509C52
:105480006AEE76E0CE014C960E942E9A22E030E041
:1054900040E050E060E771E4CE014C960E94509CE1
:1054A00067EE76E0CE014C960E942E9A22E030E024
:1054B00040E050E068EC71E4CE014C960E94509CB4
:1054C00064EE76E0CE014C960E942E9A22E030E007
:1054D00040E050E060EF71E4CE014C960E94509C99
:1054E00060EE76E0CE014C960E942E9A20E030E0ED
:1054F00040E85EEB6091160C7091170C8091180CCF
:105500009091190C0E94259F20E030E040E85FE375
:105510000E94A89CAB01BC0124E030E0CE014C9677
:105520000E94509C6DED76E0CE014C960E942E9A22
:1055300020E030E040E85EE36091160C7091170CBB
:105540008091180C9091190C0E94259F20E030E06A
:1055500040E85FE30E94A89CAB01BC0124E030E07E
:10556000CE014C960E94509C6AED76E0CE014C969E
:105570000E942E9A20E030E040E05FE36091160C3C
:105580007091170C8091180C9091190C0E94259F16
:1055900020E030E040E85FE30E94A89CAB01BC0142
:1055A00024E030E0CE014C960E94519C69EC76E0FC
:1055B000CE014C960E942E9A4091120C5091130CE1
:1055C0006091140C7091150C24E030E0CE014C96E3
:1055D0000E94509C6FEB76E0CE014C960E942E9A72
:1055E0004091740B5091750B6091760B7091770B15
:1055F00024E030E0CE014C960E94509C6EEA76E0AA
:10560000CE014C960E942E9A22E030E040E050E01D
:1056100060EF71E4CE014C960E94509C6BEA76E0FC
:10562000CE014C960E942E9A22E030E040E050E0FD
:1056300064E372E4CE014C960E94509C68EA76E0E6
:10564000CE014C960E942E9A22E030E040E050E0DD
:105650006CE872E4CE014C960E94509C64EA76E0BD
:10566000CE014C960E942E9A20E030E040E45FE3A9
:105670006091120C7091130C8091140C9091150C88
:105680000E94259F20E030E040E85FE30E94A89C54
:10569000AB01BC0124E030E0CE014C960E94509C4E
:1056A00061EA76E0CE014C960E942E9A20E030E02E
:1056B00040EE5EE36091120C7091130C8091140C1B
:1056C0009091150C0E94259F20E030E040E85FE3B8
:1056D0000E94A89CAB01BC0124E030E0CE014C96B6
:1056E0000E94509C6EE976E0CE014C960E942E9A64
:1056F0002EE833EE48EB5EEB6091120C7091130CC8
:105700008091140C9091150C0E94259F20E030E0B0
:1057100040E85FE30E94A89CAB01BC0124E030E0BC
:10572000CE014C960E94509C6DED76E0CE014C96D9
:105730000E946E9A69E876E0CE014C960E942E9AFD
:105740004091F40A5091F50A6091F60A7091F70AB7
:1057500024E030E0CE014C960E94509C6DED76E046
:10576000CE014C960E946E9A66E776E0CE014C968A
:105770000E942E9A20E030E04AE754E46091600BEA
:105780007091610B8091620B9091630B0E94109D50
:10579000AB01BC0123E030E0CE014C960E94509C4E
:1057A00062E676E0CE014C960E942E9A20E034E22A
:1057B00044E759E46091580B7091590B80915A0B52
:1057C00090915B0B0E94109DAB01BC0123E030E087
:1057D000CE014C960E94509C61E576E0CE014C963D
:1057E0000E942E9A20E034E244E759E460915C0B79
:1057F00070915D0B80915E0B90915F0B0E94109DEC
:10580000AB01BC0123E030E0CE014C960E94509CDD
:105810006AE476E0CE014C960E942E9A0E94B70E62
:10582000AB01BC0123E030E0CE014C960E94509CBD
:105830006DED76E0CE014C960E946E9ADBC0013091
:10584000110509F06AC0213019F46BE376E013C04A
:10585000223019F469E276E00EC02A3019F465E1CD
:1058600076E009C0243119F466E076E004C02931FD
:1058700031F466EF75E0CE014C960E942E9A0E949C
:10588000106AAB01BC01CE01C7960E94160BBE0187
:10589000695C7F4FCE014C960E94539A63EF75E08E
:1058A000CE014C960E942E9A4091EF0B5091F00B36
:1058B0006091F10B7091F20B22E030E0CE014C963A
:1058C0000E94509C60EF75E0CE014C960E942E9A8B
:1058D0004091F70B5091F80B6091F90B7091FA0B16
:1058E00022E030E0CE014C960E94509C6CEE75E0B8
:1058F000CE014C960E942E9A4091030C5091040CBC
:105900006091050C7091060C22E030E0CE014C96BF
:105910000E94509C6AEE75E069C0213019F46BED6D
:1059200075E013C0223019F469EC75E00EC02A301E
:1059300019F464EB75E009C0243119F464EA75E0E8
:1059400004C0293131F463E975E0CE014C960E9420
:105950002E9A0E94106AAB01BC01CE01C7960E942C
:10596000160BBE01695C7F4FCE014C960E94539A84
:1059700060E975E0CE014C960E942E9A4091EF0BA3
:105980005091F00B6091F10B7091F20B22E030E03E
:10599000CE014C960E94509C6DE875E0CE014C966D
:1059A0000E942E9A4091F70B5091F80B6091F90BE1
:1059B0007091FA0B22E030E0CE014C960E94509C90
:1059C00069E875E0CE014C960E942E9A4091030C36
:1059D0005091040C6091050C7091060C22E030E0AF
:1059E000CE014C960E94509C67E875E0CE014C9623
:1059F0000E945E9ACE014C960E94E36F64E670E0CE
:105A000080E090E00E946495CC5BDF4F0FB6F89485
:105A1000DEBF0FBECDBFDF91CF911F910F910895D3
:105A20008F929F92AF92BF92FF920F931F93CF934B
:105A3000DF93CDB7DEB72D970FB6F894DEBF0FBE5C
:105A4000CDBFF82E81E0F81220C060E08AE20E940B
:105A50006C976AE081E090E08FDB68EB7DE080E3AB
:105A600090E10E945E9A0E94106AAB01BC01CE01D7
:105A700001960E94160BBE016F5F7F4F80E390E19D
:105A80000E94539A63EA7DE041C061E08AE20E948D
:105A90006C970E94106A8090900B9090910BA09050
:105AA000920BB090930B0091940B1091950B209159
:105AB000960B3091970B801A910AA20AB30A860EB0
:105AC000971EA81EB91E8092900B9092910BA092E7
:105AD000920BB092930B6AE080E090E04DDB61EABC
