:100000000C941F090C94BE4A0C94934A0C94684AB1
:100010000C943D4A0C94124A0C94E7490C94BC4948
:100020000C9491490C9450090C9450090C9450096B
:100030000C9450090C9450090C9450090C945009DC
:100040000C9450090C9450090C9450090C945009CC
:100050000C9450090C9450090C9450090C94474985
:100060000C9450090C942F470C9406470C9450099B
:100070000C9450090C9450090C9450090C9450099C
:100080000C9450090C9450090C9450090C9450098C
:100090000C9450090C9450090C9450090C94802B2A
:1000A0000C9450090C9450090C9450090C9450096C
:1000B0000C9450090C9450090C9450090C9450095C
:1000C0000C9450090C9450090C9450090C9450094C
:1000D0000C9450090C9450090C9450090C9450093C
:1000E0000C945009D144D444C344C744CD440B4577
:1000F000D844DC44E244E644EA44F044F444F8449E
:100100000B45FE44024506451F482448294833480C
:100110003D48B64847484F48574861486B4875487E
:1001200084488E48B6489848A248AC48F14BF14BF9
:100130008B4C6E4DAE4DE44D1A4EB24E07634236B7
:10014000B79BD8A71A39685618AEBAAB558C1D3C68
:10015000B7CC5763BD6DEDFD753EF6177231BF002C
:100160000000803F4F4B00456E636F6465723A003C
:10017000496E69742E204F4B005374696B616C613A
:100180003A2000467265652052414D3A2000467281
:1001900065652052414D002020002E002E002020B9
:1001A0000020525443204F4B0054696D653A00447F
:1001B00053313330372072656164206572726F721B
:1001C0002120205072657665726920706F76657A9D
:1001D0006176652E005468652044533133303720F2
:1001E0006A652075737461766C6A656E2E20507234
:1001F0006F73696D206E61737461766920636173DA
:100200002E00546F6B3A20004B6F6E74726F6C65EA
:10021000722054433A20002020002E002E0020207F
:100220004E61736C65646E6A652070726567726595
:1002300076616E6A653A20002020002E002E005A5A
:1002400061646E6A652070726567726576616E6A58
:10025000653A20000000006572726F720000202075
:1002600000436173206A65206E61737461766C6A05
:10027000656E00204D656E7500436F756E740042AB
:100280007574746F6E207072657373656400204EB0
:100290006F76613A002046616374576569676874D8
:1002A00041766754656D703A0020436F703A2000C4
:1002B00020496E666F2064656C7461546853743AAB
:1002C000200020496E666F2064656C746154684F2D
:1002D0006B3A200020496E666F2064656C7461542F
:1002E000683A2000206B6F6D702E73743A200020E6
:1002F0004E6F7661206B6F6D702E6F6B3A20002011
:10030000746B6F6D7053743A200020746B6F6D7056
:10031000303A20002072756E2074696D6528682956
:100320003A20002074656D70206F6B6F6C69636597
:100330002073743A200020496E666F2063616C2E32
:1003400028737461727454656D70293A2000204CD2
:100350006173743A00204B6F6D702E73743A0020F5
:100360004C6173743A00204B6F6D702E6F6B3A00C6
:10037000204C6173743A0020482E677265743A000D
:10038000496E666F202D20003C3C3C205468530091
:100390004342395249345746323941473051463148
:1003A000006170692E7468696E67737065616B2E89
:1003B000636F6D00205A61706972616D2076656EA1
:1003C00074696C00204F64706972616D2076656E8F
:1003D00074696C2000434F2120003C003E003556DC
:1003E0003328457272293A20002D20002D20002D3F
:1003F000200052656654656D70423030202D2052C9
:10040000656654656D70423031202D2054656D70E5
:10041000497A6B6C6F7061202D2070726576437223
:1004200070544353746174653A200027002F0027ED
:10043000002D003A0054002D002F002F0029002825
:10044000002F00290028003A0054002D005072654A
:1004500067726576616E6A65204F4B0029002F0038
:100460002F0028003A0054004F4646004B0056002B
:10047000202D3E2000002941002F0028002049287F
:10048000313256293A0029002F002028004120430C
:100490004F3A004F4646004B0056002500432020AF
:1004A000006B564168005641680066007400204C9D
:1004B000553A002064636E743A00294120002F00F1
:1004C0002800204928313276293A0029002F0028B7
:1004D000002920434F3A002D002D3E002D002028FA
:1004E0000020546920002054763A002F002F004F3E
:1004F0006E2074696D653A20002920004128002093
:10050000546F6B3A20006D732000293A200020417F
:1005100076672E70696E672074696D65286E3D0080
:100520002D004D696E2D4D6178286C6173742068C3
:10053000293A20006D732000293A20002041766777
:100540002E6379636C6554696D65286E3D002900E2
:100550003E0028003A0020524861005620005020FA
:100560000029003E0028003A00205461002050205D
:1005700000204520007C3C3E5E2B3D3F2F5B5D3BD9
:100580002C2A225C0000010800060400014500003E
:1005900082000040002045727245705772427920F7
:1005A00000504F5354202F75706461746520485477
:1005B00054502F312E310D0A486F73743A2024465F
:1005C0000D0A436F6E6E656374696F6E3A20636CDB
:1005D0006F73650D0A582D5448494E475350454195
:1005E0004B4150494B45593A2024460D0A436F6E02
:1005F00074656E742D547970653A206170706C6901
:10060000636174696F6E2F782D7777772D666F72BF
:100610006D2D75726C656E636F6465640D0A436F52
:100620006E74656E742D4C656E6774683A20244450
:100630000D0A0D0A24480029002F002800203356F7
:10064000333A0029002F002800203556333A00297C
:10065000002F002800203556323A0029002F0028AC
:1006600000203132563A0029002F00280020354959
:100670006E3A00284572722920002035496E3A00F2
:100680000F000F000F000F000F000F0011001300EC
:10069000160019001E001E001900190019001C0088
:1006A0001E0020001E001C001B00190014000F007B
:1006B000CDCC4C3ECDCC4C3ECDCC4C3ECDCC4C3EAE
:1006C000CDCC4C3ECDCC4C3ECDCC4C3ECDCC4C3E9E
:1006D000CDCC4C3ECDCC4C3ECDCC4C3ECDCC4C3E8E
:1006E000CDCC4C3ECDCC4C3ECDCC4C3ECDCC4C3E7E
:1006F000CDCC4C3ECDCC4C3ECDCC4C3ECDCC4C3E6E
:10070000CDCC4C3ECDCC4C3ECDCC4C3ECDCC4C3E5D
:100710001E001E001E001E001E001E001C000F00FA
:100720000C000D000F001100130015001400120042
:100730000F000C000E001000120016001E001E001C
:1007400045727245705265427520003A20002020A3
:10075000004164647265733A003A20002020004131
:1007600064647265733A00202F20006661637457D9
:10077000656967687441766754656D703A20004317
:10078000206A6520004B6F6D70656E7A2E207A614D
:100790006365746E652074656D702E2070726920BB
:1007A00074656D702E2000202F20004B6F6D702E11
:1007B00073742E3A200043206A6520004B6F6D70E1
:1007C000656E7A2E2074656D702E206F6B6F6C696C
:1007D0006365207072692074656D702E2000202F73
:1007E00020004B6F6D702E6F6B2E3A20004B2F68E0
:1007F00000202F20004869722E20677265743A200D
:10080000002020002E002E00204E61736C65646E67
:100810006A652070726567726576616E6A653A20F6
:10082000002020002E002E005A61646E6A65207040
:10083000726567726576616E6A653A200022707231
:1008400065765443537461746522206E61737461DC
:10085000766C6A656E6F206E6120002020002E008D
:100860002E004C617374205443206368673A200063
:1008700073004F6E54696D653A200056202D003A82
:10088000003A002D004D696E2E2D6D61783A0045BD
:100890007272457072526542754C650045727245C0
:1008A00070526542752000457272457057725067EC
:1008B0002000485454502F312E3020323030204FF9
:1008C0004B0D0A436F6E74656E742D547970653AE2
:1008D00020746578742F68746D6C0D0A50726167AE
:1008E0006D613A206E6F2D63616368650D0A0D0AB4
:1008F0003C6D65746120687474702D6571756976DE
:100900003D27726566726573682720636F6E746534
:100910006E743D273539272F3E3C7469746C653EF3
:10092000496E666F207365727665723C2F746974C8
:100930006C653E3C68313E2024533C2F68313E3C80
:1009400068333E2054313A20245343203C62723EA7
:100950002054323A20245343203C62723E205433C8
:100960003A20245343203C62723E2054343A2024DF
:100970005343203C62723E2054353A202453432096
:100980003C62723E2054363A20245343203C62722B
:100990003E2054373A20245343203C62723E205478
:1009A000383A20245343203C62723E2054393A2086
:1009B000245343203C62723E52483A20245325205F
:1009C0003C62723E48756D696465783A20245343F1
:1009D0003C62723E434F3A2024443C62723E537460
:1009E0006174653A20244424442444244424442447
:1009F0004424442020203C2F68333E203C62723E39
:100A000000000020002300260029002C002F0032C7
:100A100000000100000301060109010505050507A5
:100A20000508080808020202020A0A080804040469
:100A30000401010101010101010303030303030395
:100A400003040707070C0C0C0C0C0C0C0C02020224
:100A50000206060606060606060B0B0B0B0B0B0B17
:100A60000B010210202008081020401020408002B6
:100A700001020108040201010204081020408080E4
:100A80004020100804020180040201804020100868
:100A90000402010804020101020408102040800140
:100AA0000204081020408000002100240027002AB2
:100AB000002D003000330001010000040107010A8D
:100AC0000100002200250028002B002E00310034F8
:100AD0000002010000050108010B0100000A0B02E1
:100AE000090C0D0E080703040100000000000000BF
:100AF00000000000000000000000000000000000F6
:100B000000000000000000121110000000000000B2
:100B100000000000000000000000000000000000D5
:100B20000020434572003000204C4344204F4B00CE
:100B30003000536520707269646500785878587881
:100B4000587858007858785878587858005A61641E
:100B50006E6A652070726567726576616E6A653A65
:100B6000200054692000547620004F4646004B0078
:100B70004100546F6B3A00434F3A004F4646004BDA
:100B80000056002500432052483A002920003B002F
:100B90002045772800660074002069734C696E6BED
:100BA00055703A0064656C6179636E743A20006632
:100BB000616C736500706572736973745F746370E0
:100BC0005F636F6E6E656374696F6E3A2000666175
:100BD0006C736500747275650055736520444843F5
:100BE000503A2000486973706F72743A20002049AF
:100BF0007A6B6C6F70206B6F6D707265736F726A59
:100C0000612054430020497A6B6C6F702076656ECA
:100C1000742E206B6F6D707265736F726A612054F1
:100C2000430020566B6C6F702076656E742E206BBF
:100C30006F6D707265736F726A6120544300205645
:100C40006B6C6F70206B6F6D707265736F726A6121
:100C500020544300005EBCE2613FDD83C29C7E20E5
:100C6000A3FD1F419DC3217FFCA2401E5F01E3BD88
:100C70003E6082DC237D9FC1421CFEA0E1BF5D037C
:100C800080DE3C62BEE0025CDF81633D7C22C09E70
:100C90001D43A1FF4618FAA427799BC584DA38665C
:100CA000E5BB5907DB856739BAE406581947A5FB48
:100CB0007826C49A653BD987045AB8E6A7F91B453C
:100CC000C6987A24F8A6441A99C7257B3A6486D830
:100CD0005B05E7B98CD2306EEDB3510F4E10F2AC1C
:100CE0002F7193CD114FADF3702ECC92D38D6F3108
:100CF000B2EC0E50AFF1134DCE90722C6D33D18FFC
:100D00000C52B0EE326C8ED0530DEFB1F0AE4C12EF
:100D100091CF2D73CA947628ABF517490856B4EADB
:100D20006937D58B5709EBB536688AD495CB2977C7
:100D3000F4AA4816E9B7550B88D6346A2B7597C9BB
:100D40004A14F6A8742AC896154BA9F7B6E80A54AF
:100D5000D7896B352044002900202D200020280051
:100D6000202000497A6B6C2E206B6F6D70722E54B0
:100D7000433A2000497A6B6C2E2076656E742E54AF
:100D8000433A2000497A6B6C2E20637270616C6B61
:100D900065207261642E3A2000497A6B6C2E637272
:100DA00070616C6B652054433A20005A61702E20AC
:100DB00076656E74696C613A20002900202D200050
:100DC000202800202000566B6C2E206B6F6D7072F7
:100DD0002E54433A2000566B6C2E2076656E742E8E
:100DE00054433A2000566B6C2E20637270616C6B1A
:100DF00065207261642E3A2000566B6C2E2063725F
:100E000070616C6B652054433A20004F64702E2053
:100E100076656E74696C613A200020436F703A20E9
:100E20000020446F626C6A656E6F20284D4A293A33
:100E300020002055707261626C6A656E6F20284DCB
:100E40005773293A2000205A61632E20506F726137
:100E50006261206B56413A200020666163745765D9
:100E60006967687441766754656D703A20002C207C
:100E7000002C2000293D20002C20002C2000204B9D
:100E80006F6D702E73742E74656D702E2028002087
:100E90005A61646E6A613A200020466163742E7A5A
:100EA00061632E74656D703A20002C20002C2000A8
:100EB000293D20002C20002C2000204B6F6D702E2F
:100EC0006F6B202800207A61646E6A613A200020EE
:100ED000466163742E6B6F6D702E6F6B2E3A20001F
:100EE000205A61646E6A613A2000204E6F76613A42
:100EF0002000486974726F737420677265746A6148
:100F00003A2000496E666F202D200073742F680010
:100F10006D696E2020486974722E673A2000202087
:100F20004F6E3A00202000497A6B6C6F702054435A
:100F30003A20002900202800202000566B6C6F709A
:100F40002054433A20000020497A6B6F6C70206374
:100F500072702E207261646961746F720020566B2A
:100F60006C6F70206372702E207261646961746F9F
:100F7000720020497A6B6C6F7020637270616C6BC9
:100F8000652054430020566B6C6F70206372706153
:100F90006C6B6520544300207375636573733A204E
:100FA00000444E53206661696C656400207375636C
:100FB0006573733A2000207375636573733A20007C
:100FC000207375636573733A2000207375636573CE
:100FD000733A2000207375636573733A200045747B
:100FE000682E2066697277617265207265763A2094
:100FF000004661696C656420746F2061636365738A
:10100000732045746865726E657420636F6E7472C8
:101010006F6C6C6572003A206E69204453313878E9
:1010200032302066616D696C79206465766963652C
:101030002E003A20445331383232003A20445331A2
:1010400038423230003A2044533138533230005461
:10105000656D702E2073656E736F7220005374651A
:1010600076696C6F2044532073656E6F73726A6586
:101070007621210053746576696C6F204453207388
:10108000656E6F73726A65762121003000204B2DEA
:10109000747970652073656E7A6F72003A00300063
:1010A0005420002044485432322073656E7A6F72A7
:1010B000003A0030005420004E6170616B612044A2
:1010C000485432322073656E7A6F726A6121210052
:1010D0004E6170616B612044485432322073656EFA
:1010E0007A6F726A612121003A0030005420005367
:1010F000746576696C6F2073656E7A6F726A657657
:101100000053746576696C6F2074656D702E207362
:10111000656E7A6F726A6576207365206E652075DC
:101120006A656D6121210020646576696365732EAF
:1011300000205344204F4B00534420436172643AD3
:101140000000407A10F35A00A0724E18090010A552
:10115000D4E80000E87648170000E40B54020000D1
:10116000CA9A3B000000E1F5050000809698000057
:101170000040420F000000A0860100000010270080
:10118000000000E803000000006400000000000A06
:1011900000000000000100000000002C76D888DC70
:1011A000674F0823DFC1DFAE59E1B1B796E5E3E44D
:1011B00053C63AE651997696E8E6C28426EB898CC6
:1011C0009B62ED407C6FFCEFBC9C9F40F2BAA56F28
:1011D000A5F490055A2AF75C936B6CF9676DC11BF7
:1011E000FCE0E40D47FEF520E6B500D0ED902E03BF
:1011F00000943577050080841E080000204E0A0008
:101200000000C80C333333330F986E12831141EF53
:101210008D2114893BE65516CFFEE6DB18D1844BB1
:10122000381BF77C1D901DA4BBE424203284725E21
:10123000228100C9F124ECA1E53D2700688E11242C
:101240001FBECFEFD1E2DEBFCDBF00E00CBF15E087
:10125000A0E0B2E0E8E2F5E301E00BBF02C00790D6
:101260000D92AC30B107D9F72EE0ACE0B5E001C08B
:101270001D92AA3FB207E1F719E0CFE1D9E000E003
:1012800006C021970109802FFE010E94C78FCE3131
:10129000D10780E00807A9F70E94C7760C94929ABC
:1012A0000C9400002F923F924F925F926F927F9228
:1012B0008F929F92AF92BF92CF92DF92EF92FF9266
:1012C0000F931F93CF93DF93CDB7DEB7CB54D109E4
:1012D0000FB6F894DEBF0FBECDBF88E09DE00E9440
:1012E00078450E949D52AB01BC01CE0101960E943F
:1012F0004854BE016F5F7F4F88E09DE00E94D14659
:1013000060E774E088E09DE00E94D24624EE3CE075
:101310002A963FAF2EAF2A976901E12CF12C00915C
:10132000660E1091670EE016F1060CF0D1C166E66C
:1013300074E088E09DE00E94D2463FEFE31AF30A92
:101340004AE050E0B70188E09DE00E94874664E6ED
:1013500074E088E09DE00E94D246F60141915191EF
:10136000619171916F0122E030E088E09DE00E9480
:101370008646F2E0EF16F10409F0A3C162E674E0DC
:1013800088E09DE00E94D2460E943C54880F991F3D
:101390008C01085D1F4F42E050E068E67EE0C80126
:1013A0000E94334362E070E080E090E00E940349D5
:1013B0006091680E7091690E80E090E00E94029149
:1013C00020E030E048EC52E40E94389020E030E029
:1013D00048E452E40E94CF8F9B01AC016091E80C7D
:1013E0007091E90C8091EA0C9091EB0C0E94CF8FE8
:1013F000AB01BC0140930B0650930C0660930D06A5
:1014000070930E0622E030E088E09DE00E94864660
:101410004090E80C5090E90C6090EA0C7090EB0C56
:101420006091680E7091690E80E090E00E940291D8
:101430004B015C0120E030E048EC52E4C301B20112
:101440000E944D929B01AC01C501B4010E94CF8F57
:1014500020E030E048E452E40E94D08F4B015C0170
:1014600020E030E0A9010E94D99118165CF420E038
:1014700030E040E85FE3C501B4010E94D99118163D
:101480005CF030C020E030E040E85FEBC501B40123
:101490000E94349087FF26C02AE037ED43EA5BE3E1
:1014A000C301B2010E94D08F20E030E048E452E452
:1014B0000E94D08F20E030E048EC52E40E944D9230
:1014C0000E94D6907093690E6093680E62E070E09F
:1014D00080E090E00E94034942E068E67EE0C801B7
:1014E0000E949B4262E070E080E090E00E9403492D
:1014F00060E674E088E09DE00E94D24680902A0574
:1015000090902B05A0902C05B0902D05A50194017D
:1015100060E070E080E89FE30E94CF8F2091530548
:101520003091540540915505509156050E944D92B9
:101530002B013C012091E80C3091E90C4091EA0C20
:101540005091EB0CC501B4010E944D929B01AC017E
:10155000C301B2010E94D08FAB01BC01409353057F
:1015600050935405609355057093560522E030E082
:1015700088E09DE00E9486466EE574E088E09DE08C
:101580000E94D2468090110E9090120EA090130EE1
:10159000B090140EA501940160E070E080E89FE334
:1015A0000E94CF8F20912202309123024091240289
:1015B000509125020E944D922B013C0120910B0677
:1015C00030910C0640910D0650910E06C501B401F4
:1015D0000E944D929B01AC01C301B2010E94D08FC9
:1015E000AB01BC014093220250932302609324027A
:1015F0007093250222E030E088E09DE00E9486465C
:101600006CE574E088E09DE00E94D24620E030E086
:1016100040E752E460910F06709110068091110628
:10162000909112060E94D99187FD3BC020E030E0E6
:1016300040E752E46091530570915405809155053F
:10164000909156050E94349087FF2BC00E949D52B6
:1016500060932005709321058093220590932305C4
:101660006093990570939A0580939B0590939C05D0
:1016700062E070E080E090E00E94034944E069E9A4
:1016800075E089E190E00E949B4262E070E080E0BA
:1016900090E00E9403496DE474E088E09DE00E94C0
:1016A000D2468091530590915405A0915505B09173
:1016B000560580930F0690931006A0931106B093E1
:1016C00012066BE474E088E09DE00E94D24627CECB
:1016D0009801220F331F220F331F26963FAF2EAFE4
:1016E0002697212C312CE090660EF090670E2FEF9C
:1016F000E21AF20A0E151F050CF001C269E474E04B
:1017000088E09DE00E94D24668013FEFC31AD30AE9
:101710004AE050E0B60188E09DE00E94874667E419
:1017200074E088E09DE00E94D2462696EEADFFADC3
:101730002697E20DF31DEC51F34F408151816281F8
:10174000738122E030E088E09DE00E94864688E0D8
:10175000C816D10409F0B3C065E474E088E09DE0E8
:101760000E94D2460E943C54880F991F7C01E0EAF7
:10177000EE0EF11C42E050E068E67EE0C7010E94F8
:10178000334362E070E080E090E00E9403496091A2
:10179000680E7091690E80E090E00E94029120E056
:1017A00030E048EC52E40E94389020E030E048E419
:1017B00052E40E94CF8F9B01AC016091000D7091AB
:1017C000010D8091020D9091030D0E94CF8FAB010E
:1017D000BC0122E030E088E09DE00E948646409017
:1017E000000D5090010D6090020D7090030D6091FE
:1017F000680E7091690E80E090E00E9402914B01AA
:101800005C0120E030E048EC52E4C301B2010E94E8
:101810004D929B01AC01C501B4010E94CF8F4B01D9
:101820005C0120E030E0A9010E94D99118165CF417
:1018300020E030E040E85FE3C501B4010E94D991A7
:1018400018165CF030C020E030E040E85FEBC501E6
:10185000B4010E94349087FF26C02AE037ED43EAA6
:101860005BE3C301B2010E94D08F20E030E048E486
:1018700052E40E94D08F20E030E048EC52E40E9415
:101880004D920E94D6907093690E6093680E62E04C
:1018900070E080E090E00E94034942E068E67EE06C
:1018A000C7010E949B4262E070E080E090E00E94ED
:1018B000034963E474E088E09DE00E94D24661E45D
:1018C00074E088E09DE00E94D2468091660E90917F
:1018D000670EF801E81BF90BEE0FFF1FEE0FFF1F5D
:1018E000EA58F14F408151816281738122E030E0FA
:1018F00088E09DE00E9486466FE374E088E09DE00A
:101900000E94D2460E943C54880F991F7C01F8EE39
:10191000EF1AFEEFFF0A42E050E068E67EE0C70102
:101920000E94334362E070E080E090E00E9403494F
:101930008091660E9091670E5801A81AB90AC501E8
:10194000880F991F880F991F9C012A58314F590100
:101950006091680E7091690E80E090E00E940291A3
:1019600020E030E048EC52E40E9438909B01AC014A
:10197000F50160817181828193810E94CF8FAB01DB
:10198000BC0122E030E088E09DE00E948646809124
:10199000660E9091670EF801E81BF90BEE0FFF1F22
:1019A000EE0FFF1FEA58F14F408051806280738034
:1019B0006091680E7091690E80E090E00E94029143
:1019C0004B015C0120E030E048EC52E4C301B2017D
:1019D0000E944D929B01AC01C501B4010E94CF8FC2
:1019E0004B015C0120E030E0A9010E94D99118165A
:1019F0005CF420E030E040E85FE3C501B4010E9400
:101A0000D99118165CF02AC020E030E040E85FEB86
:101A1000C501B4010E94349087FF20C02AE037ED51
:101A200043EA5BE3C301B2010E94D08F20E030E0C3
:101A300048EC52E40E944D920E94D6907093690E39
:101A40006093680E62E070E080E090E00E940349DD
:101A500042E068E67EE0C7010E949B4262E070E0DF
:101A600080E090E00E9403496DE374E088E09DE02F
:101A70000E94D2466BE374E088E09DE00E94D2466B
:101A80008091660E9091670EF801E81BF90BEE0F3E
:101A9000FF1FEE0FFF1FEE59F14F40815181628110
:101AA000738122E030E088E09DE00E94864669E391
:101AB00074E088E09DE00E94D2468091660E90918D
:101AC000670EF801E81BF90BEE0FFF1FEE0FFF1F6B
:101AD000EE58F14F408151816281738122E030E004
:101AE00088E09DE00E94864667E374E088E09DE020
:101AF0000E94D246F4E02F0E311C8601F4CD67011E
:101B0000CC0CDD1CCC0CDD1C00E010E08091660EDE
:101B10009091670E0296E816F90674F565E374E095
:101B200088E09DE00E94D2463FEFE31AF30A4AE0C4
:101B300050E0B70188E09DE00E94874663E374E0CF
:101B400088E09DE00E94D246F801EC0DFD1DEC51AD
:101B5000F34F408151816281738122E030E088E05F
:101B60009DE00E94864661E374E088E09DE00E946B
:101B7000D2460C5F1F4FCACF80912002811106C050
:101B80006EE674E088E09DE00E94D2468091B70541
:101B9000813039F480911F02811109C06CE674E034
:101BA00002C068E674E088E09DE00E94D24662EEE2
:101BB00072E088E09DE00E94D1464AE050E06091EA
:101BC000B20588E09DE00E948B4561E070E0809165
:101BD0002002882311F060E070E04AE050E088E0E5
:101BE0009DE00E94874661E070E080911F0288239B
:101BF00011F060E070E04AE050E088E09DE00E9473
:101C000087464AE050E06091AD0588E09DE00E9483
:101C10008B454AE050E06091160288E09DE00E940A
:101C20008B454AE050E06091520588E09DE00E94BB
:101C30008B4561E070E08091BC059091BD05892BDA
:101C400011F060E070E04AE050E088E09DE00E9422
:101C5000874662EE72E088E09DE00E94D14642E055
:101C600050E06091610588E09DE00E948B4562EE46
:101C700072E088E09DE00E94D14660915705709126
:101C800058054AE050E088E09DE00E9487460E94A7
:101C90009167882319F061E775E002C06DE675E091
:101CA00088E09DE00E94D24660919605709197056C
:101CB0004AE050E088E09DE00E9487460E949D52E5
:101CC00030E1C32E3EE0D32EE12CF12CA70196018A
:101CD0000E94619A49015A016091B8057091B90555
:101CE0008091BA059091BB05A70196010E94619A67
:101CF000281539054A055B0508F017C388E09DE003
:101D00000E94784583E39AE026969FAF8EAF269790
:101D1000E4EEFCE02C96FFAFEEAF2C9700E010E075
:101D2000E090F10EF090F20E0E151F050CF04BC175
:101D3000C8010E94E5311C0162E070E080E090E0A3
:101D40000E94034942E050E068E67EE0C1010E9443
:101D5000334362E070E080E090E00E94034969E66E
:101D600075E088E09DE00E94D2460F5F1F4F4AE079
:101D700050E0B80188E09DE00E94874667E675E084
:101D800088E09DE00E94D24665E675E088E09DE02F
:101D90000E94D2466091680E7091690E80E090E0DA
:101DA0000E94029120E030E048EC52E40E9438901A
:101DB00020E030E048E452E40E94CF8FAB01BC0148
:101DC00022E030E088E09DE00E94864663E675E010
:101DD00088E09DE00E94D246A10160E070E02AE028
:101DE00088E09DE00E94244561E675E088E09DE082
:101DF0000E94D24602301105E9F58091DC0C9091E9
:101E0000DD0CA091DE0CB091DF0C8093E00C909380
:101E1000E10CA093E20CB093E30C8091D80C90916C
:101E2000D90CA091DA0CB091DB0C8093DC0C909370
:101E3000DD0CA093DE0CB093DF0C8091E80C909148
:101E4000E90CA091EA0CB091EB0C8093D80C909324
:101E5000D90CA093DA0CB093DB0C0E94734088235A
:101E600019F06EE575E002C06BE575E088E09DE075
:101E70000E94D2462C96EEADFFAD2C97C190D1902A
:101E8000E190F1902C96FFAFEEAF2C976091680E29
:101E90007091690E80E090E00E94029120E030E0B5
:101EA00048EC52E40E94389020E030E048E452E4EC
:101EB0000E94CF8F2B013C019B01AC01C701B601F1
:101EC0000E94CF8F4B015C0120E030E0A9010E940D
:101ED000D99118165CF42AE037ED43E25CE3C501C2
:101EE000B4010E94D99118165CF052C02AE037ED77
:101EF00043E25CEBC501B4010E94349087FF48C007
:101F0000A30192012696EEADFFAD26976081718107
:101F1000828193810E94CF8F4B015C012AE037EDD3
:101F200043EA5BE3C701B6010E94D08F20E030E0B6
:101F300048E452E40E94D08F20E030E048EC52E4C4
:101F40000E944D920E94D6907093690E6093680E25
:101F5000A7019601C501B4010E94D08F2696EEAD6F
:101F6000FFAD2697608371838283938362E070E084
:101F700080E090E00E94034942E068E67EE0C10113
:101F80000E949B4262E070E080E090E00E94034982
:101F90002696EEADFFAD2697619171918191919159
:101FA0002696FFAFEEAF269720E030E048E253E4FC
:101FB0000E945467AB01BC0122E030E088E09DE064
:101FC0000E948646ADCEC701880F991F880F991FC2
:101FD0009C012D5C354F69018091F10E9091F20EBC
:101FE0008E159F050CF4F4C088E09DE00E947845B2
:101FF000C7010E94E5318C0142E050E068E67EE0D6
:102000000E94334366E575E088E09DE00E94D24679
:102010008091F10E9091F20EB701681B790B6F5F02
:102020007F4F4AE050E088E09DE00E94874664E5EB
:1020300075E088E09DE00E94D24662E575E088E0A8
:102040009DE00E94D2466091680E7091690E80E01A
:1020500090E00E94029120E030E048EC52E40E94BF
:102060003890AB01BC0122E030E088E09DE00E94A6
:10207000864660E575E088E09DE00E94D246A801B2
:1020800060E070E02AE088E09DE00E9424456EE474
:1020900075E088E09DE00E94D2468091F10E90911B
:1020A000F20EF701E81BF90BEE0FFF1FEE0FFF1FFB
:1020B000EA58F14F80809180A280B3806091680ED1
:1020C0007091690E80E090E00E94029120E030E083
:1020D00048EC52E40E94389028966CAF7DAF8EAFEA
:1020E0009FAF28979B01AC01C501B4010E94CF8F1F
:1020F0002B013C0120E030E0A9010E94D991181683
:102100005CF42AE037ED43E25CE3C301B2010E94D4
:10211000D99118165CF044C02AE037ED43E25CEB3D
:10212000C301B2010E94349087FF3AC028962CADBB
:102130003DAD4EAD5FAD2897F60160817181828122
:1021400093810E94CF8F2B013C012AE037ED43EAB7
:102150005BE3C501B4010E94D08F20E030E048EC81
:1021600052E40E944D920E94D6907093690E609343
:10217000680EA5019401C301B2010E94D08FF6013F
:10218000608371838283938342E068E67EE0C801C6
:102190000E949B4262E070E080E090E00E94034970
:1021A000F60161917191819191916F0120E030E090
:1021B00048E253E40E945467AB01BC0122E030E0E6
:1021C00088E09DE00E948646FFEFEF1AFF0A04CFE9
:1021D00088E09DE00E9478456CE375E088E09DE032
:1021E0000E94D2464091C6055091C7056091C8052E
:1021F0007091C9052AE030E088E09DE00E946C45BE
:1022000068E375E088E09DE00E94D246C090C60574
:10221000D090C705E090C805F090C9056091CA0547
:102220007091CB058091CC059091CD05C114D1045E
:10223000E104F10489F00E9402914B015C01C701A5
:10224000B6010E9402919B01AC01C501B4010E943C
:102250003890AB01BC0104C040E050E060E87FEB87
:1022600022E030E088E09DE00E94864664E375E06D
:1022700088E09DE00E94D24662E275E088E09DE041
:102280000E94D2464091BE055091BF056091C005A5
:102290007091C1052AE030E088E09DE00E946C4525
:1022A00060E275E088E09DE00E94D2464091C20560
:1022B0005091C3056091C4057091C5052AE030E0D6
:1022C00088E09DE00E946C451092C2051092C30503
:1022D0001092C4051092C5056EE075E088E09DE09F
:1022E0000E94D2462AE030E040E050E0BA0188E0A7
:1022F0009DE00E946C456AE075E088E09DE00E94E8
:10230000D24622E030E040E050E060E87FEB88E039
:102310009DE00E94864666E075E088E09DE00E94B0
:10232000D24688E09DE00E947845CE014C960E94FE
:102330000A28CE01C7960E94F87443E1BE01695C89
:102340007F4FCE0101960E947A5EBE016F5F7F4F84
:10235000CE014C960E94515ECE014C960E94EB2716
:10236000882309F45BC10E949D52AB01BC01CE01E0
:10237000C7960E944854BE01695C7F4FCE014C96BF
:102380000E94D14662EE72E0CE014C960E94D14688
:102390000E949D52AB01BC012AE030E0CE014C9678
:1023A0000E946C4500E010E08091F10E9091F20ED9
:1023B00008171907DCF462EE72E0CE014C960E9419
:1023C000D1462A96EEADFFAD2A9741915191619188
:1023D00071912A96FFAFEEAF2A9722E030E0CE014E
:1023E0004C960E9486460F5F1F4FDECF0091660E0F
:1023F0001091670E8091660E9091670E801791077D
:1024000034F16DE974E0CE014C960E94D246809181
:10241000660E9091670EF801E81BF90BEE0FFF1F97
:10242000EE0FFF1FEA58F14F4081518162817381A5
:1024300022E030E0CE014C960E9486466BE974E0C3
:10244000CE014C960E94D2460F5F1F4FD3CF62EE53
:1024500072E0CE014C960E94D146809120028111FB
:1024600006C069E974E0CE014C960E94D246809184
:10247000B705813039F480911F02811109C067E9E5
:1024800074E002C063E974E0CE014C960E94D2462B
:1024900062EE72E0CE014C960E94D14660E080E090
:1024A0000E949634AB01BC0123E030E0CE014C9693
:1024B0000E9486466DE874E0CE014C960E94D2469A
:1024C00060916205709163054AE050E0CE014C9640
:1024D0000E9487466AE874E0CE014C960E94D2467C
:1024E000C0906E05D0906F05E0907005F09071057A
:1024F00060917205709173058091740590917505D6
:10250000C114D104E104F10489F00E9402914B014D
:102510005C01C701B6010E9402919B01AC01C5019B
:10252000B4010E943890AB01BC0104C040E050E00F
:1025300060E87FEB23E030E0CE014C960E948646B7
:1025400068E874E0CE014C960E94D24660916C051A
:1025500070916D054AE050E0CE014C960E9487468E
:1025600066E874E0CE014C960E94D2466DE774E0B6
:10257000CE014C960E94D2460E94F273AB01BC0180
:1025800022E030E0CE014C960E9486466BE774E074
:10259000CE014C960E94D24660917A0570917B05DF
:1025A00080917C0590917D050E9402919B01AC0178
:1025B00060917E0570917F058091800590918105E5
:1025C0000E945467AB01BC0124E030E0CE014C9680
:1025D0000E94864669E774E0CE014C960E94D2467E
:1025E0004091760550917705609178057091790555
:1025F00022E030E0CE014C960E94864666E774E009
:10260000CE014C960E94D24665E774E0CE014C960E
:102610000E94F646CE014C960E94F82764E670E0D0
:1026200080E090E00E9403496FEF74E088E09DE055
:102630000E94D24661E081E00E949634AB01BC0169
:1026400040931702509318026093190270931A0274
:1026500022E030E088E09DE00E9486466CEF74E066
:1026600088E09DE00E94D246C090A505D090A605C6
:10267000E090A705F090A80520E030E04AE754E498
:10268000C701B6010E94D99187FD2DC020E030E03E
:102690004AE754E4C701B6010E9438906B017C01FF
:1026A00020E030E048EC52E40E94D99118161CF466
:1026B00021E030E00FC020E030E040E251E4C7010B
:1026C000B6010E94D99118161CF422E030E002C035
:1026D00023E030E0B701A60188E09DE00E94864635
:1026E00061EA74E024C020E030E048EC52E4C70125
:1026F000B6010E94D99118161CF421E030E00FC0F9
:1027000020E030E040E251E4C701B6010E94D991D7
:1027100018161CF422E030E002C023E030E0B701DC
:10272000A60188E09DE00E94864666EA74E088E0A3
:102730009DE00E94D24669EF74E088E09DE00E942F
:10274000D24688E09DE00E945D446FEE74E088E030
:102750009DE00E94D2468091B205811109C060912E
:102760008E0570918F0580919005909191051CC008
:10277000813051F5C0908E05D0908F05E090900586
:10278000F09091050E949D520091B3051091B405FF
:102790002091B5053091B605C01AD10AE20AF30AB4
:1027A0006C0D7D1D8E1D9F1D0E94029120E030E06A
:1027B00041E655E40E943890AB01BC0122E030E0D4
:1027C00088E09DE00E9486466DEE74E088E09DE022
:1027D0000E94D2468091AD05811109C060916805C3
:1027E0007091690580916A0590916B051AC0C0903F
:1027F0006805D0906905E0906A05F0906B050E942D
:102800009D5200915D0510915E0520915F0530910C
:102810006005C01AD10AE20AF30A6C0D7D1D8E1DF7
:102820009F1D0E94029120E030E041E655E40E94A5
:102830003890AB01BC0122E030E088E09DE00E94CE
:1028400086466BEE74E088E09DE00E94D24680915F
:102850005205811109C060916405709165058091F0
:102860006605909167051AC0C0906405D090650513
:10287000E0906605F09067050E949D520091590511
:1028800010915A0520915B0530915C05C01AD10A60
:10289000E20AF30A6C0D7D1D8E1D9F1D0E940291A0
:1028A00020E030E041E655E40E943890AB01BC01E5
:1028B00022E030E088E09DE00E94864688E09DE0CE
:1028C0000E94784566EE74E088E09DE00E94D24662
:1028D0000E948768AB01BC0123E030E088E09DE006
:1028E0000E94864661EE74E088E09DE00E94D24638
:1028F0000E94E067AB01BC0121E030E088E09DE090
:102900000E9486466EED74E088E09DE00E94D2460B
:102910000E94CF69AB01BC0121E030E088E09DE07E
:102920000E9486466CED74E088E09DE00E94D246ED
:102930000E947169AB01BC0121E030E088E09DE0BC
:102940000E94864669ED74E088E09DE00E94D246D0
:1029500080E00E94733DAB01BC0121E030E088E0E3
:102960009DE00E94864667ED74E088E09DE00E944D
:10297000D24681E00E94733DAB01BC0121E030E012
:1029800088E09DE00E94864661ED74E088E09DE06D
:102990000E94D24660916205709163054AE050E062
:1029A00088E09DE00E9487466FEC74E088E09DE03F
:1029B0000E94D246C0906E05D0906F05E0907005E1
:1029C000F0907105609172057091730580917405A6
:1029D00090917505C114D104E104F10489F00E94BD
:1029E00002914B015C01C701B6010E9402919B015B
:1029F000AC01C501B4010E943890AB01BC0104C018
:102A000040E050E060E87FEB23E030E088E09DE0CC
:102A10000E9486466DEC74E088E09DE00E94D246FC
:102A200060916C0570916D054AE050E088E09DE092
:102A30000E9487466BEC74E088E09DE00E94D246DD
:102A400062EE72E088E09DE00E94D146609125052B
:102A5000709126054AE050E088E09DE00E9487469C
:102A600062EC74E088E09DE00E94D2460E94F2731E
:102A7000AB01BC0122E030E088E09DE00E94864688
:102A800060EC74E088E09DE00E94D24660917A0597
:102A900070917B0580917C0590917D050E9402914B
:102AA0009B01AC0160917E0570917F05809180054E
:102AB000909181050E945467AB01BC0124E030E095
:102AC00088E09DE00E9486466EEB74E088E09DE021
:102AD0000E94D24640917605509177056091780525
:102AE0007091790522E030E088E09DE00E94864602
:102AF0006AEB74E088E09DE00E94D24681E00E948B
:102B00000E2E0E94BC2D63EB74E088E09DE00E94D5
:102B1000D246409100095091010960E070E02AE03E
:102B200088E09DE00E9424456EEA74E088E09DE024
:102B30000E94D2460E94BD5B882319F06CEA74E0C3
:102B400002C06AEA74E088E09DE00E94D246C55B5C
:102B5000DF4F0FB6F894DEBF0FBECDBFDF91CF9130
:102B60001F910F91FF90EF90DF90CF90BF90AF90AB
:102B70009F908F907F906F905F904F903F902F909D
:102B8000089561E00E944F5E8BE39FE10197F1F7AA
:102B90000895AF92BF92CF92DF92EF92FF920F9380
:102BA0001F93CF93DF93EC016901C801820F931F3C
:102BB0008130924008F070C08E81882371F0888146
:102BC0009981AA81BB81481759076A077B0729F4B5
:102BD0008F819885C816D906B0F5488359836A83D2
:102BE0007B838B85833039F089E0440F551F661F46
:102BF000771F8A95D1F79A01AB0161E1CE010E945E
:102C00003E27882319F083E08D8346C00E943B490C
:102C10005B010E940C278A878F3F49F40E943B4941
:102C20006A197B096D327140A0F38FE003C08E3FBB
:102C300031F08DE08D83CE010E94FA262DC01886DA
:102C40001F8281E08E838F8198858C159D0540F4CD
:102C50000E940C278F819885019698878F83F3CFE8
:102C60006701E00EF11ECE14DF0431F00E940C2744
:102C7000F60181936F01F7CF8F819885080F191F97
:102C800018870F838985882319F00115124048F0B1
:102C9000CE010E940E2705C0CE010E94FA2680E0D8
:102CA00001C081E0DF91CF911F910F91FF90EF90D4
:102CB000DF90CF90BF90AF9008958FB7F894809138
:102CC00013068FBF08950F931F93CF93DF93EB01EC
:102CD0000E943B498B010E940C278F3F49F00E94C4
:102CE0003B49601B710B6C177D07A8F380E001C0A6
:102CF00081E0DF91CF911F910F910895EF92FF92A4
:102D00000F931F93CF93DF93EC0179014115510588
:102D10006105710511F482E13BC08B85833039F088
:102D200089E0440F551F661F771F8A95D1F79A01D6
:102D3000AB0168E1CE010E943E27882311F084E0B8
:102D400027C08EEF0E94052787018EEFF81AF80141
:102D500081918F010E9405270E151F05C1F78FEF86
:102D60000E9405278FEF0E9405270E940C278A8763
:102D70008F71853031F081E18D83CE010E94FA267A
:102D800008C068E572E0CE019EDF811107C085E1D1
:102D90008D83CE010E94FA2680E013C020E030E04F
:102DA000A9016DE0CE010E943E27811104C00E945E
:102DB0000C27882311F084E1EBCFCE010E94FA2684
:102DC00081E0DF91CF911F910F91FF90EF900895D7
:102DD00080911406882399F1409126025091270290
:102DE000609128027091290226ED3AE08091D60C7C
:102DF0009091D70C83DF811102C080E0089540914B
:102E00001506509116066091170670911806411527
:102E100051056105710589F026ED3AE08091D60CE7
:102E20009091D70C6BDF882341F310921506109216
:102E3000160610921706109218061092140681E0DA
:102E400008958F929F92AF92BF92EF92FF920F934D
:102E50001F93CF934B015C01C42F80912602909168
:102E60002702A0912802B091290288159905AA0588
:102E7000BB05F1F0ADDF811102C080E01FC086ED1F
:102E8000E82E8AE0F82E00E012E020E030E0B50104
:102E9000A4018091D60C9091D70C7BDE882369F336
:102EA0008092260290922702A0922802B0922902D4
:102EB00080911406C82BC093140681E0CF911F9116
:102EC0000F91FF90EF90BF90AF909F908F900895DB
:102ED0004F925F926F927F928F929F92AF92BF922A
:102EE000CF92DF92EF92FF920F931F93CF93DF93D6
:102EF000EC016A017B01280139014230510561056D
:102F0000710510F480E072C089859A85AB85BC8517
:102F10000196A11DB11D84179507A607B70790F369
:102F20008B889C88AD88BE888F89803129F4BB2727
:102F3000AF2D9E2D8D2D09C0DB01CA0147E0B6954E
:102F4000A795979587954A95D1F7880E991EAA1E41
:102F5000BB1E8091260290912702A0912802B09179
:102F6000290288169906AA06BB0679F48F89803152
:102F700099F4DD24EE24FF24C601880F991FFC017B
:102F8000EA52F54F5182408218C040E0C501B401B9
:102F900058DF8111EBCFB6CFE894C7F8DD24EE24DB
:102FA000FF24C601880F991F880F991FFC01EA5260
:102FB000F54F408251826282738280911406816053
:102FC000809314068A89823080F08D819E81AF8142
:102FD000B885880E991EAA1EBB1E80921506909277
:102FE0001606A0921706B092180681E0DF91CF91E5
:102FF0001F910F91FF90EF90DF90CF90BF90AF9017
:103000009F908F907F906F905F904F9008958F92D8
:103010009F92AF92BF92CF92DF92EF92FF920F9367
:103020001F93CF93DF93FC0181859285A385B4859F
:103030000196A11DB11D84179507A607B70710F4C7
:1030400080E05BC083899489A589B689C789C0312E
:1030500029F4852E962EA72EBB2409C04A015B01B8
:10306000C7E0B694A79497948794CA95D1F7E901DD
:103070006A017B018F01BC01CD01680D791D8A1D9C
:103080009B1D8090260290902702A0902802B0906D
:103090002902681579058A059B0599F4F801878945
:1030A0008031A1F4B701A601552766277727440F81
:1030B000551FFA01EA52F54F80819181A0E0B0E0FE
:1030C00017C040E0BEDE8111E9CFBACFB701A6013B
:1030D0004F77552766277727440F551F440F551FF5
:1030E000FA01EA52F54F80819181A281B381BF70CC
:1030F00088839983AA83BB8381E0DF91CF911F915D
:103100000F91FF90EF90DF90CF90BF90AF909F9086
:103110008F9008954F925F926F927F92AF92BF927D
:10312000CF92DF92EF92FF920F931F93CF93DF9393
:1031300000D01F92CDB7DEB78C0149835A836B83D1
:103140007C835901C12CD12C7601412C82E0582E70
:10315000612C712C49815A816B817C819E012F5F8A
:103160003F4FC80154DF882351F1D301C201F80158
:10317000058404C0880F991FAA1FBB1F0A94D2F7A9
:10318000C80ED91EEA1EFB1E49815A816B817C81C3
:103190008789803129F088EF9FEFAFEFBFE004C04F
:1031A00088EF9FEFA0E0B0E0481759076A077B0758
:1031B00088F2F501C082D182E282F38281E00F9031
:1031C0000F900F900F90DF91CF911F910F91FF9073
:1031D000EF90DF90CF90BF90AF907F906F905F9017
:1031E0004F9008958F929F92AF92BF92CF92DF92AD
:1031F000EF92FF920F931F93CF93DF93EC018D819A
:10320000811102C080E076C00B891C892D893E891E
:103210000417150726073707A8F36A017B018230D8
:1032200029F4CA86DB86EC86FD860DC0C114D10464
:10323000E104F10451F41E821F82188619861A8651
:103240001B861C861D8681E055C08A849B84AC84C5
:10325000BD84EB8DFC8D258530E0275F3F4FB501A8
:10326000A4014150510961097109022E04C07695EB
:103270006795579547950A94D2F7D701C6010197EC
:10328000A109B10904C0B695A795979587952A9588
:10329000D2F784179507A607B70720F089288A2850
:1032A0008B2849F44F89588D698D7A8D4E835F83C1
:1032B0006887798704C0841B950BA60BB70B4C015C
:1032C0005D018E010A5F1F4F81149104A104B104B6
:1032D00009F4A7CF4E815F816885798598018B8D30
:1032E0009C8D95DE91E0891A9108A108B1088111A1
:1032F000EBCF88CFDF91CF911F910F91FF90EF908F
:10330000DF90CF90BF90AF909F908F9008953F92A5
:103310004F925F926F927F928F929F92AF92BF92E5
:10332000CF92DF92EF92FF920F931F93CF93DF9391
:10333000CDB7DEB72C970FB6F894DEBF0FBECDBF6A
:103340005C01DC015B968D909C905C971696CD900D
:10335000DD90ED90FC901997C114D104E104F104C3
:1033600039F0BFEFCB1ADB0AEB0AFB0A312C07C09E
:10337000F401C080D180E280F38033243394F401DF
:1033800081859285A385B4859C01AD012F5F3F4F58
:103390004F4F5F4F29873A874B875C87260137015C
:1033A0001D821E821F821886F40181859285A38565
:1033B000B4852D813E814F815885281739074A07EA
:1033C0005B0708F060C089859A85AB85BC858C1544
:1033D0009D05AE05BF0550F482E0C82ED12CE12C2E
:1033E000F12C92E0492E512C612C712C9E012F5F03
:1033F0003F4FB701A601C4010ADE882309F443C088
:1034000089819A81AB81BC81892B8A2B8B2B41F0DE
:10341000260137019FEF491A590A690A790A05C03E
:10342000C414D504E604F70491F02D813E814F8148
:1034300058852F5F3F4F4F4F5F4F2D833E834F8304
:1034400058873FEFC31AD30AE30AF30AADCF0FEF51
:103450001FEF2FEF3FE0B301A201C40139DD882344
:1034600091F0D50116964D915D916D917C911997D2
:10347000411551056105710541F093018201C401B7
:1034800027DD811102C080E02AC0D50116964D9239
:103490005D926D927C921997332051F0D301C20155
:1034A0000196A11DB11DF40180839183A283B38392
:1034B000F5018789908DA18DB28D892B8A2B8B2B5D
:1034C00069F4D50157964D925D926D927C925A9710
:1034D00014968C911497806814968C9381E02C96A6
:1034E0000FB6F894DEBF0FBECDBFDF91CF911F9115
:1034F0000F91FF90EF90DF90CF90BF90AF909F9093
:103500008F907F906F905F904F903F900895CF93F2
:10351000DF93EC018D81882391F18C8187FF2CC092
:103520006E857F858889998941E08BDC882339F114
:10353000EA8980E2E89FF0011124DF01AA52B54F29
:103540001097E9F08D81823050F44B895C896D8948
:103550007E895C964D935D936D937C935F978F8985
:10356000988DA98DBA8DEA52F54F938F828FB58BC6
:10357000A48B8C818F778C83DF91CF9129CC80E0D5
:10358000DF91CF9108958F929F92AF92BF92CF9289
:10359000DF92EF92FF920F931F93CF93DF9300D0B0
:1035A0001F92CDB7DEB77C0180E2689F60011124D5
:1035B00096012A52354FD9011B969C91917121F0A9
:1035C000842F827409F094C0142FF701628B8091CC
:1035D000260290912702A0912802B09129028687A5
:1035E0009787A08BB18BF601EA52F54F4489558934
:1035F00060E070E0BA0155274427D70157964D93F4
:103600005D936D937C935A97828D938DA0E0B0E08B
:10361000482B592B6A2B7B2BD70157964D935D93E3
:103620006D937C935A97D9011B968C91887159F4AC
:10363000848D958DA68DB78DF701838B948BA58B8B
:10364000B68B81E011C0803109F052C097012D5E28
:103650003F4FD7015B968D919C915C975BDD8823F2
:1036600009F446C084E0F7018583812F8F70D7016C
:1036700014968C931497F701168217821086118680
:103680001A961D921D921D921C921D9716FF32C014
:1036900015968C91813061F511FF2AC0F70143899D
:1036A000548965897689452B462B472B09F45CC0E4
:1036B00040E050E0BA01C70195DD8823C9F0F70169
:1036C0008788908CA18CB28CC38CD48C82E090E0E3
:1036D000A0E0B0E0F60180839183A283B3839E01D2
:1036E0002F5F3F4FB501A401C60191DC811104C0D9
:1036F00080E03AC081E038C000E010E09801B501F8
:10370000A401C601E5DB882399F389809A80AB8008
:10371000BC80D60157968C91803129F088EF9FEFBD
:10372000AFEFBFE004C088EF9FEFA0E0B0E08816E5
:103730009906AA06BB0698F2D70157961D921D92CC
:103740001D921C925A97F701138A148A158A168AB9
:10375000848180688483C701DADE882349F240E0EF
:1037600050E0BA01C7013EDD0F900F900F900F900F
:10377000DF91CF911F910F91FF90EF90DF90CF904D
:10378000BF90AF909F908F9008954F925F926F92ED
:103790007F92AF92BF92CF92DF92EF92FF920F9300
:1037A0001F93CF93DF93CDB7DEB72B970FB6F89467
:1037B000DEBF0FBECDBF7C01CE0101966C01FC01C6
:1037C00090E28BE08C0D91938E13FDCFDA0130E007
:1037D00047E09D91992339F19E3219F0E5E7F5E034
:1037E0000AC04A3009F46DC138E04AE0F2CF3196A0
:1037F000891709F466C184918111F9CF431708F440
:1038000060C18FED890F8E3508F05BC181E0830FB9
:10381000F601E30FF11D3FE9390F3A3108F49052F8
:103820009083382FD6CF8981803209F44AC1B22ED5
:103830008B01DB015B968D919C915C97F701948FD6
:10384000838F16961D921D921D921C921997FB0153
:103850001286138614861586712CF801828593854D
:10386000A485B58543895489658976898417950728
:10387000A607B70708F061C025E0B695A79597950C
:1038800087952A95D1F7F82FFF706F2ED8011596DE
:103890008C91823008F415C1C8010E94522897FD0E
:1038A00010C1F80182859385A485B5854F96A11D29
:1038B000B11D82879387A487B587F0E26F9EC00110
:1038C0001124BC016A52754F6115710509F4F9C0E4
:1038D000DB012C91222319F0253EC1F427C0711081
:1038E0000EC0F701628A4091260250912702609132
:1038F00028027091290246875787608B718BFC01E3
:10390000EA52F54F8081811113C015C04BE050E0A1
:10391000C6010E940F93892B09F09FCF8B2D8073D6
:10392000803309F4CEC04B2D662DC8C07720C9F274
:103930007724739492CF772473948B2D8271823184
:1039400009F0BFC07720C9F0D7011E966D917D9117
:103950008D919C91519741E074DA882309F4B1C0AC
:10396000F7016289F0E26F9FB00111246A52754F2E
:103970006115710509F077C0A4C0D80115968C9126
:10398000823009F49EC0C801C2DC882309F499C0C2
:10399000D8015B96ED91FC915C9716964D905D90E9
:1039A0006D907C901997B2E04B1A5108610871082C
:1039B000058404C0440C551C661C771C0A94D2F77D
:1039C00086859785A089B189480E591E6A1E7B1E7F
:1039D000A480E1E04E1A510861087108AA2001F1A3
:1039E000F7D9882309F46DC0E6EDFAE011922CE0D6
:1039F000E63DF207D9F7D301C2018A0D911DA11D41
:103A0000B11D8093260290932702A0932802B093C1
:103A1000290280911406816080931406AA94DECF57
:103A2000D8015B96ED91FC915C9780E092E0A0E07C
:103A3000B0E0058404C0880F991FAA1FBB1F0A9419
:103A4000D2F7F8014389548965897689840F951FD7
:103A5000A61FB71F838B948BA58BB68BD70152966D
:103A60001C9266ED7AE080E2FB0111928A95E9F7FB
:103A70008BE0F601DB0101900D928A95E1F781E27E
:103A800098E2DB0151969C938E93509720E038E0AA
:103A90001F963C932E931E9753969C938E9352970A
:103AA00059969C938E93589757963C932E9356977E
:103AB0008FD9882331F04B2DF7016289C70163DD6F
:103AC00001C080E02B960FB6F894DEBF0FBECDBFCD
:103AD000DF91CF911F910F91FF90EF90DF90CF90EA
:103AE000BF90AF907F906F905F904F900895CF936D
:103AF000DF93EC010CDD882311F01D8281E0DF9162
:103B0000CF9108952F923F924F925F926F927F9242
:103B10008F929F92AF92BF92CF92DF92EF92FF92DD
:103B20000F931F93CF93DF9300D01F92CDB7DEB7D3
:103B30008C015B011A01DC0115968C91159781307F
:103B4000C1F414968C9181FF14C082FF1AC0F80151
:103B5000438954896589768982859385A485B5854D
:103B600084179507A607B70761F0C8013BDB8111F1
:103B700008C081E090E0F8019383828380E090E0C8
:103B800033C1610182C0D8015B968D919C915C9795
:103B9000FC01248121502A013B0139E0769467948D
:103BA000579447943A95D1F7722E74207A01F1E038
:103BB000FF22772009F475C080E092E08E199F09FA
:103BC00046018C159D0508F44C01D8015B962D919A
:103BD0003C915C9716968D919D910D90BC91A02D76
:103BE0000297A109B109F901058404C0880F991F42
:103BF000AA1FBB1F0A94D2F7468557856089718931
:103C0000840F951FA61FB71F9C01AD01270D311D05
:103C1000411D511D29013A01811432E0930609F03A
:103C200085C08091260290912702A0912802B09130
:103C3000290284159505A605B70559F48FEF9FEF66
:103C4000DC018093260290932702A0932802B09370
:103C500029029501B301A2018091D60C9091D70C55
:103C60004DD8882309F485CF9EEFB91AC818D90812
:103C7000F80182859385A485B585880D991DA11DC0
:103C8000B11D82879387A487B587D8011A964D9175
:103C90005D916D917C911D97C114D10409F073CF92
:103CA00083C0E114F10409F087CF16964D915D9120
:103CB0006D917C911997411551056105710559F474
:103CC00057968D919D910D90BC91A02D0097A105C7
:103CD000B10531F520C09E012F5F3F4F98D9882351
:103CE00009F44DCF89819A81AB81BC81F801238D84
:103CF000348DF9012789203129F048EF5FEF6FEF0C
:103D00007FE004C048EF5FEF60E070E08417950744
:103D1000A607B70728F0C801FADA81114DCF29CFDD
:103D2000F80186839783A087B18746CFE114F10419
:103D300021F5D8011A964D915D916D917C911D9759
:103D400053968D919D910D90BC91A02D48175907C8
:103D50006A077B0790F03CD8882309F40ACF409289
:103D600026025092270260922802709229028091C6
:103D7000140681608093140607C041E0C301B201BC
:103D800060D8882309F4F5CED501F701EA52F54F42
:103D9000CF01880D991DE817F90719F02D9121938E
:103DA000FACFA80CB91C62CF53968D919D910D90BE
:103DB000BC91A02D84179507A607B70740F4F8011A
:103DC000438B548B658B768B848180688483D80188
:103DD00014968C9183FD02C0C10106C0C80197DB17
:103DE000882309F4C6CEF8CF0F900F900F900F9054
:103DF000DF91CF911F910F91FF90EF90DF90CF90C7
:103E0000BF90AF909F908F907F906F905F904F90FA
:103E10003F902F900895CF93DF931F92CDB7DEB7D9
:103E2000698341E050E0BE016F5F7F4F6BDE0F9012
:103E3000DF91CF910895611108C080932A02495CF7
:103E4000594F509305094093040981E008958091EA
:103E5000470690E0982F882720914806822B4497A8
:103E60002091650630E044E0359527954A95E1F7C5
:103E7000220F331F220F331F821B930B97FF02C0A9
:103E800080E090E0089520915B06309159063093D0
:103E90005B062093590620915C0630915A063093B8
:103EA0005C0620935A0621E636E0A5E6B6E0F90165
:103EB0004291840F911D4E918C93662311F04083A3
:103EC00001C01082892F992744E04E0F4213F0CF92
:103ED0001092690610926A0680E58093650608953F
:103EE000CF93DF93EB0144E050E0BC0183E596E023
:103EF0000E940F93892B39F46DE476E0CE010E9485
:103F00005D4B81E001C080E0DF91CF9108950F9378
:103F10001F93CF938C018FEB92E00E94A559E7E3AA
:103F2000F6E088E08487C6E0C58748E050E065E8B1
:103F300075E085E496E00E946F97E7E5F6E0DF0123
:103F40001D92CA95E9F769E276E08DE496E00E9459
:103F50005D4BB8018DE596E00E94654B60EF79E01E
:103F600083E596E00E94654B8AE290E0CF911F9135
:103F70000F910C947F5B4F925F926F927F928F9222
:103F80009F92AF92BF92CF92DF92EF92FF920F93E8
:103F90001F93CF93DF93CDB7DEB761970FB6F89439
:103FA000DEBF0FBECDBF60E080E00E941A5DC09012
:103FB0006A09D0906B0960E080E00E941A5DE09091
:103FC0006C09F0906D091C821B8284E293E09A8355
:103FD000898318861E82812C912C5DE6A52E56E0E1
:103FE000B52E00E010E020E46CE6462E69E0562E87
:103FF0008C149D0408F093C0253409F456C034F4A1
:104000002034A1F0243409F44BC085C0283409F4CD
:1040100057C0233509F444C0263409F07CC0A801F8
:104020004F5F5F4FF80184918A0167C0A7014F5F1E
:104030005F4FF7018491882309F471C0843209F03D
:104040005FC03201F2E06F0E711CF2018281938138
:10405000F2E0EF0EF11CFA01249127347CF42534B0
:1040600094F4243409F059C0BE01665F7F4F298B58
:104070000E94DC5C8E01065F1F4F10C0283429F0BF
:10408000233509F04AC08C0148C0682FCE01019643
:10409000298B0E947C5D8E010F5F1F4F29893DC0D7
:1040A000F80180810F5F1F4F28C03801FFEF6F1AA2
:1040B0007F0AC801298B0E942D9A830129891DC07E
:1040C000F801678181E0298B0E941A5DF801478120
:1040D000368190852989431304C08091E909981796
:1040E000D0F4E92FF0E0E555F64F80819F5FF801AD
:1040F00090879F3310F0431363C0811102C00BC03F
:104100007A01F5018083FFEF8F1A9F0AC50101969E
:104110005C01320102C0320120E4230169CF60E07A
:1041200080E00E941A5D00916C0910916D092EE6E5
:10413000E22E29E0F22E34E2A32E33E0B32E412CFE
:10414000512C32014394C8010196F8012491222395
:1041500009F43CC0243211F08C01F5CFF7016081E5
:10416000F2E0EF0EF11C0E5F1F4FFC0184918834CA
:1041700051F71C821B82BA82A982CE0101960E944D
:104180007C5D8E818823F9F2A82FB0E093E0B5958D
:10419000A7959A95E1F7A75EB94F982F9770B3014D
:1041A000A20104C0440F551F661F771F9A95D2F7CE
:1041B0009C91492B4C936FE30E94F45A8E83E1CF7C
:1041C0009091EA09F8019783108697CFF601E35999
:1041D000F94F10828BE780932A02C60161960FB6D1
:1041E000F894DEBF0FBECDBFDF91CF911F910F912D
:1041F000FF90EF90DF90CF90BF90AF909F908F9007
:104200007F906F905F904F9008950F931F93CF937F
:10421000DF93EC0107E316E04C96F801908B818B5D
:104220000E94215ACE010896F80196A387A3AE01F9
:10423000405F5F4F21E06AE188E20E94C959CE01E8
:104240008A96DF91CF911F910F910C947F5BEF9233
:10425000FF920F931F93CF93DF93182F092FEB013A
:10426000F42EE52ECB010E945133BE01882319F0B4
:1042700083E199E002C089E199E00E94B059288168
:10428000207F203E91F088819981AA81BB818F3F58
:104290009F4FAF4FBF4F49F044E050E0BE018FE267
:1042A00096E00E940F93892B31F46FEB72E087E365
:1042B00096E00E945D4B88E080934306109244068E
:1042C00049E050E06DE875E085E496E00E946F9764
:1042D0001092470681E180934E06E0925B06F092D1
:1042E0005C060093590610935A0610925D061092D0
:1042F0005F0610926006DF91CF911F910F91FF90A2
:10430000EF9008950F931F93CF93DF938C018896BE
:10431000C7E3D6E0988B898B0E94215A1AAA1BAA60
:10432000A801445E5F4F22E06AE182E30E94C9591E
:10433000C801C696DF91CF911F910F910C947F5BBE
:10434000262F206120936606643021F0009711F437
:1043500081E090E061E097DD1092470688E280936B
:1043600048060E942F5A84E08093670610926806E0
:1043700022E04CE150E06AE182E30E94C95986E301
:1043800090E00C947F5B8F929F92AF92BF92CF92FE
:10439000DF92EF92FF920F931F93CF93DF9300D0A2
:1043A0001F921F92CDB7DEB77C018091030988234D
:1043B00009F43DC180912806823009F488C030F4A8
:1043C000882381F1813009F44DC031C1833021F05F
:1043D000843009F47CC02BC180900F0990901009A3
:1043E000A0901109B09012092FEF82169206A20632
:1043F000B20609F41CC10E943B4900910B091091BF
:104400000C0920910D0930910E09DC01CB01801BB4
:10441000910BA20BB30B88159905AA05BB0508F0F3
:10442000E1C105C10E943B496093240670932506B3
:1044300080932606909327061092F0091092F109B6
:104440001092F2091092F30980E090E00E94475C1C
:1044500088E30E94155B682F616088E30E94D15A4F
:1044600081E028C062E0C7010E94075C8823A9F1AF
:1044700061E776E0CE0101960E94654BE1E5F7E049
:10448000C701895C994FBF016E5F7F4F21813081E9
:10449000363329F480E296E00E94654B06C0FB01AA
:1044A000E20FF11DE817F90770F3CE0101960E94A3
:1044B000475C82E0809328060E943B49609307098D
:1044C000709308098093090990930A09B0C065E0C8
:1044D000C7010E94075C811119C00E943B490091ED
:1044E0000709109108092091090930910A09DC0196
:1044F000CB01801B910BA20BB30B81319742A1051D
:10450000B10508F494C01092280691C08091060964
:10451000811108C088E30E94155B682F6E7F88E3D5
:104520000E94D15A61E776E080EF99E00E94654BE6
:10453000E1E5F7E0C701895C994F6C018F010E5FDF
:104540001F4FB18080818630A9F048F4813071F02E
:10455000833009F045C0B8018CEF98E00EC08A3373
:1045600079F08F3FD9F18333D9F50AC0B8018CEEC9
:1045700099E003C0B80188EF98E00E94654B30C015
:10458000D801369620E030E0A9018D91742F632F79
:10459000522F44279A01AB01280F311D411D511D97
:1045A000AE17BF0791F720930F093093100940937E
:1045B0001109509312092F3F9FEF390749075907F7
:1045C00079F0A8EEB3E00E94519A60930F097093BE
:1045D0001009809311099093120902C081E001C073
:1045E00080E0F801EB0DF11D811104C0EC15FD0513
:1045F00008F4A4CF0E943B4960930B0970930C0907
:1046000080930D0990930E098091FC08882361F036
:10461000109201091092000981E0809302096CEF69
:1046200078E0CB010E94654B83E080932806E1147B
:10463000F10409F0BCC080910209857051F08091AD
:10464000000990910109892B21F40E94BD5B811121
:10465000CFC08091000990910109019690930109C2
:104660008093000980914B05813009F07BC08091D7
:10467000020981FF77C082E080934B0580912C0274
:104680008F5F80932C02F0904C05E0904D058F7168
:1046900020914A05A0E22A9F90011124182F122B85
:1046A00083EF98E00E94513363EF78E0882319F09C
:1046B00083E199E002C089E199E00E94B05908E0E5
:1046C000009343061092440649E050E06DE875E01F
:1046D00085E496E00E946F978CE28093480686E01E
:1046E00080934E060E94215AE0925B06F0925C068F
:1046F0008BE08093590610935A06EDE5F6E0DF0152
:104700001D920A95E9F780912B0280935F068D5FD9
:1047100080932B0280E68093650682E08093660694
:1047200093E09093670610926806109269061092C3
:104730006A0610926B0610926C0680936D0694E0E8
:1047400090936E0680936F0686E28093700622E057
:1047500040E250E06AE182E30E94C9598AE390E0B6
:104760000E947F5B88EF98E00E945133882349F0D4
:104770008091F708811105C080912109882309F4EF
:1047800040C083EF98E00E945133882309F4ABC006
:10479000809120098111A7C080911F098111A3C0B8
:1047A00083EF98E0B4DB81E080931F099CC0B9E2FD
:1047B000EB16F10408F497C080914306883009F0A5
:1047C00092C080914406863009F087C044E050E0F2
:1047D00060EF79E08DE596E00E940F93892B09F058
:1047E00082C016C080EF99E00E94475C84E062CEF0
:1047F0008CEF98E08CDB809102098860809302093D
:1048000028CF88EF98E083DB81E080932109B9CF3E
:1048100080914C06813029F58DE396E00E94A559E0
:1048200010924B0682E080934C066DE476E087E5BB
:1048300096E00E945D4B69E276E08DE496E00E948E
:104840005D4B63E576E08DE596E00E94654B60EF99
:1048500079E083E596E00E94654B8AE290E00E9451
:104860007F5B8091020983FF0BC010914C061230D0
:1048700039F469E179E08CEF98E032DB811124C0F2
:104880008091F70881110BC080912109882339F0AC
:1048900063E179E088EF98E023DB811118C0809113
:1048A0002009811120C080911F098823E1F063E174
:1048B00079E083EF98E014DB8823A9F081E080930E
:1048C000200910921F090FC010930209D9CF81E06F
:1048D0008093F70810922109E2CF99E2E916F104DA
:1048E00011F0882319F000E010E05BC180914506CB
:1048F0008534C9F744E050E060EF79E085E596E063
:104900000E940F93892BA1F044E050E06FE276E023
:1049100085E596E00E940F93892B51F044E050E02A
:104920006FEB72E085E596E00E940F93892BD9F634
:1049300080914E068130F9F480915906883099F6BD
:10494000E0913506F0913606309719F081E596E052
:1049500019950E942F5A1092590680915B06883F44
:1049600028F090915C069F5F90935C06885F80932F
:104970005B06C701F1C026E3E216F10408F4B3CFE9
:10498000863009F0B0CF80915B068B3009F0A2C071
:1049900044E050E063EF78E081E596E00E940F93F9
:1049A000892B09F0A0CF2091660622FF13C0E09169
:1049B0005005F0915105309759F080915C0620E048
:1049C00030E040E050E063E082958695877019956D
:1049D00085E075C02D833BDA8C0180914B052D81DC
:1049E000823061F5822F807122712231D9F460E02A
:1049F00080E090E0A5DC88E180936606E0914E05BA
:104A0000F0914F05309739F080915A06829586953E
:104A10008770199502C080E090E023E020934B0559
:104A200071DC61CF91E090934B05811103C0C80107
:104A3000019602C080E090E064E04AC0833091F5C6
:104A40000115110591F1E0915005F0915105309754
:104A500061F14091650650E024E0559547952A950F
:104A6000E1F7440F551F440F551FC70108974E5DCE
:104A70005F4F8417950708F4AC01C801840F951F98
:104A8000E816F90620F49701241B350B01C09801A4
:104A900080915C0660E0829586958770199569E043
:104AA000C8010BC0853009F41ECF20FF0BC0833036
:104AB00009F419CF69E0C801019642DC86E08093D1
:104AC0004B0511CF0115110509F40DCF60E0C801A8
:104AD00037DC09CF811107CF80915C06803509F062
:104AE00002CFD0906606D1FE3AC0109247068CE203
:104AF000809348060E942F5A82E18093660660E008
:104B000081E090E0C0D910925D0610925E0680911F
:104B10002B0280935F06109260068D5F80932B02BC
:104B200082E080936D0684E080936E0685E080933A
:104B30006F061092700690E6909365068093670664
:104B400088E78093680622E040E250E06AE182E371
:104B50000E94C9598AE390E00E947F5BC4CED4FED4
:104B6000C2CE75D98C019093340680933306892B7D
:104B700091F00091650610E084E0159507958A95FF
:104B8000E1F7000F111F000F111F0E5D1F4FE01600
:104B9000F10638F4A8CED0FEA6CE60E080E090E02A
:104BA000CFDBC8010F900F900F900F900F90DF9107
:104BB000CF911F910F91FF90EF90DF90CF90BF901A
:104BC000AF909F908F900895DC015996ED91FC91E4
:104BD0005A973097B9F083899489A589B689428517
:104BE000538564857585841B950BA60BB70B8115C2
:104BF00020E89207A105B10538F08FEF9FE7A0E00C
:104C0000B0E0089580E090E00895CF93DF931F9285
:104C1000CDB7DEB76983DC01ED91FC910280F381B1
:104C2000E02D41E050E0BE016F5F7F4F19950F907E
:104C3000DF91CF9108958091F20D90E02091F30DD6
:104C4000821B9109089585ED8093BC008091BC0082
:104C500084FDFCCF1092B30A089540914409262F99
:104C600030E0240F311D21323105DCF42091B30AEC
:104C70002430C9F4FC0180E090E0861758F43091AC
:104C800044092191DC01AE5DB64FA30FB11D2C93F9
:104C90000196F3CF80914409680F6093440980E046
:104CA000089581E0089582E008950895E091F30D5C
:104CB0008091F20DE81730F4F0E0E359F54F808170
:104CC00090E008958FEF9FEF08959091F30D8091FC
:104CD000F20D981750F4E92FF0E0E359F54F2081D9
:104CE00030E09F5F9093F30D02C02FEF3FEFC901BB
:104CF0000895CF92DF92EF92FF920F931F93CF937D
:104D0000DF937C01262F972F8A018091B40A882394
:104D100091F0C62FD72F6E01C40ED51ECC15DD0520
:104D200069F06991D701ED91FC910190F081E02D3E
:104D3000C7011995F3CF642F822F8FDFC801DF9150
:104D4000CF911F910F91FF90EF90DF90CF9008953A
:104D5000CF93DF931F92CDB7DEB769832091B40A5A
:104D60002223D1F02091F00D203240F021E030E0FC
:104D7000FC013383228380E090E014C08091F10D28
:104D8000E82FF0E0EB54F54F998190838F5F80938B
:104D9000F10D8093F00D04C061E0CE0101965DDF5E
:104DA00081E090E00F90DF91CF910895FC01818D1B
:104DB000928D009711F00C94871A0895CF93DF938A
:104DC000EC01898D9A8D009739F481E090E09B8306
:104DD0008A8380E090E00BC0FC01138212820E9463
:104DE000821DE98DFA8D22813381232B71F7DF91AA
:104DF000CF91089561E0FC0184810E948D478091EC
:104E0000690981111092690908958EBD00000DB4E1
:104E100007FEFDCF8EB508958FEFF7CFCF93DF93C9
:104E2000EC018E81882379F08F8198859C012F5F1A
:104E30003F4F38872F838230924010F4EDDFF4CF5C
:104E4000CE01D8DF1E82DF91CF9108958CBD9DBD2C
:104E50000895CF93DF93EC0180916909811108C017
:104E600081E0809369098091A50D9091A60DEEDFF8
:104E700060E08C81DF91CF910C948D47CF92DF92CF
:104E8000FF920F931F93CF93DF9300D01F92CDB764
:104E9000DEB76C01F62E29833A834B835C83BEDF39
:104EA000C601D7DF6CE271E0C6010E9463168F2D48
:104EB0008064ABDF08E110E05C814B813A8129819D
:104EC000DA01C901002E04C0B695A795979587957C
:104ED0000A94D2F729833A834B835C8396DF085088
:104EE000110929813A814B815C81083F8FEF1807B6
:104EF00039F7FF2029F0E8E0FE1204C087E803C07C
:104F000085E901C08FEF81DF10E086DFF60182873F
:104F100087FF04C01F3F11F01F5FF7CF0F900F9066
:104F20000F900F90DF91CF911F910F91FF90DF9025
:104F3000CF900895FC01DB0112968D919C911397FF
:104F4000938382838CEF92E09183808314968C917B
:104F50001497848315968C911597858316964D9199
:104F60005D916D917C911997468357836087718716
:104F70001A964D915D916D917C911D974287538753
:104F8000648775871E964D915D916D917C915197C7
:104F900046875787608B718B52968C915297828B84
:104FA00053964D915D916D917C915697438B548BA7
:104FB000658B768B57964D915D916D917C915A974B
:104FC000478B508F618F728F5B968D919C915C9710
:104FD000948F838F0895DC015996ED91FC915A9737
:104FE000309721F081E09581911101C080E0089512
:104FF000CF93DF93EC01898D9A8D009741F00E9449
:10500000771D898D9A8D0E94BA961A8E198EDF911E
:10501000CF910895FC011382128288EE93E0A0E004
:10502000B0E084839583A683B78386ED92E0918375
:105030008083128E118E14860895EF92FF920F9343
:105040001F93CF93DF93EC017B018A011B821A82AD
:1050500088EE93E0A0E0B0E08C839D83AE83BF83B5
:1050600086ED92E0998388838DE190E00E942596F9
:105070009A8F898F009779F02DE1F701DC0101907B
:105080000D922A95E1F74CE050E0B801CE010C9664
:105090000E942E93188EDF91CF911F910F91FF9058
:1050A000EF9008952F923F924F925F926F927F926E
:1050B0008F929F92AF92BF92CF92DF92EF92FF9228
:1050C0000F931F93CF93DF931F921F92CDB7DEB73D
:1050D000FC018581882309F4D9C0848180FFD6C072
:1050E00021E02A834389548965897689828593855D
:1050F000A485B585481759076A077B0709F41A8202
:105100006F013A81832F90E0DE0111964D013F013E
:10511000B6E06B0E711C892B09F47DC0D6011A967E
:105120004D915D916D917C911D975A01B1E0BB222B
:10513000F60125811A012B0189E056944794379492
:1051400027948A95D1F7838D948D223061F4FC01E8
:10515000828D938DA48DB58DBC01CD01620D731D23
:10516000841D951D45C0DC0114961C91115012211F
:10517000A114B104D1F4111118C0452B462B472BB3
:1051800051F4F6018789908DA18DB28D8683978326
:10519000A087B1870AC046815781608571859301D8
:1051A0000E940718882309F471C0F601238D348DFD
:1051B00086819781A085B1850297A109B109AC01CB
:1051C000BD01F901058404C0440F551F661F771FF8
:1051D0000A94D2F786859785A089B189840F951F97
:1051E000A61FB71FBC01CD01610F711D811D911D4F
:1051F000D60114962C9126FF14C00091260210911E
:105200002702209128023091290260177107820736
:10521000930751F506C0FA81FF23C1F1898190E01F
:1052200037C040E00E942117882381F1F501EA523E
:10523000F54FD401CF010196E817F90719F0219134
:105240002D93FACFEFEF8E1A9E0AF6018285938591
:10525000A485B5850196A11DB11D82879387A4877A
:10526000B58780E090E057CF740101E010E0950130
:10527000AB01BC018091D60C9091D70C0E94C9154E
:10528000882321F0BFEF8B1A9B0ADFCF8FEF9FEFB0
:105290000F900F90DF91CF911F910F91FF90EF90A2
:1052A000DF90CF90BF90AF909F908F907F906F9046
:1052B0005F904F903F902F900895FC01818D928DCB
:1052C000009709F0EFCE8FEF9FEF08950F931F9394
:1052D000CF93DF93FC01818D928D0097B1F0EF01A8
:1052E000E1DE8C010F3F8FEF180791F0898D9A8DC9
:1052F000FC014285538564857585415051096109DA
:1053000071090E94F218C80105C080E090E002C057
:105310008FEF9FEFDF91CF911F910F9108950F9322
:105320001F93CF93DF938C01D1E0D093B40A88E62A
:105330008093D50A1092F10D1092F00D60E084EF89
:105340009DE006DDF8018081CAE06C2F0E94948FF9
:10535000692FF0E18F9F600D112484EF9DE0F8DC50
:10536000F80181816C2F0E94948F692FF0E18F9F4B
:10537000600D112484EF9DE0EBDCF80182816C2F3D
:105380000E94948F692FF0E18F9F600D112484EFAC
:105390009DE0DEDCF80183816C2F0E94948F692FE1
:1053A000F0E18F9F600D112484EF9DE0D1DCF801C6
:1053B00084816C2F0E94948F692FF0E18F9F600D84
:1053C000112484EF9DE0C4DCF80185816C2F0E94DC
:1053D000948F692FF0E18F9F600D112484EF9DE081
:1053E000B7DCF80186818E516C2F0E94948F692F53
:1053F000F0E18F9F600D112484EF9DE0A9DC0E94F5
:105400001542882321F01092180580E003C0D09344
:10541000180581E0DF91CF911F910F9108950F93AF
:105420001F93CF938C01C1E0C093B40A88E68093A8
:10543000D50A1092F10D1092F00D60E084EF9DE01E
:1054400087DC0E941542882319F0109218057BC052
:10545000C093180567E070E088E690E00E94E8429B
:105460008091F20D90E02091F30D821B9109079736
:105470000CF469C084EF9DE028DCC82F86958695E2
:1054800086958E70982F990F990F890F9C2F9F707A
:10549000890FF801808384EF9DE017DC982F9295A7
:1054A0009F708F70FAE09F9F800D1124F801818317
:1054B00084EF9DE00ADC982F9695969596959670C8
:1054C000292F220F220F920F8F70890FF8018283EC
:1054D00084EF9DE0FADB982F92959F708F70FAE031
:1054E0009F9F800D1124F801838384EF9DE0EDDB05
:1054F000982F92959F708F70FAE09F9F800D1124D6
:10550000F801848384EF9DE0E0DB982F92959F70F3
:105510008F70FAE09F9F800D1124F801858384EF3E
:105520009DE0D3DB982F9F70925E82958F70FAE09A
:105530008F9F900D1124F80196838C2F8095881FE2
:105540008827881F01C080E0CF911F910F91089597
:105550004F925F926F927F92AF92BF92CF92DF9203
:10556000EF92FF920F931F93CF93DF93CDB7DEB7E8
:1055700027970FB6F894DEBF0FBECDBFCE010196C0
:105580004EDF882309F4A4C01F81A12FB0E020E8DA
:1055900033E341EE51E00E94519A2B013C01E2EBD2
:1055A000F7E09D0104E610E080E9E82EFF24F39483
:1055B000CF01825B974082179307D4F4CF018370A9
:1055C0009927892B99F4CF01B8010E94B48F892BB8
:1055D00031F4CF01B7010E94B48F892B39F480E8F0
:1055E000480E81E5581E81E0681E711C3196E0CF9F
:1055F0000E8110E02E54384FC90164E670E00E941D
:10560000B48F7C01C90160E971E00E94B48F6C0124
:10561000E1E0F0E0590183E0A822BB24E017F107A4
:105620002CF5E230F10589F4A114B10471F4E11410
:10563000F10419F4C114D10441F480E8480E8BE35D
:10564000581E86E2681E711C0FC0DF01AB53BD4FB0
:10565000AC91B0E020E831E541E050E00E94519A81
:10566000460E571E681E791E3196D8CF4A812B816F
:1056700030E0A0E1BEE00E94839A6B017C01242F00
:1056800030E0ACE3B0E00E94839ADC01CB018C0DEA
:105690009D1DAE1DBF1D29816C017D01C20ED11C57
:1056A000E11CF11CAD81B0E0119720E831E541E04B
:1056B00050E00E945B9ADC01CB018C0D9D1DAE1D5C
:1056C000BF1DBC01CD01640D751D861D971D03C056
:1056D00060E070E0CB0127960FB6F894DEBF0FBEF6
:1056E000CDBFDF91CF911F910F91FF90EF90DF9091
:1056F000CF90BF90AF907F906F905F904F90089544
:105700001F920F920FB60F9211240BB60F922F9388
:105710003F934F935F936F937F938F939F93AF9339
:10572000BF93EF93FF938091B900887F803609F48F
:105730009CC068F5883209F45BC090F4803109F4AC
:1057400054C038F4882309F4F6C0883009F44DC0F9
:10575000F5C0883109F44CC0803209F45DC0EEC058
:10576000803409F468C048F4803309F455C08833A4
:1057700009F0E4C08093B10AD8C0803509F44FC065
:10578000883509F45DC0883409F0D8C0D6C088399E
:1057900009F4C7C0A8F4883709F467C038F488361C
:1057A00009F463C0803709F460C0C8C0883809F4C0
:1057B000B8C0803909F45FC0803809F0BFC05BC051
:1057C000803B09F486C038F4803A09F466C0883A10
:1057D00009F47FC0B3C0803C09F4A7C0883C09F439
:1057E000A4C0883B09F48AC0A9C080918E0A10C069
:1057F0009091B00A8091AF0A981770F5E091B00AC5
:1058000081E08E0F8093B00AF0E0E157F54F808180
:105810008093BB0085EC86C08093B10A8EC0E09176
:10582000B00A81E08E0F8093B00A8091BB00F0E057
:10583000E157F54F80839091B00A8091AF0A6EC016
:10584000E091B00A81E08E0F8093B00A8091BB0096
:10585000F0E0E157F54F80838091B20A81116DC06D
:1058600081E080938D0A84EA61C083E08093B30A6B
:1058700010926809CFCF80916809803208F051C03A
:10588000E091680981E08E0F809368098091BB00E8
:10589000F0E0E85BF64F8083BDCF85EC8093BC00E1
:1058A0001092B30A80916809803230F4E09168095F
:1058B000F0E0E85BF64F10826091680970E0E091DB
:1058C0004609F091470988E499E019951092680912
:1058D00035C084E08093B30A1092450910924409C0
:1058E000E0914209F0914309199580914409811191
:1058F00005C081E08093440910922209E091450996
:1059000081E08E0F80934509F0E0EE5DF64F8081D7
:105910008093BB009091450980914409981708F441
:1059200079CF85E88093BC0009C085EC8093BC00EA
:105930001092B30A03C01092B10A85D9FF91EF917A
:10594000BF91AF919F918F917F916F915F914F9197
:105950003F912F910F900BBE0F900FBE0F901F9095
:1059600018951092B30A81E08093B20A10928D0AC2
:1059700061E084E10E948D4761E085E10E948D47EE
:10598000E9EBF0E080818E7F808380818D7F808352
:1059900088E48093B80085E48093BC0008958F92DA
:1059A0009F92AF92BF92CF92DF92EF92FF92CF93EE
:1059B000DF93A0912A0E882311F03A2F01C030E026
:1059C00080912B0E90E0880F991F8F5F954FC090AC
:1059D000300ED090310EE090320EF090330E40E059
:1059E00050E0BA01FC01C591D49128812A232313E8
:1059F0000FC04A015B012FEF821A920AA20AB20A73
:105A00004C155D056E057F0538F4B501A401EACF9C
:105A1000342F252FCB0104C030E020E080E090E05F
:105A2000632F722FDF91CF91FF90EF90DF90CF9097
:105A3000BF90AF909F908F900895EF92FF920F9339
:105A40001F93CF93DF93EC01423018F08F8588606D
:105A50008F874B8B1C8A80E48D8B6E8B70E0605C33
:105A60007F4F6F8B61E08C810E94BC478D818F3F9F
:105A700019F061E00E94BC4761E08E810E94BC4742
:105A80007E0187E0E80EF11C00E010E08F8584FDC8
:105A900003C084E090E002C088E090E00817190796
:105AA0004CF461E0F70181917F010E94BC470F5FD8
:105AB0001F4FECCF8BE39DE00197F1F760E08C8105
:105AC0000E948D4760E08E810E948D478D818F3FBF
:105AD00019F060E00E948D476F8564FD1DC063E092
