:100000000C9499080C94CB4E0C94A04E0C94754E05
:100010000C944A4E0C941F4E0C94F44D0C94C94D04
:100020000C949E4D0C94CA080C94CA080C94CA08EF
:100030000C94CA080C94CA080C94CA080C94CA08F8
:100040000C94CA080C94CA080C94CA080C94CA08E8
:100050000C94CA080C94CA080C94CA080C94544D09
:100060000C94CA080C943C4B0C94134B0C94CA0887
:100070000C94CA080C94CA080C94CA080C94CA08B8
:100080000C94CA080C94CA080C94CA080C94CA08A8
:100090000C94CA080C94CA080C94CA080C9418440E
:1000A0000C94CA080C94CA080C94CA080C94CA0888
:1000B0000C94CA080C94CA080C94CA080C94CA0878
:1000C0000C94CA080C94CA080C94CA080C94CA0868
:1000D0000C94CA080C94CA080C94CA080C94CA0858
:1000E0000C94CA08522E522EF02ED82F1E305830A3
:1000F00092302F31DE48E148D048D448DA481849D8
:10010000E548E948EF48F348F748FD480149054903
:1001100018490B490F4913492C4C314C364C404C73
:100120004A4CC34C544C5C4C644C6E4C784C824CE6
:10013000914C9B4CC34CA54CAF4CB94C0763423619
:10014000B79BD8A71A39685618AEBAAB558C1D3C68
:10015000B7CC5763BD6DEDFD753EF6177231BF002C
:100160000000803F4F4B00456E636F6465723A003C
:10017000496E69742E204F4B005374696B616C613A
:100180003A2000467265652052414D3A2000467281
:1001900065652052414D002020002E002E002020B9
:1001A0000020525443204F4B0054696D653A00447F
:1001B00053313330372072656164206572726F721B
:1001C0002120205072657665726920706F76657A9D
:1001D0006176652E005468652044533133303720F2
:1001E0006A652075737461766C6A656E2E20507234
:1001F0006F73696D206E61737461766920636173DA
:100200002E00546F6B3A20004B6F6E74726F6C65EA
:10021000722054433A20002020002E002E0020207F
:100220004E61736C65646E6A652070726567726595
:1002300076616E6A653A20002020002E002E005A5A
:1002400061646E6A652070726567726576616E6A58
:10025000653A20000000006572726F720000202075
:1002600000436173206A65206E61737461766C6A05
:10027000656E00204D656E7500436F756E740042AB
:100280007574746F6E207072657373656400204EB0
:100290006F76613A002046616374576569676874D8
:1002A00041766754656D703A0020436F703A2000C4
:1002B00020496E666F2064656C7461546853743AAB
:1002C000200020496E666F2064656C746154684F2D
:1002D0006B3A200020496E666F2064656C7461542F
:1002E000683A2000206B6F6D702E73743A200020E6
:1002F0004E6F7661206B6F6D702E6F6B3A20002011
:10030000746B6F6D7053743A200020746B6F6D7056
:10031000303A20002072756E2074696D6528682956
:100320003A20002074656D70206F6B6F6C69636597
:100330002073743A200020496E666F2063616C2E32
:1003400028737461727454656D70293A2000204CD2
:100350006173743A00204B6F6D702E73743A0020F5
:100360004C6173743A00204B6F6D702E6F6B3A00C6
:10037000204C6173743A0020482E677265743A000D
:10038000496E666F202D2000205A61706972616D80
:100390002076656E74696C00204F64706972616DBF
:1003A0002076656E74696C2000434F2120003C006C
:1003B0003E0035563328457272293A20002D200020
:1003C0002D20002D200052656654656D704230303E
:1003D000202D2052656654656D70423031202D20ED
:1003E00054656D70497A6B6C6F7061202D2070724E
:1003F0006576437270544353746174653A200027E4
:10040000002F0027002D003A0054002D002F002F50
:1004100000290028002F00290028003A0054002D50
:100420000050726567726576616E6A65204F4B0099
:1004300029002F002F0028003A0054004F464600A4
:100440004B005600202D3E2000002941002F00289F
:1004500000204928313256293A0029002F0020284F
:10046000004120434F3A004F4646004B00560025BE
:1004700000432020006B5641680056416800294126
:1004800020002F002800204928313276293A0029FF
:10049000002F0028002920434F3A002D002D3E0058
:1004A0002D0020280020546920002054763A002F87
:1004B000002F004F6E2074696D653A2000292000DE
:1004C00041280020546F6B3A20002D004D696E2D9D
:1004D0004D6178286C6173742068293A20006D732F
:1004E0002000293A2000204176672E6379636C65ED
:1004F00054696D65286E3D0029003E0028003A00D1
:10050000205248610056200050200029003E00285B
:10051000003A0020546100205020002045200000B7
:100520000108000604000100504F535420244620C7
:10053000485454502F312E300D0A486F73743A20AE
:1005400024460D0A244624534163636570743A209F
:100550002A2F2A0D0A436F6E74656E742D4C656EDA
:100560006774683A2024440D0A436F6E74656E7494
:100570002D547970653A206170706C69636174699B
:100580006F6E2F782D7777772D666F726D2D757260
:100590006C656E636F6465640D0A0D0A2453004731
:1005A0004554202446245320485454502F312E3093
:1005B0000D0A486F73743A2024460D0A24460D0A2A
:1005C0000D0A004500008200004000207C3C3E5E99
:1005D0002B3D3F2F5B5D3B2C2A225C0063825363E3
:1005E00078587858785878580078587858785878E3
:1005F00058005A61646E6A6520707265677265762C
:10060000616E6A653A200054692000547620004FDC
:100610004646004B004100546F6B3A00434F3A008E
:100620004F4646004B0056002500432052483A00F2
:10063000205344204F4B00534420436172643A00DE
:10064000457272457072526542754C650045727212
:100650004570526542752000457272457057725060
:100660006720004163636570743A20746578742F65
:1006700068746D6C00000020002300260029002C07
:10068000002F0032000001000003010601090105EE
:10069000050505070508080808020202020A0A08FB
:1006A0000804040404010101010101010103030321
:1006B0000303030303040707070C0C0C0C0C0C0CBE
:1006C0000C0202020206060606060606060B0B0BC5
:1006D0000B0B0B0B0B010210202008081020401000
:1006E00020408002010201080402010102040810F6
:1006F0002040808040201008040201800402018014
:10070000402010080402010804020101020408103C
:100710002040800102040810204080E30004FA0019
:10072000010000000120497A6B6F6C7020637270C9
:100730002E207261646961746F720020566B6C6F59
:1007400070206372702E207261646961746F720030
:1007500020497A6B6C6F7020637270616C6B6520DE
:1007600054430020566B6C6F7020637270616C6B29
:100770006520544300005EBCE2613FDD83C29C7E85
:1007800020A3FD1F419DC3217FFCA2401E5F01E30A
:10079000BD3E6082DC237D9FC1421CFEA0E1BF5DA7
:1007A0000380DE3C62BEE0025CDF81633D7C22C0F0
:1007B0009E1D43A1FF4618FAA427799BC584DA3809
:1007C00066E5BB5907DB856739BAE406581947A5C2
:1007D000FB7826C49A653BD987045AB8E6A7F91B6B
:1007E00045C6987A24F8A6441A99C7257B3A6486A8
:1007F000D85B05E7B98CD2306EEDB3510F4E10F2D5
:10080000AC2F7193CD114FADF3702ECC92D38D6F71
:1008100031B2EC0E50AFF1134DCE90722C6D33D13E
:100820008F0C52B0EE326C8ED0530DEFB1F0AE4C57
:100830001291CF2D73CA947628ABF517490856B498
:10084000EA6937D58B5709EBB536688AD495CB2939
:1008500077F4AA4816E9B7550B88D6346A2B7597F2
:10086000C94A14F6A8742AC896154BA9F7B6E80A1F
:1008700054D7896B35204400000021002400270054
:100880002A002D003000330001010000040107019F
:100890000A0100002200250028002B002E00310054
:1008A000340002010000050108010B0100000A0BE1
:1008B00002090C0D0E0807030401000000000000EF
:1008C0000000000000000000000000000000000028
:1008D00000000000000000001211100000000000E5
:1008E0000000000000000000000000000000000008
:1008F00000000F000F000F000F000F000F0011008D
:100900001300160019001E001E001900190019001E
:100910001C001E0020001E001C001B0019001400FB
:100920000F00CDCC4C3ECDCC4C3ECDCC4C3ECDCCB6
:100930004C3ECDCC4C3ECDCC4C3ECDCC4C3ECDCC2B
:100940004C3ECDCC4C3ECDCC4C3ECDCC4C3ECDCC1B
:100950004C3ECDCC4C3ECDCC4C3ECDCC4C3ECDCC0B
:100960004C3ECDCC4C3ECDCC4C3ECDCC4C3ECDCCFB
:100970004C3ECDCC4C3ECDCC4C3ECDCC4C3ECDCCEB
:100980004C3E1E001E001E001E001E001E001C000D
:100990000F000C000D000F001100130015001400D3
:1009A00012000F000C000E001000120016001E00B6
:1009B0001E006461794C69676874536176696E677B
:1009C0003A003A20002020004164647265733A00C6
:1009D0003A20002020004164647265733A00202FA1
:1009E000200066616374576569676874417667546F
:1009F000656D703A200043206A6520004B6F6D7072
:100A0000656E7A2E207A616365746E652074656DFB
:100A1000702E207072692074656D702E2000202F5A
:100A200020004B6F6D702E73742E3A200043206AA5
:100A30006520004B6F6D70656E7A2E2074656D7049
:100A40002E206F6B6F6C696365207072692074650E
:100A50006D702E2000202F20004B6F6D702E6F6B5D
:100A60002E3A20004B2F6800202F20004869722E5C
:100A700020677265743A20002020002E002E00208E
:100A80004E61736C65646E6A65207072656772652D
:100A900076616E6A653A20002020002E002E005AF2
:100AA00061646E6A652070726567726576616E6AF0
:100AB000653A200022707265765443537461746500
:100AC00022206E61737461766C6A656E6F206E6150
:100AD00020002020002E002E004C6173742054430F
:100AE000206368673A200073004F6E54696D653A61
:100AF00020002900202D2000202800202000497AF5
:100B00006B6C2E206B6F6D70722E54433A2000492F
:100B10007A6B6C2E2076656E742E54433A20004911
:100B20007A6B6C2E20637270616C6B6520726164ED
:100B30002E3A2000497A6B6C2E637270616C6B6583
:100B40002054433A20005A61702E2076656E7469F5
:100B50006C613A20002900202D2000202800202050
:100B600000566B6C2E206B6F6D70722E54433A20C2
:100B700000566B6C2E2076656E742E54433A20001E
:100B8000566B6C2E20637270616C6B6520726164B1
:100B90002E3A2000566B6C2E20637270616C6B6570
:100BA0002054433A20004F64702E2076656E74699D
:100BB0006C613A200020436F703A200020446F623D
:100BC0006C6A656E6F20284D4A293A2000205570C6
:100BD0007261626C6A656E6F20284D5773293A20E6
:100BE00000205A61632E20506F72616261206B5643
:100BF000413A2000206661637457656967687441F3
:100C0000766754656D703A20002C20002C20002956
:100C10003D20002C20002C2000204B6F6D702E7387
:100C2000742E74656D702E202800205A61646E6ADF
:100C3000613A200020466163742E7A61632E7465E8
:100C40006D703A20002C20002C2000293D20002C23
:100C500020002C2000204B6F6D702E6F6B20280021
:100C6000207A61646E6A613A200020466163742EC6
:100C70006B6F6D702E6F6B2E3A2000205A61646E80
:100C80006A613A2000204E6F76613A20004869740C
:100C9000726F737420677265746A613A2000496EDE
:100CA000666F202D200073742F68006D696E202000
:100CB000486974722E673A200020204F6E3A002057
:100CC0002000497A6B6C6F702054433A2000290051
:100CD000202800202000566B6C6F702054433A206F
:100CE000000056202D003A003A002D004D696E2E6E
:100CF0002D6D61783A003A206E692044533138787E
:100D000032302066616D696C79206465766963654F
:100D10002E003A20445331383232003A20445331C5
:100D200038423230003A2044533138533230005484
:100D3000656D702E2073656E736F7220005374653D
:100D400076696C6F2044532073656E6F73726A65A9
:100D50007621210053746576696C6F2044532073AB
:100D6000656E6F73726A65762121003000204B2D0D
:100D7000747970652073656E7A6F72003A00300086
:100D80005420002044485432322073656E7A6F72CA
:100D9000003A0030005420004E6170616B612044C5
:100DA000485432322073656E7A6F726A6121210075
:100DB0004E6170616B612044485432322073656E1D
:100DC0007A6F726A612121003A003000542000538A
:100DD000746576696C6F2073656E7A6F726A65767A
:100DE0000053746576696C6F2074656D702E207386
:100DF000656E7A6F726A6576207365206E65207500
:100E00006A656D6121210020646576696365732ED2
:100E10000029002F002800203356333A0029002FE4
:100E2000002800203556333A0029002F00280020E2
:100E30003556323A0029002F002800203132563A28
:100E40000029002F0028002035496E3A00284572FD
:100E5000722920002035496E3A002073756365734E
:100E6000733A2000444E53206661696C6564006EDD
:100E700074702E73696F6C2E6E6574004574682EE5
:100E80002066697277617265207265763A20004645
:100E900061696C656420746F20616363657373209E
:100EA00045746865726E657420636F6E74726F6CE2
:100EB0006C657200660074002069734C696E6B5536
:100EC000703A0064656C6179636E743A2000666103
:100ED0006C736500706572736973745F7463705FBF
:100EE000636F6E6E656374696F6E3A200066616C45
:100EF00073650074727565005573652044484350EE
:100F00003A2000486973706F72743A20002063625F
:100F10002E455252002063622E426164200020441C
:100F20003A002F6A736F6E2E68746D0020443A0089
:100F30002F6A736F6E2E68746D0020443A002F6A1A
:100F4000736F6E2E68746D0020443A002F6A736FC1
:100F50006E2E68746D0020443A002F6A736F6E2EF7
:100F600068746D0020443A002F6A736F6E2E6874A7
:100F70006D0020443A002F6A736F6E2E68746D0006
:100F800020443A002F6A736F6E2E68746D002066DD
:100F90007265654D656D6F72793A0020443A002F95
:100FA0006A736F6E2E68746D0020497A6B6C6F7077
:100FB000206B6F6D707265736F726A6120544300AD
:100FC00020497A6B6C6F702076656E742E206B6F83
:100FD0006D707265736F726A612054430020566BA6
:100FE0006C6F702076656E742E206B6F6D707265FD
:100FF000736F726A612054430020566B6C6F7020CF
:101000006B6F6D707265736F726A6120544300205C
:10101000434572003000204C4344204F4B003000C9
:101020004572724570526542752000457272457076
:1010300057724279200000407A10F35A00A0724E95
:1010400018090010A5D4E80000E87648170000E46D
:101050000B54020000CA9A3B000000E1F5050000B5
:1010600080969800000040420F000000A08601001A
:101070000000102700000000E803000000006400EA
:10108000000000000A000000000001000000000055
:101090002C76D888DC674F0823DFC1DFAE59E1B179
:1010A000B796E5E3E453C63AE651997696E8E6C288
:1010B0008426EB898C9B62ED407C6FFCEFBC9C9F8F
:1010C00040F2BAA56FA5F490055A2AF75C936B6CB1
:1010D000F9676DC11BFCE0E40D47FEF520E6B500A5
:1010E000D0ED902E0300943577050080841E080013
:1010F00000204E0A000000C80C333333330F986EC3
:1011000012831141EF8D2114893BE65516CFFEE67F
:10111000DB18D1844B381BF77C1D901DA4BBE42445
:10112000203284725E228100C9F124ECA1E53D27C2
:10113000A58C11241FBECFEFD1E2DEBFCDBF00E0F2
:101140000CBF15E0A0E0B2E0E4EFF1E301E00BBF7B
:1011500002C007900D92A433B107D9F72FE0A4E3A2
:10116000B5E001C01D92A937B207E1F718E0C9E95F
:10117000D8E000E006C021970109802FFE010E94FF
:101180000E8EC839D10780E00807A9F70E94EC75D8
:101190000C94F8980C9400002F923F924F925F921B
:1011A0006F927F928F929F92AF92BF92CF92DF9277
:1011B000EF92FF920F931F93CF93DF93CDB7DEB7DC
:1011C000CB54D1090FB6F894DEBF0FBECDBF8BEC68
:1011D0009CE00E9485490E949745AB01BC01CE016D
:1011E00001960E947046BE016F5F7F4F8BEC9CE0C2
:1011F0000E94DE4A64E474E08BEC9CE00E94DF4ACB
:1012000025E23CE02A963FAF2EAF2A976901E12CF8
:10121000F12C00916B0F10916C0FE016F1060CF0A1
:10122000D1C16AE374E08BEC9CE00E94DF4A3FEF9F
:10123000E31AF30A4AE050E0B7018BEC9CE00E940D
:10124000944A68E374E08BEC9CE00E94DF4AF6016C
:1012500041915191619171916F0122E030E08BECED
:101260009CE00E94934AF2E0EF16F10409F0A3C15A
:1012700066E374E08BEC9CE00E94DF4A0E946446C7
:10128000880F991F8C01085D1F4F42E050E066E413
:1012900079E0C8010E94173662E070E080E090E0DB
:1012A0000E94104D609146097091470980E090E0DE
:1012B0000E94498F20E030E048EC52E40E947F8E8B
:1012C00020E030E048E452E40E94168E9B01AC011D
:1012D0006091290C70912A0C80912B0C90912C0C10
:1012E0000E94168EAB01BC0140932E0650932F0630
:1012F000609330067093310622E030E08BEC9CE086
:101300000E94934A4090290C50902A0C60902B0C1C
:1013100070902C0C609146097091470980E090E034
:101320000E94498F4B015C0120E030E048EC52E420
:10133000C301B2010E9494909B01AC01C501B401AC
:101340000E94168E20E030E048E452E40E94178E9E
:101350004B015C0120E030E0A9010E9420901816AA
:101360005CF420E030E040E85FE3C501B4010E9496
:10137000209018165CF030C020E030E040E85FEBD1
:10138000C501B4010E947B8E87FF26C02AE037ED9D
:1013900043EA5BE3C301B2010E94178E20E030E014
:1013A00048E452E40E94178E20E030E048EC52E41A
:1013B0000E9494900E941D8F709347096093460984
:1013C00062E070E080E090E00E94104D42E066E450
:1013D00079E0C8010E947B3562E070E080E090E037
:1013E0000E94104D64E374E08BEC9CE00E94DF4AA5
:1013F0008090530590905405A0905505B0905605E7
:10140000A501940160E070E080E89FE30E94168EE1
:1014100020917405309175054091760550917705BE
:101420000E9494902B013C012091290C30912A0CB0
:1014300040912B0C50912C0CC501B4010E9494904A
:101440009B01AC01C301B2010E94178EAB01BC012C
:1014500040937405509375056093760570937705F6
:1014600022E030E08BEC9CE00E94934A62E374E05F
:101470008BEC9CE00E94DF4A8090C70D9090C80DD5
:10148000A090C90DB090CA0DA501940160E070E074
:1014900080E89FE30E94168E209122023091230261
:1014A00040912402509125020E9494902B013C010E
:1014B00020912E0630912F06409130065091310632
:1014C000C501B4010E9494909B01AC01C301B2011B
:1014D0000E94178EAB01BC0140932202509323025D
:1014E000609324027093250222E030E08BEC9CE0B4
:1014F0000E94934A60E374E08BEC9CE00E94DF4A18
:1015000020E030E040E752E460913206709133060B
:1015100080913406909135060E94209087FD3BC053
:1015200020E030E040E752E4609174057091750569
:1015300080917605909177050E947B8E87FF2BC066
:101540000E9497456093490570934A0580934B0527
:1015500090934C056093BA057093BB058093BC05CE
:101560009093BD0562E070E080E090E00E94104D35
:1015700044E06AEB75E089E190E00E947B3562E02F
:1015800070E080E090E00E94104D61E274E08BEC2E
:101590009CE00E94DF4A8091740590917505A091AE
:1015A0007605B09177058093320690933306A09329
:1015B0003406B09335066FE174E08BEC9CE00E943A
:1015C000DF4A27CE9801220F331F220F331F2696A2
:1015D0003FAF2EAF2697212C312CE0906B0FF0906F
:1015E0006C0F2FEFE21AF20A0E151F050CF001C264
:1015F0006DE174E08BEC9CE00E94DF4A68013FEFF4
:10160000C31AD30A4AE050E0B6018BEC9CE00E947A
:10161000944A6BE174E08BEC9CE00E94DF4A2696D2
:10162000EEADFFAD2697E20DF31DEB5DF34F40816C
:1016300051816281738122E030E08BEC9CE00E945A
:10164000934A88E0C816D10409F0B3C069E174E098
:101650008BEC9CE00E94DF4A0E946446880F991F31
:101660007C01E0EAEE0EF11C42E050E066E479E035
:10167000C7010E94173662E070E080E090E00E94AF
:10168000104D609146097091470980E090E00E94FA
:10169000498F20E030E048EC52E40E947F8E20E049
:1016A00030E048E452E40E94168E9B01AC01609148
:1016B000410C7091420C8091430C9091440C0E941B
:1016C000168EAB01BC0122E030E08BEC9CE00E9466
:1016D000934A4090410C5090420C6090430C7090A3
:1016E000440C609146097091470980E090E00E94A7
:1016F000498F4B015C0120E030E048EC52E4C3012B
:10170000B2010E9494909B01AC01C501B4010E94FA
:10171000168E4B015C0120E030E0A9010E94209070
:1017200018165CF420E030E040E85FE3C501B40146
:101730000E94209018165CF030C020E030E040E8B5
:101740005FEBC501B4010E947B8E87FF26C02AE0B3
:1017500037ED43EA5BE3C301B2010E94178E20E03C
:1017600030E048E452E40E94178E20E030E048EC7C
:1017700052E40E9494900E941D8F709347096093D9
:10178000460962E070E080E090E00E94104D42E087
:1017900066E479E0C7010E947B3562E070E080E09A
:1017A00090E00E94104D67E174E08BEC9CE00E9499
:1017B000DF4A65E174E08BEC9CE00E94DF4A809197
:1017C0006B0F90916C0FF801E81BF90BEE0FFF1FE8
:1017D000EE0FFF1FE75BF04F408151816281738103
:1017E00022E030E08BEC9CE00E94934A63E174E0DD
:1017F0008BEC9CE00E94DF4A0E946446880F991F90
:101800007C01F8EEEF1AFEEFFF0A42E050E066E4DA
:1018100079E0C7010E94173662E070E080E090E056
:101820000E94104D80916B0F90916C0F5801A81A77
:10183000B90AC501880F991F880F991F9C01275B62
:10184000304F5901609146097091470980E090E05E
:101850000E94498F20E030E048EC52E40E947F8EE5
:101860009B01AC01F50160817181828193810E94AD
:10187000168EAB01BC0122E030E08BEC9CE00E94B4
:10188000934A80916B0F90916C0FF801E81BF90B54
:10189000EE0FFF1FEE0FFF1FE75BF04F4080518000
:1018A00062807380609146097091470980E090E002
:1018B0000E94498F4B015C0120E030E048EC52E48B
:1018C000C301B2010E9494909B01AC01C501B40117
:1018D0000E94168E4B015C0120E030E0A9010E94BD
:1018E000209018165CF420E030E040E85FE3C5018A
:1018F000B4010E94209018165CF02AC020E030E06D
:1019000040E85FEBC501B4010E947B8E87FF20C0D9
:101910002AE037ED43EA5BE3C301B2010E94178E70
:1019200020E030E048EC52E40E9494900E941D8F29
:10193000709347096093460962E070E080E090E0B0
:101940000E94104D42E066E479E0C7010E947B35B9
:1019500062E070E080E090E00E94104D61E174E090
:101960008BEC9CE00E94DF4A6FE074E08BEC9CE023
:101970000E94DF4A80916B0F90916C0FF801E81B79
:10198000F90BEE0FFF1FEE0FFF1FE959F04F4081DB
:1019900051816281738122E030E08BEC9CE00E94F7
:1019A000934A6DE074E08BEC9CE00E94DF4A8091EA
:1019B0006B0F90916C0FF801E81BF90BEE0FFF1FF6
:1019C000EE0FFF1FED59F04F40815181628173810D
:1019D00022E030E08BEC9CE00E94934A6BE074E0E4
:1019E0008BEC9CE00E94DF4AF4E02F0E311C860154
:1019F000F4CD6701CC0CDD1CCC0CDD1C00E010E04C
:101A000080916B0F90916C0F0296E816F90674F5B1
:101A100069E074E08BEC9CE00E94DF4A3FEFE31A40
:101A2000F30A4AE050E0B7018BEC9CE00E94944A34
:101A300067E074E08BEC9CE00E94DF4AF801EC0D5B
:101A4000FD1DEB5DF34F408151816281738122E086
:101A500030E08BEC9CE00E94934A65E074E08BECF4
:101A60009CE00E94DF4A0C5F1F4FCACF809120028A
:101A7000811106C062E474E08BEC9CE00E94DF4AB6
:101A80008091D805813039F480911F02811109C0FD
:101A900060E474E002C06CE374E08BEC9CE00E94B4
:101AA000DF4A60EE72E08BEC9CE00E94DE4A4AE086
:101AB00050E06091D3058BEC9CE00E94984961E076
:101AC00070E080912002882311F060E070E04AE02D
:101AD00050E08BEC9CE00E94944A61E070E08091C1
:101AE0001F02882311F060E070E04AE050E08BECC8
:101AF0009CE00E94944A4AE050E06091CE058BEC55
:101B00009CE00E9498494AE050E0609116028BECFC
:101B10009CE00E9498494AE050E0609173058BEC8C
:101B20009CE00E94984961E070E08091DD05909111
:101B3000DE05892B11F060E070E04AE050E08BECAC
:101B40009CE00E94944A60EE72E08BEC9CE00E9464
:101B5000DE4A42E050E0609182058BEC9CE00E94FE
:101B6000984960EE72E08BEC9CE00E94DE4A609146
:101B70007805709179054AE050E08BEC9CE00E947A
:101B8000944A0E94AA3A882319F06BE175E002C0DA
:101B900067E175E08BEC9CE00E94DF4A6091B7053D
:101BA0007091B8054AE050E08BEC9CE00E94944AAA
:101BB0000E94974530E1C32E3EE0D32EE12CF12C5C
:101BC000A70196010E94C79849015A016091D90561
:101BD0007091DA058091DB059091DC05A7019601F3
:101BE0000E94C798281539054A055B0508F0F2C21E
:101BF0008BEC9CE00E94854989EB9EE026969FAF86
:101C00008EAF2697E5E2FCE02C96FFAFEEAF2C9767
:101C100000E010E0E090EF0EF090F00E0E151F05C2
:101C20000CF04BC1C8010E94A5681C0162E070E085
:101C300080E090E00E94104D42E050E066E479E0E0
:101C4000C1010E94173662E070E080E090E00E94DF
:101C5000104D63E175E08BEC9CE00E94DF4A0F5F62
:101C60001F4F4AE050E0B8018BEC9CE00E94944A80
:101C700061E175E08BEC9CE00E94DF4A6FE075E06B
:101C80008BEC9CE00E94DF4A609146097091470905
:101C900080E090E00E94498F20E030E048EC52E480
:101CA0000E947F8E20E030E048E452E40E94168ECD
:101CB000AB01BC0122E030E08BEC9CE00E94934A37
:101CC0006DE075E08BEC9CE00E94DF4AA10160E0D2
:101CD00070E02AE08BEC9CE00E9431496BE075E0FB
:101CE0008BEC9CE00E94DF4A02301105E9F58091FF
:101CF0001D0C90911E0CA0911F0CB091200C809394
:101D0000210C9093220CA093230CB093240C80916F
:101D1000190C90911A0CA0911B0CB0911C0C809383
:101D20001D0C90931E0CA0931F0CB093200C80915F
:101D3000290C90912A0CA0912B0CB0912C0C809323
:101D4000190C90931A0CA0931B0CB0931C0C0E94BE
:101D5000F332882319F068E075E002C065E075E0B1
:101D60008BEC9CE00E94DF4A2C96EEADFFAD2C97E9
:101D7000C190D190E190F1902C96FFAFEEAF2C97EF
:101D8000609146097091470980E090E00E94498F78
:101D900020E030E048EC52E40E947F8E20E030E00A
:101DA00048E452E40E94168E2B013C019B01AC01D9
:101DB000C701B6010E94168E4B015C0120E030E0A5
:101DC000A9010E94209018165CF42AE037ED43E246
:101DD0005CE3C501B4010E94209018165CF052C06B
:101DE0002AE037ED43E25CEBC501B4010E947B8E33
:101DF00087FF48C0A30192012696EEADFFAD26975E
:101E000060817181828193810E94168E4B015C01F9
:101E10002AE037ED43EA5BE3C701B6010E94178E63
:101E200020E030E048E452E40E94178E20E030E0E9
:101E300048EC52E40E9494900E941D8F70934709D1
:101E400060934609A7019601C501B4010E94178E4F
:101E50002696EEADFFAD26976083718382839383D0
:101E600062E070E080E090E00E94104D42E066E4A5
:101E700079E0C1010E947B3562E070E080E090E093
:101E80000E94104D2696EEADFFAD2697619171919F
:101E9000819191912696FFAFEEAF269720E030E03A
:101EA00048E253E40E946D3AAB01BC0122E030E00D
:101EB0008BEC9CE00E94934AADCEC701880F991F1E
:101EC000880F991F9C012754314F69018091EF0EB3
:101ED0009091F00E8E159F050CF4F4C08BEC9CE0F5
:101EE0000E948549C7010E94A5688C0142E050E02C
:101EF00066E479E00E94173660E075E08BEC9CE0C8
:101F00000E94DF4A8091EF0E9091F00EB701681B9E
:101F1000790B6F5F7F4F4AE050E08BEC9CE00E94B2
:101F2000944A6EEF74E08BEC9CE00E94DF4A6CEF09
:101F300074E08BEC9CE00E94DF4A6091460970914E
:101F4000470980E090E00E94498F20E030E048ECB3
:101F500052E40E947F8EAB01BC0122E030E08BECAA
:101F60009CE00E94934A6AEF74E08BEC9CE00E9434
:101F7000DF4AA80160E070E02AE08BEC9CE00E9460
:101F8000314968EF74E08BEC9CE00E94DF4A80915D
:101F9000EF0E9091F00EF701E81BF90BEE0FFF1F0B
:101FA000EE0FFF1FE75BF04F80809180A280B3802F
:101FB000609146097091470980E090E00E94498F46
:101FC00020E030E048EC52E40E947F8E28966CAF0F
:101FD0007DAF8EAF9FAF28979B01AC01C501B401C7
:101FE0000E94168E2B013C0120E030E0A9010E94E6
:101FF000209018165CF42AE037ED43E25CE3C3015D
:10200000B2010E94209018165CF044C02AE037ED1F
:1020100043E25CEBC301B2010E947B8E87FF3AC0B2
:1020200028962CAD3DAD4EAD5FAD2897F601608191
:102030007181828193810E94168E2B013C012AE0DE
:1020400037ED43EA5BE3C501B4010E94178E20E03F
:1020500030E048EC52E40E9494900E941D8F7093EF
:10206000470960934609A5019401C301B2010E948A
:10207000178EF601608371838283938342E066E466
:1020800079E0C8010E947B3562E070E080E090E07A
:102090000E94104DF60161917191819191916F01B2
:1020A00020E030E048E253E40E946D3AAB01BC010D
:1020B00022E030E08BEC9CE00E94934AFFEFEF1AA5
:1020C000FF0A04CF8BEC9CE00E94854966EE74E029
:1020D0008BEC9CE00E94DF4A4091E8055091E905B5
:1020E0006091EA057091EB052AE030E08BEC9CE012
:1020F0000E94794962EE74E08BEC9CE00E94DF4A1A
:10210000C090E805D090E905E090EA05F090EB0575
:102110006091EC057091ED058091EE059091EF05D1
:10212000C114D104E104F10489F00E94498F4B01EC
:102130005C01C701B6010E94498F9B01AC01C5013A
:10214000B4010E947F8EAB01BC0104C040E050E0AE
:1021500060E87FEB22E030E08BEC9CE00E94934A49
:102160006EED74E08BEC9CE00E94DF4A6CEC74E056
:102170008BEC9CE00E94DF4A4091E0055091E10524
:102180006091E2057091E3052AE030E08BEC9CE081
:102190000E9479496AEC74E08BEC9CE00E94DF4A73
:1021A0004091E4055091E5056091E6057091E705E1
:1021B0002AE030E08BEC9CE00E9479491092E40523
:1021C0001092E5051092E6051092E7058BEC9CE075
:1021D0000E948549CE014C960E94D91BCE01C7961C
:1021E0000E94AD5C43E1BE01695C7F4FCE01019668
:1021F0000E948057BE016F5F7F4FCE014C960E94B8
:102200005757CE014C960E94BB1B882309F45BC133
:102210000E949745AB01BC01CE01C7960E94704653
:10222000BE01695C7F4FCE014C960E94DE4A60EE93
:1022300072E0CE014C960E94DE4A0E949745AB01A7
:10224000BC012AE030E0CE014C960E94794900E0C2
:1022500010E08091EF0E9091F00E08171907DCF452
:1022600060EE72E0CE014C960E94DE4A2A96EEADF8
:10227000FFAD2A9741915191619171912A96FFAFDB
:10228000EEAF2A9722E030E0CE014C960E94934AAE
:102290000F5F1F4FDECF00916B0F10916C0F80917D
:1022A0006B0F90916C0F8017910734F161E774E028
:1022B000CE014C960E94DF4A80916B0F90916C0F7B
:1022C000F801E81BF90BEE0FFF1FEE0FFF1FE75B96
:1022D000F04F408151816281738122E030E0CE0174
:1022E0004C960E94934A6FE674E0CE014C960E9491
:1022F000DF4A0F5F1F4FD3CF60EE72E0CE014C96E6
:102300000E94DE4A80912002811106C06DE674E0D1
:10231000CE014C960E94DF4A8091D805813039F475
:1023200080911F02811109C06BE674E002C067E66C
:1023300074E0CE014C960E94DF4A60EE72E0CE015E
:102340004C960E94DE4A60E080E00E941E62AB0173
:10235000BC0123E030E0CE014C960E94934A61E636
:1023600074E0CE014C960E94DF4A60918305709123
:1023700084054AE050E0CE014C960E94944A6EE5F6
:1023800074E0CE014C960E94DF4AC0908F05D09039
:102390009005E0909105F090920560919305709101
:1023A00094058091950590919605C114D104E1049E
:1023B000F10489F00E94498F4B015C01C701B6010D
:1023C0000E94498F9B01AC01C501B4010E947F8E20
:1023D000AB01BC0104C040E050E060E87FEB23E0CB
:1023E00030E0CE014C960E94934A6CE574E0CE0139
:1023F0004C960E94DF4A60918D0570918E054AE0EF
:1024000050E0CE014C960E94944A6AE574E0CE01F9
:102410004C960E94DF4A61E574E0CE014C960E9422
:10242000DF4A0E946C61AB01BC0122E030E0CE01CA
:102430004C960E94934A6FE474E0CE014C960E9441
:10244000DF4A60919B0570919C0580919D0590915C
:102450009E050E94498F9B01AC0160919F05709180
:10246000A0058091A1059091A2050E946D3AAB0153
:10247000BC0124E030E0CE014C960E94934A6DE40A
:1024800074E0CE014C960E94DF4A4091970550912E
:1024900098056091990570919A0522E030E0CE018F
:1024A0004C960E94934A6AE474E0CE014C960E94D6
:1024B000DF4A69E474E0CE014C960E94034BCE01E2
:1024C0004C960E94C81B64E670E080E090E00E9499
:1024D000104D63EC74E08BEC9CE00E94DF4A61E0FD
:1024E00081E00E941E62AB01BC0140931702509331
:1024F00018026093190270931A0222E030E08BEC0C
:102500009CE00E94934A60EC74E08BEC9CE00E949B
:10251000DF4AC090C605D090C705E090C805F0908E
:10252000C90520E030E04AE754E4C701B6010E9443
:10253000209087FD2DC020E030E04AE754E4C70139
:10254000B6010E947F8E6B017C0120E030E048ECF8
:1025500052E40E94209018161CF421E030E00FC0D5
:1025600020E030E040E251E4C701B6010E94209033
:1025700018161CF422E030E002C023E030E0B7017E
:10258000A6018BEC9CE00E94934A65E774E024C0AE
:1025900020E030E048EC52E4C701B6010E942090F0
:1025A00018161CF421E030E00FC020E030E040E2DB
:1025B00051E4C701B6010E94209018161CF422E0D5
:1025C00030E002C023E030E0B701A6018BEC9CE0D4
:1025D0000E94934A6AE774E08BEC9CE00E94DF4A19
:1025E0006DEB74E08BEC9CE00E94DF4A8BEC9CE08E
:1025F0000E946A4863EB74E08BEC9CE00E94DF4A27
:102600008091D305811109C06091AF057091B0052B
:102610008091B1059091B2051CC0813051F5C090F8
:10262000AF05D090B005E090B105F090B2050E94E2
:1026300097450091D4051091D5052091D60530918C
:10264000D705C01AD10AE20AF30A6C0D7D1D8E1D52
:102650009F1D0E94498F20E030E041E655E40E9432
:102660007F8EAB01BC0122E030E08BEC9CE00E944D
:10267000934A61EB74E08BEC9CE00E94DF4A80910E
:10268000CE05811109C06091890570918A058091FC
:102690008B0590918C051AC0C0908905D0908A0551
:1026A000E0908B05F0908C050E94974500917E0587
:1026B00010917F052091800530918105C01AD10AC3
:1026C000E20AF30A6C0D7D1D8E1D9F1D0E94498F2D
:1026D00020E030E041E655E40E947F8EAB01BC0172
:1026E00022E030E08BEC9CE00E94934A6FEA74E0B9
:1026F0008BEC9CE00E94DF4A80917305811109C038
:102700006091850570918605809187059091880577
:102710001AC0C0908505D0908605E0908705F0909E
:1027200088050E94974500917A0510917B052091BC
:102730007C0530917D05C01AD10AE20AF30A6C0DBE
:102740007D1D8E1D9F1D0E94498F20E030E041E6D7
:1027500055E40E947F8EAB01BC0122E030E08BEC9F
:102760009CE00E94934A8BEC9CE00E9485496AEAB7
:1027700074E08BEC9CE00E94DF4A0E94A03BAB011E
:10278000BC0123E030E08BEC9CE00E94934A65EAB8
:1027900074E08BEC9CE00E94DF4A0E94F93AAB01A6
:1027A000BC0121E030E08BEC9CE00E94934A62EA9D
:1027B00074E08BEC9CE00E94DF4A0E94E83CAB0195
:1027C000BC0121E030E08BEC9CE00E94934A60EA7F
:1027D00074E08BEC9CE00E94DF4A0E948A3CAB01D3
:1027E000BC0121E030E08BEC9CE00E94934A6DE953
:1027F00074E08BEC9CE00E94DF4A80E00E9422564D
:10280000AB01BC0121E030E08BEC9CE00E94934ADC
:102810006BE974E08BEC9CE00E94DF4A81E00E944F
:102820002256AB01BC0121E030E08BEC9CE00E9421
:10283000934A65E974E08BEC9CE00E94DF4A60916A
:102840008305709184054AE050E08BEC9CE00E9487
:10285000944A63E974E08BEC9CE00E94DF4AC090EC
:102860008F05D0909005E0909105F09092056091D1
:102870009305709194058091950590919605C114EA
:10288000D104E104F10489F00E94498F4B015C01FD
:10289000C701B6010E94498F9B01AC01C501B4017B
:1028A0000E947F8EAB01BC0104C040E050E060E8B4
:1028B0007FEB23E030E08BEC9CE00E94934A61E9DF
:1028C00074E08BEC9CE00E94DF4A60918D05709172
:1028D0008E054AE050E08BEC9CE00E94944A6FE841
:1028E00074E08BEC9CE00E94DF4A60EE72E08BECBF
:1028F0009CE00E94DE4A60914E0570914F054AE0CF
:1029000050E08BEC9CE00E94944A66E874E08BEC0B
:102910009CE00E94DF4A0E946C61AB01BC0122E096
:1029200030E08BEC9CE00E94934A64E874E08BEC0E
:102930009CE00E94DF4A60919B0570919C0580910C
:102940009D0590919E050E94498F9B01AC0160916D
:102950009F057091A0058091A1059091A2050E940C
:102960006D3AAB01BC0124E030E08BEC9CE00E94AE
:10297000934A62E874E08BEC9CE00E94DF4A40914D
:102980009705509198056091990570919A0522E0FC
:1029900030E08BEC9CE00E94934A6EE774E08BEC95
:1029A0009CE00E94DF4A81E00E94D66481E00E94A0
:1029B000234FC55BDF4F0FB6F894DEBF0FBECDBF10
:1029C000DF91CF911F910F91FF90EF90DF90CF900B
:1029D000BF90AF909F908F907F906F905F904F903F
:1029E0003F902F900895DC015996ED91FC915A97F4
:1029F0003097B9F083899489A589B6894285538532
:102A000064857585841B950BA60BB70B811520E893
:102A10009207A105B10538F08FEF9FE7A0E0B0E085
:102A2000089580E090E00895CF93DF931F92CDB793
:102A3000DEB76983DC01ED91FC910280F381E02D2A
:102A400041E050E0BE016F5F7F4F19950F90DF911D
:102A5000CF910895CF93DF93EC018D818823A1F16D
:102A60008C8187FF2DC06E857F858889998941E09B
:102A70000E94B128882341F1EA8980E2E89FF001B1
:102A80001124DF01A95EB54F1097F1F08D818230DE
:102A900050F44B895C896D897E895C964D935D937A
:102AA0006D937C935F978F89988DA98DBA8DE95E20
:102AB000F54F938F828FB58BA48B8C818F778C830E
:102AC000DF91CF910C94762880E0DF91CF9108952B
:102AD000FC01818D928D009709F0BCCF08958F92F3
:102AE0009F92AF92BF92CF92DF92EF92FF920F939D
:102AF0001F93CF93DF93EC018D81811102C080E0A1
:102B000077C00B891C892D893E8904171507260774
:102B10003707A8F36A017B01823029F4CA86DB8675
:102B2000EC86FD860DC0C114D104E104F10451F41A
:102B30001E821F82188619861A861B861C861D8691
:102B400081E056C08A849B84AC84BD84EB8DFC8D6F
:102B5000258530E0275F3F4FB501A4014150510961
:102B600061097109022E04C07695679557954795BE
:102B70000A94D2F7D701C6010197A109B10904C08F
:102B8000B695A795979587952A95D2F784179507B7
:102B9000A607B70720F089288A288B2849F44F898F
:102BA000588D698D7A8D4E835F836887798704C0DD
:102BB000841B950BA60BB70B4C015D018E010A5FC0
:102BC0001F4F81149104A104B10409F4A7CF4E81D1
:102BD0005F816885798598018B8D9C8D0E949829ED
:102BE00091E0891A9108A108B1088111EACF87CF35
:102BF000DF91CF911F910F91FF90EF90DF90CF90D9
:102C0000BF90AF909F908F9008958F929F92AF92B8
:102C1000BF92CF92DF92EF92FF920F931F93CF93C9
:102C2000DF9300D01F92CDB7DEB77C0180E2689FB2
:102C3000600111249601295E354FD9011B969C91A4
:102C4000917121F0842F827409F096C0142FF7013E
:102C5000628B8091280290912902A0912A02B09162
:102C60002B0286879787A08BB18BF601E95EF54F23
:102C70004489558960E070E0BA0155274427D7019F
:102C800057964D935D936D937C935A97828D938D58
:102C9000A0E0B0E0482B592B6A2B7B2BD70157962D
:102CA0004D935D936D937C935A97D9011B968C91AC
:102CB000887159F4848D958DA68DB78DF701838B1E
:102CC000948BA58BB68B81E012C0803109F054C083
:102CD00097012D5E3F4FD7015B968D919C915C973C
:102CE0000E941B2A882309F447C084E0F7018583EA
:102CF000812F8F70D70114968C931497F701168249
:102D00001782108611861A961D921D921D921C9292
:102D10001D9716FF33C015968C91813069F511FF10
:102D20002BC0F7014389548965897689452B462B49
:102D3000472B09F45EC040E050E0BA01C701CFDE86
:102D40008823D1F0F7018788908CA18CB28CC38C3A
:102D5000D48C82E090E0A0E0B0E0F6018083918323
:102D6000A283B3839E012F5F3F4FB501A401C6012B
:102D70000E949829811104C080E03BC081E039C0E5
:102D800000E010E09801B501A401C6010E94F928F5
:102D9000882391F389809A80AB80BC80D6015796B6
:102DA0008C91803129F088EF9FEFAFEFBFE004C036
:102DB00088EF9FEFA0E0B0E088169906AA06BB0650
:102DC00088F2D70157961D921D921D921C925A9718
:102DD000F701138A148A158A168A8481806884838D
:102DE000C70138DE882341F240E050E0BA01C70154
:102DF00076DE0F900F900F900F90DF91CF911F9183
:102E00000F91FF90EF90DF90CF90BF90AF909F9089
:102E10008F900895CF93DF93EC011CDE882311F08F
:102E20001D8281E0DF91CF9108953F924F925F9292
:102E30006F927F928F929F92AF92BF92CF92DF92CA
:102E4000EF92FF920F931F93CF93DF93CDB7DEB72F
:102E50002C970FB6F894DEBF0FBECDBF5C01DC012E
:102E60005B968D909C905C971696CD90DD90ED9042
:102E7000FC901997C114D104E104F10439F0BFEFBB
:102E8000CB1ADB0AEB0AFB0A312C07C0F401C08025
:102E9000D180E280F38033243394F40181859285DC
:102EA000A385B4859C01AD012F5F3F4F4F4F5F4F0E
:102EB00029873A874B875C87260137011D821E824E
:102EC0001F821886F40181859285A385B4852D81A2
:102ED0003E814F815885281739074A075B0708F05C
:102EE00063C089859A85AB85BC858C159D05AE052B
:102EF000BF0550F482E0C82ED12CE12CF12C92E0D9
:102F0000492E512C612C712C9E012F5F3F4FB70130
:102F1000A601C4010E949829882309F445C089812B
:102F20009A81AB81BC81892B8A2B8B2B41F02601A6
:102F300037019FEF491A590A690A790A05C0C41472
:102F4000D504E604F70491F02D813E814F81588528
:102F50002F5F3F4F4F4F5F4F2D833E834F835887E7
:102F60003FEFC31AD30AE30AF30AACCF0FEF1FEF08
:102F70002FEF3FE0B301A201C4010E94F92888238A
:102F800099F0D50116964D915D916D917C911997AF
:102F9000411551056105710549F093018201C40194
:102FA0000E94F928811102C080E02AC0D50116963E
:102FB0004D925D926D927C921997332051F0D3011E
:102FC000C2010196A11DB11DF40180839183A283EA
:102FD000B383F5018789908DA18DB28D892B8A2BC2
:102FE0008B2B69F4D50157964D925D926D927C9230
:102FF0005A9714968C911497806814968C9381E05C
:103000002C960FB6F894DEBF0FBECDBFDF91CF91E7
:103010001F910F91FF90EF90DF90CF90BF90AF90F6
:103020009F908F907F906F905F904F903F9008950A
:103030008FB7F894809137068FBF089561E0FC0147
:1030400084810E949A4B8091360681111092360637
:1030500008958EBD00000DB407FEFDCF8EB5089516
:103060008FEFF7CF0F931F93CF93DF93EB010E9466
:10307000484D8B01F5DF8F3F49F00E94484D601BA2
:10308000710B6C177D07B0F380E001C081E0DF9128
:10309000CF911F910F910895CF93DF93EC018E8113
:1030A000882379F08F8198859C012F5F3F4F388767
:1030B0002F838230924010F4D3DFF4CFCE01BEDFF5
:1030C0001E82DF91CF9108958CBD9DBD0895CF9351
:1030D000DF93EC0180913606811108C081E0809376
:1030E00036068091680D9091690DEEDF60E08C816D
:1030F000DF91CF910C949A4BCF92DF92FF920F9376
:103100001F93CF93DF9300D01F92CDB7DEB76C0132
:10311000F62E29833A834B835C83BEDFC601D7DF5B
:103120006CE271E0C6019EDF8F2D806492DF08E1C2
:1031300010E05C814B813A812981DA01C901002EBE
:1031400004C0B695A795979587950A94D2F72983D9
:103150003A834B835C837DDF0850110929813A81D2
:103160004B815C81083F8FEF180739F7FF2029F06A
:10317000E8E0FE1204C087E803C085E901C08FEFD4
:1031800068DF10E06DDFF601828787FF04C01F3F14
:1031900011F01F5FF7CF0F900F900F900F90DF91FE
:1031A000CF911F910F91FF90DF90CF900895AF9234
:1031B000BF92CF92DF92EF92FF920F931F93CF9324
:1031C000DF93EC016901C801820F931F81309240A7
:1031D00008F06AC08E81882371F088819981AA8164
:1031E000BB81481759076A077B0729F48F819885A7
:1031F000C816D90698F5488359836A837B838B85E3
:10320000833039F089E0440F551F661F771F8A9578
:10321000D1F79A01AB0161E1CE016EDF882319F08D
:1032200083E08D8341C00E94484D5B0119DF8A878E
:103230008F3F49F40E94484D6A197B096D327140F5
:10324000A8F38FE003C08E3F29F08DE08D83CE017F
:10325000F5DE2AC018861F8281E08E838F819885D3
:103260008C159D0538F4FCDE8F8198850196988732
:103270008F83F4CF6701E00EF11ECE14DF0429F036
:10328000EFDEF60181936F01F8CF8F819885080FEB
:10329000191F18870F838985882319F0011512409B
:1032A00038F0CE01F9DE04C0CE01C8DE80E001C0F6
:1032B00081E0DF91CF911F910F91FF90EF90DF9010
:1032C000CF90BF90AF900895EF92FF920F931F930E
:1032D000CF93DF93EC01790141155105610571052B
:1032E00011F482E134C08B85833039F089E0440FDA
:1032F000551F661F771F8A95D1F79A01AB0168E1C8
:10330000CE01FADE882311F084E021C08EEFA1DE29
:1033100087018EEFF81AF80181918F019ADE0E1560
:103320001F05C9F78FEF95DE8FEF93DE99DE8A8751
:103330008F71853029F081E18D83CE017FDE08C059
:1033400068E572E0CE018EDE811106C085E18D83D5
:10335000CE0174DE80E010C020E030E0A9016DE015
:10336000CE01CADE811103C07BDE882311F084E127
:10337000EECFCE0163DE81E0DF91CF911F910F91FF
:10338000FF90EF9008952F923F924F925F926F922D
:103390007F928F929F92AF92BF92CF92DF92EF92E5
:1033A000FF920F931F93CF93DF9300D01F92CDB75F
:1033B000DEB78C015B011A01DC0115968C91159723
:1033C0008130C1F414968C9181FF14C082FF1AC021
:1033D000F801438954896589768982859385A48516
:1033E000B58584179507A607B70761F0C80177DB95
:1033F000811108C081E090E0F8019383828380E02E
:1034000090E036C1610182C0D8015B968D919C919C
:103410005C97FC01248121502A013B0139E076941C
:103420006794579447943A95D1F7722E74207A0195
:10343000F1E0FF22772009F475C080E092E08E1958
:103440009F0946018C159D0508F44C01D8015B9637
:103450002D913C915C9716968D919D910D90BC910C
:10346000A02D0297A109B109F901058404C0880FB4
:10347000991FAA1FBB1F0A94D2F7468557856089FA
:103480007189840F951FA61FB71F9C01AD01270DE1
:10349000311D411D511D29013A01811432E093066D
:1034A00009F086C08091280290912902A0912A02F9
:1034B000B0912B0284159505A605B70559F48FEF39
:1034C0009FEFDC018093280290932902A0932A02A7
:1034D000B0932B029501B301A2018091170C90913A
:1034E000180CF2DE882309F485CF9EEFB91AC818AC
:1034F000D908F80182859385A485B585880D991D25
:10350000A11DB11D82879387A487B587D8011A961C
:103510004D915D916D917C911D97C114D10409F07D
:1035200073CF86C0E114F10409F087CF16964D9150
:103530005D916D917C91199741155105610571055A
:1035400059F457968D919D910D90BC91A02D0097A7
:10355000A105B10539F521C09E012F5F3F4F0E94A3
:103560009829882309F44CCF89819A81AB81BC8149
:10357000F801238D348DF9012789203129F048EF96
:103580005FEF6FEF7FE004C048EF5FEF60E070E057
:1035900084179507A607B70728F0C80146DC8111F4
:1035A0004CCF28CFF80186839783A087B18745CF7A
:1035B000E114F10429F5D8011A964D915D916D91B0
:1035C0007C911D9753968D919D910D90BC91A02D4E
:1035D000481759076A077B0798F00E9476288823C6
:1035E00009F408CF409228025092290260922A02E0
:1035F00070922B028091380981608093380908C04D
:1036000041E0C301B2010E94B128882309F4F2CE3F
:10361000D501F701E95EF54FCF01880D991DE81737
:10362000F90719F02D912193FACFA80CB91C5FCF9F
:1036300053968D919D910D90BC91A02D8417950767
:10364000A607B70740F4F801438B548B658B768B44
:10365000848180688483D80114968C9183FD02C094
:10366000C10106C0C801F6D9882309F4C3CEF8CF3A
:103670000F900F900F900F90DF91CF911F910F91AE
:10368000FF90EF90DF90CF90BF90AF909F908F9082
:103690007F906F905F904F903F902F900895CF93C1
:1036A000DF93EC01898D9A8D009739F481E090E0E9
:1036B0009B838A8380E090E00AC0FC01138212821F
:1036C00062DEE98DFA8D22813381232B79F7DF9138
:1036D000CF910895FC01DB0112968D919C91139777
:1036E000938382838AEF92E09183808314968C91F6
:1036F0001497848315968C911597858316964D9112
:103700005D916D917C91199746835783608771878E
:103710001A964D915D916D917C911D9742875387CB
:10372000648775871E964D915D916D917C9151973F
:1037300046875787608B718B52968C915297828BFC
:1037400053964D915D916D917C915697438B548B1F
:10375000658B768B57964D915D916D917C915A97C3
:10376000478B508F618F728F5B968D919C915C9788
:10377000948F838F0895DC015996ED91FC915A97AF
:10378000309721F081E09581911101C080E008958A
:10379000CF93DF93EC01898D9A8D009739F03ADB56
:1037A000898D9A8D0E9429951A8E198EDF91CF915D
:1037B0000895FC011382128288EE93E0A0E0B0E04D
:1037C00084839583A683B78381EC92E09183808381
:1037D000128E118E14860895EF92FF920F931F930D
:1037E000CF93DF93EC017B018A011B821A8288EE62
:1037F00093E0A0E0B0E08C839D83AE83BF8381EC37
:1038000092E0998388838DE190E00E9494949A8F4E
:10381000898F009779F02DE1F701DC0101900D927D
:103820002A95E1F74CE050E0B801CE010C960E94D9
:103830008391188EDF91CF911F910F91FF90EF90A0
:1038400008952F923F924F925F926F927F928F9244
:103850009F92AF92BF92CF92DF92EF92FF920F931F
:103860001F93CF93DF931F921F92CDB7DEB7FC015A
:103870008581882309F4D8C0848180FFD5C021E0E8
:103880002A83438954896589768982859385A485AD
:10389000B585481759076A077B0709F41A826F0133
:1038A0003A81832F90E0DE0111964D013F01B6E091
:1038B0006B0E711C892B09F47DC0D6011A964D91AF
:1038C0005D916D917C911D975A01B1E0BB22F6018B
:1038D00025811A012B0189E0569447943794279447
:1038E0008A95D1F7838D948D223061F4FC01828D0D
:1038F000938DA48DB58DBC01CD01620D731D841D0A
:10390000951D45C0DC0114961C9111501221A11483
:10391000B104D1F4111118C0452B462B472B51F49B
:10392000F6018789908DA18DB28D86839783A087BC
:10393000B1870AC0468157816085718593010E94D5
:103940009829882309F470C0F601238D348D86816F
:103950009781A085B1850297A109B109AC01BD018C
:10396000F901058404C0440F551F661F771F0A9490
:10397000D2F786859785A089B189840F951FA61FE8
:10398000B71FBC01CD01610F711D811D911DD601B5
:1039900014962C9126FF14C0009128021091290240
:1039A00020912A0230912B0260177107820793073A
:1039B00051F506C0FA81FF23B9F1898190E036C044
:1039C00040E00E94B128882379F1F501E95EF54FC6
:1039D000D401CF010196E817F90719F021912D9331
:1039E000FACFEFEF8E1A9E0AF60182859385A485A1
:1039F000B5850196A11DB11D82879387A487B587E0
:103A000080E090E057CF740101E010E09501AB0138
:103A1000BC018091170C9091180CC9DB882321F010
:103A2000BFEF8B1A9B0AE0CF8FEF9FEF0F900F90A5
:103A3000DF91CF911F910F91FF90EF90DF90CF908A
:103A4000BF90AF909F908F907F906F905F904F90BE
:103A50003F902F900895FC01818D928D009709F081
:103A6000F0CE8FEF9FEF08950F931F93CF93DF93C7
:103A7000FC01818D928D0097A9F0EF01E2DE8C01AF
:103A80000F3F8FEF180789F0898D9A8DFC014285D1
:103A900053856485758541505109610971091FD8A5
:103AA000C80105C080E090E002C08FEF9FEFDF917A
:103AB000CF911F910F9108958091690690E0982F02
:103AC000882720916A06822B44972091870630E050
:103AD00044E0359527954A95E1F7220F331F220FD1
:103AE000331F821B930B97FF02C080E090E0089584
:103AF00020917D0630917B0630937D0620937B06D6
:103B000020917E0630917C0630937E0620937C06C1
:103B100023E836E0A7E8B6E0F9014291840F911D51
:103B20004E918C93662311F0408301C01082892F3F
:103B3000992744E04E0F4213F0CF10928B0610925B
:103B40008C0680E5809387060895CF93DF93EB0181
:103B500044E050E0BC0185E796E00E945691892B35
:103B600039F46FE676E0CE010E941B4F81E001C080
:103B700080E0DF91CF910895BC0189E596E00E9435
:103B80001B4F61E476E08FE596E00C941B4F0F939A
:103B90001F93CF93DF9389019091BC09891751F04E
:103BA000E091BD09F091BE0940E050E060E070E0B6
:103BB00084E029C0611128C02D30310528F1C09161
:103BC000BD09D091BE092097F9F0BA016E59794F1D
:103BD00043E050E089E793E00E9475916091870689
:103BE00070E024E0759567952A95E1F7660F771FD9
:103BF000660F771F6E5D7F4F21E0892B09F420E06F
:103C0000A801822FFE01199580E0DF91CF911F91CD
:103C10000F9108950F931F93CF93DF93CDB7DEB726
:103C200028970FB6F894DEBF0FBECDBF1C821B8253
:103C300022E333E03A8329832FE836E03E832D8365
:103C400038872F839091BC09891357C0A091BF0971
:103C5000B091C0090091C4091091C3097091C809BD
:103C60006091C709AE014F5F5F4F1097C9F4809113
:103C7000C2098F938091C1098F930F931F938091F5
:103C8000C6098F938091C5098F937F936F938FE9B6
:103C900095E09F938F935F934F930E94F22628C0E5
:103CA0008091C1099091C209FD0101900020E9F7BE
:103CB0003197EA1BFB0B009719F02DE733E004C0A6
:103CC0002FE733E087E295E0BF93AF93FF93EF9345
:103CD0003F932F939F938F930F931F937F936F9394
:103CE00088E295E09F938F935F934F930E94F22613
:103CF0000FB6F894DEBF0FBECDBF8F8198852D81A2
:103D00003E81821B930B28960FB6F894DEBF0FBE40
:103D1000CDBFDF91CF911F910F910895FB0140819D
:103D2000518162817381FC0140835183628373837B
:103D300008950F931F93CF938C018FEC92E01CDFBB
:103D4000E9E5F6E088E08487C6E0C58748E050E012
:103D50006FE175E087E696E00E94DE95E9E7F6E020
:103D6000DF011D92CA95E9F761E476E08FE696E0FF
:103D70000E941B4FB8018FE796E0D0DF63E17AE045
:103D800085E796E0CBDF8AE290E0CF911F910F911B
:103D9000EBC6CF93DF931F921F92CDB7DEB7698337
:103DA0007A83EADE69817A8187E796E0B7DF63E1AB
:103DB0007AE083E796E00F900F90DF91CF91AECF3E
:103DC000EF92FF920F931F93CF93DF93182F092F3A
:103DD000EB01F42EE52ECB010E949534BE01882321
:103DE00019F08DE496E002C083E596E0D2DF2881E9
:103DF000207F203E91F088819981AA81BB818F3FED
:103E00009F4FAF4FBF4F49F044E050E0BE0187E401
:103E100096E00E945691892B31F46FEC72E089E5AF
:103E200096E00E941B4F88E080936506109266061C
:103E300049E050E063EC75E087E696E00E94DE958D
:103E40001092690681E180937006E0927D06F092FF
:103E50007E0600937B0610937C0610927F061092DC
:103E6000810610928206DF91CF911F910F91FF90F2
:103E7000EF9008950F931F93CF93DF9370E0675AED
:103E8000794F213021F48A01075F1F4F0CC0223087
:103E900039F000E010E09801DB011196EA0106C05C
:103EA0008A010250110920E030E0F6CFC230D1057E
:103EB00078F0FD013197E081F0E0FE2FEE279C9134
:103EC000E92B0E0F1F1F211D311D22971296EECFD9
:103ED000FA01EE7FE60FF71F40FF0CC0408150E073
:103EE00060E070E0762F652F542F4427040F151FD4
:103EF000261F371FA9016627772741155105610540
:103F0000710519F022273327F1CF00951095E82F7E
:103F1000F0E0E75AF94F10830183DF91CF911F91B1
:103F20000F910895E9E5F6E0108E118E80E4848B00
:103F3000158A868B20E044E150E06EE088E19ACF5C
:103F40000F931F93CF93DF93EC0109E516E04C9696
:103F5000F801908B818BE6DFCE010896F80196A3DD
:103F600087A3AE01405F5F4F21E06AE188E282DF14
:103F7000CE018A96DF91CF911F910F91F5C58FE504
:103F800096E0FADD63E776E087E796E0C7DE63E177
:103F90007AE083E796E0C2DEC5CF262F206120932A
:103FA0008806643021F0009711F481E090E061E030
:103FB0009FDD1092690688E280936A06E0DF84E064
:103FC0008093890610928A0622E04CE150E06AE173
:103FD00082E350DF86E390E0C7C58F929F92AF9255
:103FE000BF92CF92DF92EF92FF920F931F93CF93E6
:103FF000DF9300D01F921F92CDB7DEB77C01809176
:104000002509882309F430C180914006823009F4E3
:1040100081C030F4882381F1813009F44AC024C181
:10402000833021F0843009F475C01EC180902F09BF
:1040300090903009A0903109B09032092FEF82168C
:104040009206A206B20609F40FC10E94484D0091E3
:104050002B0910912C0920912D0930912E09DC019A
:10406000CB01801B910BA20BB30B88159905AA05F8
:10407000BB0508F0CFC1F8C00E94484D60933C06D4
:1040800070933D0680933E0690933F061092130A6C
:104090001092140A1092150A1092160A80E090E00D
:1040A000F4D588E3E3D4682F616088E3BCD481E071
:1040B00024C062E0C701A9D5882389F163E976E0CD
:1040C000CE0101962BDEE3E7F7E0C701875A994F4F
:1040D000BF016E5F7F4F21813081363321F488E349
:1040E00096E01CDE06C0FB01E20FF11DE817F907A0
:1040F00078F3CE010196C9D582E0809340060E94F4
:10410000484D60932709709328098093290990935B
:104110002A09AAC065E0C70178D5811119C00E949B
:10412000484D0091270910912809209129093091C3
:104130002A09DC01CB01801B910BA20BB30B81314F
:104140009742A105B10508F48FC0109240068CC0BB
:1041500080912609811106C088E388D4682F6E7F7C
:1041600088E361D463E976E083E19AE0D7DDE3E7B1
:10417000F7E0C701875A994F6C018F010E5F1F4FFF
:10418000B18080818630A9F048F4813071F08330AD
:1041900009F044C0B8018EE199E00EC08A3371F095
:1041A0008F3FD1F18333D1F509C0B8018FE09AE098
:1041B00003C0B8018AE199E0B1DD30C0D80136967C
:1041C00020E030E0A9018D91742F632F522F4427F6
:1041D0009A01AB01280F311D411D511DAE17BF07BC
:1041E00091F720932F093093300940933109509370
:1041F00032092F3F9FEF39074907590779F0A8EE99
:10420000B3E00E94B79860932F09709330098093B0
:1042100031099093320902C081E001C080E0F801C9
:10422000EB0DF11D811104C0EC15FD0508F4A5CFBF
:104230000E94484D60932B0970932C0980932D099F
:1042400090932E0980911E09882359F0109223091A
:104250001092220981E0809324096EE179E0CB017C
:104260005DDD83E080934006E114F10409F0B7C0FE
:1042700080912409857049F0809122099091230949
:10428000892B19F4AFD48111CAC080912209909171
:104290002309019690932309809322098091B509FF
:1042A000813009F077C08091240981FF73C082E0DA
:1042B0008093B509809127028F5F80932702F09049
:1042C000B609E090B7098F712091B409A0E22A9F46
:1042D00090011124182F122B85E199E00E9495344A
:1042E00065E179E0882319F08DE496E002C083E56A
:1042F00096E04FDD08E0009365061092660649E0FF
:1043000050E063EC75E087E696E00E94DE958CE273
:1043100080936A0686E08093700604DEE0927D0654
:10432000F0927E068BE080937B0610937C06EFE78D
:10433000F6E0DF011D920A95E9F78091260280934D
:1043400081068D5F8093260280E68093870682E057
:104350008093880693E09093890610928A061092C3
:104360008B0610928C0610928D0610928E0680930A
:104370008F0694E0909390068093910686E2809356
:10438000920622E040E250E06AE182E373DD8AE3D4
:1043900090E0EAD38AE199E00E949534882349F0BD
:1043A00080911909811105C080913709882309F48A
:1043B0003FC085E199E00E949534882309F4A6C0A6
:1043C000809136098111A2C08091350981119EC06A
:1043D00085E199E0AEDC81E08093350997C0B9E2D0
:1043E000EB16F10408F492C080916506883009F05C
:1043F0008DC080916606863009F082C044E050E0AE
:1044000063E17AE08FE796E00E945691892B09F0EC
:104410007DC015C083E19AE038D484E06ECE8EE191
:1044200099E087DC809124098860809324092DCF4E
:104430008AE199E07EDC81E080933709BACF8091F0
:104440006E06813009F58FE596E096DB10926D06D9
:1044500082E080936E066FE676E089E796E00E9440
:104460001B4F61E476E08FE696E00E941B4F65E704
:1044700076E08FE796E052DC63E17AE085E796E04C
:104480004DDC8AE290E070D38091240983FF0BC059
:1044900010916E06123039F463E576E08EE199E012
:1044A00054DB811124C08091190981110BC08091C6
:1044B0003709882339F06DE476E08AE199E045DB3D
:1044C000811118C080913609811120C08091350971
:1044D0008823E1F06DE476E085E199E036DB88231E
:1044E000A9F081E080933609109235090FC010932E
:1044F0002409D9CF81E08093190910923709E2CFBE
:1045000099E2E916F10411F0882319F000E010E0B7
:1045100073C1809167068534C9F744E050E063E1D8
:104520007AE087E796E00E945691892BA1F044E05B
:1045300050E067E476E087E796E00E945691892B89
:1045400051F044E050E06FEC72E087E796E00E94A3
:104550005691892BD9F6809170068130F1F48091C3
:104560007B06883099F6E0914B06F0914C06309727
:1045700019F083E796E0199502DD10927B06809191
:104580007D06883F28F090917E069F5F90937E067F
:10459000885F80937D06C7010BC126E3E216F10414
:1045A00008F4B4CF863009F0B1CF80917D068B300E
:1045B00009F0B7C044E050E065E179E083E796E0B8
:1045C0000E945691892B09F0A1CF2091880622FFE5
:1045D00013C0E091BA09F091BB09309759F080916E
:1045E0007E0620E030E040E050E063E08295869572
:1045F0008770199585E08AC02D835EDA8C018091E1
:10460000B5092D81823009F040C0822F807122715E
:10461000223179F560E080E090E0BFDC88E18093B2
:104620008806E091B809F091B909309741F080917E
:104630007C0682958695877019958C0102C000E0F2
:1046400010E083E08093B509C801889690936906CD
:1046500080936A0667DC10928B0610928C06A80184
:10466000445E5F4F22E06AE182E304DCC801C69643
:104670009FC091E09093B509811103C0C8010196D4
:1046800002C080E090E064E04AC0833091F50115FB
:10469000110591F1E091BA09F091BB09309761F1F0
:1046A0004091870650E024E0559547952A95E1F71B
:1046B000440F551F440F551FC70108974E5D5F4FAC
:1046C0008417950708F4AC01C801840F951FE816FC
:1046D000F90620F49701241B350B01C09801809145
:1046E0007E0660E0829586958770199569E0C8011D
:1046F0000BC0853009F40ACF20FF0BC0833009F4CA
:1047000005CF69E0C801019648DC86E08093B509D1
:10471000FDCE0115110509F4F9CE60E0C8013DDCBC
:10472000F5CE4091840290E02091850230E082171E
:10473000930709F0EBCE80917E068413E7CED090EC
:104740008806D1FE37C0109269068CE280936A0613
:1047500016DC82E18093880660E081E090E0C8D9B1
:1047600010927F0610928006809126028093810627
:10477000109282068D5F8093260282E080938F06DE
:1047800084E08093900685E08093910610929206D3
:1047900090E6909387068093890688E780938A063F
:1047A00022E040E250E06AE182E364DB8AE390E0E9
:1047B000DBD1ACCED4FEAACE7FD98C019093340944
:1047C00080933309892B91F00091870610E084E0F3
:1047D000159507958A95E1F7000F111F000F111F1E
:1047E0000E5D1F4FE016F10638F490CED0FE8ECE4F
:1047F00060E080E090E0D1DBC8010F900F900F9057
:104800000F900F90DF91CF911F910F91FF90EF903C
:10481000DF90CF90BF90AF909F908F900895E091E0
:104820004009F09141099F012F5F3F4F30934109AB
:104830002093400980830895EF92FF920F931F9376
:10484000CF93DF931F92CDB7DEB7062F142F598376
:10485000E6DF802FE4DFE12E5981F52E100F1E15C3
:1048600029F0F70181917F01DADFF9CF0F90DF9115
:10487000CF911F910F91FF90EF900895CF93DF9309
:10488000EC01FB018A30910540F06AE070E00E9483
:10489000E78DCB01BF01F2DFFC01CE016AE070E0E1
:1048A0000E94E78D805D80831182CF010196DF91A8
:1048B000CF910895CF93DF93EC0160E08E810E9449
:1048C0009A4B61E08E810E949A4B60E08E810E943B
:1048D0009A4B8BE891E00197F1F7DF91CF91089522
:1048E000CF93DF931F92CDB7DEB7698341E050E0ED
:1048F000BE016F5F7F4F0E94C3190F90DF91CF9170
:1049000008958EBD0DB407FEFDCF089561E080913E
:1049100039090E949A4B78940895F89460E0809148
:1049200039090C949A4B0F931F93CF93DF93EC01AB
:104930008B01F3DF209729F4DF91CF911F910F9125
:10494000E5CF8AE7DEDFF80181918EBDC00FD11F70
:10495000EC17FD0731F081910DB407FEFDCF8EBD40
:10496000F7CF0DB407FEFDCFE7CF0F931F93CF9383
:10497000DF93EC018B01D1DF2097B1F08AE3C1DF37
:104980001EBCF801CE01019739F00DB407FEFDCF32
:104990002EB51EBC2193F7CF2197C00FD11F0DB4A8
:1049A00007FEFDCF8EB58883DF91CF911F910F91C8
:1049B000ADCFCF93DF9300D0CDB7DEB74B836A8303
:1049C0008983ABDF6A816F718981862B9ADF4B8186
:1049D000842F97DF0F900F900F90DF91CF9196CF9C
:1049E0001F93CF93DF93182F1076C12FD0E0209123
:1049F000420930E0C217D30791F043E06FE180EA4B
:104A0000D8DF10934209AE0185E0559547958A9508
:104A1000E1F76FE180E8DF91CF911F91CACFDF917D
:104A2000CF911F9108951F93CF93DF931F92CDB71E
:104A3000DEB7182F6983D4DF4981612F80E40F909E
:104A4000DF91CF911F91B5CF1F93CF93DF931F922B
:104A5000CDB7DEB7182F7983E6DF7981672F81E044
:104A6000810F0F90DF91CF911F91DDCF1F93CF93D7
:104A7000DF931F92CDB7DEB7182FB2DF4EDF812F45
:104A80008F713FDF80E03DDF17FF02C080E039DF3C
:104A90008EB589833BDF89810F90DF91CF911F9184
:104AA00008950F931F93CF93DF9300D000D0CDB71D
:104AB000DEB780914509882381F0609143097091A8
:104AC00044096115710519F46FEF7BE002C0615074
:104AD00071098CE0B9DF1092450989E3C7DF8823AB
:104AE000A9F1609143097091440980E0ADDFBE01F6
:104AF0006F5F7F4F86E090E038DF89819A819093E5
:104B00004409809343090B811C8180913A0990915B
:104B10003B092D8127FF0CC0019704501109801714
:104B2000910708F48C0169E576E0C8011EDF02C038
:104B300000E010E0F801E75AF94F108281E080931D
:104B4000450940E46EE180E834DF02C000E010E097
:104B5000C80126960FB6F894DEBF0FBECDBFDF9119
:104B6000CF911F910F910895CF93DF93EC0140E80F
:104B70006FE180E81EDF40E86FE180EA1ADF4AE07B
:104B80006CE180EA16DF60E07CE082E05DDFBE0180
:104B9000745F86E059DF40E060E08AE70ADF69E59C
:104BA00076E0CE01C0DE48E06FE180E802DFC0E0E1
:104BB000D0E08CE15BDF8A7029F42196C83E83E067
:104BC000D807B9F78CE152DF81FD03C0C83ED3405E
:104BD00031F448E06FE180EADF91CF91EACEDF91D6
:104BE000CF91089561E184ED1EDF61E082ED1BDF6E
:104BF0008AEE3CDF80FDFCCF60E082ED14DF89EDC2
:104C000035DF82FB882780F90895CF92DF92EF92FB
:104C1000FF920F931F938634910568F120917C06D3
:104C2000233449F5C0908706D0908806E090890625
:104C3000F0908A0600913C0610913D0620913E06B8
:104C400030913F06C016D106E206F306A1F4E3E771
:104C5000F7E0875A994F9F012E5F3F4F4181508166
:104C6000553319F45281561741F0F901E40FF11D43
:104C7000E817F90780F380E001C081E01F910F91F0
:104C8000FF90EF90DF90CF900895FF920F931F93C6
:104C9000CF93DF938C0186E191E0E9E5F6E0DF0157
:104CA0009C011D9221503040E1F7809140068330F5
:104CB00019F06FEC72E002C068E376E043E450E084
:104CC00084E490E07DD86FEC72E089E596E00E9484
:104CD0001B4F81E0809383068093840686E0809357
:104CE000850680913C0690913D06A0913E06B091CC
:104CF0003F068093870690938806A0938906B09319
:104D00008A0680914006833029F463E17AE08FE8D7
:104D100096E004D861E476E08FE996E00E941B4FAC
:104D20008FE697E09093410980934009CCEDD5E060
:104D3000FC2E34E0F30EFE01849171DD2196FC120D
:104D4000FACF85E36CDD81E06ADD8091400688233F
:104D500011F083E001C081E062DD8DE360DD87E07A
:104D60005EDD81E05CDDC1E4D6E0FC2E26E0F20EE3
:104D7000FC1619F0899153DDFBCF80912C0288231A
:104D800069F0ECE2F2E001900020E9F73197BF0111
:104D90006C5272404CE252E08CE04EDD0115110580
:104DA00049F0A80164E082E347DD48E356E064E0AF
:104DB00086E342DD87E333DD83E031DD81E02FDD13
:104DC00083E02DDD86E02BDD8FEF29DD809140092A
:104DD0009091410983589640DF91CF911F910F9197
:104DE000FF90AEC8AF92BF92CF92DF92EF92FF9248
:104DF0000F931F93CF93DF93CDB7DEB7EE84FF847D
:104E0000C888D9888E010E5E1F4FC6010196F60133
:104E10002491222309F4D5C0243279F0D7011696C3
:104E2000ED91FC911797AF014F5F5F4F17965C9321
:104E30004E93169720836C01E8CFB2E0CB0ED11CC5
:104E4000FC019491963409F46EC05CF49434C1F082
:104E5000953409F098C0F801808191810E5F1F4F51
:104E60007AC0D70116964D915C9117979C3409F43E
:104E700042C0933509F44CC0983409F084C00CC08A
:104E80005801B2E0AB0EB11CF70166817781D80101
:104E90008D919C91F3DC85C0B8016E5F7F4FF80166
:104EA0009081292F092E000C330B84E0359527952E
:104EB0008A95E1F72F709F709A300CF0995F905DA2
:104EC0002A300CF0295FFA013196D7011796FC932E
:104ED000EE931697205DFA0120831696ED91FC91D2
:104EE00017979F012F5F3F4F17963C932E9316976E
:104EF00090838B018ACF5801F4E0AF0EB11CD8012A
:104F00006D917D918D919C912AE00E94E79549C019
:104F10005801B2E0AB0EB11CF80160817181CA0189
:104F20000E946E913EC0F8010190F081E02D0E5F6D
:104F30001F4F8491AF014F5F5F4F882309F465CF06
:104F4000F701A681B7819D012F5F3F4F37832683ED
:104F50008C93FA01EECF5C01BFEFAB1ABB0A0E9443
:104F60009398882309F451CFD7011696ED91FC91BF
:104F700017979F012F5F3F4F17963C932E931697DD
:104F80008083C501E8CFD7011696ED91FC91179764
:104F90009F012F5F3F4F17963C932E931697908358
:104FA00034CFD7011696ED91FC9117970190002010
:104FB000E9F7CF01019717969C938E931697850179
:104FC00024CFDF91CF911F910F91FF90EF90DF9051
:104FD000CF90BF90AF900895CF92DF92EF92FF9263
:104FE0000F931F93CF93DF937C016C0187E0C80E72
:104FF000D11CC0E0D0E0062F10E0B8010C2E02C09A
:10500000759567950A94E2F76170F60181916F01D9
:105010000E949A4B2196C430D10579F7C701DF91E0
:10502000CF911F910F91FF90EF90DF90CF9042CCE6
:10503000CF92DF92EF92FF920F931F93CF93DF9364
:10504000EC01F62E642F8C810E949A4B8D818F3F4C
:1050500019F060E00E949A4B8F850F2D10E084FFBD
:1050600024C06E0187E0C80ED11CE12CF12CB801E0
:105070000E2C02C0759567950A94E2F76170F601EF
:1050800081916F010E949A4BFFEFEF1AFF0A88E0AF
:10509000E816F10461F7CE01DF91CF911F910F91D6
:1050A000FF90EF90DF90CF9005CCB80184E075952C
:1050B00067958A95E1F7CE018FDF6F2DCE01DF91E5
:1050C000CF911F910F91FF90EF90DF90CF9084CF01
:1050D00041E0AEDF81E090E0089540E0A9CF61E0DB
:1050E000FCDF8BE39FE10197F1F708958091380988
:1050F0008823A9F1409128025091290260912A0247
:1051000070912B0227E13AE08091170C9091180CD6
:105110000E946419811102C080E0089540913C0909
:1051200050913D0960913E0970913F09411551052B
:105130006105710591F027E13AE08091170C90919B
:10514000180C0E946419882339F310923C091092BC
:105150003D0910923E0910923F091092380981E0F2
:1051600008958F929F92AF92BF92EF92FF920F930A
:105170001F93CF934B015C01C42F80912802909123
:105180002902A0912A02B0912B0288159905AA053F
:10519000BB05F9F0ABDF811102C080E020C087E1E0
:1051A000E82E8AE0F82E00E012E020E030E0B501C1
:1051B000A4018091170C9091180C0E94D718882395
:1051C00061F38092280290922902A0922A02B09262
:1051D0002B0280913809C82BC093380981E0CF9108
:1051E0001F910F91FF90EF90BF90AF909F908F9085
:1051F00008954F925F926F927F928F929F92AF929B
:10520000BF92CF92DF92EF92FF920F931F93CF93B3
:10521000DF93EC016A017B0128013901423051051D
:105220006105710510F480E072C089859A85AB85AF
:10523000BC850196A11DB11D84179507A607B70768
:1052400090F38B889C88AD88BE888F89803129F443
:10525000BB27AF2D9E2D8D2D09C0DB01CA0147E074
:10526000B695A795979587954A95D1F7880E991E7B
:10527000AA1EBB1E8091280290912902A0912A02A9
:10528000B0912B0288169906AA06BB0679F48F897D
:10529000803199F4DD24EE24FF24C601880F991F84
:1052A000FC01E95EF54F5182408218C040E0C50123
:1052B000B40157DF8111EBCFB6CFE894C7F8DD24F6
:1052C000EE24FF24C601880F991F880F991FFC0147
:1052D000E95EF54F40825182628273828091380983
:1052E0008160809338098A89823080F08D819E8127
:1052F000AF81B885880E991EAA1EBB1E80923C09FC
:1053000090923D09A0923E09B0923F0981E0DF9161
:10531000CF911F910F91FF90EF90DF90CF90BF90B2
:10532000AF909F908F907F906F905F904F90089577
:105330008F929F92AF92BF92CF92DF92EF92FF92A5
:105340000F931F93CF93DF93FC0181859285A385F3
:10535000B4850196A11DB11D84179507A607B7074F
:1053600010F480E05BC083899489A589B689C789D8
:10537000C03129F4852E962EA72EBB2409C04A01E0
:105380005B01C7E0B694A79497948794CA95D1F728
:10539000E9016A017B018F01BC01CD01680D791D16
:1053A0008A1D9B1D8090280290902902A0902A02BD
:1053B000B0902B02681579058A059B0599F4F801D0
:1053C00087898031A1F4B701A60155276627772781
:1053D000440F551FFA01E95EF54F80819181A0E0ED
:1053E000B0E017C040E0BDDE8111E9CFBACFB70110
:1053F000A6014F77552766277727440F551F440F7F
:10540000551FFA01E95EF54F80819181A281B38138
:10541000BF7088839983AA83BB8381E0DF91CF919A
:105420001F910F91FF90EF90DF90CF90BF90AF90C2
:105430009F908F9008954F925F926F927F92AF925C
:10544000BF92CF92DF92EF92FF920F931F93CF9371
:10545000DF9300D01F92CDB7DEB78C0149835A830A
:105460006B837C835901C12CD12C7601412C82E0C5
:10547000582E612C712C49815A816B817C819E014F
:105480002F5F3F4FC80154DF882351F1D301C20180
:10549000F801058404C0880F991FAA1FBB1F0A9436
:1054A000D2F7C80ED91EEA1EFB1E49815A816B81B4
:1054B0007C818789803129F088EF9FEFAFEFBFE0D3
:1054C00004C088EF9FEFA0E0B0E0481759076A07D3
:1054D0007B0788F2F501C082D182E282F38281E00B
:1054E0000F900F900F900F90DF91CF911F910F9120
:1054F000FF90EF90DF90CF90BF90AF907F906F9034
:105500005F904F9008954F925F926F927F92AF920B
:10551000BF92CF92DF92EF92FF920F931F93CF93A0
:10552000DF93CDB7DEB72B970FB6F894DEBF0FBE73
:10553000CDBF7C01CE0101966C01FC0190E28BE0B5
:105540008C0D91938E13FDCFDA0130E047E09D91F1
:10555000992339F19E3219F0ECECF5E00AC04A309B
:1055600009F46FC138E04AE0F2CF3196891709F4A7
:1055700068C184918111F9CF431708F462C18FED9E
:10558000890F8E3508F05DC181E0830FF601E30FCE
:10559000F11D3FE9390F3A3108F490529083382FCA
:1055A000D6CF8981803209F44CC1B22E8B01DB0148
:1055B0005B968D919C915C97F701948F838F1696E3
:1055C0001D921D921D921C921997FB011286138643
:1055D00014861586712CF80182859385A485B5857E
:1055E000438954896589768984179507A607B70783
:1055F00008F061C025E0B695A795979587952A95FF
:10560000D1F7F82FFF706F2ED80115968C9182304C
:1056100008F417C1C8010E94211C97FD12C1F801AE
:1056200082859385A485B5854F96A11DB11D82877E
:105630009387A487B587F0E26F9EC0011124BC0157
:10564000695E754F6115710509F4FBC0DB012C9192
:10565000222319F0253EC1F427C071100EC0F701B6
:10566000628A409128025091290260912A02709129
:105670002B0246875787608B718BFC01E95EF54FE3
:105680008081811113C015C04BE050E0C6010E941B
:105690005691892B09F09FCF8B2D8073803309F4AD
:1056A000D0C04B2D662DC9C07720C9F277247394E2
:1056B00092CF772473948B2D8271823109F0C1C00F
:1056C0007720C9F0D7011E966D917D918D919C91A7
:1056D000519741E046DD882309F4B3C0F7016289A0
:1056E000F0E26F9FB0011124695E754F611571057D
:1056F00009F078C0A6C0D80115968C91823009F4C3
:10570000A0C0C8010E941517882309F49AC0D801C7
:105710005B96ED91FC915C9716964D905D906D9027
:105720007C901997B2E04B1A510861087108058402
:1057300004C0440C551C661C771C0A94D2F786855D
:105740009785A089B189480E591E6A1E7B1EA480C8
:10575000E1E04E1A510861087108AA2001F1C6DC87
:10576000882309F46EC0E7E1FAE011922CE0E731FA
:10577000F207D9F7D301C2018A0D911DA11DB11DF8
:105780008093280290932902A0932A02B0932B02BF
:1057900080913809816080933809AA94DECFD801BE
:1057A0005B96ED91FC915C9780E092E0A0E0B0E028
:1057B000058404C0880F991FAA1FBB1F0A94D2F743
:1057C000F8014389548965897689840F951FA61F3E
:1057D000B71F838B948BA58BB68BD70152961C92E7
:1057E00067E17AE080E2FB0111928A95E9F78BE0AC
:1057F000F601DB0101900D928A95E1F781E298E2D2
:10580000DB0151969C938E93509720E038E01F96D1
:105810003C932E931E9753969C938E935297599632
:105820009C938E93589757963C932E9356975EDC95
:10583000882339F04B2DF7016289C7010E940516B4
:1058400001C080E02B960FB6F894DEBF0FBECDBF2F
:10585000DF91CF911F910F91FF90EF90DF90CF904C
:10586000BF90AF907F906F905F904F900895809120
:105870005205882331F061E070E080E090E00E9402
:10588000104D83E00E94724B20914909422F50E055
:1058900084179507A9F081E082278093490988231E
:1058A00069F080914809811109C08091500590915B
:1058B0005105019790935105809350051092520520
:1058C000089580915205882331F061E070E080E016
:1058D00090E00E94104D82E00E94724B2091480996
:1058E000422F50E084179507A9F081E0822780932A
:1058F0004809882369F080914909811109C0809184
:105900005005909151050196909351058093500553
:105910001092520508958F929F92AF92BF92CF92AC
:10592000DF92EF92FF92CF938BEE9DE0D8DB67E39F
:1059300076E08BEE9DE00E94DF4A61E080E0E0D7F8
:105940001092750D1092730D1092700D10926F0DD4
:105950008AE080936E0D0E94484D6B017C0161E0EE
:1059600080916E0D0E94C94B61E080916E0D0E9486
:105970009A4BCFB7F89480914A09811127C0E4EC83
:10598000F6E08491EAE0F7E09491E82FF0E0EE0F82
:10599000FF1FE858F74FA591B491EC91E92321F44A
:1059A00061E085E30E949A4B61E085E30E94C94B68
:1059B0008CB580618CBD8CB580648CBD61E084E366
:1059C0000E94C94B61E083E30E94C94B80914A0960
:1059D0008F5F80934A09CFBF82E58093680D109254
:1059E000690D8091680D9091690D0E946418CAE05C
:1059F0008FEF0E942918C150D9F78AE69DE00E94D6
:105A0000671820E030E0A90160E08AE69DE00E948E
:105A10007C18C82F8093740D813049F00E94484D46
:105A20006C197D09613D774060F381E054C02AEA3A
:105A300031E040E050E068E08AE69DE00E947C189A
:105A400082FF03C0C093750D0EC0C4E00E943018E1
:105A50008093740DC150D1F78A3A11F082E03BC0B7
:105A600082E08093750D8091750D823021F0812C3C
:105A7000912C540105C0812C912CA12C30E4B32E23
:105A800020E030E0A90167E38AE69DE00E947C18EF
:105A9000A501940169E28AE69DE00E947C1880934A
:105AA000740D882349F00E94484D6C197D09613DB1
:105AB000774030F388E00FC08091750D823001F59A
:105AC00020E030E0A9016AE38AE69DE00E947C18AC
:105AD000882341F086E080936F0D8AE69DE00E9466
