:100000000C9423090C94F42E0C94C92E0C949E2E5F
:100010000C94732E0C94482E0C941D2E0C94F22DDF
:100020000C94C72D0C9454090C9454090C94540945
:100030000C9454090C9454090C9454090C945409CC
:100040000C9454090C9454090C9454090C945409BC
:100050000C9454090C9454090C9454090C947D2D5F
:100060000C9454090C94652B0C943C2B0C9454095F
:100070000C9454090C9454090C9454090C9454098C
:100080000C9454090C9454090C9454090C9454097C
:100090000C9454090C9454090C9454090C94E35195
:1000A0000C9454090C9454090C9454090C9454095C
:1000B0000C9454090C9454090C9454090C9454094C
:1000C0000C9454090C9454090C9454090C9454093C
:1000D0000C9454090C9454090C9454090C9454092C
:1000E0000C9454094C1F4C1FEA1FD2201821522196
:1000F0008C21292207290A29F928FD2803294129C9
:100100000E29122918291C29202926292A292E29B5
:100110004129342938293C29552C5A2C5F2C692C2B
:10012000732CEC2C7D2C852C8D2C972CA12CAB2C9E
:10013000BA2CC42CEC2CCE2CD82CE22C07634236E3
:10014000B79BD8A71A39685618AEBAAB558C1D3C68
:10015000B7CC5763BD6DEDFD753EF6177231BF002C
:100160000000803F4F4B00456E636F6465723A003C
:10017000496E69742E204F4B005374696B616C613A
:100180003A2000467265652052414D3A2000467281
:1001900065652052414D002020002E002E002020B9
:1001A0000020525443204F4B0054696D653A00447F
:1001B00053313330372072656164206572726F721B
:1001C0002120205072657665726920706F76657A9D
:1001D0006176652E005468652044533133303720F2
:1001E0006A652075737461766C6A656E2E20507234
:1001F0006F73696D206E61737461766920636173DA
:100200002E00546F6B3A20004B6F6E74726F6C65EA
:10021000722054433A20002020002E002E0020207F
:100220004E61736C65646E6A652070726567726595
:1002300076616E6A653A20002020002E002E005A5A
:1002400061646E6A652070726567726576616E6A58
:10025000653A20000000006572726F720000202075
:1002600000436173206A65206E61737461766C6A05
:10027000656E00204D656E7500436F756E740042AB
:100280007574746F6E207072657373656400204EB0
:100290006F76613A002046616374576569676874D8
:1002A00041766754656D703A0020436F703A2000C4
:1002B00020496E666F2064656C7461546853743AAB
:1002C000200020496E666F2064656C746154684F2D
:1002D0006B3A200020496E666F2064656C7461542F
:1002E000683A2000206B6F6D702E73743A200020E6
:1002F0004E6F7661206B6F6D702E6F6B3A20002011
:10030000746B6F6D7053743A200020746B6F6D7056
:10031000303A20002072756E2074696D6528682956
:100320003A20002074656D70206F6B6F6C69636597
:100330002073743A200020496E666F2063616C2E32
:1003400028737461727454656D70293A2000204CD2
:100350006173743A00204B6F6D702E73743A0020F5
:100360004C6173743A00204B6F6D702E6F6B3A00C6
:10037000204C6173743A0020482E677265743A000D
:10038000496E666F202D20003C3C205468530020AD
:100390003E3E3E5245504C59205468532E3A200060
:1003A0004342395249345746323941473051463138
:1003B000006170692E7468696E67737065616B2E79
:1003C000636F6D00205A61706972616D2076656E91
:1003D00074696C00204F64706972616D2076656E7F
:1003E00074696C2000434F2120003C003E003556CC
:1003F0003328457272293A20002D20002D20002D2F
:10040000200052656654656D70423030202D2052B8
:10041000656654656D70423031202D2054656D70D5
:10042000497A6B6C6F7061202D2070726576437213
:1004300070544353746174653A200027002F0027DD
:10044000002D003A0054002D002F002F0029002815
:10045000002F00290028003A0054002D005072653A
:1004600067726576616E6A65204F4B0029002F0028
:100470002F0028003A0054004F4646004B0056001B
:10048000202D3E2000002941002F0028002049286F
:10049000313256293A0029002F00202800412043FC
:1004A0004F3A004F4646004B00560025004320209F
:1004B000006B5641680056416800294120002F001A
:1004C0002800204928313276293A0029002F0028B7
:1004D000002920434F3A002D002D3E002D002028FA
:1004E0000020546920002054763A002F002F004F3E
:1004F0006E2074696D653A20002920004128002093
:10050000546F6B3A20002D004D696E2D4D61782897
:100510006C6173742068293A20006D732000293AB9
:100520002000204176672E6379636C6554696D65A0
:10053000286E3D0029003E0028003A002052486104
:100540000056200050200029003E0028003A0020DC
:100550005461002050200020452000207375636501
:1005600073733A2000444E53206661696C656400E1
:10057000207375636573733A200020737563657328
:10058000733A2000207375636573733A20002073FB
:1005900075636573733A2000207375636573733AEE
:1005A00020004574682E206669727761726520723A
:1005B00065763A20004661696C656420746F20613D
:1005C00063636573732045746865726E6574206338
:1005D0006F6E74726F6C6C6572002920003B002096
:1005E00045772800660074002069734C696E6B556E
:1005F000703A0064656C6179636E743A20006661DC
:100600006C736500706572736973745F7463705F97
:10061000636F6E6E656374696F6E3A200066616C1D
:1006200073650074727565005573652044484350C6
:100630003A2000486973706F72743A200020497A3A
:100640006B6C6F70206B6F6D707265736F726A6127
:100650002054430020497A6B6C6F702076656E746D
:100660002E206B6F6D707265736F726A61205443D8
:100670000020566B6C6F702076656E742E206B6F49
:100680006D707265736F726A612054430020566BFF
:100690006C6F70206B6F6D707265736F726A612022
:1006A000544300005EBCE2613FDD83C29C7E20A318
:1006B000FD1F419DC3217FFCA2401E5F01E3BD3EA3
:1006C0006082DC237D9FC1421CFEA0E1BF5D0380F0
:1006D000DE3C62BEE0025CDF81633D7C22C09E1D89
:1006E00043A1FF4618FAA427799BC584DA3866E54A
:1006F000BB5907DB856739BAE406581947A5FB786B
:1007000026C49A653BD987045AB8E6A7F91B45C6A3
:10071000987A24F8A6441A99C7257B3A6486D85B50
:1007200005E7B98CD2306EEDB3510F4E10F2AC2FFD
:100730007193CD114FADF3702ECC92D38D6F31B23A
:10074000EC0E50AFF1134DCE90722C6D33D18F0C57
:1007500052B0EE326C8ED0530DEFB1F0AE4C129120
:10076000CF2D73CA947628ABF517490856B4EA69B9
:1007700037D58B5709EBB536688AD495CB2977F4F2
:10078000AA4816E9B7550B88D6346A2B7597C94A1B
:1007900014F6A8742AC896154BA9F7B6E80A54D7D8
:1007A000896B352044007858785878587858007804
:1007B00058785878587858005A61646E6A65207085
:1007C000726567726576616E6A653A2000546920C9
:1007D00000547620004F4646004B004100546F6B9A
:1007E0003A00434F3A004F4646004B005600250062
:1007F000432052483A00205344204F4B005344209A
:10080000436172643A004572724570725265427576
:100810004C65004572724570526542752000457204
:10082000724570577250672000485454502F312E33
:100830003020323030204F4B0D0A436F6E74656E9E
:10084000742D547970653A20746578742F68746DCE
:100850006C0D0A507261676D613A206E6F2D636195
:100860006368650D0A0D0A3C6D65746120687474D7
:10087000702D65717569763D27726566726573685E
:100880002720636F6E74656E743D273539272F3EC0
:100890003C7469746C653E496E666F207365727650
:1008A00065723C2F7469746C653E3C68313E20244F
:1008B000533C2F68313E3C68333E2054313A20246B
:1008C0005343203C62723E2054323A20245343204A
:1008D0003C62723E2054333A20245343203C6272DF
:1008E0003E2054343A20245343203C62723E20542C
:1008F000353A20245343203C62723E2054363A203D
:10090000245343203C62723E2054373A2024534300
:10091000203C62723E2054383A20245343203C62EB
:10092000723E2054393A20245343203C62723E5296
:10093000483A20245325203C62723E48756D696414
:1009400065783A202453433C62723E434F3A202458
:10095000443C62723E53746174653A2024442444DA
:10096000244424442444244424442020203C2F684C
:10097000333E203C62723E0000002000230026002F
:1009800029002C002F0032000001000003010601A5
:100990000901050505050705080808080202020205
:1009A0000A0A08080404040401010101010101010B
:1009B0000303030303030303040707070C0C0C0CD6
:1009C0000C0C0C0C020202020606060606060606BF
:1009D0000B0B0B0B0B0B0B0B01021020200808104C
:1009E000204010204080020102010804020101029F
:1009F0000408102040808040201008040201800478
:100A000002018040201008040201080402010102D2
:100A100004081020408001020408102040800000DB
:100A20002100240027002A002D003000330001019E
:100A30000000040107010A0100002200250028002F
:100A40002B002E00310034000201000005010801D6
:100A50000B0100000A0B02090C0D0E08070304012C
:100A60000000000000000000000000000000000086
:100A70000000000000000000000000000000121153
:100A80001000000000000000000000000000000056
:100A90000000000000000000000108000604000142
:100AA0004500008200004000207C3C3E5E2B3D3F24
:100AB0002F5B5D3B2C2A225C003A206E6920445358
:100AC00031387832302066616D696C7920646576E2
:100AD0006963652E003A20445331383232003A209F
:100AE00044533138423230003A2044533138533283
:100AF000300054656D702E2073656E736F72200028
:100B000053746576696C6F2044532073656E6F7300
:100B1000726A657621210053746576696C6F204492
:100B2000532073656E6F73726A6576212100300001
:100B3000204B2D747970652073656E7A6F72003A60
:100B40000030005420002044485432322073656E37
:100B50007A6F72003A0030005420004E6170616B71
:100B6000612044485432322073656E7A6F726A6134
:100B70002121004E6170616B612044485432322063
:100B800073656E7A6F726A612121003A00300054F9
:100B9000200053746576696C6F2073656E7A6F728E
:100BA0006A65760053746576696C6F2074656D7044
:100BB0002E2073656E7A6F726A6576207365206E7B
:100BC0006520756A656D6121210020646576696321
:100BD00065732E0020434572003000204C434420B2
:100BE0004F4B0030005365207072696465000F0040
:100BF0000F000F000F000F000F0011001300160070
:100C000019001E001E001900190019001C001E000A
:100C100020001E001C001B00190014000F00CDCC8A
:100C20004C3ECDCC4C3ECDCC4C3ECDCC4C3ECDCC38
:100C30004C3ECDCC4C3ECDCC4C3ECDCC4C3ECDCC28
:100C40004C3ECDCC4C3ECDCC4C3ECDCC4C3ECDCC18
:100C50004C3ECDCC4C3ECDCC4C3ECDCC4C3ECDCC08
:100C60004C3ECDCC4C3ECDCC4C3ECDCC4C3ECDCCF8
:100C70004C3ECDCC4C3ECDCC4C3ECDCC4C3E1E0063
:100C80001E001E001E001E001E001C000F000C0097
:100C90000D000F00110013001500140012000F00CA
:100CA0000C000E001000120016001E001E004572FF
:100CB0007245705265427520003A200020200041A4
:100CC00064647265733A003A200020200041646435
:100CD0007265733A00202F2000666163745765695E
:100CE00067687441766754656D703A200043206AE6
:100CF0006520004B6F6D70656E7A2E207A6163659A
:100D0000746E652074656D702E2070726920746534
:100D10006D702E2000202F20004B6F6D702E73748D
:100D20002E3A200043206A6520004B6F6D70656E7F
:100D30007A2E2074656D702E206F6B6F6C69636501
:100D4000207072692074656D702E2000202F2000A5
:100D50004B6F6D702E6F6B2E3A20004B2F6800206A
:100D60002F20004869722E20677265743A20002097
:100D700020002E002E00204E61736C65646E6A6543
:100D80002070726567726576616E6A653A20002030
:100D900020002E002E005A61646E6A652070726514
:100DA00067726576616E6A653A20002270726576B8
:100DB0005443537461746522206E61737461766C60
:100DC0006A656E6F206E6120002020002E002E00CC
:100DD0004C617374205443206368673A20007300A9
:100DE0004F6E54696D653A2000E30004FA0001007B
:100DF000000001444E53206661696C6564006E74A6
:100E0000702E73696F6C2E6E65740020497A6B6F5B
:100E10006C70206372702E207261646961746F72ED
:100E20000020566B6C6F70206372702E20726164AC
:100E30006961746F720020497A6B6C6F7020637205
:100E400070616C6B652054430020566B6C6F702092
:100E5000637270616C6B65205443002900202D2063
:100E600000202800202000497A6B6C2E206B6F6DCB
:100E700070722E54433A2000497A6B6C2E207665AE
:100E80006E742E54433A2000497A6B6C2E206372A4
:100E900070616C6B65207261642E3A2000497A6B38
:100EA0006C2E637270616C6B652054433A20005A5B
:100EB00061702E2076656E74696C613A200029009D
:100EC000202D2000202800202000566B6C2E206B47
:100ED0006F6D70722E54433A2000566B6C2E207644
:100EE000656E742E54433A2000566B6C2E2063724C
:100EF00070616C6B65207261642E3A2000566B6CD9
:100F00002E20637270616C6B652054433A20004F51
:100F100064702E2076656E74696C613A20002043FF
:100F20006F703A200020446F626C6A656E6F2028F3
:100F30004D4A293A20002055707261626C6A656ED4
:100F40006F20284D5773293A2000205A61632E20C4
:100F5000506F72616261206B56413A2000206661D9
:100F6000637457656967687441766754656D703A54
:100F700020002C20002C2000293D20002C20002CBB
:100F80002000204B6F6D702E73742E74656D702E63
:100F9000202800205A61646E6A613A200020466170
:100FA00063742E7A61632E74656D703A20002C2074
:100FB000002C2000293D20002C20002C2000204B5C
:100FC0006F6D702E6F6B202800207A61646E6A61ED
:100FD0003A200020466163742E6B6F6D702E6F6B2C
:100FE0002E3A2000205A61646E6A613A2000204E39
:100FF0006F76613A2000486974726F73742067726B
:1010000065746A613A2000496E666F202D20007376
:10101000742F68006D696E2020486974722E673ADB
:10102000200020204F6E3A00202000497A6B6C6F20
:10103000702054433A200029002028002020005628
:101040006B6C6F702054433A20000029002F002859
:1010500000203356333A0029002F0028002035564F
:10106000333A0029002F002800203556323A002953
:10107000002F002800203132563A0029002F002886
:10108000002035496E3A002845727229200020352B
:10109000496E3A004572724570577242792000508D
:1010A0004F5354202F757064617465204854545018
:1010B0002F312E310D0A486F73743A2024460D0AE1
:1010C000436F6E6E656374696F6E3A20636C6F7305
:1010D000650D0A582D5448494E47535045414B41E0
:1010E00050494B45593A2024460D0A436F6E7465AA
:1010F0006E742D547970653A206170706C6963610B
:1011000074696F6E2F782D7777772D666F726D2DDE
:1011100075726C656E636F6465640D0A436F6E74FF
:10112000656E742D4C656E6774683A2024440D0A10
:101130000D0A24480056202D003A003A002D004D9B
:10114000696E2E2D6D61783A0000407A10F35A00D6
:10115000A0724E18090010A5D4E80000E8764817E0
:101160000000E40B54020000CA9A3B000000E1F5C5
:1011700005000080969800000040420F000000A08B
:101180008601000000102700000000E803000000B6
:10119000006400000000000A0000000000010000E0
:1011A0000000002C76D888DC674F0823DFC1DFAE53
:1011B00059E1B1B796E5E3E453C63AE6519976961C
:1011C000E8E6C28426EB898C9B62ED407C6FFCEFE5
:1011D000BC9C9F40F2BAA56FA5F490055A2AF75C13
:1011E000936B6CF9676DC11BFCE0E40D47FEF520C5
:1011F000E6B500D0ED902E0300943577050080848D
:101200001E080000204E0A000000C80C33333333A0
:101210000F986E12831141EF8D2114893BE655160C
:10122000CFFEE6DB18D1844B381BF77C1D901DA444
:10123000BBE424203284725E228100C9F124ECA137
:10124000E53D2700139011241FBECFEFD1E2DEBF92
:10125000CDBF00E00CBF15E0A0E0B2E0EEE7F8E3A0
:1012600001E00BBF02C007900D92AA33B107D9F776
:101270002FE0AAE3B5E001C01D92AE32B207E1F75C
:1012800019E0C3E2D9E000E006C021970109802FF0
:10129000FE010E947291C232D10780E00807A9F7CF
:1012A0000E94EF770C943D9C0C9400002F923F928B
:1012B0004F925F926F927F928F929F92AF92BF9266
:1012C000CF92DF92EF92FF920F931F93CF93DF9312
:1012D000CDB7DEB7CB54D1090FB6F894DEBF0FBE41
:1012E000CDBF8AE499E00E94AE290E946553AB010C
:1012F000BC01CE0101960E943F54BE016F5F7F4F3B
:101300008AE499E00E94072B60E874E08AE499E09F
:101310000E94082B26E239E02A963FAF2EAF2A978B
:101320006901E12CF12C0091E90A1091EA0AE0161A
:10133000F1060CF0D1C166E774E08AE499E00E94FE
:10134000082B3FEFE31AF30A4AE050E0B7018AE4C2
:1013500099E00E94BD2A64E774E08AE499E00E9463
:10136000082BF60141915191619171916F0122E039
:1013700030E08AE499E00E94BC2AF2E0EF16F10422
:1013800009F0A3C162E774E08AE499E00E94082BA7
:101390000E943354880F991F8C01085D1F4F42E053
:1013A00050E06AEA76E0C8010E94692762E070E0D6
:1013B00080E090E00E94392D6091AA067091AB0602
:1013C00080E090E00E94AD9220E030E048EC52E4F2
:1013D0000E94E39120E030E048E452E40E947A91D8
:1013E0009B01AC0160912A0970912B0980912C0915
:1013F00090912D090E947A91AB01BC0140933D066A
:1014000050933E0660933F067093400622E030E022
:101410008AE499E00E94BC2A40902A0950902B0946
:1014200060902C0970902D096091AA067091AB060E
:1014300080E090E00E94AD924B015C0120E030E042
:1014400048EC52E4C301B2010E94F8939B01AC0145
:10145000C501B4010E947A9120E030E048E452E4F2
:101460000E947B914B015C0120E030E0A9010E94C9
:10147000849318165CF420E030E040E85FE3C50197
:10148000B4010E94849318165CF030C020E030E074
:1014900040E85FEBC501B4010E94DF9187FF26C0E1
:1014A0002AE037ED43EA5BE3C301B2010E947B917E
:1014B00020E030E048E452E40E947B9120E030E0FC
:1014C00048EC52E40E94F8930E9481927093AB061C
:1014D0006093AA0662E070E080E090E00E94392DFF
:1014E00042E06AEA76E0C8010E94D12662E070E03C
:1014F00080E090E00E94392D60E774E08AE499E092
:101500000E94082B8090580590905905A0905A058C
:10151000B0905B05A501940160E070E080E89FE376
:101520000E947A9120918305309184054091850530
:10153000509186050E94F8932B013C0120912A09C5
:1015400030912B0940912C0950912D09C501B4010E
:101550000E94F8939B01AC01C301B2010E947B91F0
:10156000AB01BC01409383055093840560938505CE
:101570007093860522E030E08AE499E00E94BC2A5C
:101580006EE674E08AE499E00E94082B8090530A8A
:101590009090540AA090550AB090560AA501940163
:1015A00060E070E080E89FE30E947A91209123023E
:1015B0003091240240912502509126020E94F89316
:1015C0002B013C0120913D0630913E0640913F06A3
:1015D00050914006C501B4010E94F8939B01AC01F3
:1015E000C301B2010E947B91AB01BC014093230275
:1015F00050932402609325027093260222E030E08B
:101600008AE499E00E94BC2A6CE674E08AE499E0DE
:101610000E94082B20E030E040E752E46091410650
:101620007091420680914306909144060E948493F3
:1016300087FD3BC020E030E040E752E46091830545
:101640007091840580918505909186050E94DF91B7
:1016500087FF2BC00E94655360934E0570934F0522
:1016600080935005909351056093C9057093CA0506
:101670008093CB059093CC0562E070E080E090E031
:101680000E94392D44E069EC75E089E190E00E9408
:10169000D12662E070E080E090E00E94392D6DE597
:1016A00074E08AE499E00E94082B80918305909170
:1016B0008405A0918505B09186058093410690939D
:1016C0004206A0934306B09344066BE574E08AE4B7
:1016D00099E00E94082B27CE9801220F331F220F7A
:1016E000331F26963FAF2EAF2697212C312CE0904A
:1016F000E90AF090EA0A2FEFE21AF20A0E151F0526
:101700000CF001C269E574E08AE499E00E94082BBC
:1017100068013FEFC31AD30A4AE050E0B6018AE4F9
:1017200099E00E94BD2A67E574E08AE499E00E948E
:10173000082B2696EEADFFAD2697E20DF31DEA5D70
:10174000F64F408151816281738122E030E08AE46A
:1017500099E00E94BC2A88E0C816D10409F0B3C001
:1017600065E574E08AE499E00E94082B0E943354F6
:10177000880F991F7C01E0EAEE0EF11C42E050E078
:101780006AEA76E0C7010E94692762E070E080E0C3
:1017900090E00E94392D6091AA067091AB0680E01E
:1017A00090E00E94AD9220E030E048EC52E40E94CC
:1017B000E39120E030E048E452E40E947A919B01FA
:1017C000AC01609142097091430980914409909164
:1017D00045090E947A91AB01BC0122E030E08AE425
:1017E00099E00E94BC2A40904209509043096090C1
:1017F0004409709045096091AA067091AB0680E09B
:1018000090E00E94AD924B015C0120E030E048EC9A
:1018100052E4C301B2010E94F8939B01AC01C501DF
:10182000B4010E947A914B015C0120E030E0A901F3
:101830000E94849318165CF420E030E040E85FE3F7
:10184000C501B4010E94849318165CF030C020E0FA
:1018500030E040E85FEBC501B4010E94DF9187FFF3
:1018600026C02AE037ED43EA5BE3C301B2010E94E0
:101870007B9120E030E048E452E40E947B9120E03C
:1018800030E048EC52E40E94F8930E9481927093F9
:10189000AB066093AA0662E070E080E090E00E94F0
:1018A000392D42E06AEA76E0C7010E94D12662E063
:1018B00070E080E090E00E94392D63E574E08AE4F6
:1018C00099E00E94082B61E574E08AE499E00E94A7
:1018D000082B8091E90A9091EA0AF801E81BF90BBC
:1018E000EE0FFF1FEE0FFF1FE75BF94F40815181A5
:1018F0006281738122E030E08AE499E00E94BC2A90
:101900006FE474E08AE499E00E94082B0E9433544B
:10191000880F991F7C01F8EEEF1AFEEFFF0A42E0F4
:1019200050E06AEA76E0C7010E94692762E070E051
:1019300080E090E00E94392D8091E90A9091EA0AB6
:101940005801A81AB90AC501880F991F880F991F55
:101950009C01275B394F59016091AA067091AB0633
:1019600080E090E00E94AD9220E030E048EC52E44C
:101970000E94E3919B01AC01F5016081718182813C
:1019800093810E947A91AB01BC0122E030E08AE4AD
:1019900099E00E94BC2A8091E90A9091EA0AF80134
:1019A000E81BF90BEE0FFF1FEE0FFF1FE75BF94F70
:1019B00040805180628073806091AA067091AB066E
:1019C00080E090E00E94AD924B015C0120E030E0AD
:1019D00048EC52E4C301B2010E94F8939B01AC01B0
:1019E000C501B4010E947A914B015C0120E030E016
:1019F000A9010E94849318165CF420E030E040E8CE
:101A00005FE3C501B4010E94849318165CF02AC0FC
:101A100020E030E040E85FEBC501B4010E94DF91B7
:101A200087FF20C02AE037ED43EA5BE3C301B20140
:101A30000E947B9120E030E048EC52E40E94F89351
:101A40000E9481927093AB066093AA0662E070E0F8
:101A500080E090E00E94392D42E06AEA76E0C7011A
:101A60000E94D12662E070E080E090E00E94392D73
:101A70006DE474E08AE499E00E94082B6BE474E062
:101A80008AE499E00E94082B8091E90A9091EA0A81
:101A9000F801E81BF90BEE0FFF1FEE0FFF1FEB51D4
:101AA000F54F408151816281738122E030E08AE408
:101AB00099E00E94BC2A69E474E08AE499E00E94FB
:101AC000082B8091E90A9091EA0AF801E81BF90BCA
:101AD000EE0FFF1FEE0FFF1FEB5BF94F40815181AF
:101AE0006281738122E030E08AE499E00E94BC2A9E
:101AF00067E474E08AE499E00E94082BF4E02F0E7A
:101B0000311C8601F4CD6701CC0CDD1CCC0CDD1C36
:101B100000E010E08091E90A9091EA0A0296E81646
:101B2000F90674F565E474E08AE499E00E94082BF4
:101B30003FEFE31AF30A4AE050E0B7018AE499E084
:101B40000E94BD2A63E474E08AE499E00E94082BB5
:101B5000F801EC0DFD1DEA5DF64F40815181628177
:101B6000738122E030E08AE499E00E94BC2A61E4BB
:101B700074E08AE499E00E94082B0C5F1F4FCACFE3
:101B800080912102811106C06EE774E08AE499E039
:101B90000E94082B8091E705813039F48091200262
:101BA000811109C06CE774E002C068E774E08AE460
:101BB00099E00E94082B68EC72E08AE499E00E94A8
:101BC000072B4AE050E06091E2058AE499E00E9428
:101BD000C12961E070E080912102882311F060E06A
:101BE00070E04AE050E08AE499E00E94BD2A61E09A
:101BF00070E080912002882311F060E070E04AE0FC
:101C000050E08AE499E00E94BD2A4AE050E06091E9
:101C1000DD058AE499E00E94C1294AE050E0609124
:101C200017028AE499E00E94C1294AE050E06091DD
:101C300082058AE499E00E94C12961E070E0809108
:101C4000EC059091ED05892B11F060E070E04AE021
:101C500050E08AE499E00E94BD2A68EC72E08AE4D0
:101C600099E00E94072B42E050E0609191058AE4E0
:101C700099E00E94C12968EC72E08AE499E00E9430
:101C8000072B60918705709188054AE050E08AE44F
:101C900099E00E94BD2A0E946258882319F067E5E6
:101CA00075E002C063E575E08AE499E00E94082BC4
:101CB0006091C6057091C7054AE050E08AE499E05A
:101CC0000E94BD2A0E94655330E1C32E3EE0D32E10
:101CD000E12CF12CA70196010E940C9C49015A01AC
:101CE0006091E8057091E9058091EA059091EB0516
:101CF000A70196010E940C9C281539054A055B0531
:101D000008F0F2C28AE499E00E94AE2983EF9AE0DB
:101D100026969FAF8EAF2697E6E2F9E02C96FFAFAE
:101D2000EEAF2C9700E010E0E090E30AF090E40AB8
:101D30000E151F050CF04BC1C8010E943C6D1C0123
:101D400062E070E080E090E00E94392D42E050E0D7
:101D50006AEA76E0C1010E94692762E070E080E0F3
:101D600090E00E94392D6FE475E08AE499E00E94CA
:101D7000082B0F5F1F4F4AE050E0B8018AE499E05A
:101D80000E94BD2A6DE475E08AE499E00E94082B68
:101D90006BE475E08AE499E00E94082B6091AA0642
:101DA0007091AB0680E090E00E94AD9220E030E0C0
:101DB00048EC52E40E94E39120E030E048E452E431
:101DC0000E947A91AB01BC0122E030E08AE499E004
:101DD0000E94BC2A69E475E08AE499E00E94082B1D
:101DE000A10160E070E02AE08AE499E00E945A29AB
:101DF00067E475E08AE499E00E94082B023011053F
:101E0000E9F580911E0990911F09A0912009B091D8
:101E100021098093220990932309A0932409B09368
:101E2000250980911A0990911B09A0911C09B09174
:101E30001D0980931E0990931F09A0932009B09358
:101E4000210980912A0990912B09A0912C09B09128
:101E50002D0980931A0990931B09A0931C09B09334
:101E60001D090E94A924882319F064E475E002C0CA
:101E700061E475E08AE499E00E94082B2C96EEADAF
:101E8000FFAD2C97C190D190E190F1902C96FFAFCF
:101E9000EEAF2C976091AA067091AB0680E090E0BF
:101EA0000E94AD9220E030E048EC52E40E94E391C1
:101EB00020E030E048E452E40E947A912B013C019A
:101EC0009B01AC01C701B6010E947A914B015C01F4
:101ED00020E030E0A9010E94849318165CF42AE007
:101EE00037ED43E25CE3C501B4010E948493181608
:101EF0005CF052C02AE037ED43E25CEBC501B4016F
:101F00000E94DF9187FF48C0A30192012696EEADA3
:101F1000FFAD269760817181828193810E947A91C1
:101F20004B015C012AE037ED43EA5BE3C701B601F0
:101F30000E947B9120E030E048E452E40E947B91D3
:101F400020E030E048EC52E40E94F8930E94819235
:101F50007093AB066093AA06A7019601C501B40170
:101F60000E947B912696EEADFFAD2697608371832C
:101F70008283938362E070E080E090E00E94392DDC
:101F800042E06AEA76E0C1010E94D12662E070E098
:101F900080E090E00E94392D2696EEADFFAD2697A9
:101FA00061917191819191912696FFAFEEAF269745
:101FB00020E030E048E253E40E942558AB01BC0128
:101FC00022E030E08AE499E00E94BC2AADCEC7014D
:101FD000880F991F880F991F9C012D50354F69015B
:101FE0008091E30A9091E40A8E159F050CF4F4C0E9
:101FF0008AE499E00E94AE29C7010E943C6D8C01E1
:1020000042E050E06AEA76E00E9469276CE375E0FE
:102010008AE499E00E94082B8091E30A9091E40AF7
:10202000B701681B790B6F5F7F4F4AE050E08AE48D
:1020300099E00E94BD2A6AE375E08AE499E00E9473
:10204000082B68E375E08AE499E00E94082B609110
:10205000AA067091AB0680E090E00E94AD9220E06D
:1020600030E048EC52E40E94E391AB01BC0122E075
:1020700030E08AE499E00E94BC2A66E375E08AE4D5
:1020800099E00E94082BA80160E070E02AE08AE451
:1020900099E00E945A2964E375E08AE499E00E947D
:1020A000082B8091E30A9091E40AF701E81BF90BF1
:1020B000EE0FFF1FEE0FFF1FE75BF94F808091804F
:1020C000A280B3806091AA067091AB0680E090E098
:1020D0000E94AD9220E030E048EC52E40E94E3918F
:1020E00028966CAF7DAF8EAF9FAF28979B01AC0158
:1020F000C501B4010E947A912B013C0120E030E03F
:10210000A9010E94849318165CF42AE037ED43E29B
:102110005CE3C301B2010E94849318165CF044C0D2
:102120002AE037ED43E25CEBC301B2010E94DF918C
:1021300087FF3AC028962CAD3DAD4EAD5FAD2897D8
:10214000F60160817181828193810E947A912B01D5
:102150003C012AE037ED43EA5BE3C501B4010E948C
:102160007B9120E030E048EC52E40E94F8930E941A
:1021700081927093AB066093AA06A5019401C301F6
:10218000B2010E947B91F601608371838283938305
:1021900042E06AEA76E0C8010E94D12662E070E07F
:1021A00080E090E00E94392DF6016191719181915A
:1021B00091916F0120E030E048E253E40E942558FD
:1021C000AB01BC0122E030E08AE499E00E94BC2A25
:1021D000FFEFEF1AFF0A04CF8AE499E00E94AE29CC
:1021E00062E275E08AE499E00E94082B4091F605CE
:1021F0005091F7056091F8057091F9052AE030E0FB
:102200008AE499E00E94A2296EE175E08AE499E0EF
:102210000E94082BC090F605D090F705E090F805D5
:10222000F090F9056091FA057091FB058091FC052D
:102230009091FD05C114D104E104F10489F00E94DC
:10224000AD924B015C01C701B6010E94AD929B01AA
:10225000AC01C501B4010E94E391AB01BC0104C013
:1022600040E050E060E87FEB22E030E08AE499E073
:102270000E94BC2A6AE175E08AE499E00E94082B7A
:1022800068E075E08AE499E00E94082B4091EE0531
:102290005091EF056091F0057091F1052AE030E072
:1022A0008AE499E00E94A22966E075E08AE499E058
:1022B0000E94082B4091F2055091F3056091F405BE
:1022C0007091F5052AE030E08AE499E00E94A229A5
:1022D0001092F2051092F3051092F4051092F50594
:1022E0008AE499E00E94AE29CE014C960E940871C2
:1022F000CE01C7960E94F86743E1BE01695C7F4F3B
:10230000CE0101960E94CB62BE016F5F7F4FCE016E
:102310004C960E94A262CE014C960E94E9708823DE
:1023200009F45BC10E946553AB01BC01CE01C796A5
:102330000E943F54BE01695C7F4FCE014C960E94C3
:10234000072B68EC72E0CE014C960E94072B0E948E
:102350006553AB01BC012AE030E0CE014C960E94EF
:10236000A22900E010E08091E30A9091E40A0817A6
:102370001907DCF468EC72E0CE014C960E94072B42
:102380002A96EEADFFAD2A974191519161917191DD
:102390002A96FFAFEEAF2A9722E030E0CE014C96AE
:1023A0000E94BC2A0F5F1F4FDECF0091E90A1091F7
:1023B000EA0A8091E90A9091EA0A8017910734F1BC
:1023C0006DEA74E0CE014C960E94082B8091E90AD8
:1023D0009091EA0AF801E81BF90BEE0FFF1FEE0FD0
:1023E000FF1FE75BF94F408151816281738122E0D9
:1023F00030E0CE014C960E94BC2A6BEA74E0CE011C
:102400004C960E94082B0F5F1F4FD3CF68EC72E0F1
:10241000CE014C960E94072B80912102811106C0AB
:1024200069EA74E0CE014C960E94082B8091E70582
:10243000813039F480912002811109C067EA74E08B
:1024400002C063EA74E0CE014C960E94082B68EC4F
:1024500072E0CE014C960E94072B60E080E00E9463
:102460002476AB01BC0123E030E0CE014C960E9403
:10247000BC2A6DE974E0CE014C960E94082B609155
:102480009205709193054AE050E0CE014C960E946F
:10249000BD2A6AE974E0CE014C960E94082BC090D8
:1024A0009E05D0909F05E090A005F090A105609159
:1024B000A2057091A3058091A4059091A505C11472
:1024C000D104E104F10489F00E94AD924B015C015A
:1024D000C701B6010E94AD929B01AC01C501B401D8
:1024E0000E94E391AB01BC0104C040E050E060E811
:1024F0007FEB23E030E0CE014C960E94BC2A68E9D5
:1025000074E0CE014C960E94082B60919C0570915E
:102510009D054AE050E0CE014C960E94BD2A66E936
:1025200074E0CE014C960E94082B6DE874E0CE0159
:102530004C960E94082B0E944A45AB01BC0122E048
:1025400030E0CE014C960E94BC2A6BE874E0CE01CC
:102550004C960E94082B6091AA057091AB05809162
:10256000AC059091AD050E94AD929B01AC016091CC
:10257000AE057091AF058091B0059091B1050E94B4
:102580002558AB01BC0124E030E0CE014C960E94FE
:10259000BC2A69E874E0CE014C960E94082B409159
:1025A000A6055091A7056091A8057091A90522E0A4
:1025B00030E0CE014C960E94BC2A66E874E0CE0161
:1025C0004C960E94082B65E874E0CE014C960E9460
:1025D0002C2BCE014C960E94F67064E670E080E0F1
:1025E00090E00E94392D6FEF74E08AE499E00E9438
:1025F000082B61E081E00E942476AB01BC0140938E
:1026000018025093190260931A0270931B0222E081
:1026100030E08AE499E00E94BC2A6CEF74E08AE41E
:1026200099E00E94082BC090D505D090D605E09087
:10263000D705F090D80520E030E04AE754E4C70120
:10264000B6010E94849387FD2DC020E030E04AE768
:1026500054E4C701B6010E94E3916B017C0120E0C4
:1026600030E048EC52E40E94849318161CF421E0F8
:1026700030E00FC020E030E040E251E4C701B60195
:102680000E94849318161CF422E030E002C023E07C
:1026900030E0B701A6018AE499E00E94BC2A61EB10
:1026A00074E024C020E030E048EC52E4C701B601F9
:1026B0000E94849318161CF421E030E00FC020E043
:1026C00030E040E251E4C701B6010E94849318163D
:1026D0001CF422E030E002C023E030E0B701A601A4
:1026E0008AE499E00E94BC2A66EB74E08AE499E0EF
:1026F0000E94082B69EF74E08AE499E00E94082B9D
:102700008AE499E00E9493286FEE74E08AE499E0ED
:102710000E94082B8091E205811109C06091BE05DD
:102720007091BF058091C0059091C1051CC081309A
:1027300051F5C090BE05D090BF05E090C005F09067
:10274000C1050E9465530091E3051091E4052091B5
:10275000E5053091E605C01AD10AE20AF30A6C0DCC
:102760007D1D8E1D9F1D0E94AD9220E030E041E650
:1027700055E40E94E391AB01BC0122E030E08AE421
:1027800099E00E94BC2A6DEE74E08AE499E00E9410
:10279000082B8091DD05811109C060919805709129
:1027A000990580919A0590919B051AC0C090980553
:1027B000D0909905E0909A05F0909B050E94655392
:1027C00000918D0510918E0520918F053091900517
:1027D000C01AD10AE20AF30A6C0D7D1D8E1D9F1DE1
:1027E0000E94AD9220E030E041E655E40E94E39182
:1027F000AB01BC0122E030E08AE499E00E94BC2AEF
:102800006BEE74E08AE499E00E94082B80918205C7
:10281000811109C06091940570919505809196058C
:10282000909197051AC0C0909405D0909505E090BE
:102830009605F09097050E946553009189051091C7
:102840008A0520918B0530918C05C01AD10AE20AC5
:10285000F30A6C0D7D1D8E1D9F1D0E94AD9220E020
:1028600030E041E655E40E94E391AB01BC0122E077
:1028700030E08AE499E00E94BC2A8AE499E00E9450
:10288000AE2966EE74E08AE499E00E94082B0E946B
:102890005359AB01BC0123E030E08AE499E00E9487
:1028A000BC2A61EE74E08AE499E00E94082B0E9441
:1028B000B158AB01BC0121E030E08AE499E00E940C
:1028C000BC2A6EED74E08AE499E00E94082B0E9415
:1028D000985AAB01BC0121E030E08AE499E00E9403
:1028E000BC2A6CED74E08AE499E00E94082B0E94F7
:1028F0003A5AAB01BC0121E030E08AE499E00E9441
:10290000BC2A69ED74E08AE499E00E94082B80E01B
:102910000E94134DAB01BC0121E030E08AE499E054
:102920000E94BC2A67ED74E08AE499E00E94082BBB
:1029300081E00E94134DAB01BC0121E030E08AE44C
:1029400099E00E94BC2A61ED74E08AE499E00E945B
:10295000082B60919205709193054AE050E08AE45B
:1029600099E00E94BD2A6FEC74E08AE499E00E942D
:10297000082BC0909E05D0909F05E090A005F09098
:10298000A1056091A2057091A3058091A405909185
:10299000A505C114D104E104F10489F00E94AD92AF
:1029A0004B015C01C701B6010E94AD929B01AC01D5
:1029B000C501B4010E94E391AB01BC0104C040E039
:1029C00050E060E87FEB23E030E08AE499E00E9489
:1029D000BC2A6DEC74E08AE499E00E94082B6091B7
:1029E0009C0570919D054AE050E08AE499E00E94C0
:1029F000BD2A6BEC74E08AE499E00E94082B68EC35
:102A000072E08AE499E00E94072B6091530570916F
:102A100054054AE050E08AE499E00E94BD2A62EC45
:102A200074E08AE499E00E94082B0E944A45AB01B9
:102A3000BC0122E030E08AE499E00E94BC2A60EC0C
:102A400074E08AE499E00E94082B6091AA057091D5
:102A5000AB058091AC059091AD050E94AD929B01B4
:102A6000AC016091AE057091AF058091B005909179
:102A7000B1050E942558AB01BC0124E030E08AE496
:102A800099E00E94BC2A6EEB74E08AE499E00E940F
:102A9000082B4091A6055091A7056091A80570915B
:102AA000A90522E030E08AE499E00E94BC2A6AEBA2
:102AB00074E08AE499E00E94082B81E00E94656935
:102AC0000E941369C55BDF4F0FB6F894DEBF0FBEDF
:102AD000CDBFDF91CF911F910F91FF90EF90DF90CD
:102AE000CF90BF90AF909F908F907F906F905F90AE
:102AF0004F903F902F900895BC0181EC93E00C948F
:102B00006E2F4F925F926F927F928F929F92AF92B1
:102B1000BF92CF92DF92EF92FF920F931F93CF93CA
:102B2000DF93CDB7DEB72C970FB6F894DEBF0FBE9C
:102B3000CDBF6C010E94D023C60173E0880F991F9E
:102B40007A95E1F78A5A994F0E9462248EEB0E948F
:102B50003924CE0101967C015E019AE0A90EB11CD8
:102B6000470100E010E068E0462E512C6624639493
:102B7000712C0E94842481117628660CE1E04E1AA3
:102B80005108B9F7F40171924F01711002C00F5F43
:102B90001F4F8A149B0439F7D701E0E088E08E0DBF
:102BA0008A1739F09D91E927F0E0ED55F94FE4914E
:102BB000F7CF8985E81711F0085F1F4F6A8170E031
:102BC000762F66278981682BF601E35BF94F8081B8
:102BD000882389F043E0660F771F4A95E1F78885DF
:102BE0008031E9F4607F2F818CE090E0821B9109B5
:102BF000680F791F14C08D81807631F433E0660F41
:102C0000771F3A95E1F70BC0803229F4660F771FE2
:102C1000660F771F04C0803411F4660F771F80E0C1
:102C200090E00E94AD9220E030E040E85DE30E9439
:102C3000F8932B013C0120E030E04AE754E40E9485
:102C4000849318161CF008301105ECF18AE499E021
:102C50000E94AE2963EA77E08AE499E00E94082B9B
:102C6000B6016F5F7F4F4AE050E08AE499E00E942E
:102C7000BD2A68EC72E08AE499E00E94072BF70114
:102C800061917F0140E150E08AE499E00E94C1290E
:102C9000EA14FB0471F768EC72E08AE499E00E94A0
:102CA000072B22E030E0B301A2018AE499E00E9400
:102CB000BC2A083011053CF0412C80E4582E8AE7EC
:102CC000682E84E4782EC301B2012C960FB6F894D6
:102CD000DEBF0FBECDBFDF91CF911F910F91FF904F
:102CE000EF90DF90CF90BF90AF909F908F907F90AC
:102CF0006F905F904F900895CF92DF92EF92FF9286
:102D00001F93CF93DF93CDB7DEB72D970FB6F8940F
:102D1000DEBF0FBECDBF9091C30B923009F431C11D
:102D2000813009F0A2C0C0904209D0904309E090E0
:102D30004409F090450920E030E040EA50E4C70142
:102D4000B6010E94849318160CF01BC120E030E0FD
:102D50004CE052E4C701B6010E94DF9187FF11C128
:102D60008091210281114DC010912002113009F093
:102D700008C1C090A606D090A706E090A806F090E3
:102D8000A9060E946553DC01CB018C199D09AE098F
:102D9000BF094597A105B10508F4F3C060E087E2DB
:102DA0000E94C32B0E9465536093DE057093DF057C
:102DB0008093E0059093E105109220021093E705BF
:102DC0008AE499E00E94AE290E946553AB01BC01E0
:102DD000CE0101960E943F54BE016F5F7F4F8AE48F
:102DE00099E00E94072B6DE876E08AE499E00E9462
:102DF000082B6AEF70E080E090E00E94392D69E1D5
:102E0000B9C0813009F0BDC060E088E20E94C32BE8
:102E10000E9465536093A6067093A7068093A80648
:102E20009093A906109221028AE499E00E94AE29AB
:102E30000E946553AB01BC01CE0101960E943F5434
:102E4000BE016F5F7F4F8AE499E00E94072B61E724
:102E500076E08AE499E00E94082B6AEF70E080E057
:102E600090E00E94392D64E185C01091200211305C
:102E700009F04AC080912102811183C0C090DE0513
:102E8000D090DF05E090E005F090E1050E946553E9
:102E9000DC01CB018C199D09AE09BF094597A1053D
:102EA000B10508F46EC061E088E20E94C32B0E9465
:102EB00065536093A6067093A7068093A806909327
:102EC000A906109321028AE499E00E94AE290E948B
:102ED0006553AB01BC01CE0101960E943F54BE0177
:102EE0006F5F7F4F8AE499E00E94072B64E576E0EC
:102EF0008AE499E00E94082B6AEF70E080E090E09D
:102F00000E94392D64E139C011113BC061E087E2B4
:102F10000E94C32B0E9465536093DE057093DF050A
:102F20008093E0059093E10581E080932002109268
:102F3000E7058AE499E00E94AE290E946553AB013F
:102F4000BC01CE0101960E943F54BE016F5F7F4FCE
:102F50008AE499E00E94072B6DE376E08AE499E029
:102F60000E94082B6AEF70E080E090E00E94392D0B
:102F700069E103C081E090E002C080E090E00E943F
:102F8000A3632D960FB6F894DEBF0FBECDBFDF91C1
:102F9000CF911F91FF90EF90DF90CF90089561ED5A
:102FA00073E08AE499E00E94B12969E17FE08CED49
:102FB00093E00E946E2F67EC7AE082EE93E00E942D
:102FC0006E2F61E17FE088EE93E00E946E2F65E155
:102FD0007FE08EEE93E00E946E2F63EB7AE088EF45
:102FE00093E00E946E2F64EA7AE084E094E00E940D
:102FF0006E2F6BE07FE08BE094E00E946E2F62EA20
:1030000076E083E194E00E946E2F63E376E08AE449
:1030100099E00E94082B2AE040E550E060E070E073
:103020008AE499E00E945A298AE499E00E94AE2934
:1030300068E276E08AE499E00E94082B8091CD0A4C
:10304000882319F063E276E002C06DE176E08AE45D
:1030500099E00E942C2B64E076E08AE499E00E94DB
:10306000082B6EEF75E08AE499E00E942C2B63EF49
:1030700075E08AE499E00E94082B4091CB0A5091B8
:10308000CC0A60E070E02AE08AE499E00E945A29C4
:103090008AE499E00E94AE2968EE75E08AE499E03E
:1030A0000E94082B0E949260882319F066EE75E05A
:1030B00002C064EE75E08AE499E00C942C2B2F9208
:1030C0003F924F925F926F927F928F929F92AF92B8
:1030D000BF92CF92DF92EF92FF920F931F93CF9305
:1030E000DF93CDB7DEB7C556D1090FB6F894DEBF72
:1030F0000FBECDBF0E94B65F6C010E9443317C01C0
:1031000080919A0681110DC00E94712D60939606E0
:1031100070939706809398069093990681E0809328
:103120009A06E114F10409F4DAC11092450A1092EA
:10313000440A85E89CE09093470A8093460A90935E
:10314000490A8093480ACE01825B9F4F66969FAFE3
:103150008EAF6697609126097091270980912809A2
:10316000909129098E01025B1F4F22E042E00E94EC
:10317000B197CE01885B9F4F68969FAF8EAF6897DF
:1031800060912A0970912B0980912C0990912D0949
:103190000650110922E042E00E94B197CE018E5BF9
:1031A0009F4F6A969FAF8EAF6A9760912E0970917C
:1031B0002F0980913009909131090650110922E0C0
:1031C00042E00E94B197CE01CC966C969FAF8EAF35
:1031D0006C97609132097091330980913409909114
:1031E00035090650110922E042E00E94B197CE0154
:1031F000C6966E969FAF8EAF6E97609136097091AE
:10320000370980913809909139090650110922E057
:1032100042E00E94B197CE01C096A0969FAF8EAFBC
:10322000A09760913A0970913B0980913C09909177
:103230003D090650110922E042E00E94B1971E01AB
:103240009AE2290E311C60913E0970913F098091EC
:10325000400990914109810122E042E00E94B1972A
:103260002E0184E2480E511C60914209709143097D
:103270008091440990914509820122E042E00E9438
:10328000B1975E019EE1A90EB11C60914609709153
:1032900047098091480990914909850122E042E05F
:1032A0000E94B1974E0188E1880E911C60914906F9
:1032B00070914A0680914B0690914C06840122E061
:1032C00042E00E94B1973E0192E1690E711C60914B
:1032D0004506709146068091470690914806830105
:1032E00022E042E00E94B1970E943354BC01A596AF
:1032F0008FAFA597A6967FAFA6970E943954AC01D1
:10330000A3968FAFA397A4965FAFA4970E9419547A
:103310009C01A1968FAFA197A2963FAFA2970E9462
:103320002154182F092F0E942D54A6967FADA697E1
:103330007F93A5966FADA5976F93A4965FADA49765
:103340005F93A3964FADA3974F93A2963FADA297DD
:103350003F93A1962FADA1972F930F931F939F9308
:103360008F938FE194E09F938F93CE0101969F936B
:103370008F930E94E89481E02091EC053091ED0557
:10338000232B09F080E01F928F93809182051F927A
:103390008F93809117021F928F938091DD051F926A
:1033A0008F9381E090912002911180E01F928F9382
:1033B00081E090912102911180E01F928F93809182
:1033C000E2051F928F93809193058F9380919205D0
:1033D0008F937F926F929F928F92BF92AF925F92E4
:1033E0004F923F922F92A0968FADA0978F936F969A
:1033F0009FAD6F979F936E968FAD6E978F936D96DF
:103400009FAD6D979F936C968FAD6C978F936B96D6
:103410009FAD6B979F936A968FAD6A978F936996CE
:103420009FAD69979F9368968FAD68978F936796C6
:103430009FAD67979F9366968FAD66978F936596BE
:103440009FAD65979F93CE0101969F938F9389E2DD
:1034500098E09F938F9382E49AE09F938F930E94CA
:10346000DE220091480A1091490A8091460A909103
:10347000470A081B190B0FB6F894DEBF0FBECDBF6D
:1034800060E08091B70A9091B80A0E94726089E169
:1034900080937E0CC8010E9457606FED75E08AE44E
:1034A00099E00E94082BA60160E070E02AE08AE41F
:1034B00099E00E945A296DED75E08AE499E00E9436
:1034C000082BA70160E070E02AE08AE499E00E94FE
:1034D0005A296AED75E08AE499E00E94082BCB59DD
:1034E000DF4F0FB6F894DEBF0FBECDBFDF91CF9197
:1034F0001F910F91FF90EF90DF90CF90BF90AF9012
:103500009F908F907F906F905F904F903F902F9003
:103510000895AF92BF92CF92DF92EF92FF920F93F6
:103520001F93CF93DF93D82F66E374E082E996E090
:103530000E941F2F05E010E08CEBC82E82E0D82EF1
:1035400095E3E92E89E19FE024E0F22EF80EDD23D9
:10355000A1F060E087E10E94C32B6AEF70E080E099
:1035600090E00E94392D61E087E10E94C32B69E160
:1035700070E080E090E00E94392D1092CD0A0E9408
:10358000CE7467E372E08DEA9AE00E94932FD092A6
:10359000760BC092750B0CB406FE0E94B660E092EA
:1035A000740B61E085E30E94F22B0E94DE5E4FEF18
:1035B00060E08FEF0E94315F62E070E080E090E0B9
:1035C0000E94392D8DE10E9480738823D9F360E039
:1035D00070E088E00E947C5F60E070E08CE00E9418
:1035E0007C5F6FEF7BE08AE00E947C5F60E07CE0C4
:1035F00084E00E947C5F6FEF71E186E00E947C5F57
:1036000061EB88E30E946B5F6FE370E388E20E94E6
:103610007C5F69EF77EF80E30E947C5F6DE080EC78
:103620000E946B5F60E081EC0E946B5F42E362ECA2
:1036300080E80E94315F62E17CE086EC0E947C5F62
:1036400062E184EC0E946B5F6CED75E08AEC0E9495
:103650007C5F6091AD0A84EE0E946B5F6091AE0A60
:1036600085EE0E946B5F6091AF0A82EE0E946B5FF5
:103670006091B00A83EE0E946B5F6091B10A80EEA8
:103680000E946B5F6091B20A81EE0E946B5F60E105
:1036900084ED0E946B5F60E071E086ED0E947C5FCC
:1036A0008AEE0E94AF5F80FDFBCF8FE10E94485FF2
:1036B00040EC6BE180E80E94315F44E06FE180E81C
:1036C0000E94315F82E70E94AF5FC82F863008F00A
:1036D000CF5FC11107C065EB75E08AE499E00E94F5
:1036E0002C2BACC1D11109C062EA75E08AE499E0E3
:1036F0000E94082B8C2F0E947A6D1092CD0A63E3F2
:1037000072E089E19FE00E9407311092CC0A10928A
:10371000CB0A81E080930F0F6FE272E087EC9AE0B2
:103720000E9407316BE272E081E19FE00E94073165
:1037300067E272E085E19FE00E94073125E13FE00A
:1037400043EB5AE0E9E1FFE09191D9018D919D01B0
:103750008095892BDA018D93AD01FE12F5CF109281
:10376000CC0A1092CB0A66E374E082EA96E00E94EB
:103770001F2FC82F65E070E080E090E00E94392D97
:10378000CC2309F418C168E975E08AE499E00E9445
:10379000082B4AE050E06C2F8AE499E00E94C1298E
:1037A00062EA76E084E494E00E946E2F6EE474E0B6
:1037B00082EA96E00E941F2FC82F65E070E080E04B
:1037C00090E00E94392DCC2309F4F5C06EE875E035
:1037D0008AE499E00E94082B4AE050E06C2F8AE4CA
:1037E00099E00E94C12962EA76E084E494E00E94B4
:1037F0006E2F6DE574E082EA96E00E941F2FC82FBD
:1038000065E070E080E090E00E94392DCC2309F45F
:10381000D2C064E875E08AE499E00E94082B4AE08F
:1038200050E06C2F8AE499E00E94C12962EA76E0B8
:1038300084E494E00E946E2F6CE674E082EA96E0E5
:103840000E941F2FC82F65E070E080E090E00E948A
:10385000392DCC2309F4AFC06AE775E08AE499E01A
:103860000E94082B4AE050E06C2F8AE499E00E9405
:10387000C12962EA76E084E494E00E946E2F0CB4E1
:1038800006FE0E94B660E092740B61E085E30E9440
:10389000F22B0E94DE5E4FEF60E08FEF0E94315FFF
:1038A00062E070E080E090E00E94392D8DE10E949E
:1038B00080738823D9F360E08FE10E946B5F60E042
:1038C00070E080E10E947C5F6FEF7FE182E10E9407
:1038D0007C5F6FEF7FE18AE00E947C5F87E60E9459
:1038E000485F67E087E60E946B5F87E60E9480730F
:1038F00080FDFBCF42E067E680EA0E94315F40E353
:103900006FE180E80E94315F86E10E94485F8FE1AD
:103910000E94807385FDFBCF86E10E94A5605C015B
:1039200088E60E94A560A816B90689F5B7E0AB162F
:10393000B8EFBB0661F542E067E680EA0E94315FBE
:103940000E94712D6A6A86E60E946B5F63E187E6DA
:103950000E946B5F87E60E94807380FDFBCF42E090
:1039600067E680EA0E94315F40E36FE180E80E94F1
:10397000315F86E10E94485F8FE10E94807385FD80
:10398000FBCF86E10E94A56088E60E94A56065E005
:1039900070E080E090E00E94392D60E775E08AE4F5
:1039A00099E00E94082B4AE050E06C2F8AE499E0ED
:1039B0000E94C12943C081EB93E00E94BD73811135
:1039C00007C065E675E08AE499E00E942C2B12C0DE
:1039D0006BE07FE08EE896E00E9407316BE07FE0CD
:1039E0008BE794E00E946E2F6EE876E081E894E029
:1039F0000E946E2FD11108C064E670E080E090E074
:103A00000E94392DCCDA13C06BE575E08AE499E0A9
:103A10000E94082B4AE050E060E08AE499E00E94AE
:103A2000C1296BE07FE08AE894E00E946E2F8CE76A
:103A300095E19093BA0A8093B90A04C00150110924
:103A400009F085CDDF91CF911F910F91FF90EF90FD
:103A5000DF90CF90BF90AF90089580915705882355
:103A600031F061E070E080E090E00E94392D83E069
:103A70000E949B2B2091AD06422F50E084179507A2
:103A8000A9F081E082278093AD06882369F08091B8
:103A9000AC06811109C0809155059091560501979A
:103AA000909356058093550510925705089580917F
:103AB0005705882331F061E070E080E090E00E94DB
:103AC000392D82E00E949B2B2091AC06422F50E0C2
:103AD00084179507A9F081E082278093AC0688239C
:103AE00069F08091AD06811109C0809155059091D2
:103AF00056050196909356058093550510925705EB
:103B000008958F929F92AF92BF92CF92DF92EF92E1
:103B1000FF92CF9387E79AE00E9454366DEF77E0EB
:103B200087E79AE00E94082B61E080E00E94362639
:103B30001092F4091092F2091092EF091092EE0916
:103B40008AE08093ED090E94712D6B017C0161E098
:103B50008091ED090E94F22B61E08091ED090E94B5
:103B6000C32BCFB7F8948091AE06811127C0E7EC44
:103B7000F9E08491EDE0FAE09491E82FF0E0EE0FA7
:103B8000FF1FE25EF54FA591B491EC91E92321F47A
:103B900061E085E30E94C32B61E085E30E94F22B84
:103BA0008CB580618CBD8CB580648CBD61E084E394
:103BB0000E94F22B61E083E30E94F22B8091AE061B
:103BC0008F5F8093AE06CFBF82E58093E7091092A6
:103BD000E8098091E7099091E8090E94396FCAE0ED
:103BE0008FEF0E94FE6EC150D9F789EE99E00E94D6
:103BF0003C6F20E030E0A90160E089EE99E00E948E
:103C0000516FC82F8093F309813049F00E94712DC4
:103C10006C197D09613D774060F381E054C02AEA68
:103C200031E040E050E068E089EE99E00E94516F99
:103C300082FF03C0C093F4090EC0C4E00E94056F68
:103C40008093F309C150D1F78A3A11F082E03BC06A
:103C500082E08093F4098091F409823021F0812C74
:103C6000912C540105C0812C912CA12C30E4B32E51
:103C700020E030E0A90167E389EE99E00E94516FEE
:103C8000A501940169E289EE99E00E94516F809349
:103C9000F309882349F00E94712D6C197D09613D5B
:103CA000774030F388E00FC08091F409823001F54D
:103CB00020E030E0A9016AE389EE99E00E94516FAB
:103CC000882341F086E08093EE0989EE99E00E9416
:103CD000F36E9BC00E94056F807C803C19F483E0EA
:103CE0008093F4090E94056F0E94056F0E94056F82
:103CF00089EE99E00E94F36E80E58093E7091092C7
:103D0000E80981E084D6882329F08091180A882365
:103D100039F07BC080E07BD6882309F476C0F5CFEC
:103D200080910C0A803109F582E08093180A109284
:103D30002A0A10922B0A10922C0A10922D0A8091B6
:103D40000D0A90910E0AA0E0B0E025E0880F991FBF
:103D5000AA1FBB1F2A95D1F78093260A9093270AA2
:103D6000A093280AB093290A1EC0803209F04DC0E2
:103D700083E08093180A40910F0A5091100A6091D5
:103D8000110A7091120A40932A0A50932B0A6093E9
:103D90002C0A70932D0A26E23AE085EF99E00E9402
:103DA000C537882391F185EF99E090932F0A80938E
:103DB0002E0A81E08093170A1092190A10921A0AAB
:103DC00010921B0A10921C0A10921D0A10921E0AD1
:103DD00010921F0A1092200A1092210A1092220AB1
:103DE0001092230A1092240A1092250A66EF77E0B7
:103DF00087E79AE0CF91FF90EF90DF90CF90BF9050
:103E0000AF909F908F900C94082B64E974E082EB44
:103E100095E00E94D29462EB75E08AE499E00E94FA
:103E2000B12962EB75E087E79AE0CF91FF90EF90C0
:103E3000DF90CF90BF90AF909F908F900C94072B06
:103E40008F929F92AF92BF92CF92DF92EF92FF92AA
:103E50000F931F93CF93DF93CDB7DEB729970FB69C
:103E6000F894DEBF0FBECDBF8C01E0907302F090DE
:103E70007402E816F90621F087E79AE00E945436AA
:103E80000830110508F06DC3F80160E08827EE588E
:103E9000FF4F8F4F0C94729180E0E8D60E942D5412
:103EA0000E94D53E80917302909174028017910711
:103EB00031F066EC72E087E79AE00E94072B60E041
:103EC00083E0D4D60E9421540E94D53E8091730293
:103ED000909174028017910731F066EC72E087E7E9
:103EE0009AE00E94072B60E086E0C0D60E94195439
:103EF0004AE050E0BC0187E79AE00E94BD2A60E0FA
:103F00008BE0B4D60E946553AB01BC01CE01019693
:103F10000E943F54BE016F5F7F4F87E79AE00E9487
:103F2000072B61E080E0A2D64091420950914309FD
:103F3000609144097091450921E030E087E79AE0FB
:103F40000E94BC2A8091730290917402801791079D
:103F500049F061E085E08AD660EF77E087E79AE094
:103F60000E94082B61E08AE081D640914906509179
:103F70004A0660914B0670914C0620E030E087E7DE
:103F80009AE00E94BC2A809173029091740280177B
:103F9000910731F06EEE77E087E79AE00E94082BF8
:103FA00061E08EE063D640912A0950912B0960911F
:103FB0002C0970912D0921E030E087E79AE00E94FA
:103FC000BC2A80917302909174028017910709F0C6
:103FD00028C1DDC280E04AD682E0E816F10461F033
:103FE00063E472E087E79AE00E94072B62EC72E0DC
:103FF00087E79AE00E94072B60E087E037D6409180
:104000002A0950912B0960912C0970912D0922E009
:1040100030E087E79AE00E94BC2A80917302909179
:104020007402029731F068EC72E087E79AE00E9430
:10403000072B60E08DE01AD60E943354CB9734F4FE
:104040000E9433540196880F991F02C080E090E0CF
:1040500042E050E06AEA76E088963BD76091AA0693
:104060007091AB0680E090E00E94AD9220E030E0DD
:1040700048EC52E40E94E39120E030E048E452E44E
:104080000E947A919B01AC0160912A0970912B09E1
:1040900080912C0990912D090E947A91AB01BC016D
:1040A00022E030E087E79AE00E94BC2A61E080E0ED
:1040B000DDD580912102811106C06CEE77E087E7A3
:1040C0009AE00E94082B8091E705813051F480919D
:1040D000200281110FC061E081E0C8D56AEE77E06F
:1040E00005C061E082E0C2D566EE77E087E79AE03E
:1040F0000E94082B61E085E0B9D58091E205C0906F
:10410000BE05D090BF05E090C005F090C1058111BB
:1041100006C0AE014F5F5F4FC701B60115C00E94D8
:1041200065538090E3059090E405A090E505B0907C
:10413000E605C818D908EA08FB086C0D7D1D8E1D20
:104140009F1DAE014F5F5F4F0E94293FAB01BC0135
:1041500022E030E087E79AE00E94BC2ABE016F5F50
:104160007F4F87E79AE00E94072B8091730290911E
:104170007402029749F061E08DE078D562EE77E055
:1041800087E79AE00E94082B61E081E16FD560919A
:104190009205709193054AE050E087E79AE00E940B
:1041A000BD2AF5C180E062D569E472E087E79AE054
:1041B0000E94072B62EC72E087E79AE00E94072BCF
:1041C00040912E0950912F09609130097091310969
:1041D00022E030E087E79AE00E94BC2A64EC72E0BB
:1041E00087E79AE00E94072B61E080E03FD56FE40B
:1041F00072E087E79AE00E94072B62EC72E087E7A3
:104200009AE00E94072B4091320950913309609146
:1042100034097091350922E030E087E79AE00E9486
:10422000BC2A64EC72E087E79AE00E94072BAFC1DA
:1042300080E01CD565E572E087E79AE00E94072BD5
:1042400062EC72E087E79AE00E94072B4091360902
:1042500050913709609138097091390922E030E0B6
:1042600087E79AE00E94BC2A64EC72E087E79AE054
:104270000E94072B61E080E0F9D46BE572E087E7EC
:104280009AE00E94072B62EC72E087E79AE00E94B6
:10429000072B40913A0950913B0960913C0970917C
:1042A0003D09B9CF80E0E2D461E672E087E79AE0A9
:1042B0000E94072B62EC72E087E79AE00E94072BCE
:1042C00040913E0950913F09609140097091410928
:1042D00022E030E087E79AE00E94BC2A64EC72E0BA
:1042E00087E79AE00E94072B61E080E0BFD46DE68B
:1042F00072E087E79AE00E94072B62EC72E087E7A2
:104300009AE00E94072B409146095091470960911D
:104310004809709149097FCF80E0A8D46DED77E01E
:1043200087E79AE00E94082B60E084E09FD461E078
:1043300080E00E942476AB01BC0123E030E087E7F7
:104340009AE00E94BC2A6BED77E087E79AE00E9432
:10435000082B60E08BE08AD480912102811106C095
:104360006EEB72E087E79AE00E94072B8091E705E9
:10437000813039F480912002811109C069ED77E024
:1043800002C065ED77E087E79AE00E94082B60E0C5
:104390008FE06CD48091E205C090BE05D090BF053F
:1043A000E090C005F090C105811106C0AE014F5FDD
:1043B0005F4FC701B60115C00E9465538090E305A9
:1043C0009090E405A090E505B090E605C818D908DE
:1043D000EA08FB086C0D7D1D8E1D9F1DAE014F5F11
:1043E0005F4F0E94293FAB01BC0122E030E087E72C
:1043F0009AE00E94BC2ABE016F5F7F4F87E79AE078
:104400000E94072B61E081E031D461ED77E087E71E
:104410009AE00E94082B0E945359AB01BC0121E095
:1044200030E087E79AE00E94BC2A61E08AE01ED46F
:104430006DEC77E087E79AE00E94082B0E94B15864
:10444000AB01BC0121E030E087E79AE00E94BC2A82
:104450009EC080E00BD468EB77E087E79AE00E948B
:10446000082BC0904E05D0904F05E0905005F0907D
:104470005105C701B6010E94F653B0904805C70127
:10448000B6010E94F6531F92BF92809149051F9278
:104490008F938CE294E09F938F93CE0101967C01E1
:1044A0009F938F930E94E89461E080E0DFD3609156
:1044B0004E0570914F0580915005909151050E94D5
:1044C000F65360914B0570E04AE050E087E79AE0D0
:1044D0000E94BD2A66EC72E087E79AE00E94072BF3
:1044E00060914E0570914F05809150059091510556
:1044F0000E94F65380914C05682F70E04AE050E02E
:1045000087E79AE00E94BD2A66EC72E087E79AE0AE
:104510000E94072B60914E0570914F0580915005C8
:10452000909151050E94F65380914D0590E0BC0199
:104530006E54784F4AE050E087E79AE00E94BD2A27
:1045400068EC72E087E79AE00E94072BB70187E7E3
:104550009AE00E94072B0FB6F894DEBF0FBECDBFC6
:1045600016C060E080E082D36FEA77E087E79AE0E8
:104570000E94082B61E080E079D366EA77E087E764
:104580009AE00E94082B10921502109214021093C8
:1045900074020093730229960FB6F894DEBF0FBE23
:1045A000CDBFDF91CF911F910F91FF90EF90DF90E2
:1045B000CF90BF90AF909F908F900895CF92DF9251
:1045C000EF92FF920F931F93CF93DF93CDB7DEB798
:1045D0008E01005F1F4F99E2E92E98E0F92EC70186
:1045E0000196F7012491222309F4D1C0243271F0FD
:1045F000E091480AF091490AAF014F5F5F4F509335
:10460000490A4093480A20837C01E9CFF2E0EF0E8B
:10461000F11CFC019491963409F46EC05CF494345E
:10462000B9F0953409F097C0F801808191810E5F4F
:104630001F4F7AC04091480A5091490A9C3409F4AE
:1046400043C0933509F44DC0983409F084C00EC0BE
:104650006801F2E0CF0ED11C6091480A7091490ABE
:10466000F801808191810E94B06182C0B8016E5FC3
:104670007F4FF8019081292F092E000C330B84E025
:10468000359527958A95E1F72F709F709A300CF039
:10469000995F905D2A300CF0295FFA013196F09312
:1046A000490AE093480A205DFA012083E091480A14
:1046B000F091490A9F012F5F3F4F3093490A2093A1
:1046C000480A90838B018BCF6801F4E0CF0ED11C98
:1046D000F80160817181828193812AE00E942C9986
:1046E00047C06801F2E0CF0ED11CF80160817181F2
:1046F000CA010E94D2943CC0F8010190F081E02DE3
:104700000E5F1F4F84913196882309F468CFA091E2
:10471000480AB091490A9D012F5F3F4F3093490AE3
:104720002093480A8C93EECF6C01FFEFCF1ADF0A7B
:104730000E94D89B882309F452CFE091480AF09157
:10474000490A9F012F5F3F4F3093490A2093480A3F
:104750008083C601E9CFE091480AF091490A9F01A0
:104760002F5F3F4F3093490A2093480A908337CFF9
:10477000E091480AF091490A01900020E9F7CF0141
:1047800001979093490A8093480A860128CFDF91C8
:10479000CF911F910F91FF90EF90DF90CF900895F0
:1047A0009091570AE091580AF091590AF894818142
:1047B000292F20958223818378948DE743E050E070
:1047C000815021F1DA011197F1F730813923C1F3DA
:1047D000F8948281822382838181892B81837894DA
:1047E000ABE7B7E01197F1F7F89481812823218393
:1047F000A3E1B1E01197F1F78081982381E009F0FE
:1048000080E07894E3E6F6E03197F1F7089590912F
:10481000570AE091580AF091590A392F309580FFD4
:1048200013C0F8942281832F822382838181892B74
:104830008183A3E2B0E01197F1F78281982B9283F4
:10484000789487ED90E012C0F8942281832F822320
:1048500082838181892B8183AFEFB0E01197F1F7DB
:104860008281982B928378948FE090E00197F1F702
:1048700008950F931F93CF93DF93082FC8E0D0E0E4
:1048800011E081E0912F902309F480E0C0DF110F47
:104890002197B9F7F894E091580AF091590A91815B
:1048A0008091570A809598239183E091580AF0915E
:1048B000590A9281892382837894DF91CF911F9145
:1048C0000F910895EF92FF920F931F93CF93DF9371
:1048D0001F92CDB7DEB7182F85E59983CADFE12E89
:1048E0009981F92E8701085F1F4FF70181917F01A0
:1048F000C0DFE016F106C9F70F90DF91CF911F914D
:104900000F91FF90EF9008958091570AE091580A17
:10491000F091590AF8949181982B91832281982FD4
:10492000909529232283A7E0B0E01197F1F7218128
:1049300092239183A3E2B0E01197F1F790817894EC
:10494000EFECF0E03197F1F7982381E009F480E093
:1049500008958F929F92AF92BF92CF92DF92EF9283
:10496000FF9220E030E046E952E460913E09709108
:104970003F0980914009909141090E94DF9187FD94
:104980003CC0C0902A09D0902B09E0902C09F090EF
:104990002D09A70196016091220970912309809148
:1049A0002409909125090E947A919B01AC010E94F3
:1049B000F8934B015C01A701960160911E0970916B
:1049C0001F0980912009909121090E947A919B01F1
:1049D000AC010E94F8939B01AC01C501B4010E9497
:1049E0007B910E945F942DEC3CEC4CEC5DE30E94CB
:1049F000DF91881F8827881F01C080E0FF90EF901B
:104A0000DF90CF90BF90AF909F908F9008958F923E
:104A10009F92AF92BF92CF92DF92EF92FF92CF938D
:104A2000DF93C82F89EE99E09093190980931809B4
:104A3000CC2369F1C53010F080E00DC140E060E0AA
:104A400070E0CB010E945B368823B1F320E1C29F66
:104A5000C0011124885F984FFC01E254FE4F208171
:104A60002F7751F73C9640815181628173814436A2
:104A700051056105710500F33497C080D180E28053
:104A8000F380C114D104E104F10421F4D5CFC12C89
:104A9000D12C760140E0C701B6010E945B36882325
:104AA00059F280912307909124078115924021F6B5
:104AB000A0912807AA2309F4BFCF6091260770911F
:104AC00027076115710509F4B7CF20912507222327
:104AD00009F4B2CFA093070A2093F90980E030E0EF
:104AE000E1E0F0E0C82FAF01082E02C0440F551FCF
:104AF0000A94E2F72417350741F0982F8F5F98301A
:104B000089F789E08093020A97CF8093020A209167
:104B10002E0730912F072115310519F040E050E0A4
:104B200008C020913C0730913D0740913E075091CD
:104B30003F072093FA093093FB094093FC095093F7
:104B4000FD0946015701860E971EA11CB11C8092DB
:104B5000080A9092090AA0920A0AB0920B0AE09100
:104B60002907F0912A07F0930E0AE0930D0AB0E0AE
:104B70000E94FC9B860E971EA81EB91E80920F0AEB
:104B80009092100AA092110AB092120A85E0EE0FDC
:104B9000FF1F8A95E1F7E150FE4FEF2FFF27E695C3
:104BA0008E0E9F1EA11CB11C8092030A9092040AD3
:104BB000A092050AB092060A20912B0730912C078B
:104BC0002115310521F0A90160E070E008C0409195
:104BD00038075091390760913A0770913B07D70128
:104BE000C60188199909AA09BB09840F951FA61F38
:104BF000B71F04C0B695A79597958795CA95D2F724
:104C00008093FE099093FF09A093000AB093010AD4
:104C1000853F2FE09207A105B10510F48CE018C084
:104C2000853F9F4FA105B10510F480E111C080912F
:104C3000440790914507A0914607B091470780939C
:104C40000F0A9093100AA093110AB093120A80E2FF
:104C500080930C0A81E0DF91CF91FF90EF90DF907D
:104C6000CF90BF90AF909F908F900895643008F0E0
:104C700063E090918A0A691710F06FEF690FE62FD1
:104C8000F0E0E958F54F9489682F690F606887E76D
:104C90009AE00C9452362091320A909117072132F3
:104CA00008F04AC08091F5068111FCCF32E03093C4
:104CB000F50631E03093F4063FEF3093F30610929F
:104CC000F2062093F106A7EFB6E041ED56E0FA01B7
:104CD0003E2F341B321718F43D913193F9CF1092C7
:104CE000D0062091D006990F922B9093D0069091E8
:104CF000CF06913061F41092CF069091D006909338
:104D0000BB009091BC0093FDF8CF95EC01C095EEEF
:104D10009093BC009091F5069230E1F39091F306E8
:104D20009F3F79F08091F306803241F08091F30645
:104D3000803331F084E005C081E003C082E001C02F
:104D400083E01092330A1092320A1092F606089508
:104D5000CF92DF92EF92FF92CF93DF93C2D66B0197
:104D60007C01C1E0D0E5BDD6DC01CB018C199D09E9
:104D7000AE09BF0985369105A105B10558F4C09368
:104D8000F606D09317071092330A1092320A83DF87
:104D90008111E9CFDF91CF91FF90EF90DF90CF901D
:104DA0000895EF92FF920F931F93CF93DF93D82F25
:104DB0007B01C42F81E08093F60680E5809317077E
:104DC0001092330A1092320A692F86E39AE00E9409
:104DD000D04E6D2F86E39AE00E94D04E8701D0E03E
:104DE000C8018E199F098C179D076CF4F801619119
:104DF0008F0186E39AE00E94D04E61E070E080E08F
:104E000090E037D6EDCF47DFC82F882359F06EE109
:104E100078E08AE499E0FCD34AE050E06C2F8AE421
:104E200099E0AFD295DF61E070E080E090E0DF9143
:104E3000CF911F910F91FF90EF901BC69091F506B7
:104E40009111FCCF613208F060E291E09093F50699
:104E50009093F4062FEF2093F3061092F206260F9C
:104E60002093F1069093D0069091D006880F892B5D
:104E70008093D0068091CF06813061F41092CF06E6
:104E80008091D0068093BB008091BC0083FDF8CF59
:104E900085EC01C085EE8093BC008091F5068130E1
:104EA000E1F38091F206861710F46091F206A1ED0D
:104EB000B6E02FEA36E0F9018E2F821B861718F430
:104EC0008D918193F9CF1092350A6093340A862F21
:104ED0000895CF92DF92EF92FF920F931F93CF939B
:104EE000DF93EC016B017A0133DF61E070E080E079
:104EF00090E0BFD581E08093F60680E580931707A8
:104F00001092330A1092320A6D2F86E39AE00E94C3
:104F1000D04E6C2F86E39AE00E94D04EBCDE082F64
:104F2000B70180E590E08ADF182FE6019091340AFE
:104F30008091350A981731F086E39AE00E948D4EF1
:104F40008993F4CF002359F063E178E08AE499E093
:104F50005FD34AE050E0602F8AE499E012D2812FBB
:104F600090E08E159F0569F066E078E08AE499E0AC
:104F7000DF91CF911F910F91FF90EF90DF90CF9035
:104F800047C3DF91CF911F910F91FF90EF90DF907A
:104F9000CF900895CF92DF92EF92FF920F931F93DD
:104FA000CF93DF936C017A018B01C0E0D0E0CE1586
:104FB000DF0589F0D8016D918D01D601ED91FC914D
:104FC0000190F081E02DC6011995892B11F47E0125
:104FD00002C02196ECCFC701DF91CF911F910F91B5
:104FE000FF90EF90DF90CF900895FC01918D828D1E
:104FF000981761F0828DDF01A80FB11D5D968C912D
:10500000928D9F5F9F73928F90E008958FEF9FEF37
:105010000895FC01918D828D981731F0828DE80FF3
:10502000F11D858D90E008958FEF9FEF0895FC01AD
:10503000918D228D892F90E0805C9F4F821B91097A
:105040008F73992708958AE499E0F1DF21E0892B95
:1050500009F420E0822F0895FC01848DDF01A80F60
:10506000B11DA35ABF4F2C91848D90E001968F7390
:105070009927848FA689B7892C93A089B1898C91AF
:1050800080648C93938D848D981306C00288F38975
:10509000E02D80818F7D80830895EF92FF920F93A2
:1050A0001F93CF93DF93EC0181E0888F9B8D8C8DD4
:1050B000981305C0E889F989808185FD23C0F62E03
:1050C0000B8D10E00F5F1F4F0F731127E02E8C8D9B
:1050D000E8120BC00FB607FCFACFE889F989808186
:1050E00085FFF5CFCE01B8DFF2CF8B8DFE01E80F43
:1050F000F11DE35AFF4FF0820B8FEA89FB89808113
:10510000806207C0EE89FF896083E889F989808120
:105110008064808381E090E0DF91CF911F910F91B7
:10512000FF90EF900895CF93DF93EC01888D882353
:10513000C1F0EA89FB89808185FD05C0A889B9890C
:105140008C9186FD0EC00FB607FCF5CF808185FFE0
:10515000F2CFA889B9898C9185FFEDCFCE017CDF94
:10516000E8CFDF91CF91089580E090E0892B19F08E
:105170006ADF811125C080E090E0892B41F080E05A
:1051800090E0892B21F00E94000081111CC080E07A
:1051900090E0892B41F080E090E0892B21F00E9483
:1051A0000000811113C080E090E0892BA1F080E025
:1051B00090E0892B81F00E94000081110AC00895BF
:1051C0000E940000D8CF0E940000E1CF0E940000A2
:1051D000EACF0C940000089590E0FC013197E23191
:1051E000F10508F04EC08827E658FF4F8F4F0C940A
:1051F0007291809180008F7703C0809180008F7DB5
:1052000080938000089580918000877FF9CF84B5D6
:105210008F7702C084B58F7D84BD08958091B000E2
:105220008F7703C08091B0008F7D8093B000089588
:10523000809190008F7707C0809190008F7D03C090
:1052400080919000877F8093900008958091A000C6
:105250008F7707C08091A0008F7D03C08091A00050
:10526000877F8093A0000895809120018F7707C0E9
:10527000809120018F7D03C080912001877F8093E2
:105280002001089508950E94B6946115710579F082
:10529000FB0101900020E9F73197AF01461B570B46
:1052A000DC01ED91FC910280F381E02D199480E006
:1052B00090E008954F925F926F927F92EF92FF92EB
:1052C0000F931F93CF93DF93CDB7DEB7A1970FB6A0
:1052D000F894DEBF0FBECDBF7C01FA01CB0119A24D
:1052E000223008F42AE08E010F5D1F4F422E512C10
:1052F000612C712CBF01A30192010E940C9CF90149
:10530000CA01015011096A3014F4605D01C0695C82
:10531000D8016C93232B242B252B61F7B801C701EF
:10532000B4DFA1960FB6F894DEBF0FBECDBFDF91FC
:10533000CF911F910F91FF90EF907F906F905F90B2
:105340004F9008952115310541F4DC01ED91FC9158
:105350000190F081E02D642F1994ACCF6CE974E0DA
:1053600094CF0F931F93CF93DF93EC018EDF8C01CB
:10537000CE01F4DF800F911FDF91CF911F910F912C
:1053800008959A01462F50E060E070E0DBCFDC0129
:10539000ED91FC910190F081E02D19944F925F9274
:1053A0006F927F928F929F92AF92BF92CF92DF9235
:1053B000EF92FF92CF93DF93EC016A017B01B22E53
:1053C0009A01AB01C701B6010E949D94882319F090
:1053D0006FE974E027C026013701E89477F82FEFD2
:1053E0003FEF4FE75FE7C301B2010E949D94811137
:1053F0000DC02FEF3FEF4FE75FE7C301B2010E94FF
:10540000DF9118161CF463EA74E00CC02FEF3FEF35
:105410004FE75FE4C701B6010E948493181694F425
:1054200067EA74E0CE01DF91CF91FF90EF90DF90BB
:10543000CF90BF90AF909F908F907F906F905F9034
:105440004F9023CF2FEF3FEF4FE75FECC701B6013F
:105450000E94DF9187FDE4CF20E030E0A901C70181
:10546000B6010E94DF9187FF09C06DE2CE018FDF98
:105470004C01F7FAF094F7F8F09402C0812C912CCB
:10548000A12C60E070E080E09FE3AB1441F020E0ED
:1054900030E040E251E40E94E391A394F6CF9B01F7
:1054A000AC01C701B6010E947B912B013C010E9417
:1054B00081926B017C010E94AD929B01AC01C30102
:1054C000B2010E947A912B013C012AE0B701A601AA
:1054D000CE01F0DE7C01E80CF91CBB2031F06BEA58
:1054E00074E0CE01D2DEE80EF91EDB2CDD2021F1C6
:1054F00020E030E040E251E4C301B2010E94F893A1
:105500002B013C010E9481924B01A12CB12C2AE07D
:10551000B501A401CE01CEDEE80EF91EC501B4012D
:105520000E94AD929B01AC01C301B2010E947A912D
:105530002B013C01DA94DACFC701DF91CF91FF90C4
:10554000EF90DF90CF90BF90AF909F908F907F9023
:105550006F905F904F9008950F931F93CF93DF93B9
:10556000EC011CDF8C01CE01F9DE800F911FDF9171
:10557000CF911F910F91089511CFCF92DF92EF92AB
:10558000FF920F931F93CF93DF93EC0141155105C9
:1055900071F4E881F9810190F081E02DDF91CF91E4
:1055A0001F910F91FF90EF90DF90CF9019946B01B6
:1055B000770FEE08FF084A305105E1F4F7FE18C0F6
:1055C0006DE2E5DE8C0144275527BA014C195D09CF
:1055D0006E097F092AE0CE016DDE800F911FDF91F9
:1055E000CF911F910F91FF90EF90DF90CF90089592
:1055F0002AE001C0242FB701A601CE01DF91CF918F
:105600001F910F91FF90EF90DF90CF9053CE3DCE42
:10561000EF92FF920F931F93CF93DF938C017B0147
:10562000C0E0D0E0F701EC0FFD1F6491662361F04C
:10563000D801ED91FC910190F081E02DC801199500
:10564000892B11F02196EECFCE01DF91CF911F91E2
:105650000F91FF90EF9008950F931F93CF93DF93D7
:10566000EC01D6DF8C01CE0179DE800F911FDF9136
:10567000CF911F910F9108951F920F920FB60F9225
:1056800011240BB60F922F933F934F935F936F9319
:105690007F938F939F93AF93BF93EF93FF938AE48E
:1056A00099E0DADCFF91EF91BF91AF919F918F91DB
:1056B0007F916F915F914F913F912F910F900BBE12
:1056C0000F900FBE0F901F9018951F920F920FB65C
:1056D0000F9211240BB60F922F938F939F93EF93FA
:1056E000FF93E0915A09F0915B098081E091600994
:1056F000F091610982FD12C09081809163098F5FF2
:105700008F7320916409821751F0E0916309F0E0F2
:10571000E65BF64F958F8093630901C08081FF910E
:10572000EF919F918F912F910F900BBE0F900FBE15
:105730000F901F901895CF93DF93282F30E0F90139
:10574000EE5AF54F8491F901E852F64FD491F901E0
:10575000EE56F64FC491CC2389F081113DDDEC2F3C
:10576000F0E0EE0FFF1FE858F64FA591B491EC91D1
:10577000ED2381E090E021F480E002C080E090E041
:10578000DF91CF9108951F93CF93DF93282F30E0BF
:10579000F901EE5AF54F8491F901E852F64FD49190
:1057A000F901EE56F64FC491CC23C1F0162F8111AA
:1057B00013DDEC2FF0E0EE0FFF1FE85CF54FA59135
:1057C000B4918FB7F894111105C09C91ED2FE0951D
:1057D000E92302C0EC91ED2BEC938FBFDF91CF91C9
:1057E0001F910895CF93DF9390E0FC01E852F64FAC
:1057F0002491FC01EE56F64F8491882361F190E0EC
:10580000880F991FFC01E25EF54FC591D491FC0110
:10581000E85CF54FA591B491611109C09FB7F89468
:105820008881209582238883EC912E230BC06230DF
:1058300061F49FB7F8943881822F80958323888301
:10584000EC912E2B2C939FBF06C08FB7F894E88164
:105850002E2B28838FBFDF91CF9108951F93CF9375
:10586000DF93182FEB0161E0BDDF209711F460E0BA
:1058700004C0CF3FD10531F461E0812FDF91CF919A
:105880001F9181CFE12FF0E0EE5AF54FE4914E2FBA
:1058900050E0FA013197E231F10508F09DC0882708
:1058A000E457FF4F8F4F0C94729184B5806884BD8C
:1058B000C7BD97C084B5806284BDC8BD92C08091C9
:1058C0008000806880938000D0938900C093880016
:1058D00088C080918000806280938000D0938B008C
:1058E000C0938A007EC08091800088608093800091
:1058F000D0938D00C0938C0074C08091B0008068FC
:105900008093B000C093B3006CC08091B0008062FF
:105910008093B000C093B40064C080919000806810
:1059200080939000D0939900C09398005AC08091C2
:105930009000806280939000D0939B00C0939A0067
:1059400050C080919000886080939000D0939D001B
:10595000C0939C0046C08091A00080688093A00006
:105960008091A0008F7B8093A000D093A900C0936A
:10597000A80037C08091A00080628093A000D093DF
:10598000AB00C093AA002DC08091A00088608093D6
:10599000A000D093AD00C093AC0023C08091200143
:1059A000806880932001D0932901C093280119C0F9
:1059B00080912001806280932001D0932B01C093BD
:1059C0002A010FC080912001886080932001D0932C
:1059D0002D01C0932C0105C0C038D1050CF04CCF6F
:1059E00046CFDF91CF911F910895863308F08653FB
:1059F00090917B00282F2870977F922B90937B00AB
:105A00008770806480937C0080917A0080648093AA
:105A10007A0080917A0086FDFCCF809178002091F9
:105A2000790090E0922B08953FB7F8948091A00AF6
:105A30009091A10AA091A20AB091A30A26B5A89BB1
:105A400005C02F3F19F00196A11DB11D3FBFBA2F10
:105A5000A92F982F8827820F911DA11DB11DBC0170
:105A6000CD0142E0660F771F881F991F4A95D1F735
:105A700008958F929F92AF92BF92CF92DF92EF9252
:105A8000FF926B017C01D0DF4B015C01C114D1049A
:105A9000E104F104E9F0C8DFDC01CB0188199909C0
:105AA000AA09BB09883E9340A105B10578F321E01E
:105AB000C21AD108E108F10888EE880E83E0981E2A
:105AC000A11CB11CC114D104E104F10421F7DECF03
:105AD000FF90EF90DF90CF90BF90AF909F908F900E
